:100000002EC248C261C246C245C244C243C242C2B5
:1000100041C240C23FC23EC23DC23CC23BC20902D5
:100020005400030100A03209040000010301010093
:100030000921110100012223000705810308000A9C
:10004000090401000103010200092111010001223C
:1000500084000705820308000A0904020001030066
:100060000000092111010001221500070503030802
:10007000000A120110010000000850D802D001004F
:10008000010200011203740069006E0079005F0034
:100090006B00650079000A037A00690061006E0058
:1000A000040309040631FF0974A10109751500262E
:1000B000FF00950875089102C005010902A101859C
:1000C000010901A10005091901290515002501757E
:1000D0000195058102750395018103050109300928
:1000E000311581257F75089502810609381581250E
:1000F0007F35004500750895018106050C0A380218
:100100001581257F750895018106C0C0050109800C
:10011000A1018502150126B700190129B7751095AF
:10012000018100C0050C0901A10185031501269C70
:100130000219012A9C02751095018100C005010970
:1001400006A101050719E029E715002501750195AC
:10015000088102950275082565190029658100C08E
:1001600000000204060A0E12171B20252A2E323622
:10017000383A3C3C3C3D3E404245484C4F53575B2F
:100180005F63666A6D6F727475767676767676766C
:1001900076767777777777777777787878787878EB
:1001A0007878787879797A7B7C7D7E7F8182848586
:1001B00087888A8C8E8F9193949697999A9B9D9E0F
:1001C0009E9FA0A0A1A1A1A1A2A3A5A7AAADB0B4E2
:1001D000B8BCC0C4C8CCD0D4D7DBDDE0E2E3E4E5F2
:1001E000E5E4E2DFDBD6D0C9C2BBB3AAA29991880D
:1001F0008179726C67625F5C5B5A5A595755524FEE
:100200004C48433F3A35302B26211D1814110E0C53
:100210000A0908080809090A0B0C0D0E0F1112141F
:10022000151718191B1C1D1E1F1F20202020202001
:100230001F1F1E1E1D1D1C1B1B1A19181817161612
:1002400015151514141414141413131211100F0E81
:100250000D0C0A0908070604030302010100003916
:10026000393837363432302E2B29262422201E1DD1
:100270001C1B1B1B1B1A191817151412100F0D0B22
:10028000090706040302010100000000000000004D
:10029000000000000000000000000000000000005E
:1002A0000000010102040507080A0D0F1214171AB5
:1002B0001D202326292C2F3234373A3C3E4042431E
:1002C000454647474848484A4C4F53585D63697014
:1002D000777E868D949BA2A8AEB3B7BBBDBFC0C0CE
:1002E000C0C0BFBFBEBEBDBCBCBBBAB9B8B8B7B654
:1002F000B5B4B4B3B3B2B2B2B2B2B2B2B2B3B3B3D2
:10030000B4B4B5B5B6B6B7B7B8B8B8B9B9B9BABA7A
:10031000BABABABABBBCBEC0C2C4C7CACDD0D3D6A3
:10032000D9DCDFE2E4E6E8EAEBECEDEDEDECEAE85F
:10033000E6E3DFDCD7D3CECAC5C0BBB7B2AEABA84D
:10034000A5A3A1A09F9F9E9D9A9794908B86807A4B
:10035000746E67615B55504B46423F3C3B39F3F34B
:10036000F3F3F2F2F1F1F0F0EFEFEEEEEDEDECEC95
:10037000ECECECECEBEAE9E8E7E5E3E2E0DEDCDB21
:10038000D9D8D6D5D4D3D3D2D2D2D0CECAC6C1BB77
:10039000B5AEA79F98918A837D77726E6B68676709
:1003A00067666665646361605E5C5A575552504D7E
:1003B0004B484543403D3B38363432302E2C2B2AB7
:1003C0002928272727272626252422201E1C1A18FD
:1003D0001613110F0D0B090705040302010101019A
:1003E00001020203040405060708090A0B0C0D0E9E
:1003F0000F1010111112121212131416181A1D20B8
:1004000023262A2E3135393C404346484A4C4E4E2D
:100410004F4F5052555A5F646B727A828B939CA5F2
:10042000ADB5BCC3CACFD4D7DADBDCDCDCDDDEDEC5
:10043000E0E1E2E3E5E7E8EAECEDEFF0F2F3F4F512
:10044000F6F6F7F7F7F7F7F7F7F7F6F6F6F6F6F545
:10045000F5F5F5F4F4F4F4F4F3F3F3F3F300112405
:100460001FBECFE5D2E0DEBFCDBF10E0A0E6B0E01A
:10047000ECEAF7E102C005900D92AA36B107D9F770
:1004800020E0AAE6B0E001C01D92A73FB207E1F765
:100490009DD28AC9B5CDA82FB92F80E090E041E068
:1004A00050EA609530E009C02D9182279795879595
:1004B00010F084279527305EC8F36F5FA8F3089586
:1004C000EADF8D939D930895CF93CFB7CF93C395D4
:1004D000B39BE9F7B39B0BC0B39B09C0B39B07C0A9
:1004E000B39B05C0B39B03C0B39B01C0D8C00F92A0
:1004F000DF93C091CE00DD27CB52DF4F012EB39B9F
:1005000003C0DF910F90E6CF2F930F931F934F936C
:100510002FEF4F6F06B303FB20F95F933F9350E03B
:100520003BE065C016B30126502953FDC89556B36C
:10053000012703FB25F92F7306B3B1F050271027CD
:1005400013FB26F906B22230F0F000C016B30127E3
:1005500003FB27F90126502906B22430E8F54F772E
:10056000206816B30000F6CF50274F7D206206B2F8
:10057000102F000000C006B300265029102713FBDF
:1005800026F906B2E2CF4F7B06B3206400C0DACF73
:1005900001265029187106B269F14E7F2160012FA2
:1005A00016B328C0002650294D7F06B22260102FB6
:1005B00029C0012650294B7F06B22460012F2DC08F
:1005C00016B301265029477F2860000006B22EC0CE
:1005D0004F7E06B3206130C0422706B34993002600
:1005E0005029102706B24FEF13FB20F9297F16B3CD
:1005F00079F2187159F10126502906B2012703FB3F
:1006000021F9237F06B371F2002650293150D0F032
:1006100006B2102713FB22F9277E16B351F20126EA
:100620005029012703FB06B223F92F7C49F2000071
:1006300006B3102713FB24F90026502906B22F79A0
:1006400039F270CF10E21ABF00271CC03B50319521
:10065000C31BD04010E21ABF0881033C21F10B34C8
:1006600011F12091CC001981110F1213EDCF4A81A5
:10067000441F093669F10D3211F0013E29F74F7020
:1006800009F0042F0093D3003F915F914F911F9188
:100690000F912F91DF910F90CAB7C5FD18CFCF9161
:1006A000CFBFCF9118952091D300222369F31091E9
:1006B000D1001123D1F53430D2F13093D100209301
:1006C000CD001091CE003BE0311B3093CE002FC007
:1006D0000091D10001304CF50AE54F7049F430919A
:1006E000680034FD25C000936800C5EBD0E024C04D
:1006F000423049F03091C00034FD1AC00093C00070
:10070000C1ECD0E019C03091EB0034FD11C0009372
:10071000EB00CCEED0E010C0052710E000C021C0F7
:10072000052710E0C89508BB14C03AE501C032EDBA
:10073000032EC0E0D0E032E017B31861C39A08B3CB
:1007400017BB58E120E84FEF20FF052708BB27958E
:1007500017951C3F28F700004552B0F720FF0527EA
:10076000279508BB17951C3FB8F629913A9561F774
:10077000077E1091D200110F08BBC250D04011F07B
:100780001093CC0010E21ABF086017B3177E402FF9
:10079000477E54E05A95F1F708BB17BB48BB74CFAE
:1007A0009F92AF92BF92CF92DF92EF92FF920F9300
:1007B0001F93CF93DF93982E85E6C82E80E0D82E26
:1007C00091E7E92E90E0F92E03E610E05B0182E06C
:1007D000A80EB11CEB01E1E09E1609F19E1618F17E
:1007E000F2E09F16C1F021968FEFC81AD80AEFEFFA
:1007F000EE1AFE0A0F5F1F4FAC16BD0661F7DF91C0
:10080000CF911F910F91FF90EF90DF90CF90BF900D
:10081000AF909F900895CE0199D7F60107C0CE0101
:1008200095D7F70103C0CE0191D7F8018083DBCFC4
:10083000CF92DF92EF92FF920F931F93CF93DF93AC
:1008400080E090E08BD76C0182E090E087D77C015C
:1008500084E090E083D78C0186E090E07FD7EC01C4
:1008600088E090E07BD72AE0C216D104C1F5EBE026
:10087000EE16F104A1F50D30110589F52F9779F5E4
:10088000419769F58AE090E061D7809362008BE040
:1008900090E05CD7809360008CE090E057D7809325
:1008A00061006DE070E080E07BDF6FE070E081E090
:1008B00077DF61E170E082E073DF0FE710E0C3E112
:1008C000D0E0CE0143D7F80181938F012196C93141
:1008D000D105B9F789E190E039D78093A600DF917F
:1008E000CF911F910F91FF90EF90DF90CF900895DF
:1008F000CF93DF93683009F05AC0DC013C9120911E
:100900008C003F3FB1F411963C91313F41F42130CE
:1009100009F04DC010928C00DF91CF9100C1323FA1
:1009200041F4211144C082E080938C00DF91CF918B
:1009300003C121113CC028E0E7E7F0E0DF011D9290
:100940002A95E9F7FC01A7E7B0E081918D9320E0BB
:10095000AF37B207D1F7C0917700D0917800CE3F82
:1009600081E0D80740F4E199FECF60917900709161
:100970007A00CE01F8D6CE0102968E3FA1E09A070A
:1009800038F4E199FECF60917B0070917C00EBD64A
:10099000CE0104968E3FB1E09B0748F4E199FECF6B
:1009A00060917D0070917E00DF91CF91DCC6DF9178
:1009B000CF91089546B321E030E0B90102C0660F3F
:1009C000771F8A95E2F7CB018423089596C1909111
:1009D000A40080916E00892780936E0093FF04C06D
:1009E0008FE190E050D412C094FF02C084E00DC0AB
:1009F00095FF02C08BE109C0892F807496FF02C069
:100A000086E003C097FF03C089E12ED381E00895FB
:100A100045D680E090E19093A8008093A70040D64F
:100A200053D69091A600907F80916E00903111F482
:100A3000826001C08D7F80936E000895EF92FF92D7
:100A40000F931F93CF93DF938091A7009091A800FD
:100A5000811520E1920708F451C080916E0081FF5A
:100A60003CC0CAE6D0E08FE7E82E80E0F82E00E038
:100A700010E08091A6008F708130E9F4888199811F
:100A80008F3F910510F01982188228813981F90170
:100A9000E25AFC4F6491F901E15AFD4F4491F9018A
:100AA000E05AFE4F2491C80104D6888199810196AD
:100AB0009983888308C0811106C0F7012281418192
:100AC0006081C801F6D50F5F1F4F2296F3E0EF0E4D
:100AD000F11C0230110569F601C0E2D58091A70032
:100AE0009091A80001979093A8008093A700DF91B0
:100AF000CF911F910F91FF90EF90E6C5009711F0F5
:100B0000019702C080E090E19093A8008093A70035
:100B1000DF91CF911F910F91FF90EF9008952FEFEC
:100B200040E060E080E090E0C4D52FEF40E060E07E
:100B300081E090E0BED5C8C5B3D5C6C5B89888B326
:100B4000836088BB0895CF93DF9380EF8093B200DA
:100B50001092AB00C0E9DFE0E091AB00E23018F5A5
:100B6000F0E0E05AFF4F808125DF9091AB00E92F44
:100B7000F0E0EB59FF4F882321F080818777808355
:100B800005C0808188688083C0937000E92FF0E001
:100B9000EB59FF4F80818E3E11F4D093B2009F5FDE
:100BA0009093AB00D9CF32D1C9D11092A500109249
:100BB000AB008091AB00823008F06AC090E0FC018D
:100BC000EB59FF4F30812091B20023232F30F1F1F8
:100BD000B8F42B3009F448C048F4293071F12A30B8
:100BE00009F050C0FC01EF58FF4F2DC02C3009F424
:100BF00041C02D3009F046C0FC01EF58FF4F40C006
:100C0000203B51F140F4203981F0203AD9F5FC0124
:100C1000ED59FF4F18C0203D19F1203F51F0203C05
:100C200089F5FC01ED59FF4F28C0FC01ED59FF4F3C
:100C300007C0FC01ED59FF4F0CC0FC01EF58FF4FFE
:100C40008081ABD01FC08081E7D01CC0FC01EF5871
:100C5000FF4F8081EAD116C0FC01ED59FF4F07C05C
:100C6000FC01ED59FF4F0CC0FC01EF58FF4F808194
:100C70006DD108C0FC01EF58FF4F80816DD102C0DB
:100C8000808170D18091AB008F5F8093AB0091CF5A
:100C9000DFD1882319F080E480936F005BD0882334
:100CA00019F080E480936F0019D1882319F080E453
:100CB00080936F0080917000803939F480916F00CB
:100CC000813019F484DE82D0D7D0809170008130D9
:100CD00019F47DDE7BD0D0D080916F00882319F08D
:100CE000815080936F0080917000882319F08150AB
:100CF00080937000DF91CF91089542D11FDFC1E052
:100D0000C0938C0083D01AD11092A5001092A40039
:100D10008FDD2FE48DE299E1215080409040E1F792
:100D200000C0000075DE52D05DD380918C0082300F
:100D300039F38130C9F707DF8091D4008823A1F30C
:100D40008091C00084FFF0CF80916F008111ECCFC3
:100D500075DEEACF8091880090918500981721F088
:100D60008093850081E001C080E09091890020910E
:100D70008600291719F09093860081E090918A00EF
:100D800020918700291719F09093870002C08823CB
:100D900019F081E080938D000895209189008217D9
:100DA00089F090918A00891769F0222329F0911126
:100DB0000BC021E030E002C020E030E0F901E8574C
:100DC000FF4F818381E0089580E0089580918D0038
:100DD000811102C080E00895109275008091750025
:100DE0008F5F809375008233A8F7FCD28091C0009A
:100DF00084FFF4CF80918D00882331F063E085E893
:100E000090E0EAD210928D0081E00895E8E8F0E0E9
:100E10001182128210820895E8E8F0E09081892B17
:100E20008083089583E0E5E8F0E0DF011D928A9574
:100E3000E9F7E8E8F0E086E0DF011D928A95E9F73E
:100E400081E084830895CF93DF93EEE8F0E08CE0B7
:100E5000DF011D928A95E9F78AE0AAE9B0E0ED0189
:100E600019928A95E9F781E0808382E0868383E0A6
:100E70008187DF91CF910895CF938091A300811155
:100E800002C0C0E028C010927400809174008F5F8F
:100E9000809374008233A8F7A5D28091EB0084FF81
:100EA000F4CFC091A300C13039F466E08EE890E041
:100EB00096D21092A3000FC0C23021F463E084E9FF
:100EC00090E005C0C33031F463E087E990E087D259
:100ED0001092A300C1E08C2FCF91089580919A00C9
:100EE00090918F00981721F080938F0081E001C0CE
:100EF00080E020919F003091A0004091950050919A
:100F000096004217530729F03093960020939500DE
:100F100082E02091A1003091A20040919800509170
:100F200099004217530731F03093990020939800AD
:100F300083E001C081118093A3000895EAE9F0E005
:100F4000108216821582108617820895EAE9F0E071
:100F50009081892B8083089590E09093A0008093E6
:100F60009F00089590E09093A2008093A1000895BF
:100F700088E0E7E7F0E0DF011D928A95E9F7089540
:100F80007CD3BB9A2FE28BE19FE0215080409040C0
:100F9000E1F700C00000BB98789444DF54DFE8CF4D
:100FA000FC019093B4008093B300808180768032FE
:100FB00061F58181813041F485E890E09093D00023
:100FC0008093CF0083E00895823041F483E790E07E
:100FD0009093D0008093CF0081E008958A3021F46F
:100FE00083818093730011C0893079F48281938169
:100FF0008115924061F484819581892B41F480911F
:101000008B00806880938B0002C080E008958FEF92
:10101000089520918B0027FF06C0FC0180818093FA
:101020008B0081E008958FEF0895CF93C82F84300F
:1010300041F480918500882311F085E301C089E2A5
:10104000ACDE8091A500C82BC093A500CF91089578
:101050008091A5009091A400981721F08093A4009E
:1010600081E0089580E00895CF93C82FBBD180918F
:10107000D4008823D9F38091C00084FFF7CF81E0AA
:1010800080938500109286001092870063E085E8C7
:1010900090E0A2D1A7D1A6D18091D4008823D9F322
:1010A0008091C00084FFF7CF81E080938500C093DA
:1010B00086001092870063E085E890E08DD192D1A0
:1010C00091D18091D4008823D9F38091C00084FF0E
:1010D000F7CF10928500109286001092870063E08F
:1010E00085E890E079D1CF917DC10F931F93CF9385
:1010F000DF938C0177D18091D4008823D9F380913C
:10110000C00084FFF7CF80E48093850010928600B2
:1011100063E085E890E060D165D1E80115E002E682
:1011200061D18091D4008823D9F38091C00084FFDD
:10113000F7CF009386008991882319F0885A80930D
:10114000860063E085E890E047D14CD14BD1809197
:10115000D4008823D9F38091C00084FFF7CF109288
:10116000860063E085E890E037D13CD11150C1F6AC
:1011700039D18091D4008823D9F38091C00084FFB5
:10118000F7CF109285001092860063E085E890E02A
:1011900023D1DF91CF911F910F9124C1CF93C82FFD
:1011A000882369F11FD18091D4008823D9F38091DD
:1011B000C00084FFF7CF8C2F881F8827881F829557
:1011C000880F807E80938500CF77C093860063E090
:1011D00085E890E001D106D105D18091D400882323
:1011E000D9F38091C00084FFF7CF10928500109250
:1011F000860063E085E890E0EFD0CF91F3C0CF9117
:101200000895CF93DF9300D000D01F92CDB7DEB703
:101210001092850026E0E6E8F0E0DF011D922A95B5
:10122000E9F7911102C0BADF26C0382F292FEAE072
:10123000F0E0BF0177D28D83CB01BF0173D28C83E5
:10124000832F922F64E670E06DD2CB01BF016AD28A
:101250008B83832F922F68EE73E064D2CB01BF01A2
:1012600061D28A83832F922F60E177E25BD2698318
:10127000CE0101963ADF0F900F900F900F900F90D4
:10128000DF91CF910895EF92FF920F931F93CF9329
:10129000DF93EC0110928C0061D27C01229600E079
:1012A00010E00E151F05A9F0CF3F81E0D80788F4A4
:1012B0008091D400882359F08091C00084FF07C03A
:1012C000CE014CD29EDF0F5F1F4F2296EACF8AD00D
:1012D000EFCF81E080938C00DF91CF911F910F9130
:1012E000FF90EF9008951F93CF93DF93FA01209121
:1012F000C0002E31D1F0208124FF05C0318128E8C3
:101300002327218302C02AE52083DC019F012E5F71
:101310003F4FE901962F8D9189939150E1F7EF01AD
:10132000162FC901CDD81C5F1883DF91CF911F9173
:101330000895FC019381923089F058F4913009F0BE
:1013400049C082E790E09093D0008093CF0082E183
:101350000895913259F09232E9F03CC08EE190E06C
:101360009093D0008093CF0084E5089582818130EE
:1013700049F028F0823071F582E690E005C080E304
:1013800090E002C089E490E09093D0008093CF0079
:1013900089E00895848195818130910599F050F01C
:1013A0000297C1F484EA90E09093D0008093CF003C
:1013B00085E108958DE391E09093D0008093CF0074
:1013C00083E2089589EB90E09093D0008093CF0062
:1013D00084E8089580E0089540EC50E084CF4BEE1F
:1013E00050E081CFCF93DF936091D100635067FDD0
:1013F000E9C08091CE00CCE0D0E0C81BD109CB522F
:10140000DF4F8091CD00803118F4CE0171DAD8C061
:101410008D3209F0C6C0683009F0D2C083EC8093E9
:10142000B5008AE580936800109276002881822FAB
:10143000807619F0CE01B4DDA1C09A813C81109272
:10144000BE008981811113C02F71223051F43138CF
:1014500041F49091C00081E09E3109F080E08093DA
:10146000BE001092BF002EEB30E082E082C0282F39
:101470002D7F213091F4911179C0313809F076C077
:10148000813011F08EE101C08AE58093C0008BE4C9
:101490008093C1008093EC0069C0853019F490936B
:1014A000D20064C0863009F044C08B81813019F4C9
:1014B00082E790E024C0823041F48EE190E0909386
:1014C000D0008093CF0084E530C08330F1F49111D7
:1014D00008C080EA90E09093D0008093CF0084E031
:1014E00024C0913041F486E990E09093D00080933D
:1014F000CF008AE01AC09230B9F484E890E090936B
:10150000D0008093CF0082E110C0813241F480E3AB
:1015100090E09093D0008093CF0089E006C08232A3
:1015200019F4CE0106DF01C080E090E490937600CC
:1015300025C08830A1F0893019F49093D40009C0F7
:101540008A3081F08B3091F48BE48093C1008093DA
:10155000EC008AE58093C0008093EB0007C024ED87
:1015600030E002C02EEB30E081E003C02EEB30E033
:1015700080E03093D0002093CF0009C08F3F39F432
:10158000988197FD8E8190E89093760007C09F81A7
:10159000911104C09E81981708F4892F80936700E9
:1015A0000FC08091760087FF0BC0CE0132DD8F3FE8
:1015B00021F48EE18093680003C0811110926700CE
:1015C0001092D1008091680084FF45C0809167002F
:1015D0008F3F09F440C0C82F893008F0C8E08C1B49
:1015E000809367009091B50088E889278093B500C3
:1015F000CC2329F18091CF009091D00020917600EA
:1016000026FF0AC0A6EBB0E0FC012C2F34913D93DD
:1016100031962150D9F708C0DC01E6EBF0E02C2F21
:101620003D9131932150E1F72FEF2C0F30E02F5FE8
:101630003F4F820F931F9093D0008093CF006C2F69
:1016400086EB90E03DD7CC5FCC3019F08FEF8093E4
:101650006700C093680084E196B3987159F4815093
:10166000D9F71092D2001092CC008AE58093C00086
:101670008093EB00DF91CF910895AC9A8BB7806295
:101680008BBFA0ECB0E08BE411968C931197EBEE3E
:10169000F0E081838AE58C9380830895BA9A089557
:1016A000ECEAF0E010821182128213821482158219
:1016B0000895362F63E070E024D0FC01E455FF4F1D
:1016C0004083318322830895F89498B39B7F88B335
:1016D0008460ECEAF0E0219138E088BB000000C0B3
:1016E00027FF98BB220F00C000C000C000C098BBFD
:1016F00000C03A9591F720E0E23BF20761F7789459
:1017000008950024552704C0080E591F880F991FFB
:10171000009729F076956795B8F37105B9F7802D94
:10172000952F0895AA1BBB1B51E107C0AA1FBB1F21
:10173000A617B70710F0A61BB70B881F991F5A955D
:10174000A9F780959095BC01CD010895E199FECF50
:101750009FBB8EBBE09A99278DB30895A8E1B0E0B6
:1017600042E050E005C012D0272F11C0DC01CB01B0
:10177000FC01E199FECF06C0FFBBEEBBE09A3196BB
:101780000DB20D9241505040B8F70895262FE199BF
:10179000FECF1CBA9FBB8EBB2DBB0FB6F894E29A4E
:0C17A000E19A0FBE01960895F894FFCF67
:0A17AC000001FF1D1B1010FF5A0082
:00000001FF
