:100000000C9468040C9485040C9485040C94850469
:100010000C9485040C9485040C9485040C9485043C
:100020000C9485040C9485040C9479100C94A21102
:100030000C9485040C9485040C9485040C9485041C
:100040000C9485040C9485040C9485040C9485040C
:100050000C9485040C9485040C9485040C948504FC
:100060000C9485040C9485040C9485040C948504EC
:100070000C9485040C9485040C9485040C948504DC
:100080000C9485040C9485040C9485040C948504CC
:100090000C9485040C9485040C9485040C948504BC
:1000A0000C9485040C9485040C94850467097709E5
:1000B00053097F095D096F094909830962097309B9
:1000C0004E097B0958096B0944093F092B09350979
:1000D00021093A09260930091C0917091309160ACA
:1000E000260A020A2E0A0C0A1E0AF809320A110A06
:1000F000220AFD092A0A070A1A0AF309EE09DA098F
:10010000E409D009E909D509DF09CB09C609C20903
:10011000B80AB50AB20AAF0AAC0AA90AA60AA30A23
:10012000A00A9D0A9A0A970A940A910A8E0A8B0AD3
:10013000880A850A820A7F0A7C0A790A760A730A83
:10014000BB0A01C10601C10601C10601C0060000CB
:100150001C037A00690061006E005F006B0065009F
:10016000790062006F006100720064000C037A0085
:10017000690061006E0031000403090409025B009C
:10018000030100A03209040000010301010009215C
:100190001101000122400007058103080001090444
:1001A0000100010301020009211101000122840064
:1001B0000705820308000109040200020300000091
:1001C0000921110100012222000705830308000113
:1001D000070504030800010631FF0974A101097530
:1001E000150026FF0095087508810209761500267E
:1001F000FF00950875089102C005010902A101855B
:10020000010901A10005091901290515002501753C
:1002100001950581027503950181030501093009E6
:10022000311581257F7508950281060938158125CC
:100230007F35004500750895018106050C0A3802D6
:100240001581257F750895018106C0C005010980CB
:10025000A1018502150126B700190129B77510956E
:10026000018100C0050C0901A10185031501269C2F
:100270000219012A9C02751095018100C00501092F
:1002800006A10175019508050719E029E715002564
:10029000018102950175088103950575010508190D
:1002A00001290591029501750391039506750815BD
:1002B0000026FF000507190029FF8100C012010078
:1002C0000200000008C432600100020102000100C7
:1002D000000001010102030404050708090A0C0DCE
:1002E0000F1112141617191B1D1F2122242628294D
:1002F0002B2D2E3031333435363738393A3A3B3BB3
:100300003C3C3C3C3C3C3D3D3E3E3F404142434406
:100310004647494A4C4D4F5152545658595B5D5FC0
:100320006062646567696A6B6D6E6F707172737419
:100330007475757676767676767676767676767661
:100340007676767676767677777777777777777744
:100350007777777777777777787878787878787825
:100360007878787878787878787878787879797A09
:100370007A7B7B7C7D7E7F7F808283848586878974
:100380008A8B8C8E8F9091929495969798999A9B40
:100390009C9D9D9E9F9FA0A0A0A1A1A1A1A1A1A263
:1003A000A2A3A3A4A5A6A7A9AAACADAFB0B2B4B6A8
:1003B000B8BABCBEC0C2C4C6C8CACCCED0D2D4D6CD
:1003C000D8D9DBDCDEDFE0E1E2E3E3E4E4E5E5E528
:1003D000E5E4E4E3E2E0DFDDDBD8D6D3D0CDCAC686
:1003E000C2BFBBB7B3AFABA6A29E9A95918D8985CC
:1003F000817D7A7673706D6A676563615F5E5C5B51
:100400005B5A5A5A5A595958575655545351504E87
:100410004C4A484644423F3D3A383633302E2B2929
:100420002724221F1D1B1917151312100F0D0C0B5B
:100430000A090908080808080808080909090A0A31
:100440000A0B0B0C0D0D0E0E0F10101112131314BE
:10045000151516171818191A1A1B1B1C1D1D1E1E00
:100460001E1F1F1F20202020202020202020202091
:100470001F1F1F1F1F1E1E1E1E1D1D1D1C1C1C1BA3
:100480001B1A1A1A191919181818171717161616E9
:100490001615151515151414141414141414141415
:1004A0001413131313121212111110100F0F0E0E3A
:1004B0000D0D0C0B0B0A0A090808070706060504B0
:1004C00004030303020201010101000000000039DE
:1004D00039393939383838373736363534343332B4
:1004E0003231302F2E2D2C2B2B2A2928272625245C
:1004F0002323222120201F1E1E1D1D1C1C1C1B1B14
:100500001B1B1B1B1B1B1B1A1A1A1919191818174E
:10051000161615141413121111100F0E0D0D0C0BCD
:100520000A0908080706060504040303020201017C
:1005300001000000000000000000000000000000BA
:1005400000000000000000000000000000000000AB
:10055000000000000000000000000000000000009B
:100560000000000000000000000000000101020384
:1005700004050607080A0B0D0F11131517191B1D8B
:100580001F212426282A2C2E31333537383A3C3D7A
:100590003F40424344454646474748484848494902
:1005A0004A4B4C4E4F515356585B5D6063666A6DC3
:1005B0007074787B7F83868A8E9195989C9FA2A584
:1005C000A8ABAEB0B3B5B7B9BBBCBDBEBFC0C0C0B1
:1005D000C0C0C0C0C0C0BFBFBFBFBEBEBEBEBDBD2D
:1005E000BDBCBCBBBBBBBABAB9B9B8B8B8B7B7B673
:1005F000B6B6B5B5B4B4B4B4B3B3B3B3B3B2B2B2C0
:10060000B2B2B2B2B2B2B2B2B2B2B2B3B3B3B3B3C5
:10061000B3B4B4B4B4B4B5B5B5B5B6B6B6B6B7B789
:10062000B7B7B7B8B8B8B8B9B9B9B9B9B9B9BABA42
:10063000BABABABABABABABABABBBBBBBCBDBDBE0B
:10064000BFC0C1C2C4C5C6C7C9CACCCDCFD0D2D421
:10065000D5D7D8DADBDDDEE0E1E2E3E5E6E7E8E99D
:10066000EAEAEBECECECEDEDEDEDEDEDECECEBEACC
:10067000E9E8E7E5E4E2E1DFDDDBD9D7D4D2D0CEAB
:10068000CBC9C6C4C2BFBDBBB8B6B4B2B0AEACAACB
:10069000A9A7A6A5A3A2A1A1A0A09F9F9F9F9F9E3F
:1006A0009D9C9B9A99979593918F8D8A888582803E
:1006B0007D7A7773706D6A6764615E5B58555250DE
:1006C0004D4B48464442413F3E3C3B3B3A3939F36F
:1006D000F3F3F3F3F3F3F3F3F2F2F2F2F2F2F2F1F3
:1006E000F1F1F1F1F0F0F0F0F0EFEFEFEFEFEEEE0F
:1006F000EEEEEEEDEDEDEDEDEDEDECECECECECEC2D
:10070000ECECECECECECECEBEBEBEBEAEAE9E9E83B
:10071000E8E7E6E6E5E4E4E3E2E1E0E0DFDEDDDCB5
:10072000DCDBDAD9D9D8D7D7D6D6D5D5D4D4D3D35C
:10073000D3D2D2D2D2D2D2D2D1D1D0CFCECCCBC9B9
:10074000C7C5C3C0BEBBB9B6B3B0ADA9A6A3A09C74
:10075000999693908C898683807E7B79767472706B
:100760006E6D6B6A69686867676767676666656507
:10077000646362615F5E5D5B5A58565553514F4DDD
:100780004B4947454342403E3C3A38373533323097
:100790002F2E2D2C2B2A29282827272727272727C4
:1007A00026262625252423232221201F1E1D1C1B2F
:1007B0001A1918171614131211100F0E0D0B0A091F
:1007C00008080706050404030302020201010101EF
:1007D00001010101010202020203030304040405F2
:1007E0000506060707080809090A0A0B0B0C0C0D79
:1007F0000D0E0E0F0F0F10101011111111121212F9
:1008000012121212121213131415151617181A1B9E
:100810001C1E1F2122242628292B2D2F313335364B
:10082000383A3C3E3F414244454748494A4B4C4D8B
:100830004D4E4E4F4F4F4F4F505152535557595B9E
:100840005D606366696D7174787C8084898D919632
:100850009A9EA2A7ABAFB3B7BABEC2C5C8CBCED023
:10086000D2D4D6D8D9DADBDCDCDCDCDCDCDCDDDDE8
:10087000DDDEDEDFDFE0E0E1E2E2E3E4E4E5E6E75F
:10088000E8E9E9EAEBECEDEDEEEFF0F0F1F2F2F38E
:10089000F4F4F5F5F5F6F6F6F7F7F7F7F7F7F7F7F7
:1008A000F7F7F7F7F7F7F7F7F6F6F6F6F6F6F6F6E0
:1008B000F6F6F5F5F5F5F5F5F5F5F4F4F4F4F4F4EC
:1008C000F4F4F4F4F3F3F3F3F3F3F3F3F3F3F300E7
:1008D00011241FBECFEFDAE0DEBFCDBF11E0A0E0F4
:1008E000B1E0ECE1FAE202C005900D92AE3FB10733
:1008F000D9F722E0AEEFB1E001C01D92A63AB207EF
:10090000E1F70E94A40C0C940C150C94000080914B
:10091000240290910C029817D1F180930C0281E08F
:100920009091250220910E02291719F090930E0242
:1009300081E09091260220910F02291719F09093DF
:100940000F0281E09091270220911002291719F0DF
:100950009093100281E090912802209111022917B2
:1009600019F09093110281E09091290220911202D6
:10097000291779F09093120290912A028091130224
:1009800098139093130281E080933002089580E0E1
:10099000C7CF90912A02209113022913F2CF81111F
:1009A000F2CF089580913002811102C081E0089554
:1009B0001092300222E348E06CE072E081E00C9497
:1009C00044108091620290915702981729F1809308
:1009D000570281E0209167023091680240915D02E8
:1009E00050915E0242175307C9F030935E02209384
:1009F0005D022091690230916A02809160029091BB
:100A0000610282179307C9F030936102209360025C
:100A100083E080936C02089580E0DCCF209169022E
:100A200030916A024091600250916102421753076F
:100A300059F7882381F381E0ECCF82E0EACFCF93AE
:100A4000DF9380916C02837080936C02811104C0EB
:100A500081E0DF91CF9108950E9441108823C1F376
:100A60008FB7F894C091E400CE5C92E09093E900D7
:100A70009091E80095FD14C0D2E00CC08091E40094
:100A8000C81731F38FB7F894D093E9009091E8003C
:100A900095FD06C08FBF0E9441108111EFCFD8CFC6
:100AA00090916C02923099F1933011F19130D1F420
:100AB00010926C02909156029093F100909157021F
:100AC0009093F100909158029093F1009091590207
:100AD0009093F10090915A029093F10090915B02F3
:100AE0009093F1009AE39093E8008FBF80E0B1CF3C
:100AF00010926C0290915F029093F10090916002CD
:100B00009093F100909161029093F100EBCF1092DD
:100B10006C0290915C029093F10090915D02909331
:100B2000F10090915E029093F100DCCF809162021F
:100B300081112FC08091670290916802892B49F53D
:100B40008091690290916A02892B19F580912502A2
:100B500081111FC08091260281111BC08091270244
:100B6000811117C080912802811113C08091290240
:100B700081110FC080912A0281110BC08091240243
:100B8000811107C081E090917902911103C080E04A
:100B9000089581E00895CF93DF938CE0EDE6F2E0D5
:100BA000DF01C82F1D92CA95E9F7E6E5F2E0DF0103
:100BB0001D928A95E9F7A2E6B2E08BE0ED01199269
:100BC0008A95E9F781E0808392E0968393E09187AC
:100BD00019968C93DF91CF91089588E0ECE1F2E0D3
:100BE000DF01982F1D929A95E9F7ECE0F2E0DF0122
:100BF0001D928A95E9F7E4E2F2E08DE0DF011D92B3
:100C00008A95E9F781E0808783878DE7818708955A
:100C100088E0E4E1F2E0DF01982F1D929A95E9F770
:100C2000E4E0F2E0DF011D928A95E9F708959091E2
:100C30002502891711F1209126028217F1F03091D7
:100C400027028317D1F0409128028417B1F0509108
:100C50002902851791F060912A02681771F0992393
:100C600071F02223A1F03323A9F04423B1F05523DE
:100C7000B9F06623C1F080E0089581E0089520E096
:100C800030E0F901EC5DFD4F818381E0089521E0C2
:100C900030E0F7CF22E030E0F4CF23E030E0F1CFD6
:100CA00024E030E0EECF25E030E0EBCFE4E2F2E00C
:100CB0009081892B80830895E2E6F2E09081892B70
:100CC0008083089590E0909368028093670208956E
:100CD000982F907F9039D9F038F0903C91F0903E69
:100CE00081F0903B71F00895903221F0903879F0C6
:100CF0009111F9CF90E0926090936A02809369021B
:100D0000089590E090936A0280936902089590E0BC
:100D1000916090936A02809369020895E2E6F2E09E
:100D200010821682158210861782089586E0E5E209
:100D3000F2E0DF011D928A95E9F7109224020895EE
:100D4000CF92DF92EF92FF920F931F93CF93DF9397
:100D500080E090E00E94E314EC0182E090E00E94C9
:100D6000E3148C0184E090E00E94E3147C0186E0AF
:100D700090E00E94E3146C0188E090E00E94E3148C
:100D80002A9749F0DF91CF911F910F91FF90EF903B
:100D9000DF90CF9008950F301105A1F72DE1E216F5
:100DA000F10481F7E3E6CE16D10461F7893A9105A3
:100DB00049F78AE090E00E94DB148093F9018BE010
:100DC00090E00E94DB148093FA018CE090E00E9496
:100DD000DB148093FB018DE090E00E94DB14809394
:100DE000FC018EE090E00E94DB148093FD018FE017
:100DF00090E00E94DB148093EB0180E190E00E9480
:100E0000DB148093EC0181E190E00E94DB1480937D
:100E1000ED0182E190E00E94DB148093EE0183E11A
:100E200090E00E94DB148093EF0184E190E00E9447
:100E3000DB148093F00185E190E00E94DB14809345
:100E4000F10186E190E00E94DB148093F20187E1DA
:100E500090E00E94DB148093F30188E190E00E940F
:100E6000DB148093F40189E190E00E94DB1480930D
:100E7000F5018AE190E00E94DB148093F6018BE19A
:100E800090E00E94DB148093F7018CE190E00E94D7
:100E9000DB148093F8010CE811E0C0E0D0E0CE0153
:100EA0004D960E94DB14F8018083CE014E960E947D
:100EB000DB14F8018183CE014F960E94DB14F80108
:100EC0008283CE0180960E94DB14F8018383CE01D9
:100ED00081960E94DB14F8018483CE0182960E94E1
:100EE000DB14F8018583CE0183960E94DB14F801A0
:100EF0008683CE0184960E94DB14F8018783CE019D
:100F000085960E94DB14F8018087CE0186960E94A8
:100F1000DB14F8018187CE0187960E94DB14F8016B
:100F20008287CE0188960E94DB14F8018387CE0168
:100F300089960E94DB14F8018487CE018A960E946C
:100F4000DB14F80185872E96025F1F4FC634D1054A
:100F500009F0A5CF06E411E0C0E0D0E0CE018D5944
:100F60009F4F0E94DB14F8018083CE018C599F4F64
:100F70000E94DB14F8018183CE018B599F4F0E94A0
:100F8000DB14F8018283CE018A599F4F0E94DB1443
:100F9000F8018383CE0189599F4F0E94DB14F80129
:100FA0008483CE0188599F4F0E94DB14F80185830A
:100FB000CE0187599F4F0E94DB14F8018683CE0132
:100FC00086599F4F0E94DB14F8018783CE01855913
:100FD0009F4F0E94DB14F8018087CE0184599F4FF8
:100FE0000E94DB14F8018187CE0183599F4F0E9434
:100FF000DB14F8018287CE0182599F4F0E94DB14D7
:10100000F8018387CE0181599F4F0E94DB14F801BC
:101010008487CE0180599F4F0E94DB14F801858799
:101020002E96025F1F4FC634D10509F097CF00E01E
:1010300011E0C0E0D0E0CE0187559F4F0E94DB1445
:10104000F8018083CE0186559F4F0E94DB14F80182
:101050008183CE0185559F4F0E94DB14F801828366
:10106000CE0184559F4F0E94DB14F8018383CE018B
:1010700083559F4F0E94DB14F8018483CE01825573
:101080009F4F0E94DB14F8018583CE0181559F4F4D
:101090000E94DB14F8018683CE0180559F4F0E9489
:1010A000DB14F8018783CE018F549F4F0E94DB141D
:1010B000F8018087CE018E549F4F0E94DB14F80107
:1010C0008187CE018D549F4F0E94DB14F8018287E7
:1010D000CE018C549F4F0E94DB14F8018387CE0110
:1010E0008B549F4F0E94DB14F8018487CE018A54F1
:1010F0009F4F0E94DB14F80185872E96025F1F4FD9
:10110000C634D10509F097CFC1E3D2E00FEE10E06D
:1011100001531240C8018C0F9D1F0E94DB1489935C
:10112000F2E0C535DF07B1F789E191E00E94DB14F9
:10113000817180937A0226CECF93DF9380915502FE
:1011400081111BC0C0910402D0910502CF3F21EF55
:10115000D207B1F0CF3F82EFD80709F44AC080919F
:101160002C028823B9F088E0E4E0F2E0DF011D9270
:101170008A95E9F781E080935502DF91CF91089538
:1011800080912C02813009F43EC08111ECCF0E9485
:10119000DC0C1DC00E94DC0CCE3FA3E0DA0748F453
:1011A000F999FECF6091060270910702CE010E946C
:1011B000E914CE0102968E3FB3E09B0740F4F99903
:1011C000FECF60910802709109020E94E914CE01DD
:1011D00004968E3F23E0920718F00E94EB0CC3CFD9
:1011E000F999FECF60910A0270910B020E94E914F6
:1011F000F4CF80912C028111B6CF0E94EB0C82E0DB
:1012000080932C02B0CF10922C02ADCF80E885BF26
:1012100085BF089590E08931910540F4FC01EA5AB8
:10122000FF4F0C94C6146111A2C06E9808956623F6
:1012300009F46DC0559A0895662309F46AC0549A5A
:101240000895662309F46DC0859A0895662309F40C
:1012500064C0819A0895662309F467C0879A089547
:10126000662309F458C0809A0895662309F45BC088
:10127000869A0895662309F452C0849A08956623D5
:1012800009F455C0269A0895662309F460C0259A8A
:101290000895662309F453C0519A0895662309F40A
:1012A0005EC03F9A0895662309F445C0229A0895C6
:1012B000662309F450C0579A0895662309F443C081
:1012C000279A0895662309F44EC0539A0895662319
:1012D00081F1209A08956623E1F1249A0895662306
:1012E00081F1509A08956623E1F13E9A08956623AC
:1012F00021F1219A0895662381F1569A0895662373
:1013000021F1239A0895662381F1529A0895559800
:101310000895549808958098089581980895849820
:101320000895859808958698089587980895269831
:101330000895209808952298089521980895519825
:10134000089550980895279808952398089525980A
:1013500008952498089557980895569808953F98A9
:1013600008953E98089553980895529808956E9A56
:10137000089590E08931910540F4FC01E159FF4F57
:101380000C94C6146111A2C076980895662309F4DE
:101390006DC05D9A0895662309F46AC05C9A089549
:1013A000662309F46DC08D9A0895662309F464C01C
:1013B000899A0895662309F467C08F9A0895662371
:1013C00009F458C0889A0895662309F45BC08E9A80
:1013D0000895662309F452C08C9A0895662309F48F
:1013E00055C02E9A0895662309F460C02D9A089579
:1013F000662309F453C0599A0895662309F45EC020
:10140000479A0895662309F445C02A9A08956623E9
:1014100009F450C05F9A0895662309F443C02F9AD7
:101420000895662309F44EC05B9A0895662381F1FE
:10143000289A08956623E1F12C9A0895662381F194
:10144000589A08956623E1F1469A0895662321F19A
:10145000299A0895662381F15E9A0895662321F101
:101460002B9A0895662381F15A9A08955D980895FC
:101470005C98089588980895899808958C9808959F
:101480008D9808958E9808958F9808952E980895B0
:10149000289808952A9808952998089559980895A4
:1014A000589808952F9808952B9808952D98089589
:1014B0002C9808955F9808955E9808954798089528
:1014C000469808955B9808955A980895769A0895D5
:1014D00090E08931910510F080E00895FC01E85713
:1014E000FF4F0C94C61489B18072089589B1807140
:1014F00008958FB1817008958FB1827008958FB172
:10150000807108958FB1807208958FB180740895AD
:101510008FB18078089583B18074089583B180720B
:10152000089583B18071089589B18078089589B153
:101530008074089586B18078089586B18074089586
:1015400089B18870089589B18470089589B18270D5
:10155000089589B18170089583B18078089583B129
:101560008870089583B18470089583B1827008955E
:1015700083B1817008958CB180740895843031F006
:1015800090917902892B80937902089590910C02B1
:10159000992389F190912502953391F320912602A8
:1015A000253371F330912702353351F340912802EE
:1015B000453331F350912902553311F360912A02DA
:1015C0006533F1F2992309F447C0222309F44AC094
:1015D000332309F450C0442309F453C0552309F4BC
:1015E00053C06111CDCF25E030E0F901EC5DFD4F36
:1015F00095E39183C5CF90912502993209F220910C
:101600002602293209F4BCCF30912702393209F47D
:10161000B7CF40912802493209F4B2CF5091290244
:10162000593209F4ADCF60912A02693209F4A8CF8A
:101630009923A9F02223C9F03323D1F04423F1F0F8
:10164000552329F161119CCF25E030E0F901EC5DD3
:10165000FD4F99E2918394CF20E030E0C6CF20E0A7
:1016600030E0F4CF21E030E0C0CF21E030E0EECF39
:1016700022E030E0EBCF22E030E0B7CF23E030E0F3
:10168000E5CF23E030E0B1CF24E030E0AECF24E07E
:1016900030E0DCCF8091790290917B02981721F0A5
:1016A00080937B0281E0089580E008953F924F92FD
:1016B0005F926F927F928F929F92AF92BF92CF92E2
:1016C000DF92EF92FF920F931F93CF93DF9300D09F
:1016D00000D01F92CDB7DEB78C010E94E3145C01ED
:1016E000892B09F404C10E5F1F4F011524E0120776
:1016F00008F0FDC0E12CF12CAEE14A2EA2E05A2EFA
:10170000B6E06B2E80E4382E6E0136E0C30ED11C9D
:1017100092E6792E10C0411101C1FFEFEF1AFF0AC6
:10172000AE14BF0409F4E3C00E5F1F4F011584E03F
:10173000180708F0DCC0C8010E94E314AC01852F33
:10174000552349F39A01ADECBCEC0E94CC14FC018A
:10175000F695E795F695E795F695E7959F01220FA3
:10176000331FCF01880F991F880F991F880F991F6A
:10177000820F931F9A01281B390B2D839F010E9412
:10178000CC149695879596958795969587959C0107
:10179000220F331F880F991F880F991F880F991FD9
:1017A000820F931FE81BF90BEC839A01369527955E
:1017B00036952795ABE7B4E10E94CC14FC01F69571
:1017C000E7959F01ADECBCEC0E94CC1496958795F3
:1017D00096958795969587959C01220F331F880FC4
:1017E000991F880F991F880F991F820F931FE81B5D
:1017F000F90BEB839A013695279536952795369503
:101800002795A5ECB0E20E94CC14FC01F295E2957C
:10181000EF70EF27FF70EF279F01ADECBCEC0E944B
:10182000CC149695879596958795969587959C0166
:10183000220F331F880F991F880F991F880F991F38
:10184000820F931FE81BF90BEA839A0132952295C8
:101850002F7023273F702327A7E4B3E00E94CC1406
:101860009695879596958795969587958983F201A4
:10187000262D11922A95E9F730921C0222E348E0C6
:101880006CE172E081E00E944410CE0101964C01AF
:1018900070921E02F40181914F01882319F0885A39
:1018A00080931E0222E348E06CE172E081E00E9436
:1018B000441010921E0222E348E06CE172E081E0E5
:1018C0000E944410C814D90419F710921C021092F7
:1018D0001E0222E348E06CE172E081E00E944410C5
:1018E000FFEFEF1AFF0AAE14BF0409F01DCF0F90EF
:1018F0000F900F900F900F90DF91CF911F910F914C
:10190000FF90EF90DF90CF90BF90AF909F908F901F
:101910007F906F905F904F903F900895F201262D39
:1019200011922A95E9F747FD0DC080931C024F776D
:1019300040931E0222E348E06CE172E081E00E94E5
:101940004410C3CF80E2F1CF0C94A30F1092A102F8
:10195000E0E0F0E0E551FE4F60E080810E940A097E
:10196000E091A102F0E0E551FE4F61E080810E942C
:10197000B909E091A102EF5FE093A102EE3048F3D4
:1019800008951092A102E0E0F0E0E750FE4F60E021
:1019900080810E940A09E091A102F0E0E750FE4F29
:1019A00061E080810E94B909E091A102EF5FE093BC
:1019B000A102E53048F308951092A10261E0809100
:1019C000EA010E94B9098091A1028F5F8093A10270
:1019D0008823A1F308951092A10260E08091EA01AA
:1019E0000E94B9098091A1028F5F8093A102882390
:1019F000A1F308950E9493140E9495140E94A914C3
:101A00001092A10261E08091EA010E940A09E0912E
:101A1000A102F0E0E651FE4F60E080810E94B9092A
:101A20008091A1028F5F8093A102882359F361E026
:101A300082E10E940A0960E082E10E94B90980E027
:101A400091E09093A5028093A4020895EF92FF92F3
:101A50000F931F93CF93DF931092A1020CC060E00D
:101A60008091EA010E94B9098091A1028F5F809361
:101A7000A102811110C080912B0280FFF0CF61E0A4
:101A80008091EA010E94B9098091A1028F5F809341
:101A9000A102882381F38091FE0180FF4BC061E0A9
:101AA00082E10E94B9098091A4029091A5028F3F22
:101AB000910509F008F44BC08091FE0181FF68C0D8
:101AC00002ED11E081E3E82E82E0F82EC0E0D0E0E4
:101AD0000DC0882309F44AC021960E5F1F4FF3E022
:101AE000EF0EF11CCC30D10509F454C080917A027C
:101AF0008F70813071F7F801208131812115F2E07A
:101B00003F0708F03BC0F901E153F94FA9014153E8
:101B10005B4F21533D4F6491FA014491F9012491A7
:101B2000CE010E949D14F8018081918101969183DC
:101B30008083D2CF60E082E10E94B9098091A40243
:101B40009091A5028F3F910511F008F0B5CF009755
:101B500091F580E091E09093A5028093A402DF913B
:101B6000CF911F910F91FF90EF900895F70122817F
:101B700041816081CE010E949D14AECFF801118297
:101B800010822FEC32E04FEC54E0EFECF6E0C3CFE4
:101B90000E9495148091A4029091A50201979093C0
:101BA000A5028093A402DF91CF911F910F91FF9026
:101BB000EF900C94A91401979093A5028093A4022E
:101BC000DF91CF911F910F91FF90EF900895CF93E8
:101BD000DF931092A002E0E0C8E0DFE0F0E0E75021
:101BE000FE4F61E080810E940A09E091A002F0E0CE
:101BF000E750FE4F60E080810E94B9091092A20276
:101C0000E0E010C08EE0A89FD0011124A050BF4F8B
:101C1000AE0FB11D8C9187778C93EF5FE093A2029A
:101C2000EE3010F5F0E0E551FE4F80810E94680A29
:101C3000E091A202A091A0028111E4CF8EE0A89FC2
:101C4000D0011124A050BF4FAE0FB11D8C918868F8
:101C50008C93C09300028E3E01F7D093A302EF5FF6
:101C6000E093A202EE30F0F21092A102E0E0F0E088
:101C7000E750FE4F60E080810E940A09E091A102D6
:101C8000F0E0E750FE4F61E080810E94B909E091E9
:101C9000A102EF5FE093A102E53048F3E091A002DA
:101CA000EF5FE093A002E53008F498CF0E9496061B
:101CB0000E948E06109279021092A00240E01092CB
:101CC000A20290E01DC0803B09F4D3C008F48CC090
:101CD000803D09F4C2C0803F09F4B2C0803C59F491
:101CE00024573E4FE20FF31F80810E94620640910D
:101CF000A0029091A2029F5F9093A2029E3070F585
:101D0000E92FF0E08EE0489F90011124D901A05006
:101D1000BF4FAE0FBF1F5C918091A30285238F3010
:101D200009F4C0C080F68B3009F470C008F049C0D7
:101D3000893009F478C08A30F1F6A9014A5B5E4F18
:101D4000E40FF51F80810E9456064091A0029091F9
:101D5000A2029F5F9093A2029E3090F24F5F409349
:101D6000A002453008F4ABCF0E949605811103C054
:101D700080EF8093A3020E944A0B882319F083E02E
:101D80008093FF010E948704882319F083E08093E9
:101D9000FF010E94E10481119EC080910002883001
:101DA00009F4A1C0813009F4A6C09091FF0181110E
:101DB0009EC0992319F091509093FF01DF91CF912C
:101DC00008958C3009F461C08D3009F094CFA901D9
:101DD0004A5B5E4FE40FF51F80810E9468064091C8
:101DE000A0029091A20287CF803909F468C0803A9E
:101DF00009F081CF24573E4FE20FF31F80810E94EC
:101E000056064091A0029091A20275CFA9014A5BAB
:101E10005E4FE40FF51F80810E945C064091A00296
:101E20009091A20268CFA9014A5B5E4FE40FF51FB3
:101E300080810E9417064091A0029091A2025BCF80
:101E4000A90144575E4FE40FF51F80810E94BE0A2E
:101E50004091A0029091A2024ECF24573E4FE20F34
:101E6000F31F80810E9468064091A0029091A20217
:101E700042CF24573E4FE20FF31F80810E945C0641
:101E80004091A0029091A20236CFA9014A5B5E4F19
:101E9000E40FF51F80810E9462064091A00290919C
:101EA000A20229CFC9018A5B9E4FE80FF91F8081EA
:101EB0000E94BE0A4091A0029091A2021CCF24571A
:101EC0003E4FE20FF31F80810E9417064091A0024F
:101ED0009091A20210CF83E08093FF0180910002D5
:101EE000883009F05FCF9091FF019130C1F08150AF
:101EF000809300025ECF90917B028091FE01892742
:101F00008093FE0193FF04C089E191E00E94560B8B
:101F10000E94D2040E941F058091000246CF90913A
:101F20007B028091FE0189278093FE0193FF04C00C
:101F300089E191E00E94560B0E94D2040E941F0585
:101F4000809100022FCF80E88093610010926100A1
:101F50000E9406090E94FA0C2FEF89E698E12150B1
:101F600080409040E1F700C000000E941D100E94D8
:101F7000411081110AC02FEF85EA9EE02150804078
:101F80009040E1F700C00000F2CF0E94A60C0E9432
:101F9000C10CC1E0D1E112E0C0935502C0932C0204
:101FA000D0937A020E9496060E948E060E94A00696
:101FB0001092A10260E08091EA010E94B90980912B
:101FC000A1028F5F8093A1028823A1F360E082E1E8
:101FD0000E94B9091092FE0180917A02807F8031BF
:101FE00011F41093FE010E9495140E94A9142FEF82
:101FF00089E698E1215080409040E1F700C0000060
:1020000022E348E06CE072E081E00E9444100E940C
:102010009C0880912C02823009F4BECF8130B9F740
:102020000E94E70D0E944110882389F38091FF01EF
:102030008111EDCF0E94260DEACF81E08093D70079
:1020400080EA8093D80082E189BD09B400FCFDCF0D
:1020500080E98093D8001092E0001092030288E09B
:102060008093E20084E08093E20078940E94ED0582
:102070000E94CB050E9408061092790210927B0202
:102080000895809103020895909103029923E9F045
:102090009FB7F8943091E400230F8093E9003091CA
:1020A000E80035FF0DC013C09091E400291769F0D6
:1020B0009FB7F8948093E9003091E80035FD07C0A0
:1020C0009FBF909103029111EFCF81E008954423C7
:1020D00051F0FB019B01240F311D81918093F10090
:1020E0002E173F07D1F78AE38093E8009FBF80E077
:1020F00008951F920F920FB60F9211242F933F93C2
:102100004F938F939F938091E1001092E10083FFA2
:102110000FC01092E90091E09093EB001092EC0058
:1021200092E09093ED0098E09093F00010920302FB
:1021300082FF04C08091030281110AC09F918F9198
:102140004F913F912F910F900FBE0F901F901895B8
:10215000909102029F5F89E2989F812D11248695BC
:1021600086958695392F22E3829F30191124832F7B
:10217000311116C0109202029091E80095FF12C032
:1021800090915502992371F020912C0221114AC09F
:102190008091030281114EC021E02093550202C0BC
:1021A0009093020290912D02992341F280910102B5
:1021B0008F5F80930102837009F0C0CF81E080932C
:1021C000E9008091E80085FFB9CF80912E028F5FF2
:1021D00080932E028913B2CF10922E0280910C02AE
:1021E0008093F10080910D028093F10080910E02A6
:1021F0008093F10080910F028093F1008091100292
:102200008093F100809111028093F100809112027D
:102210008093F100809113028093F1008AE3809310
:10222000E8008CCF90910302911154C081E080931B
:102230005502B8CF8FB7F8943091E40094E09093B2
:10224000E9009091E80095FD20C08FBF80910302C6
:10225000882309F4A1CF8091E400381709F49CCFBA
:1022600044E00BC08FBF80910302882309F494CF10
:102270008091E400381709F48FCF8FB7F89440931A
:10228000E9009091E80095FFEDCF9091F1009093D7
:1022900004029091F100909305029091F1009093C7
:1022A00006029091F100909307029091F1009093B3
:1022B00008029091F100909309029091F10090939F
:1022C0000A029091F10090930B029AE39093E80038
:1022D0008FBF63CF9FB7F8943091E40024E0209340
:1022E000E9002091E80025FD20C09FBF90910302E6
:1022F000992309F49BCF9091E400931709F496CFAA
:1023000044E00BC09FBF90910302992309F48ECF44
:102310009091E400391709F489CF9FB7F89440935E
:10232000E9002091E80025FFEDCF2091F1002093F6
:1023300004022091F100209305022AE32093E80093
:102340009FBF75CF1F920F920FB60F9211242F933C
:102350003F934F935F936F937F938F939F93AF932D
:10236000BF93EF93FF931092E9008091E80083FF01
:1023700038C07091F1004091F1008091F1002091FE
:10238000F10090E0922B2091F1005091F10030E0AB
:10239000352B6091F100E091F10052EF5093E8008D
:1023A000463099F1453009F43EC1493009F47BC00B
:1023B000483009F407C14111B5C18091E80080FFA0
:1023C000FCCF723809F484C180E08093F100109250
:1023D000F1008EEF8093E80007C02115310509F068
:1023E0000AC181E28093EB00FF91EF91BF91AF9121
:1023F0009F918F917F916F915F914F913F912F911D
:102400000F900FBE0F901F901895811541E0940713
:1024100009F455C18115F2E09F0709F463C18115E4
:1024200042E2940709F425C18115F1E29F0709F4FE
:1024300062C1811523E0920709F061C2A4E0B0E017
:1024400024E048E751E0862F90E09E2B8F3F9105D6
:1024500009F020F48A179B0708F4262F6EEF80916D
:10246000E8008570E1F38091E80082FDBDCF322F56
:10247000293008F41FC138E0FA01832F949190931A
:10248000F100815031968111F9CF8FEF830F90E0E9
:102490000196480F591F231B6093E8002111DFCFDD
:1024A0003830E9F2A1CF71118FC0809303028EEF13
:1024B0008093E80081E08093E900E2E4F1E0E491B8
:1024C000E093EB00EE2309F463C1E3E4F1E0E4916F
:1024D000E093EC00E4E4F1E0E491E093ED0025E426
:1024E00031E082E08093E900C9010196F90144914D
:1024F0004093EB00442351F0FC0184918093EC0065
:10250000C9010396319624912093ED0023E0209396
:10251000E9009C012F5F3F4FFC0144914093EB0089
:10252000442359F0F90124912093EC009C012D5F84
:102530003F4F319684918093ED0084E08093E900D1
:10254000C9010196F90144914093EB00442351F0F5
:10255000FC0184918093EC00C9010396319624918B
:102560002093ED0025E02093E9009C012F5F3F4F71
:10257000FC0144914093EB00442359F0F90124916C
:102580002093EC009C012D5F3F4F31968491809306
:10259000ED0086E08093E900C9010196F9014491BC
:1025A0004093EB00442341F0FC0184918093EC00C4
:1025B000319624912093ED008EE78093EA001092EB
:1025C000EA0012CF7038D1F121153105A1F4713A2A
:1025D00009F4E1C0713209F004CF4930D9F14A3031
:1025E00009F485C14B3009F0FCCE80932F028EEFA9
:1025F0008093E800F9CE2230310509F444C021303F
:10260000310509F0EECE713A09F412C1713209F0C8
:10261000E8CE4B3009F465C14A3009F0E2CE8EEFC6
:102620008093E800E1CE2EEF2093E8002091E800AF
:1026300020FFFCCF80688093E300D6CE8091E80035
:1026400080FFFCCF809103028093F1008EEF809396
:10265000E800CACE8091E80082FFFCCF8091F100B3
:1026600080932B028BEF8093E8008EEF8093E8003D
:10267000BBCE2115310509F047C0A0E4B0E020E44D
:102680004DE752E0E0CE713A09F403C1713209F02E
:10269000A8CE4A3021F2493009F0A3CE8091E8005B
:1026A00082FFFCCF8BEF8093E8008091E80080FFF1
:1026B000FCCFB5CF2111E0CE6093E80095CE232B5F
:1026C00009F08FCEA2E1B0E022E14DEB52E0BBCEAB
:1026D0002093E9008091EB0085FB882780F9109218
:1026E000E90073CE232B09F07CCEABE5B0E02BE5FF
:1026F0004CE751E0A8CE21153105E1F5A9E0B0E0A5
:1027000029E04EE851E09FCE2230310509F48AC01D
:102710002130310509F065CEA4E8B0E024E849EFA6
:1027200051E091CE542F5D7F513009F04DCF723082
:1027300009F04ACF009709F050CE522F5F776FEF24
:10274000650F663008F049CE8EEF8093E800509315
:10275000E900433009F445CE89E18093EB0081E044
:1027600090E001C0880F5A95EAF78093EA00109232
:10277000EA003ACE2230310509F4ADC021303105EE
:1027800009F02FCEA9E0B0E029E047EA51E05BCEA6
:1027900023E431E0A6CE413089F04230B9F1433034
:1027A00009F01FCE8091E80080FFFCCF80912F02BE
:1027B0008093F1008EEF8093E80016CE8091E800C0
:1027C00080FFFCCF80910C028093F10080910D027C
:1027D0008093F10080910E028093F10080910F02AE
:1027E0008093F100809110028093F100809111029A
:1027F0008093F100809112028093F1008091130286
:102800008093F1008EEF8093E800EECD8091E80098
:1028100080FFFCCF80912D028093F1008EEF80939A
:10282000E800E2CDA2E2B0E022E247ED51E00BCEBB
:10283000413079F0433009F0D4CD8091E80080FF39
:10284000FCCF80916B028093F1008EEF8093E800C3
:10285000CBCD8091E80080FFFCCF80915602809321
:10286000F100809157028093F1008091580280938B
:10287000F100809159028093F10080915A02809377
:10288000F10080915B028093F1008EEF8093E8006D
:10289000ABCD413009F0A5CD28E03EEF8091E800B6
:1028A000982F9570D9F382FD9FCD922F293070F02B
:1028B00098E0892F1092F1008150E1F7291B3093A5
:1028C000E8002111EBCF983049F38ECD2111F1CFE3
:1028D0003093E80089CDA9E0B0E029E040EC51E078
:1028E000B2CD80936B028EEF8093E8007DCD909304
:1028F0002D0210922E028EEF8093E80075CD81306C
:1029000043E0940751F08230934009F06ACDACE186
:10291000B0E02CE140E551E096CDACE0B0E02CE039
:102920004CE651E090CD869A089584E2ECE7F2E01F
:10293000DF011D928A95E9F70895FC01EE0FFF1F54
:102940008E0F9F1FFC01E458FD4F4083618322835B
:102950000895F89421B32F7B91B39064ECE7F2E0F3
:10296000819138E091BB000000C087FF21BB880F38
:10297000000000C000C000C021BB00C03A9591F724
:1029800082E0E03AF80761F778940895EE0FFF1FB0
:102990000590F491E02D0994A29FB001B39FC0016E
:1029A000A39F700D811D1124911DB29F700D811D7B
:1029B0001124911D0895F999FECF92BD81BDF89A19
:1029C000992780B50895A8E1B0E042E050E00C946A
:1029D000F0140E94FE14272F0C94FF14DC01CB018D
:1029E000FC01F999FECF06C0F2BDE1BDF89A31961F
:1029F00000B40D9241505040B8F70895262FF99930
:102A0000FECF1FBA92BD81BD20BD0FB6F894FA9AD1
:0C2A1000F99A0FBE01960895F894FFCFCC
:102A1C00711111111111111111111111111111113A
:102A2C001111111111111111111111111113131384
:102A3C001010101010101010001122001111111193
:102A4C001010101515001011226622000011001034
:102A5C00110066221111353A3B3C3D3E3F4041424C
:102A6C004344454C2B595A5B5C5D5E5F606162561A
:102A7C00573139010402000000000000000000285A
:102A8C00020053474946000000EAE90000520100E9
:102A9C000400002C000050000010514F041E1F2099
:102AAC00212223242526272D2E2A2B141A0815170C
:102ABC001C180C12132F303139041607090A0B0D90
:102ACC000E0F3334002802001D1B06190511103699
:102ADC003700385201000400002C00385000001060
:102AEC00514F00002200440066008800AA00AA0092
:102AFC0088006600440022000000021514180A0920
:0E2B0C000F1601040E0D0C0B0305060708172B
:00000001FF
