:100000000C9468040C9485040C9485040C94850469
:100010000C9485040C9485040C9485040C9485043C
:100020000C9485040C9485040C949D120C94C613B6
:100030000C9485040C9485040C9485040C9485041C
:100040000C9485040C9485040C9485040C9485040C
:100050000C9485040C9485040C9485040C948504FC
:100060000C9485040C9485040C9485040C948504EC
:100070000C9485040C9485040C9485040C948504DC
:100080000C9485040C9485040C9485040C948504CC
:100090000C9485040C9485040C9485040C948504BC
:1000A0000C9485040C9485040C948504660B760BE3
:1000B000520B7E0B5C0B6E0B480B820B610B720BB1
:1000C0004D0B7A0B570B6A0B430B3E0B2A0B340B71
:1000D000200B390B250B2F0B1B0B160B120B150CC2
:1000E000250C010C2D0C0B0C1D0CF70B310C100CFE
:1000F000210CFC0B290C060C190CF20BED0BD90B87
:10010000E30BCF0BE80BD40BDE0BCA0BC50BC10BFB
:10011000B70CB40CB10CAE0CAB0CA80CA50CA20C1B
:100120009F0C9C0C990C960C930C900C8D0C8A0CCB
:10013000870C840C810C7E0C7B0C780C750C720C7B
:10014000BA0C01C10601C10601C10601C0060000CA
:100150001C037A00690061006E005F006B0065009F
:10016000790062006F006100720064000C037A0085
:10017000690061006E0031000403090409025B009C
:10018000030100A03209040000010301010009215C
:100190001101000122400007058103080001090444
:1001A0000100010301020009211101000122840064
:1001B0000705820308000109040200020300000091
:1001C0000921110100012222000705830308000113
:1001D000070504030800010631FF0974A101097530
:1001E000150026FF0095087508810209761500267E
:1001F000FF00950875089102C005010902A101855B
:10020000010901A10005091901290515002501753C
:1002100001950581027503950181030501093009E6
:10022000311581257F7508950281060938158125CC
:100230007F35004500750895018106050C0A3802D6
:100240001581257F750895018106C0C005010980CB
:10025000A1018502150126B700190129B77510956E
:10026000018100C0050C0901A10185031501269C2F
:100270000219012A9C02751095018100C00501092F
:1002800006A10175019508050719E029E715002564
:10029000018102950175088103950575010508190D
:1002A00001290591029501750391039506750815BD
:1002B0000026FF000507190029FF8100C012010078
:1002C0000200000008C43264F100020102000100D3
:1002D000000001010102030404050708090A0C0DCE
:1002E0000F1112141617191B1D1F2122242628294D
:1002F0002B2D2E3031333435363738393A3A3B3BB3
:100300003C3C3C3C3C3C3D3D3E3E3F404142434406
:100310004647494A4C4D4F5152545658595B5D5FC0
:100320006062646567696A6B6D6E6F707172737419
:100330007475757676767676767676767676767661
:100340007676767676767677777777777777777744
:100350007777777777777777787878787878787825
:100360007878787878787878787878787879797A09
:100370007A7B7B7C7D7E7F7F808283848586878974
:100380008A8B8C8E8F9091929495969798999A9B40
:100390009C9D9D9E9F9FA0A0A0A1A1A1A1A1A1A263
:1003A000A2A3A3A4A5A6A7A9AAACADAFB0B2B4B6A8
:1003B000B8BABCBEC0C2C4C6C8CACCCED0D2D4D6CD
:1003C000D8D9DBDCDEDFE0E1E2E3E3E4E4E5E5E528
:1003D000E5E4E4E3E2E0DFDDDBD8D6D3D0CDCAC686
:1003E000C2BFBBB7B3AFABA6A29E9A95918D8985CC
:1003F000817D7A7673706D6A676563615F5E5C5B51
:100400005B5A5A5A5A595958575655545351504E87
:100410004C4A484644423F3D3A383633302E2B2929
:100420002724221F1D1B1917151312100F0D0C0B5B
:100430000A090908080808080808080909090A0A31
:100440000A0B0B0C0D0D0E0E0F10101112131314BE
:10045000151516171818191A1A1B1B1C1D1D1E1E00
:100460001E1F1F1F20202020202020202020202091
:100470001F1F1F1F1F1E1E1E1E1D1D1D1C1C1C1BA3
:100480001B1A1A1A191919181818171717161616E9
:100490001615151515151414141414141414141415
:1004A0001413131313121212111110100F0F0E0E3A
:1004B0000D0D0C0B0B0A0A090808070706060504B0
:1004C00004030303020201010101000000000039DE
:1004D00039393939383838373736363534343332B4
:1004E0003231302F2E2D2C2B2B2A2928272625245C
:1004F0002323222120201F1E1E1D1D1C1C1C1B1B14
:100500001B1B1B1B1B1B1B1A1A1A1919191818174E
:10051000161615141413121111100F0E0D0D0C0BCD
:100520000A0908080706060504040303020201017C
:1005300001000000000000000000000000000000BA
:1005400000000000000000000000000000000000AB
:10055000000000000000000000000000000000009B
:100560000000000000000000000000000101020384
:1005700004050607080A0B0D0F11131517191B1D8B
:100580001F212426282A2C2E31333537383A3C3D7A
:100590003F40424344454646474748484848494902
:1005A0004A4B4C4E4F515356585B5D6063666A6DC3
:1005B0007074787B7F83868A8E9195989C9FA2A584
:1005C000A8ABAEB0B3B5B7B9BBBCBDBEBFC0C0C0B1
:1005D000C0C0C0C0C0C0BFBFBFBFBEBEBEBEBDBD2D
:1005E000BDBCBCBBBBBBBABAB9B9B8B8B8B7B7B673
:1005F000B6B6B5B5B4B4B4B4B3B3B3B3B3B2B2B2C0
:10060000B2B2B2B2B2B2B2B2B2B2B2B3B3B3B3B3C5
:10061000B3B4B4B4B4B4B5B5B5B5B6B6B6B6B7B789
:10062000B7B7B7B8B8B8B8B9B9B9B9B9B9B9BABA42
:10063000BABABABABABABABABABBBBBBBCBDBDBE0B
:10064000BFC0C1C2C4C5C6C7C9CACCCDCFD0D2D421
:10065000D5D7D8DADBDDDEE0E1E2E3E5E6E7E8E99D
:10066000EAEAEBECECECEDEDEDEDEDEDECECEBEACC
:10067000E9E8E7E5E4E2E1DFDDDBD9D7D4D2D0CEAB
:10068000CBC9C6C4C2BFBDBBB8B6B4B2B0AEACAACB
:10069000A9A7A6A5A3A2A1A1A0A09F9F9F9F9F9E3F
:1006A0009D9C9B9A99979593918F8D8A888582803E
:1006B0007D7A7773706D6A6764615E5B58555250DE
:1006C0004D4B48464442413F3E3C3B3B3A3939F36F
:1006D000F3F3F3F3F3F3F3F3F2F2F2F2F2F2F2F1F3
:1006E000F1F1F1F1F0F0F0F0F0EFEFEFEFEFEEEE0F
:1006F000EEEEEEEDEDEDEDEDEDEDECECECECECEC2D
:10070000ECECECECECECECEBEBEBEBEAEAE9E9E83B
:10071000E8E7E6E6E5E4E4E3E2E1E0E0DFDEDDDCB5
:10072000DCDBDAD9D9D8D7D7D6D6D5D5D4D4D3D35C
:10073000D3D2D2D2D2D2D2D2D1D1D0CFCECCCBC9B9
:10074000C7C5C3C0BEBBB9B6B3B0ADA9A6A3A09C74
:10075000999693908C898683807E7B79767472706B
:100760006E6D6B6A69686867676767676666656507
:10077000646362615F5E5D5B5A58565553514F4DDD
:100780004B4947454342403E3C3A38373533323097
:100790002F2E2D2C2B2A29282827272727272727C4
:1007A00026262625252423232221201F1E1D1C1B2F
:1007B0001A1918171614131211100F0E0D0B0A091F
:1007C00008080706050404030302020201010101EF
:1007D00001010101010202020203030304040405F2
:1007E0000506060707080809090A0A0B0B0C0C0D79
:1007F0000D0E0E0F0F0F10101011111111121212F9
:1008000012121212121213131415151617181A1B9E
:100810001C1E1F2122242628292B2D2F313335364B
:10082000383A3C3E3F414244454748494A4B4C4D8B
:100830004D4E4E4F4F4F4F4F505152535557595B9E
:100840005D606366696D7174787C8084898D919632
:100850009A9EA2A7ABAFB3B7BABEC2C5C8CBCED023
:10086000D2D4D6D8D9DADBDCDCDCDCDCDCDCDDDDE8
:10087000DDDEDEDFDFE0E0E1E2E2E3E4E4E5E6E75F
:10088000E8E9E9EAEBECEDEDEEEFF0F0F1F2F2F38E
:10089000F4F4F5F5F5F6F6F6F7F7F7F7F7F7F7F7F7
:1008A000F7F7F7F7F7F7F7F7F6F6F6F6F6F6F6F6E0
:1008B000F6F6F5F5F5F5F5F5F5F5F4F4F4F4F4F4EC
:1008C000F4F4F4F4F3F3F3F3F3F3F3F3F3F3F300E7
:1008D00011241FBECFEFDAE0DEBFCDBF13E0A0E0F2
:1008E000B1E0E0EAFEE202C005900D92A636B10743
:1008F000D9F724E0A6E6B3E001C01D92AC3CB207F4
:10090000E1F70E94BD0C0C944E170C9400003F922E
:100910004F925F926F927F928F929F92AF92BF920F
:10092000CF92DF92EF92FF920F931F93CF93DF93BB
:1009300000D000D01F92CDB7DEB78C010E942517E2
:100940005C01892B09F404C10E5F1F4F0F3F23E0A8
:10095000120708F0FDC0E12CF12CACEC4A2EA3E00C
:100960005A2EB6E06B2E80E4382E6E0136E0C30EB0
:10097000D11C92E6792E10C0411101C1FFEFEF1A90
:10098000FF0AAE14BF0409F4E3C00E5F1F4F0F3F10
:1009900083E0180708F0DCC0C8010E942517AC01ED
:1009A000852F552349F39A01ADECBCEC0E940E173C
:1009B000FC01F695E795F695E795F695E7959F0185
:1009C000220F331FCF01880F991F880F991F880F9F
:1009D000991F820F931F9A01281B390B2D839F01AA
:1009E0000E940E179695879596958795969587956B
:1009F0009C01220F331F880F991F880F991F880FA2
:100A0000991F820F931FE81BF90BEC839A0136950F
:100A1000279536952795ABE7B4E10E940E17FC01A8
:100A2000F695E7959F01ADECBCEC0E940E179695EC
:100A3000879596958795969587959C01220F331FEC
:100A4000880F991F880F991F880F991F820F931F76
:100A5000E81BF90BEB839A01369527953695279578
:100A600036952795A5ECB0E20E940E17FC01F29591
:100A7000E295EF70EF27FF70EF279F01ADECBCEC24
:100A80000E940E17969587959695879596958795CA
:100A90009C01220F331F880F991F880F991F880F01
:100AA000991F820F931FE81BF90BEA839A01329575
:100AB00022952F7023273F702327A7E4B3E00E94DD
:100AC0000E17969587959695879596958795898320
:100AD000F201262D11922A95E9F73092CA0322E3FA
:100AE00048E06AEC73E081E00E946412CE01019656
:100AF0004C017092CC03F40181914F01882319F0CD
:100B0000885A8093CC0322E348E06AEC73E081E0EA
:100B10000E9464121092CC0322E348E06AEC73E076
:100B200081E00E946412C814D90419F71092CA0314
:100B30001092CC0322E348E06AEC73E081E00E946B
:100B40006412FFEFEF1AFF0AAE14BF0409F01DCFC5
:100B50000F900F900F900F900F90DF91CF911F91FA
:100B60000F91FF90EF90DF90CF90BF90AF909F904C
:100B70008F907F906F905F904F903F900895F2011B
:100B8000262D11922A95E9F747FD0DC08093CA03DF
:100B90004F774093CC0322E348E06AEC73E081E0B6
:100BA0000E946412C3CF80E2F1CF8091D203909172
:100BB000BA03981731F08093BA0381E08093DE0383
:100BC00008958091D3039091BC03981731F08093DE
:100BD000BC0381E08093DE0308958091D40390915B
:100BE000BD03981719F08093BD03E7CF8091D5031B
:100BF0009091BE03981719F08093BE03DECF8091C9
:100C0000D6039091BF03981719F08093BF03D5CFF7
:100C10008091D7039091C003981719F08093C00377
:100C2000CCCF8091D8039091C103981719F080938D
:100C3000C103C3CF80E008958091DE03811102C01B
:100C400081E008951092DE0322E348E06AEB73E04E
:100C500081E00C9464128091EB039091E00398176B
:100C600029F18093E00381E02091F0033091F103BA
:100C70004091E6035091E70342175307C9F03093C0
:100C8000E7032093E6032091F2033091F303809170
:100C9000E9039091EA0382179307C9F03093EA03BE
:100CA0002093E90383E08093F503089580E0DCCF8F
:100CB0002091F2033091F3034091E9035091EA034C
:100CC0004217530759F7882381F381E0ECCF82E084
:100CD000EACFCF93DF938091F50383708093F50380
:100CE000811104C081E0DF91CF9108950E946112CB
:100CF0008823C1F38FB7F894C091E400CE5C92E0F2
:100D00009093E9009091E80095FD14C0D2E00CC0EA
:100D10008091E400C81731F38FB7F894D093E900BD
:100D20009091E80095FD06C08FBF0E94611281116D
:100D3000EFCFD8CF9091F503923099F1933011F124
:100D40009130D1F41092F5039091DF039093F1006C
:100D50009091E0039093F1009091E1039093F10062
:100D60009091E2039093F1009091E3039093F1004E
:100D70009091E4039093F1009AE39093E8008FBF81
:100D800080E0B1CF1092F5039091E8039093F100C9
:100D90009091E9039093F1009091EA039093F10010
:100DA000EBCF1092F5039091E5039093F1009091B1
:100DB000E6039093F1009091E7039093F100DCCF6C
:100DC0008091EB0381112FC08091F0039091F1038A
:100DD000892B49F58091F2039091F303892B19F542
:100DE0008091D30381111FC08091D40381111BC056
:100DF0008091D503811117C08091D603811113C052
:100E00008091D70381110FC08091D80381110BC04D
:100E10008091D203811107C081E090910504911166
:100E200003C080E0089581E00895809105049091C9
:100E30000204981721F08093020481E0089580E075
:100E40000895CF93DF938CE0E6EFF3E0DF01C82F46
:100E50001D92CA95E9F7EFEDF3E0DF011D928A9547
:100E6000E9F7ABEEB3E08BE0ED0119928A95E9F773
:100E700081E0808392E0968393E0918719968C932A
:100E8000DF91CF91089588E0EAECF3E0DF01982F3D
:100E90001D929A95E9F7EAEBF3E0DF011D928A953E
:100EA000E9F7E2EDF3E08DE0DF011D928A95E9F7C5
:100EB00081E0808783878DE78187089588E0E2EC71
:100EC000F3E0DF01982F1D929A95E9F7E1EBF3E04B
:100ED000DF011D928A95E9F708959091020490FF31
:100EE00006C02091030480E282278093030491FFCF
:100EF00006C02091030480E182278093030493FDC0
:100F000010C0892F807295FF0BC0809103048F5F02
:100F1000982F9F70933008F0807F8093030481E0C6
:100F2000089585EB91E00E94870481E00895843064
:100F300031F090910504892B8093050408959091D8
:100F4000BA03992389F19091D303953391F32091BA
:100F5000D403253371F33091D503353351F34091E8
:100F6000D603453331F35091D703553311F36091D4
:100F7000D8036533F1F2992309F447C0222309F419
:100F80004AC0332309F450C0442309F453C0552305
:100F900009F453C06111CDCF25E030E0F901EE52E4
:100FA000FC4F95E39183C5CF9091D303993209F219
:100FB0002091D403293209F4BCCF3091D5033932C2
:100FC00009F4B7CF4091D603493209F4B2CF50911A
:100FD000D703593209F4ADCF6091D803693209F4CF
:100FE000A8CF9923A9F02223C9F03323D1F04423B9
:100FF000F1F0552329F161119CCF25E030E0F90192
:10100000EE52FC4F99E2918394CF20E030E0C6CFBE
:1010100020E030E0F4CF21E030E0C0CF21E030E04C
:10102000EECF22E030E0EBCF22E030E0B7CF23E09C
:1010300030E0E5CF23E030E0B1CF24E030E0AECFC8
:1010400024E030E0DCCF9091D303891711F1209197
:10105000D4038217F1F03091D5038317D1F040917A
:10106000D6038417B1F05091D703851791F06091A2
:10107000D803681771F0992371F02223A1F033236C
:10108000A9F04423B1F05523B9F06623C1F080E004
:10109000089581E0089520E030E0F901EE52FC4F20
:1010A000818381E0089521E030E0F7CF22E030E055
:1010B000F4CF23E030E0F1CF24E030E0EECF25E0C4
:1010C00030E0EBCFE2EDF3E09081892B808308954F
:1010D000EBEEF3E09081892B8083089590E090936C
:1010E000F1038093F0030895982F907F9039D9F001
:1010F00038F0903C91F0903E81F0903B71F0089573
:10110000903221F0903879F09111F9CF90E092600F
:101110009093F3038093F203089590E09093F30388
:101120008093F203089590E091609093F30380938D
:10113000F2030895EBEEF3E010821682158210861A
:101140001782089586E0E3EDF3E0DF011D928A95B2
:10115000E9F71092D2030895CF92DF92EF92FF92B7
:101160000F931F93CF93DF9380E090E00E942517A9
:10117000EC0182E090E00E9425178C0184E090E071
:101180000E9425177C0186E090E00E9425176C01E3
:1011900088E090E00E9425172A9749F0DF91CF91CF
:1011A0001F910F91FF90EF90DF90CF9008950F3037
:1011B0001105A1F72DE1E216F10481F7E3E6CE1661
:1011C000D10461F7893A910549F78AE090E00E94DD
:1011D0001D178093A0028BE090E00E941D17809362
:1011E000A1028CE090E00E941D178093A2028DE086
:1011F00090E00E941D178093A3028EE090E00E9471
:101200001D178093A4028FE090E00E941D17809329
:10121000920280E190E00E941D178093930281E189
:1012200090E00E941D178093940282E190E00E945A
:101230001D178093950283E190E00E941D17809313
:10124000960284E190E00E941D178093970285E149
:1012500090E00E941D178093980286E190E00E9422
:101260001D178093990287E190E00E941D178093DB
:101270009A0288E190E00E941D1780939B0289E109
:1012800090E00E941D1780939C028AE190E00E94EA
:101290001D1780939D028BE190E00E941D178093A3
:1012A0009E028CE190E00E941D1780939F020CE447
:1012B00012E0C0E0D0E0CE014D960E941D17F8016B
:1012C0008083CE014E960E941D17F8018183CE01C6
:1012D0004F960E941D17F8018283CE0180960E94CE
:1012E0001D17F8018383CE0181960E941D17F80116
:1012F0008483CE0182960E941D17F8018583CE015A
:1013000083960E941D17F8018683CE0184960E9461
:101310001D17F8018783CE0185960E941D17F801DD
:101320008087CE0186960E941D17F8018187CE0125
:1013300087960E941D17F8018287CE0188960E9429
:101340001D17F8018387CE0189960E941D17F801A9
:101350008487CE018A960E941D17F80185872E96F4
:10136000025F1F4FC634D10509F0A5CF06E012E099
:10137000C0E0D0E0CE018D599F4F0E941D17F801AB
:101380008083CE018C599F4F0E941D17F8018183E5
:10139000CE018B599F4F0E941D17F8018283CE0109
:1013A0008A599F4F0E941D17F8018383CE018959E6
:1013B0009F4F0E941D17F8018483CE0188599F4FCB
:1013C0000E941D17F8018583CE0187599F4F0E9407
:1013D0001D17F8018683CE0186599F4F0E941D1765
:1013E000F8018783CE0185599F4F0E941D17F80190
:1013F0008087CE0184599F4F0E941D17F801818775
:10140000CE0183599F4F0E941D17F8018287CE019C
:1014100082599F4F0E941D17F8018387CE01815981
:101420009F4F0E941D17F8018487CE0180599F4F5E
:101430000E941D17F80185872E96025F1F4FC63444
:10144000D10509F097CF09EA10E0E12CF12CC80191
:101450000E941D179701220F331FE901CC0FDD1FDA
:10146000CC0FDD1FCC0FDD1FC21BD30BC054DE4FD2
:101470008883C80101960E941D178983C8010296BE
:101480000E941D178A83C80103960E941D178B8333
:10149000C80104960E941D178C83C80105960E94FE
:1014A0001D178D83C80106960E941D178E83C801E3
:1014B00007960E941D178F83C80108960E941D176A
:1014C0008887C80109960E941D178987C8010A9656
:1014D0000E941D178A87C8010B960E941D178B87D3
:1014E000C8010C960E941D178C87C8010D960E949A
:1014F0001D178D87FFEFEF1AFF0A025F1F4F25E0D0
:10150000E216F10409F0A3CFC5EAD2E00FEE10E035
:10151000055A1240C8018C0F9D1F0E941D17899308
:1015200083E0C536D807B1F78FEA91E00E941D1716
:101530008093B90333CECF93DF938091040481115C
:101540001BC0C091B103D091B203CF3F21EFD207AE
:10155000B1F0CF3F82EFD80709F44AC08091DA0397
:101560008823B9F088E0E1EBF3E0DF011D928A9572
:10157000E9F781E080930404DF91CF910895809191
:10158000DA03813009F43EC08111ECCF0E944A0E8B
:101590001DC00E944A0ECE3FA3E0DA0748F4F99935
:1015A000FECF6091B3037091B403CE010E942B175C
:1015B000CE0102968E3FB3E09B0740F4F999FECF2F
:1015C0006091B5037091B6030E942B17CE0104966B
:1015D0008E3F23E0920718F00E944B0EC3CFF9997B
:1015E000FECF6091B7037091B8030E942B17F4CF20
:1015F0008091DA038111B6CF0E944B0E82E0809376
:10160000DA03B0CF1092DA03ADCF80E885BF85BF93
:10161000089590E08931910540F4FC01EA5AFF4FAA
:101620000C9408176111A2C06E980895662309F4FE
:101630006DC0559A0895662309F46AC0549A0895B6
:10164000662309F46DC0859A0895662309F464C081
:10165000819A0895662309F467C0879A08956623DE
:1016600009F458C0809A0895662309F45BC0869AED
:101670000895662309F452C0849A0895662309F4F4
:1016800055C0269A0895662309F460C0259A0895E6
:10169000662309F453C0519A0895662309F45EC085
:1016A0003F9A0895662309F445C0229A0895662357
:1016B00009F450C0579A0895662309F443C0279A45
:1016C0000895662309F44EC0539A0895662381F164
:1016D000209A08956623E1F1249A0895662381F102
:1016E000509A08956623E1F13E9A0895662321F108
:1016F000219A0895662381F1569A0895662321F16F
:10170000239A0895662381F1529A08955598089571
:10171000549808958098089581980895849808951C
:10172000859808958698089587980895269808952D
:101730002098089522980895219808955198089521
:101740005098089527980895239808952598089506
:101750002498089557980895569808953F980895A5
:101760003E98089553980895529808956E9A089552
:1017700090E08931910540F4FC01E159FF4F0C9450
:1017800008176111A2C076980895662309F46DC008
:101790005D9A0895662309F46AC05C9A08956623E9
:1017A00009F46DC08D9A0895662309F464C0899A7E
:1017B0000895662309F467C08F9A0895662309F493
:1017C00058C0889A0895662309F45BC08E9A0895DC
:1017D000662309F452C08C9A0895662309F455C013
:1017E0002E9A0895662309F460C02D9A0895662301
:1017F00009F453C0599A0895662309F45EC0479AC4
:101800000895662309F445C02A9A0895662309F4C9
:1018100050C05F9A0895662309F443C02F9A089533
:10182000662309F44EC05B9A0895662381F1289AD5
:1018300008956623E1F12C9A0895662381F1589A60
:1018400008956623E1F1469A0895662321F1299AC5
:101850000895662381F15E9A0895662321F12B9AFB
:101860000895662381F15A9A08955D9808955C98C9
:10187000089588980895899808958C9808958D986A
:1018800008958E9808958F9808952E980895289811
:1018900008952A9808952998089559980895589870
:1018A00008952F9808952B9808952D9808952C98B1
:1018B00008955F9808955E9808954798089546980A
:1018C00008955B9808955A980895769A089590E03F
:1018D0008931910510F080E00895FC01E857FF4F31
:1018E0000C94081789B18072089589B180710895A8
:1018F0008FB1817008958FB1827008958FB180711A
:1019000008958FB1807208958FB1807408958FB15A
:101910008078089583B18074089583B180720895AA
:1019200083B18071089589B18078089589B18074F8
:10193000089586B18078089586B18074089589B13C
:101940008870089589B18470089589B1827008956E
:1019500089B18170089583B18078089583B18870CA
:10196000089583B18470089583B18270089583B11E
:10197000817008958CB1807408950C946D11AF92AC
:10198000BF92CF92DF92EF92FF921F93CF93DF939C
:10199000A12CB12C10E0C0E0D0E0C501880F991F48
:1019A0007C01EE0CFF1CEE0CFF1CEE0CFF1C9701E3
:1019B000281B390BC90128593C4F69019C0120544F
:1019C0003E4F790116C0208140816081E12FF0E017
:1019D000E050FF4F808190E00E94DF16F701EC0F8E
:1019E000FD1F8081877709F01F5F2196CE30D105DA
:1019F000A1F01034D0F7F601EC0FFD1F80818111AA
:101A0000E2CFE12FF0E0E050FF4F808120E040E0A6
:101A100060E090E00E94DF16E1CF2FEFA21AB20A39
:101A200035E0A316B10409F0B6CF20E030E0C901DB
:101A3000880F991FFC01EE0FFF1FEE0FFF1FEE0F27
:101A4000FF1FE81BF90BE859FC4F4081442319F0B4
:101A5000408146954083FC01EE0FFF1FEE0FFF1FF4
:101A6000EE0FFF1FE81BF90BE859FC4F418144239F
:101A700019F0418146954183FC01EE0FFF1FEE0FE7
:101A8000FF1FEE0FFF1FE81BF90BE859FC4F4281C7
:101A9000442319F0428146954283FC01EE0FFF1F5B
:101AA000EE0FFF1FEE0FFF1FE81BF90BE859FC4F6D
:101AB0004381442319F0438146954383FC01EE0F93
:101AC000FF1FEE0FFF1FEE0FFF1FE81BF90BE8597A
:101AD000FC4F4481442319F0448146954483FC0122
:101AE000EE0FFF1FEE0FFF1FEE0FFF1FE81BF90B9E
:101AF000E859FC4F4581442319F0458146954583BB
:101B0000FC01EE0FFF1FEE0FFF1FEE0FFF1FE81B84
:101B1000F90BE859FC4F4681442319F0468146955C
:101B20004683FC01EE0FFF1FEE0FFF1FEE0FFF1F9E
:101B3000E81BF90BE859FC4F4781442319F0478112
:101B400046954783FC01EE0FFF1FEE0FFF1FEE0FC0
:101B5000FF1FE81BF90BE859FC4F4085442319F09F
:101B6000408546954087FC01EE0FFF1FEE0FFF1FDB
:101B7000EE0FFF1FE81BF90BE859FC4F418544238A
:101B800019F0418546954187FC01EE0FFF1FEE0FCE
:101B9000FF1FEE0FFF1FE81BF90BE859FC4F4285B2
:101BA000442319F0428546954287FC01EE0FFF1F42
:101BB000EE0FFF1FEE0FFF1FE81BF90BE859FC4F5C
:101BC0004385442319F0438546954387FC01EE0F76
:101BD000FF1FEE0FFF1FEE0FFF1FE81BF90BE85969
:101BE000FC4F4485442319F0448546954487FC0105
:101BF000EE0FFF1FEE0FFF1FEE0FFF1FE81BF90B8D
:101C0000E859FC4F8585882319F085858695858759
:101C10002F5F3F4F2530310509F009CFDF91CF917C
:101C20001F91FF90EF90DF90CF90BF90AF900895FD
:101C30000F931F93CF93DF93C2E9D2E08E0160E050
:101C400089910E94090B61E0F80180810E94B80B24
:101C5000F2E0C03ADF0791F7DF91CF911F910F912A
:101C600008950F931F93CF93DF93C0EAD2E08E01C4
:101C700060E089910E94090B61E0F80180810E9477
:101C8000B80BF2E0C53ADF0791F7DF91CF911F91D2
:101C90000F910895089508950F931F93CF93DF93A5
:101CA0008033910509F443C08034910509F48DC057
:101CB00080319105D1F0809709F462C080E090E016
:101CC000FC01EE0FFF1FE05CFE4F208131812115EA
:101CD000324010F01182108201968034910581F714
:101CE000DF91CF911F910F91089580E090E0FC016A
:101CF000EE0FFF1FDF01A05CBE4F2D913C911197AD
:101D00002115324018F011961C921E92E05CFE4F95
:101D1000208131812F5F3F4F3183208301968034B2
:101D2000910529F7DF91CF911F910F910895C0E0A0
:101D3000D1E0CE0180509140880F991FFC01E05CFA
:101D4000FE4F208131812115324010F01182108226
:101D5000FC01E05CFE4F0190F081E02DE153FB4F70
:101D600064916093CB04899190E00E94CB1681E04E
:101D7000C034D807F1F6DF91CF911F910F910895EC
:101D8000C0E0D1E0CE0180509140880F991FFC0146
:101D9000E05CFE4F208131812115324010F011822C
:101DA0001082FC01E05CFE4F0190F081E02DE153D8
:101DB000FD4F649160930804899190E00E94D516CC
:101DC00081E0C034D807F1F68BCF00E411E0C0E029
:101DD000D1E0CE0180509140880F991FFC01E05C5A
:101DE000FE4F208131812115324010F01182108286
:101DF000FC01E05CFE4F0190F081E02DE153F94FD2
:101E000064916093CA04899190E00E94C1160C17F6
:101E10001D07F9F665CF3F924F925F926F927F92C6
:101E20008F929F92AF92BF92CF92DF92EF92FF92EA
:101E30000F931F93CF93DF938091B9038093030493
:101E40000E94B9160E94EB1654E0452E512C332403
:101E50003A9460E8E62EF12C812C912CC201880F77
:101E6000991F5C01AA0CBB1CAA0CBB1CAA0CBB1CB6
:101E70009501281B390BC90120543E4F69019C0173
:101E800028593C4F590144E4642E712C641875089C
:101E9000F601E80DF91D80818777D9F1F501E80D8C
:101EA000F91D30828301080D191DC0E0D0E00DC07E
:101EB0008091060490910704019790930704809302
:101EC000060421960C171D0720F18FEA94E0019774
:101ED000F1F700C00000809106049091070480365D
:101EE000910509F471C08091060490910704803730
:101EF000910509F466C08091060490910704892B2E
:101F0000B9F6F0920704E092060421960C171D071B
:101F1000E0F62FEF821A920A3EE08316910409F050
:101F2000B7CF91E0491A510808F096CFC1EFD0E041
:101F300000E810E00BC0809106049091070401971F
:101F40009093070480930604219701F18FEA94E0AF
:101F50000197F1F700C000008091060490910704FA
:101F600080369105B9F1809106049091070480377D
:101F7000910569F18091060490910704892BD9F6A7
:101F80001093070400930604219701F780E890E07E
:101F900090930704809306040E94B916DF91CF91B5
:101FA0001F910F91FF90EF90DF90CF90BF90AF9077
:101FB0009F908F907F906F905F904F903F900C9488
:101FC000EB160E94EB1697CF0E94BF0C8CCF0E949D
:101FD000EB16D0CF0E94BF0CC6CF2F923F924F92EC
:101FE0005F926F927F928F929F92AF92BF92CF92A9
:101FF000DF92EF92FF920F931F93CF93DF93E0EA6C
:102000002E2EE2E03E2E612C712CF0EAEF2EF2E053
:10201000FF2E44244A94A8E05A2EB5EAAB2EB2E033
:10202000BB2EE10161E0F10181911F010E94090BCA
:1020300060E088810E94B80B02E912E0C301880FBA
:10204000991F6C01CC0CDD1CCC0CDD1CCC0CDD1CF8
:102050009601281B390BF901E054FE4F4F01285916
:102060003C4F69010BC0808187778083C80DD91DE3
:1020700088818E3EF1F0E016F10609F1E801C259BF
:10208000D240F80181918F010E94670CF401EC0F9E
:10209000FD1F8111E8CF808188688083509267039B
:1020A000F601EC0FFD1F4082C80DD91D88818E3EC0
:1020B00011F7FFE0F093C904E016F106F9F600EA23
:1020C00012E0E80160E0F80181918F010E94090BA4
:1020D00061E088810E94B80BA016B10691F7FFEF6E
:1020E0006F1A7F0A25E06216710409F09ACF0E94E8
:1020F000A2080E949A08109205044CE4A42E42E023
:10210000B42E56E0652E52E0752EC12CD12C7301F1
:102110008501C0E0D0E0C601880F991F4C01880CF2
:10212000991C880C991C880C991C9401281B390B4C
:10213000F901E054FE4F4F011AC0803B09F449C039
:10214000A8F1803D09F454C0803F09F44CC0803CA4
:1021500021F4F80180810E946E0821960F5F1F4FC5
:10216000FFEFEF1AFF0ACE30D10509F450C0F40199
:10217000EC0FFD1F90818091C90489238F3021F1DC
:10218000E0F68B30E1F048F48930B9F18A3029F774
:10219000F70180810E946208E0CF8C30F9F08D3029
:1021A000E1F6F70180810E947408D7CF803951F1A0
:1021B000803A99F6F80180810E946208CECFF7013B
:1021C00080810E946808C9CFF70180810E9497072B
:1021D000C4CFF80180810E946808BFCFF7018081D9
:1021E0000E946E08BACFF80180810E949707B5CF90
:1021F000F80180810E947408B0CFF70180810E94AD
:102200002308ABCFF80180810E942308A6CF2FEFCF
:10221000C21AD20A3EE0A30EB11C8EE0680E711CF9
:10222000E5E0CE16D10409F072CF0E94E0068111DC
:1022300003C080EF8093C9040E941507882319F01A
:1022400084E0809366030E94D505882319F084E01A
:10225000809366030E942B06882319F084E0809304
:102260006603809167038830F1F0813021F190910D
:10227000660381111CC0992319F091509093660355
:10228000DF91CF911F910F91FF90EF90DF90CF9052
:10229000BF90AF909F908F907F906F905F904F9086
:1022A0003F902F90089590916603913069F081508E
:1022B00080936703E0CF0E946D070E941C060E9476
:1022C000690680916703D3CF0E946D070E941C06A8
:1022D0000E94690680916703C8CF80E880936100FF
:1022E000109261000E94050B0E94B7160E94B91659
:1022F0000E94EB1680E890E0909307048093060418
:102300002FEF89E698E1215080409040E1F700C02E
:1023100000000E943D120E94611281110AC0EFEF7D
:10232000F5EA2EE0E150F0402040E1F700C0000067
:10233000F2CF0E94180E0E94310EC1E012E0D0EFE1
:1023400020E8A22EB12CC0930404C093DA031093AA
:10235000B9030E94A2080E949A080E94AC080E9439
:102360000B0FD093C9048FEF95EAEEE081509040B7
:10237000E040E1F700C0000022E348E06AEB73E0D0
:1023800081E00E94641206C08091DA038230D9F2A3
:10239000813039F0809166038111F6CF0E949B0A4B
:1023A000F3CF0E94ED0F809166038111F5CF8091EC
:1023B000030484FF3DC08F708130E9F1811123C097
:1023C000809106049091070480359105D9F18091A0
:1023D0000604909107048037910539F18091060435
:1023E00090910704892B29F4B0920704A092060467
:1023F000D1CF809106049091070401979093070430
:1024000080930604C7CF823011F780910604909123
:10241000070480369105D9F60E94BF0C809106040E
:102420009091070480379105C9F60E94EB16D6CF2C
:102430000E94B916CCCF80910604909107040E94A7
:102440004C0EC5CF85EAE82E82E0F82E90E0C92E2A
:1024500091E0D92EF60181916F01F701228141812E
:10246000608190E00E94DF16F3E0EF0EF11C25E69C
:10247000E21623E0F20671F7AACF81E08093D7003D
:1024800080EA8093D80082E189BD09B400FCFDCFC9
:1024900080E98093D8001092E0001092B00388E0A9
:1024A0008093E20084E08093E20078940E944307E6
:1024B0000E9421070E945E071092050410920204F8
:1024C00008958091B00308959091B0039923E9F0A5
:1024D0009FB7F8943091E400230F8093E900309186
:1024E000E80035FF0DC013C09091E400291769F092
:1024F0009FB7F8948093E9003091E80035FD07C05C
:102500009FBF9091B0039111EFCF81E008954423D4
:1025100071F0FB014150242F30E02F5F3F4F260F19
:10252000371F81918093F100E217F307D1F78AE317
:102530008093E8009FBF80E008951F920F920FB62E
:102540000F9211242F933F934F938F939F938091DA
:10255000E1001092E10083FF0FC01092E90091E0CA
:102560009093EB001092EC0092E09093ED0098E0D5
:102570009093F0001092B00382FF04C08091B003EA
:1025800081110AC09F918F914F913F912F910F9090
:102590000FBE0F901F9018959091AF039F5F89E237
:1025A000989F812D1124869586958695392F22E353
:1025B000829F30191124832F311116C01092AF035E
:1025C0009091E80095FF12C090910404992371F056
:1025D0002091DA0321114AC08091B00381114EC0CD
:1025E00021E02093040402C09093AF039091DB0399
:1025F000992341F28091AE038F5F8093AE03837085
:1026000009F0C0CF81E08093E9008091E80085FF68
:10261000B9CF8091DC038F5F8093DC038913B2CF45
:102620001092DC038091BA038093F1008091BB0388
:102630008093F1008091BC038093F1008091BD03F1
:102640008093F1008091BE038093F1008091BF03DD
:102650008093F1008091C0038093F1008091C103C9
:102660008093F1008AE38093E8008CCF9091B003CF
:10267000911154C081E080930404B8CF8FB7F894CF
:102680003091E40094E09093E9009091E80095FD8A
:1026900020C08FBF8091B003882309F4A1CF80911F
:1026A000E400381709F49CCF44E00BC08FBF809141
:1026B000B003882309F494CF8091E400381709F41B
:1026C0008FCF8FB7F8944093E9009091E80095FF81
:1026D000EDCF9091F1009093B1039091F100909320
:1026E000B2039091F1009093B3039091F100909315
:1026F000B4039091F1009093B5039091F100909301
:10270000B6039091F1009093B7039091F1009093EC
:10271000B8039AE39093E8008FBF63CF9FB7F89414
:102720003091E40024E02093E9002091E80025FDA9
:1027300020C09FBF9091B003992309F49BCF909143
:10274000E400931709F496CF44E00BC09FBF90912B
:10275000B003992309F48ECF9091E400391709F45E
:1027600089CF9FB7F8944093E9002091E80025FFB6
:10277000EDCF2091F1002093B1032091F10020933F
:10278000B2032AE32093E8009FBF75CF1F920F92F8
:102790000FB60F9211242F933F934F935F936F9334
:1027A0007F938F939F93AF93BF93EF93FF93109279
:1027B000E9008091E80083FF38C07091F1004091FA
:1027C000F1008091F1002091F10090E0922B209196
:1027D000F1005091F10030E0352B6091F100E09173
:1027E000F10052EF5093E800463099F1453009F47A
:1027F0003EC1493009F47BC0483009F407C141119A
:10280000B5C18091E80080FFFCCF723809F484C123
:1028100080E08093F1001092F1008EEF8093E80049
:1028200007C02115310509F00AC181E28093EB0050
:10283000FF91EF91BF91AF919F918F917F916F9198
:102840005F914F913F912F910F900FBE0F901F906E
:102850001895811541E0940709F455C18115F2E0FE
:102860009F0709F463C1811542E2940709F425C169
:102870008115F1E29F0709F462C1811523E09207F7
:1028800009F061C2A4E0B0E024E048E751E0862FFF
:1028900090E09E2B8F3F910509F020F48A179B074B
:1028A00008F4262F6EEF8091E8008570E1F38091A7
:1028B000E80082FDBDCF322F293008F41FC138E077
:1028C000FA01832F94919093F100815031968111F8
:1028D000F9CF8FEF830F90E00196480F591F231B0C
:1028E0006093E8002111DFCF3830E9F2A1CF7111F8
:1028F0008FC08093B0038EEF8093E80081E08093D7
:10290000E900E2E4F1E0E491E093EB00EE2309F466
:1029100063C1E3E4F1E0E491E093EC00E4E4F1E08E
:10292000E491E093ED0025E431E082E08093E9005A
:10293000C9010196F90144914093EB00442351F001
:10294000FC0184918093EC00C90103963196249197
:102950002093ED0023E02093E9009C012F5F3F4F7F
:10296000FC0144914093EB00442359F0F901249178
:102970002093EC009C012D5F3F4F31968491809312
:10298000ED0084E08093E900C9010196F9014491CA
:102990004093EB00442351F0FC0184918093EC00C0
:1029A000C9010396319624912093ED0025E02093F0
:1029B000E9009C012F5F3F4FFC0144914093EB00E5
:1029C000442359F0F90124912093EC009C012D5FE0
:1029D0003F4F319684918093ED0086E08093E9002B
:1029E000C9010196F90144914093EB00442341F061
:1029F000FC0184918093EC00319624912093ED00AA
:102A00008EE78093EA001092EA0012CF7038D1F17D
:102A100021153105A1F4713A09F4E1C0713209F0D0
:102A200004CF4930D9F14A3009F485C14B3009F05F
:102A3000FCCE8093DD038EEF8093E800F9CE223048
:102A4000310509F444C02130310509F0EECE713A68
:102A500009F412C1713209F0E8CE4B3009F465C1B6
:102A60004A3009F0E2CE8EEF8093E800E1CE2EEFFF
:102A70002093E8002091E80020FFFCCF806880933D
:102A8000E300D6CE8091E80080FFFCCF8091B003B8
:102A90008093F1008EEF8093E800CACE8091E80029
:102AA00082FFFCCF8091F1008093D9038BEF80935C
:102AB000E8008EEF8093E800BBCE2115310509F0C8
:102AC00047C0A0E4B0E020E44DE752E0E0CE713A28
:102AD00009F403C1713209F0A8CE4A3021F249301D
:102AE00009F0A3CE8091E80082FFFCCF8BEF8093AA
:102AF000E8008091E80080FFFCCFB5CF2111E0CE47
:102B00006093E80095CE232B09F08FCEA2E1B0E0D0
:102B100022E14DEB52E0BBCE2093E9008091EB0027
:102B200085FB882780F91092E90073CE232B09F0EA
:102B30007CCEABE5B0E02BE54CE751E0A8CE21150B
:102B40003105E1F5A9E0B0E029E04EE851E09FCE83
:102B50002230310509F48AC02130310509F065CEF3
:102B6000A4E8B0E024E849EF51E091CE542F5D7F16
:102B7000513009F04DCF723009F04ACF009709F07B
:102B800050CE522F5F776FEF650F663008F049CE59
:102B90008EEF8093E8005093E900433009F445CE6E
:102BA00089E18093EB0081E090E001C0880F5A95A5
:102BB000EAF78093EA001092EA003ACE223031051B
:102BC00009F4ADC02130310509F02FCEA9E0B0E005
:102BD00029E047EA51E05BCE23E431E0A6CE413064
:102BE00089F04230B9F1433009F01FCE8091E800FE
:102BF00080FFFCCF8091DD038093F1008EEF809306
:102C0000E80016CE8091E80080FFFCCF8091BA03E7
:102C10008093F1008091BB038093F1008091BC030D
:102C20008093F1008091BD038093F1008091BE03F9
:102C30008093F1008091BF038093F1008091C003E5
:102C40008093F1008091C1038093F1008EEF809317
:102C5000E800EECD8091E80080FFFCCF8091DB039F
:102C60008093F1008EEF8093E800E2CDA2E2B0E025
:102C700022E247ED51E00BCE413079F0433009F0CC
:102C8000D4CD8091E80080FFFCCF8091F403809345
:102C9000F1008EEF8093E800CBCD8091E80080FFBB
:102CA000FCCF8091DF038093F1008091E00380935B
:102CB000F1008091E1038093F1008091E203809321
:102CC000F1008091E3038093F1008091E40380930D
:102CD000F1008EEF8093E800ABCD413009F0A5CD37
:102CE00028E03EEF8091E800982F9570D9F382FD9F
:102CF0009FCD922F293070F098E0892F1092F1002B
:102D00008150E1F7291B3093E8002111EBCF983077
:102D100049F38ECD2111F1CF3093E80089CDA9E0A0
:102D2000B0E029E040EC51E0B2CD8093F4038EEFA7
:102D30008093E8007DCD9093DB031092DC038EEF4F
:102D40008093E80075CD813043E0940751F08230E4
:102D5000934009F06ACDACE1B0E02CE140E551E0F0
:102D600096CDACE0B0E02CE04CE651E090CD869AF8
:102D7000089580ECE9E0F4E0DF011D928A95E9F71F
:102D800008959C01220F331F820F931FFC01E75F00
:102D9000FB4F618308959C01220F331F820F931F05
:102DA000FC01E75FFB4F608308959C01220F331FF6
:102DB000820F931FFC01E75FFB4F62830895FC01C4
:102DC000EE0FFF1F8E0F9F1FFC01E75FFB4F40833D
:102DD000618322830895F89421B32F7B91B390648B
:102DE000E9E0F4E0819138E091BB000000C087FF8A
:102DF00021BB880F000000C000C000C021BB00C084
:102E00003A9591F784E0E93CF80761F778940895E2
:102E1000EE0FFF1F0590F491E02D0994A29FB001E1
:102E2000B39FC001A39F700D811D1124911DB29FFE
:102E3000700D811D1124911D0895F999FECF92BD49
:102E400081BDF89A992780B50895A8E1B0E042E0E5
:102E500050E00C9432170E944017272F0C94411712
:102E6000DC01CB01FC01F999FECF06C0F2BDE1BD4A
:102E7000F89A319600B40D9241505040B8F7089539
:102E8000262FF999FECF1FBA92BD81BD20BD0FB686
:102E9000F894FA9AF99A0FBE01960895F894FFCF24
:102EA0003F3E3D3C3B3A39383736353433323130AA
:102EB0002F2E2D2C2B2A292827262524232221209A
:102EC0001F1E1D1C1B1A191817161514131211108A
:102ED0000F0E0D0C0B0A090807060504030201007A
:102EE0000E001F002F00400051006200730084009C
:102EF0009500A600B700C800D900EA000E00270020
:102F0000380049005A006B007C008D009E00AE0026
:102F1000BF00D000E100F2000E002B003C004D008D
:102F20005E006F0080009100A200B300C400D500D5
:102F3000E6000E002F004000510062007300840084
:102F40009500A600B700C800D900EA00FB000E00FB
:102F5000230038004D00B700C800D900EA00FB008C
:102F600071111111111111111111111111111110F2
:102F70001010101010101010101010101110101050
:102F8000101010101010101011002211171710102F
:102F900010101010102211112266220000110000E2
:102FA000006666111111353A3B3C3D3E3F404142BF
:102FB0004344452A2B0000000000000000000000F0
:102FC00000003900000000000000000000002800A0
:102FD000025302200000000000000020524C0100BB
:102FE0000400002C000000000050514F041E1F2060
:102FF000212223242526272D2E2A2B141A081517C3
:103000001C180C12132F303139041607090A0B0D46
:103010000E0F33342800021D1B0619051110363718
:103020003820524C01000400002C00000000005029
:10303000514F121314150410160B0C0D0E0F090A24
:103040000807060518ED2032DE0D5BC60076670026
:10305000784D1D882946A01386C402BFDB11B362D8
:1030600031B6305ABE0AD4EA1FEAC51AF79713EDF3
:103070002032D301748A007760087D363797245355
:10308000A703BBE20AB89918B3524AB90E93D314F6
:10309000DEE81FF5A515F56E0AED2032D200767236
:1030A00000785712822E409D1C69B401C0E50EB510
:1030B0007923B4434FBA08BCE21BE3D71DF79F1432
:1030C000ED2032C600766700784D1D882946A01392
:1030D00086C402BFDB11B36231B6305ABE0AD4EAED
:1030E0001FEAC51AF79713F33F01ED2032D8066A9D
:1030F0008A00775712825ABE0AD4EA1FEAC51AF725
:063100009713F33F0100EC
:00000001FF
