:100000000C9468040C9485040C9485040C94850469
:100010000C9485040C9485040C9485040C9485043C
:100020000C9485040C9485040C9495120C94BE13C6
:100030000C9485040C9485040C9485040C9485041C
:100040000C9485040C9485040C9485040C9485040C
:100050000C9485040C9485040C9485040C948504FC
:100060000C9485040C9485040C9485040C948504EC
:100070000C9485040C9485040C9485040C948504DC
:100080000C9485040C9485040C9485040C948504CC
:100090000C9485040C9485040C9485040C948504BC
:1000A0000C9485040C9485040C948504790B890BBD
:1000B000650B910B6F0B810B5B0B950B740B850B19
:1000C000600B8D0B6A0B7D0B560B510B3D0B470BD9
:1000D000330B4C0B380B420B2E0B290B250B280C2A
:1000E000380C140C400C1E0C300C0A0C440C230C65
:1000F000340C0F0C3C0C190C2C0C050C000CEC0BEC
:10010000F60BE20BFB0BE70BF10BDD0BD80BD40B63
:10011000CA0CC70CC40CC10CBE0CBB0CB80CB50C83
:10012000B20CAF0CAC0CA90CA60CA30CA00C9D0C33
:100130009A0C970C940C910C8E0C8B0C880C850CE3
:10014000CD0C01C10601C10601C10601C0060000B7
:100150001C037A00690061006E005F006B0065009F
:10016000790062006F006100720064000C037A0085
:10017000690061006E0031000403090409025B009C
:10018000030100A03209040000010301010009215C
:100190001101000122400007058103080001090444
:1001A0000100010301020009211101000122840064
:1001B0000705820308000109040200020300000091
:1001C0000921110100012222000705830308000113
:1001D000070504030800010631FF0974A101097530
:1001E000150026FF0095087508810209761500267E
:1001F000FF00950875089102C005010902A101855B
:10020000010901A10005091901290515002501753C
:1002100001950581027503950181030501093009E6
:10022000311581257F7508950281060938158125CC
:100230007F35004500750895018106050C0A3802D6
:100240001581257F750895018106C0C005010980CB
:10025000A1018502150126B700190129B77510956E
:10026000018100C0050C0901A10185031501269C2F
:100270000219012A9C02751095018100C00501092F
:1002800006A10175019508050719E029E715002564
:10029000018102950175088103950575010508190D
:1002A00001290591029501750391039506750815BD
:1002B0000026FF000507190029FF8100C012010078
:1002C0000200000008C43260F100020102000100D7
:1002D000000001010102030404050708090A0C0DCE
:1002E0000F1112141617191B1D1F2122242628294D
:1002F0002B2D2E3031333435363738393A3A3B3BB3
:100300003C3C3C3C3C3C3D3D3E3E3F404142434406
:100310004647494A4C4D4F5152545658595B5D5FC0
:100320006062646567696A6B6D6E6F707172737419
:100330007475757676767676767676767676767661
:100340007676767676767677777777777777777744
:100350007777777777777777787878787878787825
:100360007878787878787878787878787879797A09
:100370007A7B7B7C7D7E7F7F808283848586878974
:100380008A8B8C8E8F9091929495969798999A9B40
:100390009C9D9D9E9F9FA0A0A0A1A1A1A1A1A1A263
:1003A000A2A3A3A4A5A6A7A9AAACADAFB0B2B4B6A8
:1003B000B8BABCBEC0C2C4C6C8CACCCED0D2D4D6CD
:1003C000D8D9DBDCDEDFE0E1E2E3E3E4E4E5E5E528
:1003D000E5E4E4E3E2E0DFDDDBD8D6D3D0CDCAC686
:1003E000C2BFBBB7B3AFABA6A29E9A95918D8985CC
:1003F000817D7A7673706D6A676563615F5E5C5B51
:100400005B5A5A5A5A595958575655545351504E87
:100410004C4A484644423F3D3A383633302E2B2929
:100420002724221F1D1B1917151312100F0D0C0B5B
:100430000A090908080808080808080909090A0A31
:100440000A0B0B0C0D0D0E0E0F10101112131314BE
:10045000151516171818191A1A1B1B1C1D1D1E1E00
:100460001E1F1F1F20202020202020202020202091
:100470001F1F1F1F1F1E1E1E1E1D1D1D1C1C1C1BA3
:100480001B1A1A1A191919181818171717161616E9
:100490001615151515151414141414141414141415
:1004A0001413131313121212111110100F0F0E0E3A
:1004B0000D0D0C0B0B0A0A090808070706060504B0
:1004C00004030303020201010101000000000039DE
:1004D00039393939383838373736363534343332B4
:1004E0003231302F2E2D2C2B2B2A2928272625245C
:1004F0002323222120201F1E1E1D1D1C1C1C1B1B14
:100500001B1B1B1B1B1B1B1A1A1A1919191818174E
:10051000161615141413121111100F0E0D0D0C0BCD
:100520000A0908080706060504040303020201017C
:1005300001000000000000000000000000000000BA
:1005400000000000000000000000000000000000AB
:10055000000000000000000000000000000000009B
:100560000000000000000000000000000101020384
:1005700004050607080A0B0D0F11131517191B1D8B
:100580001F212426282A2C2E31333537383A3C3D7A
:100590003F40424344454646474748484848494902
:1005A0004A4B4C4E4F515356585B5D6063666A6DC3
:1005B0007074787B7F83868A8E9195989C9FA2A584
:1005C000A8ABAEB0B3B5B7B9BBBCBDBEBFC0C0C0B1
:1005D000C0C0C0C0C0C0BFBFBFBFBEBEBEBEBDBD2D
:1005E000BDBCBCBBBBBBBABAB9B9B8B8B8B7B7B673
:1005F000B6B6B5B5B4B4B4B4B3B3B3B3B3B2B2B2C0
:10060000B2B2B2B2B2B2B2B2B2B2B2B3B3B3B3B3C5
:10061000B3B4B4B4B4B4B5B5B5B5B6B6B6B6B7B789
:10062000B7B7B7B8B8B8B8B9B9B9B9B9B9B9BABA42
:10063000BABABABABABABABABABBBBBBBCBDBDBE0B
:10064000BFC0C1C2C4C5C6C7C9CACCCDCFD0D2D421
:10065000D5D7D8DADBDDDEE0E1E2E3E5E6E7E8E99D
:10066000EAEAEBECECECEDEDEDEDEDEDECECEBEACC
:10067000E9E8E7E5E4E2E1DFDDDBD9D7D4D2D0CEAB
:10068000CBC9C6C4C2BFBDBBB8B6B4B2B0AEACAACB
:10069000A9A7A6A5A3A2A1A1A0A09F9F9F9F9F9E3F
:1006A0009D9C9B9A99979593918F8D8A888582803E
:1006B0007D7A7773706D6A6764615E5B58555250DE
:1006C0004D4B48464442413F3E3C3B3B3A3939F36F
:1006D000F3F3F3F3F3F3F3F3F2F2F2F2F2F2F2F1F3
:1006E000F1F1F1F1F0F0F0F0F0EFEFEFEFEFEEEE0F
:1006F000EEEEEEEDEDEDEDEDEDEDECECECECECEC2D
:10070000ECECECECECECECEBEBEBEBEAEAE9E9E83B
:10071000E8E7E6E6E5E4E4E3E2E1E0E0DFDEDDDCB5
:10072000DCDBDAD9D9D8D7D7D6D6D5D5D4D4D3D35C
:10073000D3D2D2D2D2D2D2D2D1D1D0CFCECCCBC9B9
:10074000C7C5C3C0BEBBB9B6B3B0ADA9A6A3A09C74
:10075000999693908C898683807E7B79767472706B
:100760006E6D6B6A69686867676767676666656507
:10077000646362615F5E5D5B5A58565553514F4DDD
:100780004B4947454342403E3C3A38373533323097
:100790002F2E2D2C2B2A29282827272727272727C4
:1007A00026262625252423232221201F1E1D1C1B2F
:1007B0001A1918171614131211100F0E0D0B0A091F
:1007C00008080706050404030302020201010101EF
:1007D00001010101010202020203030304040405F2
:1007E0000506060707080809090A0A0B0B0C0C0D79
:1007F0000D0E0E0F0F0F10101011111111121212F9
:1008000012121212121213131415151617181A1B9E
:100810001C1E1F2122242628292B2D2F313335364B
:10082000383A3C3E3F414244454748494A4B4C4D8B
:100830004D4E4E4F4F4F4F4F505152535557595B9E
:100840005D606366696D7174787C8084898D919632
:100850009A9EA2A7ABAFB3B7BABEC2C5C8CBCED023
:10086000D2D4D6D8D9DADBDCDCDCDCDCDCDCDDDDE8
:10087000DDDEDEDFDFE0E0E1E2E2E3E4E4E5E6E75F
:10088000E8E9E9EAEBECEDEDEEEFF0F0F1F2F2F38E
:10089000F4F4F5F5F5F6F6F6F7F7F7F7F7F7F7F7F7
:1008A000F7F7F7F7F7F7F7F7F6F6F6F6F6F6F6F6E0
:1008B000F6F6F5F5F5F5F5F5F5F5F4F4F4F4F4F4EC
:1008C000F4F4F4F4F3F3F3F3F3F3F3F3F3F3F300E7
:1008D00011241FBECFEFDAE0DEBFCDBF13E0A0E0F2
:1008E000B1E0E0E9FEE202C005900D92A436B10746
:1008F000D9F724E0A4E6B3E001C01D92A63CB207FC
:10090000E1F70E94D00C0C9446170C9400003F9223
:100910004F925F926F927F928F929F92AF92BF920F
:10092000CF92DF92EF92FF920F931F93CF93DF93BB
:1009300000D000D01F92CDB7DEB78C010E941D17EA
:100940005C01892B09F404C10E5F1F4F0F3F23E0A8
:10095000120708F0FDC0E12CF12CAFEC4A2EA3E009
:100960005A2EB6E06B2E80E4382E6E0136E0C30EB0
:10097000D11C92E6792E10C0411101C1FFEFEF1A90
:10098000FF0AAE14BF0409F4E3C00E5F1F4F0F3F10
:1009900083E0180708F0DCC0C8010E941D17AC01F5
:1009A000852F552349F39A01ADECBCEC0E94061744
:1009B000FC01F695E795F695E795F695E7959F0185
:1009C000220F331FCF01880F991F880F991F880F9F
:1009D000991F820F931F9A01281B390B2D839F01AA
:1009E0000E94061796958795969587959695879573
:1009F0009C01220F331F880F991F880F991F880FA2
:100A0000991F820F931FE81BF90BEC839A0136950F
:100A1000279536952795ABE7B4E10E940617FC01B0
:100A2000F695E7959F01ADECBCEC0E9406179695F4
:100A3000879596958795969587959C01220F331FEC
:100A4000880F991F880F991F880F991F820F931F76
:100A5000E81BF90BEB839A01369527953695279578
:100A600036952795A5ECB0E20E940617FC01F29599
:100A7000E295EF70EF27FF70EF279F01ADECBCEC24
:100A80000E940617969587959695879596958795D2
:100A90009C01220F331F880F991F880F991F880F01
:100AA000991F820F931FE81BF90BEA839A01329575
:100AB00022952F7023273F702327A7E4B3E00E94DD
:100AC0000617969587959695879596958795898328
:100AD000F201262D11922A95E9F73092CD0322E3F7
:100AE00048E06DEC73E081E00E945C12CE0101965B
:100AF0004C017092CF03F40181914F01882319F0CA
:100B0000885A8093CF0322E348E06DEC73E081E0E4
:100B10000E945C121092CF0322E348E06DEC73E078
:100B200081E00E945C12C814D90419F71092CD0319
:100B30001092CF0322E348E06DEC73E081E00E9465
:100B40005C12FFEFEF1AFF0AAE14BF0409F01DCFCD
:100B50000F900F900F900F900F90DF91CF911F91FA
:100B60000F91FF90EF90DF90CF90BF90AF909F904C
:100B70008F907F906F905F904F903F900895F2011B
:100B8000262D11922A95E9F747FD0DC08093CD03DC
:100B90004F774093CF0322E348E06DEC73E081E0B0
:100BA0000E945C12C3CF80E2F1CF8091D503909177
:100BB000BC03981731F08093BC0381E08093E1037C
:100BC00008958091D6039091BE03981731F08093D9
:100BD000BE0381E08093E10308958091D703909153
:100BE000BF03981719F08093BF03E7CF8091D80314
:100BF0009091C003981719F08093C003DECF8091C5
:100C0000D9039091C103981719F08093C103D5CFF0
:100C10008091DA039091C203981719F08093C20370
:100C2000CCCF8091DB039091C303981719F0809388
:100C3000C303C3CF80E008958091E103811102C016
:100C400081E008951092E10322E348E06CEB73E049
:100C500081E00C945C128091EE039091E30398176D
:100C600029F18093E30381E02091F3033091F403B1
:100C70004091E9035091EA0342175307C9F03093BA
:100C8000EA032093E9032091F5033091F603809164
:100C9000EC039091ED0382179307C9F03093ED03B5
:100CA0002093EC0383E08093F803089580E0DCCF89
:100CB0002091F5033091F6034091EC035091ED0340
:100CC0004217530759F7882381F381E0ECCF82E084
:100CD000EACFCF93DF938091F80383708093F8037A
:100CE000811104C081E0DF91CF9108950E945912D3
:100CF0008823C1F38FB7F894C091E400CE5C92E0F2
:100D00009093E9009091E80095FD14C0D2E00CC0EA
:100D10008091E400C81731F38FB7F894D093E900BD
:100D20009091E80095FD06C08FBF0E945912811175
:100D3000EFCFD8CF9091F803923099F1933011F121
:100D40009130D1F41092F8039091E2039093F10066
:100D50009091E3039093F1009091E4039093F1005C
:100D60009091E5039093F1009091E6039093F10048
:100D70009091E7039093F1009AE39093E8008FBF7E
:100D800080E0B1CF1092F8039091EB039093F100C3
:100D90009091EC039093F1009091ED039093F1000A
:100DA000EBCF1092F8039091E8039093F1009091AB
:100DB000E9039093F1009091EA039093F100DCCF66
:100DC0008091EE0381112FC08091F3039091F40381
:100DD000892B49F58091F5039091F603892B19F53C
:100DE0008091D60381111FC08091D70381111BC050
:100DF0008091D803811117C08091D903811113C04C
:100E00008091DA0381110FC08091DB0381110BC047
:100E10008091D503811107C081E090910704911161
:100E200003C080E0089581E00895809107049091C7
:100E30000504981721F08093050481E0089580E06F
:100E40000895CF93DF938CE0E9EFF3E0DF01C82F43
:100E50001D92CA95E9F7E2EEF3E0DF011D928A9553
:100E6000E9F7AEEEB3E08BE0ED0119928A95E9F770
:100E700081E0808392E0968393E0918719968C932A
:100E8000DF91CF91089588E0EDECF3E0DF01982F3A
:100E90001D929A95E9F7ECEBF3E0DF011D928A953C
:100EA000E9F7E5EDF3E08DE0DF011D928A95E9F7C2
:100EB00081E0808783878DE78187089588E0E5EC6E
:100EC000F3E0DF01982F1D929A95E9F7E4EBF3E048
:100ED000DF011D928A95E9F708959091050490FF2E
:100EE00006C02091C40380E282278093C40391FF4F
:100EF00006C02091C40380E182278093C40393FD40
:100F000010C0892F807295FF0BC08091C4038F5F42
:100F1000982F9F70933008F0807F8093C40381E006
:100F200008958CEB91E00E94870481E0089584305D
:100F300031F090910704892B8093070408959091D4
:100F4000BC03992389F19091D603953391F32091B5
:100F5000D703253371F33091D803353351F34091E2
:100F6000D903453331F35091DA03553311F36091CE
:100F7000DB036533F1F2992309F447C0222309F416
:100F80004AC0332309F450C0442309F453C0552305
:100F900009F453C06111CDCF25E030E0F901EB52E7
:100FA000FC4F95E39183C5CF9091D603993209F216
:100FB0002091D703293209F4BCCF3091D8033932BC
:100FC00009F4B7CF4091D903493209F4B2CF509117
:100FD000DA03593209F4ADCF6091DB03693209F4C9
:100FE000A8CF9923A9F02223C9F03323D1F04423B9
:100FF000F1F0552329F161119CCF25E030E0F90192
:10100000EB52FC4F99E2918394CF20E030E0C6CFC1
:1010100020E030E0F4CF21E030E0C0CF21E030E04C
:10102000EECF22E030E0EBCF22E030E0B7CF23E09C
:1010300030E0E5CF23E030E0B1CF24E030E0AECFC8
:1010400024E030E0DCCF9091D603891711F1209194
:10105000D7038217F1F03091D8038317D1F0409174
:10106000D9038417B1F05091DA03851791F060919C
:10107000DB03681771F0992371F02223A1F0332369
:10108000A9F04423B1F05523B9F06623C1F080E004
:10109000089581E0089520E030E0F901EB52FC4F23
:1010A000818381E0089521E030E0F7CF22E030E055
:1010B000F4CF23E030E0F1CF24E030E0EECF25E0C4
:1010C00030E0EBCFE5EDF3E09081892B808308954C
:1010D000EEEEF3E09081892B8083089590E0909369
:1010E000F4038093F3030895982F907F9039D9F0FB
:1010F00038F0903C91F0903E81F0903B71F0089573
:10110000903221F0903879F09111F9CF90E092600F
:101110009093F6038093F503089590E09093F6037F
:101120008093F503089590E091609093F603809387
:10113000F5030895EEEEF3E0108216821582108614
:101140001782089586E0E6EDF3E0DF011D928A95AF
:10115000E9F71092D5030895CF92DF92EF92FF92B4
:101160000F931F93CF93DF9380E090E00E941D17B1
:10117000EC0182E090E00E941D178C0184E090E079
:101180000E941D177C0186E090E00E941D176C01F3
:1011900088E090E00E941D172A9749F0DF91CF91D7
:1011A0001F910F91FF90EF90DF90CF9008950F3037
:1011B0001105A1F72EE1E216F10481F7E9E6CE165A
:1011C000D10461F7843B910549F78AE090E00E94E1
:1011D00015178093A7028BE090E00E94151780936B
:1011E000A8028CE090E00E9415178093A9028DE080
:1011F00090E00E9415178093AA028EE090E00E9472
:1012000015178093AB028FE090E00E941517809332
:10121000980280E190E00E9415178093990281E185
:1012200090E00E94151780939A0282E190E00E945C
:10123000151780939B0283E190E00E94151780931D
:101240009C0284E190E00E94151780939D0285E145
:1012500090E00E94151780939E0286E190E00E9424
:10126000151780939F0287E190E00E9415178093E5
:10127000A00288E190E00E9415178093A10289E105
:1012800090E00E9415178093A2028AE190E00E94EC
:1012900015178093A3028BE190E00E9415178093AD
:1012A000A4028CE190E00E9415178093A5028DE1C5
:1012B00090E00E9415178093A6020DE412E0C0E0B2
:1012C000D0E0CE014E960E941517F8018083CE0122
:1012D0004F960E941517F8018183CE0180960E94D7
:1012E0001517F8018283CE0181960E941517F80127
:1012F0008383CE0182960E941517F8018483CE0164
:1013000083960E941517F8018583CE0184960E946A
:101310001517F8018683CE0185960E941517F801EE
:101320008783CE0186960E941517F8018087CE012B
:1013300087960E941517F8018187CE0188960E9432
:101340001517F8018287CE0189960E941517F801BA
:101350008387CE018A960E941517F8018487CE01F3
:101360008B960E941517F8018587CE018C960E94F6
:101370001517F80186872F96015F1F4FCB34D105D3
:1013800009F09FCF02E012E0C0E0D0E0CE01875923
:101390009F4F0E941517F8018083CE0186599F4FF9
:1013A0000E941517F8018183CE0185599F4F0E9435
:1013B0001517F8018283CE0184599F4F0E9415179B
:1013C000F8018383CE0183599F4F0E941517F801BE
:1013D0008483CE0182599F4F0E941517F80185839F
:1013E000CE0181599F4F0E941517F8018683CE01C7
:1013F00080599F4F0E941517F8018783CE018F589F
:101400009F4F0E941517F8018087CE018E589F4F7D
:101410000E941517F8018187CE018D589F4F0E94B9
:101420001517F8018287CE018C589F4F0E9415171F
:10143000F8018387CE018B589F4F0E941517F80142
:101440008487CE018A589F4F0E941517F80185871F
:10145000CE0189589F4F0E941517F80186872F9655
:10146000015F1F4FCB34D10509F090CF04EB10E0A2
:10147000E12CF12C8FE0D82EC8010E941517DE9CBC
:10148000E001DF9CD00D1124C954DE4F8883C801D0
:1014900001960E9415178983C80102960E941517AC
:1014A0008A83C80103960E9415178B83C80104968E
:1014B0000E9415178C83C80105960E9415178D830D
:1014C000C80106960E9415178E83C80107960E94D0
:1014D00015178F83C80108960E9415178887C801C1
:1014E00009960E9415178987C8010A960E94151748
:1014F0008A87C8010B960E9415178B87C8010C9626
:101500000E9415178C87C8010D960E9415178D87AC
:10151000C8010E960E9415178E87FFEFEF1AFF0A7B
:10152000015F1F4F25E0E216F10409F0A5CFCCEAD8
:10153000D2E00FEF10E00C5A1240C8018C0F9D1F33
:101540000E941517899383E0C336D807B1F786EB5D
:1015500091E00E9415178093080420CECF93DF936B
:101560008091060481111BC0C091B403D091B503D2
:10157000CF3F21EFD207B1F0CF3F82EFD80709F478
:101580004AC08091DD038823B9F088E0E4EBF3E002
:10159000DF011D928A95E9F781E080930604DF91CF
:1015A000CF9108958091DD03813009F43EC081110F
:1015B000ECCF0E942A0E1DC00E942A0ECE3FA3E04F
:1015C000DA0748F4F999FECF6091B6037091B7033A
:1015D000CE010E942317CE0102968E3FB3E09B07F7
:1015E00040F4F999FECF6091B8037091B9030E945D
:1015F0002317CE0104968E3F23E0920718F00E9435
:101600002B0EC3CFF999FECF6091BA037091BB0343
:101610000E942317F4CF8091DD038111B6CF0E9481
:101620002B0E82E08093DD03B0CF1092DD03ADCFAF
:1016300080E885BF85BF089590E08931910540F429
:10164000FC01EA5AFF4F0C9400176111A2C06E987A
:101650000895662309F46DC0559A0895662309F428
:101660006AC0549A0895662309F46DC0859A089556
:10167000662309F464C0819A0895662309F467C05B
:10168000879A0895662309F458C0809A08956623BE
:1016900009F45BC0869A0895662309F452C0849ABF
:1016A0000895662309F455C0269A0895662309F41F
:1016B00060C0259A0895662309F453C0519A08958D
:1016C000662309F45EC03F9A0895662309F445C075
:1016D000229A0895662309F450C0579A0895662304
:1016E00009F443C0279A0895662309F44EC0539A1B
:1016F0000895662381F1209A08956623E1F1249AE2
:101700000895662381F1509A08956623E1F13E9A87
:101710000895662321F1219A0895662381F1569A4E
:101720000895662321F1239A0895662381F1529A40
:10173000089555980895549808958098089581982B
:1017400008958498089585980895869808958798AF
:10175000089526980895209808952298089521982C
:1017600008955198089550980895279808952398BA
:10177000089525980895249808955798089556989F
:1017800008953F9808953E98089553980895529863
:1017900008956E9A089590E08931910540F4FC0116
:1017A000E159FF4F0C9400176111A2C0769808957B
:1017B000662309F46DC05D9A0895662309F46AC032
:1017C0005C9A0895662309F46DC08D9A0895662386
:1017D00009F464C0899A0895662309F467C08F9A52
:1017E0000895662309F458C0889A0895662309F479
:1017F0005BC08E9A0895662309F452C08C9A0895AE
:10180000662309F455C02E9A0895662309F460C032
:101810002D9A0895662309F453C0599A08956623B2
:1018200009F45EC0479A0895662309F445C02A9AD0
:101830000895662309F450C05F9A0895662309F459
:1018400043C02F9A0895662309F44EC05B9A089509
:10185000662381F1289A08956623E1F12C9A089570
:10186000662381F1589A08956623E1F1469A089516
:10187000662321F1299A0895662381F15E9A0895DD
:10188000662321F12B9A0895662381F15A9A0895CF
:101890005D9808955C9808958898089589980895AA
:1018A0008C9808958D9808958E9808958F9808952E
:1018B0002E980895289808952A98089529980895AB
:1018C00059980895589808952F9808952B98089539
:1018D0002D9808952C9808955F9808955E9808951E
:1018E00047980895469808955B9808955A980895E2
:1018F000769A089590E08931910510F080E008957E
:10190000FC01E857FF4F0C94001789B180720895CD
:1019100089B1807108958FB1817008958FB18270FF
:1019200008958FB1807108958FB1807208958FB13D
:10193000807408958FB18078089583B1807408957C
:1019400083B18072089583B18071089589B18078E0
:10195000089589B18074089586B18078089586B11C
:101960008074089589B18870089589B1847008954C
:1019700089B18270089589B18170089583B18078AA
:10198000089583B18870089583B18470089583B1F8
:101990008270089583B1817008958CB18074089528
:1019A0000C946511AF92BF92CF92DF92EF92FF92AB
:1019B0000F931F93CF93DF93A12CB12C10E00FE076
:1019C000C0E0D0E00A9DC0010B9D900D11249C0148
:1019D0002A593C4F69019C0129543E4F790116C098
:1019E000208140816081E12FF0E0E050FF4F808155
:1019F00090E00E94D716F701EC0FFD1F80818777DA
:101A000009F01F5F2196CF30D105A1F01D33D0F72B
:101A1000F601EC0FFD1F80818111E2CFE12FF0E094
:101A2000E050FF4F808120E040E060E090E00E94C5
:101A3000D716E1CF2FEFA21AB20A35E0A316B104F0
:101A400009F0BECF80E090E02FE0289FF001299FB1
:101A5000F00D1124EA59FC4F3081332319F0308105
:101A600036953083289FF001299FF00D1124EA5903
:101A7000FC4F3181332319F0318136953183289F12
:101A8000F001299FF00D1124EA59FC4F32813323D4
:101A900019F0328136953283289FF001299FF00D8D
:101AA0001124EA59FC4F3381332319F033813695E1
:101AB0003383289FF001299FF00D1124EA59FC4F30
:101AC0003481332319F0348136953483289FF00113
:101AD000299FF00D1124EA59FC4F3581332319F069
:101AE000358136953583289FF001299FF00D11240B
:101AF000EA59FC4F3681332319F036813695368307
:101B0000289FF001299FF00D1124EA59FC4F3781DD
:101B1000332319F0378136953783289FF001299FA9
:101B2000F00D1124EA59FC4F3085332319F030852C
:101B300036953087289FF001299FF00D1124EA592E
:101B4000FC4F3185332319F0318536953187289F35
:101B5000F001299FF00D1124EA59FC4F32853323FF
:101B600019F0328536953287289FF001299FF00DB4
:101B70001124EA59FC4F3385332319F03385369508
:101B80003387289FF001299FF00D1124EA59FC4F5B
:101B90003485332319F0348536953487289FF00136
:101BA000299FF00D1124EA59FC4F3585332319F094
:101BB000358536953587289FF001299FF00D112432
:101BC000EA59FC4F3685332319F03685369536872A
:101BD00001968530910509F038CFDF91CF911F91A3
:101BE0000F91FF90EF90DF90CF90BF90AF9008954E
:101BF0000F931F93CF93DF93C8E9D2E08E0160E08B
:101C000089910E941C0B61E0F80180810E94CB0B3E
:101C1000F2E0C73ADF0791F7DF91CF911F910F9163
:101C200008950F931F93CF93DF93C7EAD2E08E01FD
:101C300060E089910E941C0B61E0F80180810E94A4
:101C4000CB0BF2E0CC3ADF0791F7DF91CF911F91F8
:101C50000F910895089508950F931F93CF93DF93E5
:101C60008033910509F443C08034910509F48DC097
:101C700080319105D1F0809709F462C080E090E056
:101C8000FC01EE0FFF1FE35CFE4F20813181211527
:101C9000324010F01182108201968D33910581F748
:101CA000DF91CF911F910F91089580E090E0FC01AA
:101CB000EE0FFF1FDF01A35CBE4F2D913C911197EA
:101CC0002115324018F011961C921E92E35CFE4FD3
:101CD000208131812F5F3F4F3183208301968D33E7
:101CE000910529F7DF91CF911F910F910895C0E0E1
:101CF000D1E0CE0180509140880F991FFC01E35C38
:101D0000FE4F208131812115324010F01182108266
:101D1000FC01E35CFE4F0190F081E02DE153FB4FAD
:101D200064916093C504899190E00E94C31681E09C
:101D3000CD33D807F1F6DF91CF911F910F91089520
:101D4000C0E0D1E0CE0180509140880F991FFC0186
:101D5000E35CFE4F208131812115324010F0118269
:101D60001082FC01E35CFE4F0190F081E02DE15315
:101D7000FD4F649160930B04899190E00E94CD1611
:101D800081E0CD33D807F1F68BCF0DE311E0C0E051
:101D9000D1E0CE0180509140880F991FFC01E35C97
:101DA000FE4F208131812115324010F011821082C6
:101DB000FC01E35CFE4F0190F081E02DE153F94F0F
:101DC00064916093C404899190E00E94B9160C1745
:101DD0001D07F9F665CF2F923F924F925F926F9257
:101DE0007F928F929F92AF92BF92CF92DF92EF92AB
:101DF000FF920F931F93CF93DF93809108048093FA
:101E0000C4030E94B1160E94E31694E0492E512C9F
:101E10002FE0222E33243A9430E8E32EF12C812C4B
:101E2000912C249CC001259C900D11249C012954C7
:101E30003E4F69019C012A593C4F590184E4682EA8
:101E4000712C64187508F601E80DF91D80818777FB
:101E5000D9F1F501E80DF91D30828301080D191D36
:101E6000C0E0D0E00DC08091090490910A04019770
:101E700090930A048093090421960C171D0720F102
:101E80008FEA94E00197F1F700C000008091090407
:101E900090910A048036910509F472C0809109047A
:101EA00090910A048037910509F467C08091090474
:101EB00090910A04892BB9F6F0920A04E092090481
:101EC00021960C171D07E0F62FEF821A920A3FE0C9
:101ED0008316910409F0B7CF91E0491A510808F030
:101EE0009ECFC1EFD0E000E810E00BC08091090464
:101EF00090910A04019790930A0480930904219712
:101F000001F18FEA94E00197F1F700C000008091A1
:101F1000090490910A0480369105C1F18091090469
:101F200090910A048037910571F180910904909194
:101F30000A04892BD9F610930A0400930904219707
:101F400001F780E890E090930A04809309040E94CE
:101F5000B116DF91CF911F910F91FF90EF90DF901D
:101F6000CF90BF90AF909F908F907F906F905F9039
:101F70004F903F902F900C94E3160E94E31696CF5B
:101F80000E94D20C8BCF0E94E316CFCF0E94D20CBE
:101F9000C5CF2F923F924F925F926F927F928F9216
:101FA0009F92AF92BF92CF92DF92EF92FF920F93E8
:101FB0001F93CF93DF9300D000D0CDB7DEB727EAD1
:101FC00032E03A832983612C712C37EAE32E32E028
:101FD000F32E4FE0242E44244A945FE0352E68E02F
:101FE000562E7CEAA72E72E0B72E89819A819C83B7
:101FF0008B8361E0FC018191FA83E9830E941C0BD1
:1020000060E0EB81FC8180810E94CB0B08E912E04B
:10201000269CC001279C900D11249C0129543E4F01
:102020004901FC01EA59FC4F6F010EC0808187779E
:1020300080832B813C81280D391DF90180818E3EE2
:1020400029F1E016F10639F19801285932403C8314
:102050002B83F80181918F010E947A0CEB81FC8126
:10206000E80DF91D8111E2CF80818868808350924C
:102070006503EB81FC81EC0DFD1D40822B813C81D1
:10208000280D391DF90180818E3ED9F63092C304A6
:10209000E016F106C9F607EA12E01C830B8360E044
:1020A000F80181918F010E941C0B61E0EB81FC81A2
:1020B00080810E94CB0BA016B10679F7FFEF6F1A53
:1020C0007F0A25E06216710409F08FCF0E94A208F2
:1020D0000E949A08109207048DE4A82E82E0B82E80
:1020E00092E0692E92E0792EC12CD12C2FE0522E55
:1020F000730185011A8219825C9CC0015D9C900D60
:102100001124FC01E954FE4F4F0120C0803B09F42B
:1021100050C0E0F1803D09F45BC0803F09F453C03A
:10212000803C21F4F80180810E946E0829813A8167
:102130002F5F3F4F3A8329830F5F1F4F3FEFE31A13
:10214000F30A89819A810F9709F451C0E981FA81D4
:10215000E80DF91D90818091C30489238F3021F10E
:10216000A8F68B30E1F048F48930B9F18A30F1F605
:10217000F70180810E946208D9CF8C30F9F08D3050
:10218000A9F6F70180810E947408D0CF803951F1FF
:10219000803A61F6F80180810E946208C7CFF7019A
:1021A00080810E946808C2CFF70180810E94970752
:1021B000BDCFF80180810E946808B8CFF701808107
:1021C0000E946E08B3CFF80180810E949707AECFBE
:1021D000F80180810E947408A9CFF70180810E94D4
:1021E0002308A4CFF80180810E9423089FCF9FEF8E
:1021F000C91AD90AEFE0AE0EB11CFFE06F0E711CD8
:1022000025E0C216D10409F073CF0E94E0068111C7
:1022100003C080EF8093C3040E941507882319F040
:1022200084E0809364030E94D505882319F084E03C
:10223000809364030E942B06811126C08091650360
:10224000883049F1813079F190916403811127C080
:10225000992319F09150909364030F900F900F9071
:102260000F90DF91CF911F910F91FF90EF90DF9032
:10227000CF90BF90AF909F908F907F906F905F9026
:102280004F903F902F90089584E080936403809155
:1022900065038830B9F690916403913069F08150FC
:1022A00080936503D5CF0E946D070E941C060E9493
:1022B000690680916503C8CF0E946D070E941C06C5
:1022C0000E94690680916503BDCF80E8809361001C
:1022D000109261000E94180B0E94AF160E94B11666
:1022E0000E94E31680E890E090930A04809309042A
:1022F0002FEF89E698E1215080409040E1F700C03F
:1023000000000E9435120E94591281110AC0EFEF9D
:10231000F5EA2EE0E150F0402040E1F700C0000077
:10232000F2CF0E94F80D0E94110EC1E012E0D0EF32
:1023300020E8A22EB12CC0930604C093DD031093B5
:1023400008040E94A2080E949A080E94AC080E94F9
:10235000EB0ED093C3048FEF95EAEEE081509040EE
:10236000E040E1F700C0000022E348E06CEB73E0DE
:1023700081E00E945C1206C08091DD038230D9F2B8
:10238000813039F0809164038111F6CF0E94AE0A4A
:10239000F3CF0E94C90F809164038111F5CF809122
:1023A000C40384FF3DC08F708130E9F1811123C0E7
:1023B0008091090490910A0480359105D9F18091AA
:1023C000090490910A048037910539F1809109043C
:1023D00090910A04892B29F4B0920A04A09209046E
:1023E000D1CF8091090490910A04019790930A0437
:1023F00080930904C7CF823011F78091090490912E
:102400000A0480369105D9F60E94D20C8091090405
:1024100090910A0480379105C9F60E94E316D6CF41
:102420000E94B116CCCF8091090490910A040E94B9
:102430002C0EC5CF8CEAE82E82E0F82E90E0C92E53
:1024400091E0D92EF60181916F01F701228141813E
:10245000608190E00E94D716F3E0EF0EF11C23E6B6
:10246000E21623E0F20671F7AACF81E08093D7004D
:1024700080EA8093D80082E189BD09B400FCFDCFD9
:1024800080E98093D8001092E0001092B30388E0B6
:102490008093E20084E08093E20078940E944307F6
:1024A0000E9421070E945E07109207041092050403
:1024B00008958091B30308959091B3039923E9F0AF
:1024C0009FB7F8943091E400230F8093E900309196
:1024D000E80035FF0DC013C09091E400291769F0A2
:1024E0009FB7F8948093E9003091E80035FD07C06C
:1024F0009FBF9091B3039111EFCF81E008954423E2
:1025000071F0FB014150242F30E02F5F3F4F260F29
:10251000371F81918093F100E217F307D1F78AE327
:102520008093E8009FBF80E008951F920F920FB63E
:102530000F9211242F933F934F938F939F938091EA
:10254000E1001092E10083FF0FC01092E90091E0DA
:102550009093EB001092EC0092E09093ED0098E0E5
:102560009093F0001092B30382FF04C08091B303F4
:1025700081110AC09F918F914F913F912F910F90A0
:102580000FBE0F901F9018959091B2039F5F89E244
:10259000989F812D1124869586958695392F22E363
:1025A000829F30191124832F311116C01092B2036B
:1025B0009091E80095FF12C090910604992371F064
:1025C0002091DD0321114AC08091B30381114EC0D7
:1025D00021E02093060402C09093B2039091DE03A1
:1025E000992341F28091B1038F5F8093B10383708F
:1025F00009F0C0CF81E08093E9008091E80085FF79
:10260000B9CF8091DF038F5F8093DF038913B2CF4F
:102610001092DF038091BC038093F1008091BD0391
:102620008093F1008091BE038093F1008091BF03FD
:102630008093F1008091C0038093F1008091C103E9
:102640008093F1008091C2038093F1008091C303D5
:102650008093F1008AE38093E8008CCF9091B303DC
:10266000911154C081E080930604B8CF8FB7F894DD
:102670003091E40094E09093E9009091E80095FD9A
:1026800020C08FBF8091B303882309F4A1CF80912C
:10269000E400381709F49CCF44E00BC08FBF809151
:1026A000B303882309F494CF8091E400381709F428
:1026B0008FCF8FB7F8944093E9009091E80095FF91
:1026C000EDCF9091F1009093B4039091F10090932D
:1026D000B5039091F1009093B6039091F10090931F
:1026E000B7039091F1009093B8039091F10090930B
:1026F000B9039091F1009093BA039091F1009093F7
:10270000BB039AE39093E8008FBF63CF9FB7F89421
:102710003091E40024E02093E9002091E80025FDB9
:1027200020C09FBF9091B303992309F49BCF909150
:10273000E400931709F496CF44E00BC09FBF90913B
:10274000B303992309F48ECF9091E400391709F46B
:1027500089CF9FB7F8944093E9002091E80025FFC6
:10276000EDCF2091F1002093B4032091F10020934C
:10277000B5032AE32093E8009FBF75CF1F920F9205
:102780000FB60F9211242F933F934F935F936F9344
:102790007F938F939F93AF93BF93EF93FF93109289
:1027A000E9008091E80083FF38C07091F10040910A
:1027B000F1008091F1002091F10090E0922B2091A6
:1027C000F1005091F10030E0352B6091F100E09183
:1027D000F10052EF5093E800463099F1453009F48A
:1027E0003EC1493009F47BC0483009F407C14111AA
:1027F000B5C18091E80080FFFCCF723809F484C134
:1028000080E08093F1001092F1008EEF8093E80059
:1028100007C02115310509F00AC181E28093EB0060
:10282000FF91EF91BF91AF919F918F917F916F91A8
:102830005F914F913F912F910F900FBE0F901F907E
:102840001895811541E0940709F455C18115F2E00E
:102850009F0709F463C1811542E2940709F425C179
:102860008115F1E29F0709F462C1811523E0920707
:1028700009F061C2A4E0B0E024E048E751E0862F0F
:1028800090E09E2B8F3F910509F020F48A179B075B
:1028900008F4262F6EEF8091E8008570E1F38091B7
:1028A000E80082FDBDCF322F293008F41FC138E087
:1028B000FA01832F94919093F10081503196811108
:1028C000F9CF8FEF830F90E00196480F591F231B1C
:1028D0006093E8002111DFCF3830E9F2A1CF711108
:1028E0008FC08093B3038EEF8093E80081E08093E4
:1028F000E900E2E4F1E0E491E093EB00EE2309F477
:1029000063C1E3E4F1E0E491E093EC00E4E4F1E09E
:10291000E491E093ED0025E431E082E08093E9006A
:10292000C9010196F90144914093EB00442351F011
:10293000FC0184918093EC00C901039631962491A7
:102940002093ED0023E02093E9009C012F5F3F4F8F
:10295000FC0144914093EB00442359F0F901249188
:102960002093EC009C012D5F3F4F31968491809322
:10297000ED0084E08093E900C9010196F9014491DA
:102980004093EB00442351F0FC0184918093EC00D0
:10299000C9010396319624912093ED0025E0209300
:1029A000E9009C012F5F3F4FFC0144914093EB00F5
:1029B000442359F0F90124912093EC009C012D5FF0
:1029C0003F4F319684918093ED0086E08093E9003B
:1029D000C9010196F90144914093EB00442341F071
:1029E000FC0184918093EC00319624912093ED00BA
:1029F0008EE78093EA001092EA0012CF7038D1F18E
:102A000021153105A1F4713A09F4E1C0713209F0E0
:102A100004CF4930D9F14A3009F485C14B3009F06F
:102A2000FCCE8093E0038EEF8093E800F9CE223055
:102A3000310509F444C02130310509F0EECE713A78
:102A400009F412C1713209F0E8CE4B3009F465C1C6
:102A50004A3009F0E2CE8EEF8093E800E1CE2EEF0F
:102A60002093E8002091E80020FFFCCF806880934D
:102A7000E300D6CE8091E80080FFFCCF8091B303C5
:102A80008093F1008EEF8093E800CACE8091E80039
:102A900082FFFCCF8091F1008093DC038BEF809369
:102AA000E8008EEF8093E800BBCE2115310509F0D8
:102AB00047C0A0E4B0E020E44DE752E0E0CE713A38
:102AC00009F403C1713209F0A8CE4A3021F249302D
:102AD00009F0A3CE8091E80082FFFCCF8BEF8093BA
:102AE000E8008091E80080FFFCCFB5CF2111E0CE57
:102AF0006093E80095CE232B09F08FCEA2E1B0E0E1
:102B000022E14DEB52E0BBCE2093E9008091EB0037
:102B100085FB882780F91092E90073CE232B09F0FA
:102B20007CCEABE5B0E02BE54CE751E0A8CE21151B
:102B30003105E1F5A9E0B0E029E04EE851E09FCE93
:102B40002230310509F48AC02130310509F065CE03
:102B5000A4E8B0E024E849EF51E091CE542F5D7F26
:102B6000513009F04DCF723009F04ACF009709F08B
:102B700050CE522F5F776FEF650F663008F049CE69
:102B80008EEF8093E8005093E900433009F445CE7E
:102B900089E18093EB0081E090E001C0880F5A95B5
:102BA000EAF78093EA001092EA003ACE223031052B
:102BB00009F4ADC02130310509F02FCEA9E0B0E015
:102BC00029E047EA51E05BCE23E431E0A6CE413074
:102BD00089F04230B9F1433009F01FCE8091E8000E
:102BE00080FFFCCF8091E0038093F1008EEF809313
:102BF000E80016CE8091E80080FFFCCF8091BC03F6
:102C00008093F1008091BD038093F1008091BE0319
:102C10008093F1008091BF038093F1008091C00305
:102C20008093F1008091C1038093F1008091C203F1
:102C30008093F1008091C3038093F1008EEF809325
:102C4000E800EECD8091E80080FFFCCF8091DE03AC
:102C50008093F1008EEF8093E800E2CDA2E2B0E035
:102C600022E247ED51E00BCE413079F0433009F0DC
:102C7000D4CD8091E80080FFFCCF8091F703809352
:102C8000F1008EEF8093E800CBCD8091E80080FFCB
:102C9000FCCF8091E2038093F1008091E303809365
:102CA000F1008091E4038093F1008091E50380932B
:102CB000F1008091E6038093F1008091E703809317
:102CC000F1008EEF8093E800ABCD413009F0A5CD47
:102CD00028E03EEF8091E800982F9570D9F382FDAF
:102CE0009FCD922F293070F098E0892F1092F1003B
:102CF0008150E1F7291B3093E8002111EBCF983088
:102D000049F38ECD2111F1CF3093E80089CDA9E0B0
:102D1000B0E029E040EC51E0B2CD8093F7038EEFB4
:102D20008093E8007DCD9093DE031092DF038EEF59
:102D30008093E80075CD813043E0940751F08230F4
:102D4000934009F06ACDACE1B0E02CE140E551E000
:102D500096CDACE0B0E02CE04CE651E090CD579A37
:102D6000089587EBECE0F4E0DF011D928A95E9F726
:102D700008959C01220F331F820F931FFC01E45F13
:102D8000FB4F618308959C01220F331F820F931F15
:102D9000FC01E45FFB4F608308959C01220F331F09
:102DA000820F931FFC01E45FFB4F62830895FC01D7
:102DB000EE0FFF1F8E0F9F1FFC01E45FFB4F408350
:102DC000618322830895F8942BB12F779BB190688B
:102DD000ECE0F4E0819138E09BB9000000C087FF8F
:102DE0002BB9880F000000C000C000C02BB900C084
:102DF0003A9591F784E0E33CF80761F778940895F9
:102E0000EE0FFF1F0590F491E02D0994A29FB001F1
:102E1000B39FC001A39F700D811D1124911DB29F0E
:102E2000700D811D1124911D0895F999FECF92BD59
:102E300081BDF89A992780B50895A8E1B0E042E0F5
:102E400050E00C942A170E943817272F0C9439173A
:102E5000DC01CB01FC01F999FECF06C0F2BDE1BD5A
:102E6000F89A319600B40D9241505040B8F7089549
:102E7000262FF999FECF1FBA92BD81BD20BD0FB696
:102E8000F894FA9AF99A0FBE01960895F894FFCF34
:102E9000000102030405060708090A0B0C0D0E0FBA
:102EA000101112131415161718191A1B1C1D1E1FAA
:102EB000202122232425262728292A2B2C2D2E2F9A
:102EC000303132333435363738393A3B3C0E001F17
:102ED000002F00400051006200730084009500A69E
:102EE00000B700C800D900EA000E002700380049EA
:102EF000005A006B007C008D009E00AE00BF00D029
:102F000000E100F2000E002B003C004D005E006F5F
:102F10000080009100A200B300C400D500E6000EBE
:102F2000002F00400051006200730084009500A64D
:102F300000B700C800EA000E00230038004D00B7BB
:102F400000C800D900EA00711111111111111111FD
:102F5000111111110011110010101010101010108B
:102F60001010101010110010101010101010101070
:102F7000101011000022111717101010101010104F
:102F80002211112266002200001100000066661165
:102F90001111353A3B3C3D3E3F40414243444500E0
:102FA0004C2B0000000000000000000000000000AA
:102FB00039000000000000000000000028000000B0
:102FC000025302200000000000000020524C0100CB
:102FD000000400002C000000000050514F041E1F90
:102FE00020212223242526272D2E002A2B00141AE7
:102FF0000815171C180C12132F303139000416074E
:10300000090A0B0D0E0F3334280000021D1B061990
:1030100005111036373820524C0100000400002CF6
:10302000000000000050514F101112131415180029
:10303000010203050607080A090F0E0DED2032DE16
:103040000D5BC600766700784D1D882946A0138663
:10305000C402BFDB11B36231B6305ABE0AD4EA1FD4
:10306000EAC51AF79713ED2032D301748A0077600E
:10307000087D3637972453A703BBE20AB89918B3E3
:10308000524AB90E93D314DEE81FF5A515F56E0A62
:10309000ED2032D200767200785712822E409D1CAD
:1030A00069B401C0E50EB57923B4434FBA08BCE258
:1030B0001BE3D71DF79F14ED2032C600766700781A
:1030C0004D1D882946A01386C402BFDB11B36231AF
:1030D000B6305ABE0AD4EA1FF79713ED2032D8064D
:1030E0006A8A00775712825ABE0AD4EA1FEAC51AC2
:0430F000F79713003B
:00000001FF
