:100000000C9468040C9485040C9485040C94850469
:100010000C9485040C9485040C9485040C9485043C
:100020000C9485040C9485040C9409120C943213DE
:100030000C9485040C9485040C9485040C9485041C
:100040000C9485040C9485040C9485040C9485040C
:100050000C9485040C9485040C9485040C948504FC
:100060000C9485040C9485040C9485040C948504EC
:100070000C9485040C9485040C9485040C948504DC
:100080000C9485040C9485040C9485040C948504CC
:100090000C9485040C9485040C9485040C948504BC
:1000A0000C9485040C9485040C948504660B760BE3
:1000B000520B7E0B5C0B6E0B480B820B610B720BB1
:1000C0004D0B7A0B570B6A0B430B3E0B2A0B340B71
:1000D000200B390B250B2F0B1B0B160B120B150CC2
:1000E000250C010C2D0C0B0C1D0CF70B310C100CFE
:1000F000210CFC0B290C060C190CF20BED0BD90B87
:10010000E30BCF0BE80BD40BDE0BCA0BC50BC10BFB
:10011000B70CB40CB10CAE0CAB0CA80CA50CA20C1B
:100120009F0C9C0C990C960C930C900C8D0C8A0CCB
:10013000870C840C810C7E0C7B0C780C750C720C7B
:10014000BA0C01C10601C10601C10601C0060000CA
:100150001C037A00690061006E005F006B0065009F
:10016000790062006F006100720064000C037A0085
:10017000690061006E0031000403090409025B009C
:10018000030100A03209040000010301010009215C
:100190001101000122400007058103080001090444
:1001A0000100010301020009211101000122840064
:1001B0000705820308000109040200020300000091
:1001C0000921110100012222000705830308000113
:1001D000070504030800010631FF0974A101097530
:1001E000150026FF0095087508810209761500267E
:1001F000FF00950875089102C005010902A101855B
:10020000010901A10005091901290515002501753C
:1002100001950581027503950181030501093009E6
:10022000311581257F7508950281060938158125CC
:100230007F35004500750895018106050C0A3802D6
:100240001581257F750895018106C0C005010980CB
:10025000A1018502150126B700190129B77510956E
:10026000018100C0050C0901A10185031501269C2F
:100270000219012A9C02751095018100C00501092F
:1002800006A10175019508050719E029E715002564
:10029000018102950175088103950575010508190D
:1002A00001290591029501750391039506750815BD
:1002B0000026FF000507190029FF8100C012010078
:1002C0000200000008C43260D000020102000100F8
:1002D000000001010102030404050708090A0C0DCE
:1002E0000F1112141617191B1D1F2122242628294D
:1002F0002B2D2E3031333435363738393A3A3B3BB3
:100300003C3C3C3C3C3C3D3D3E3E3F404142434406
:100310004647494A4C4D4F5152545658595B5D5FC0
:100320006062646567696A6B6D6E6F707172737419
:100330007475757676767676767676767676767661
:100340007676767676767677777777777777777744
:100350007777777777777777787878787878787825
:100360007878787878787878787878787879797A09
:100370007A7B7B7C7D7E7F7F808283848586878974
:100380008A8B8C8E8F9091929495969798999A9B40
:100390009C9D9D9E9F9FA0A0A0A1A1A1A1A1A1A263
:1003A000A2A3A3A4A5A6A7A9AAACADAFB0B2B4B6A8
:1003B000B8BABCBEC0C2C4C6C8CACCCED0D2D4D6CD
:1003C000D8D9DBDCDEDFE0E1E2E3E3E4E4E5E5E528
:1003D000E5E4E4E3E2E0DFDDDBD8D6D3D0CDCAC686
:1003E000C2BFBBB7B3AFABA6A29E9A95918D8985CC
:1003F000817D7A7673706D6A676563615F5E5C5B51
:100400005B5A5A5A5A595958575655545351504E87
:100410004C4A484644423F3D3A383633302E2B2929
:100420002724221F1D1B1917151312100F0D0C0B5B
:100430000A090908080808080808080909090A0A31
:100440000A0B0B0C0D0D0E0E0F10101112131314BE
:10045000151516171818191A1A1B1B1C1D1D1E1E00
:100460001E1F1F1F20202020202020202020202091
:100470001F1F1F1F1F1E1E1E1E1D1D1D1C1C1C1BA3
:100480001B1A1A1A191919181818171717161616E9
:100490001615151515151414141414141414141415
:1004A0001413131313121212111110100F0F0E0E3A
:1004B0000D0D0C0B0B0A0A090808070706060504B0
:1004C00004030303020201010101000000000039DE
:1004D00039393939383838373736363534343332B4
:1004E0003231302F2E2D2C2B2B2A2928272625245C
:1004F0002323222120201F1E1E1D1D1C1C1C1B1B14
:100500001B1B1B1B1B1B1B1A1A1A1919191818174E
:10051000161615141413121111100F0E0D0D0C0BCD
:100520000A0908080706060504040303020201017C
:1005300001000000000000000000000000000000BA
:1005400000000000000000000000000000000000AB
:10055000000000000000000000000000000000009B
:100560000000000000000000000000000101020384
:1005700004050607080A0B0D0F11131517191B1D8B
:100580001F212426282A2C2E31333537383A3C3D7A
:100590003F40424344454646474748484848494902
:1005A0004A4B4C4E4F515356585B5D6063666A6DC3
:1005B0007074787B7F83868A8E9195989C9FA2A584
:1005C000A8ABAEB0B3B5B7B9BBBCBDBEBFC0C0C0B1
:1005D000C0C0C0C0C0C0BFBFBFBFBEBEBEBEBDBD2D
:1005E000BDBCBCBBBBBBBABAB9B9B8B8B8B7B7B673
:1005F000B6B6B5B5B4B4B4B4B3B3B3B3B3B2B2B2C0
:10060000B2B2B2B2B2B2B2B2B2B2B2B3B3B3B3B3C5
:10061000B3B4B4B4B4B4B5B5B5B5B6B6B6B6B7B789
:10062000B7B7B7B8B8B8B8B9B9B9B9B9B9B9BABA42
:10063000BABABABABABABABABABBBBBBBCBDBDBE0B
:10064000BFC0C1C2C4C5C6C7C9CACCCDCFD0D2D421
:10065000D5D7D8DADBDDDEE0E1E2E3E5E6E7E8E99D
:10066000EAEAEBECECECEDEDEDEDEDEDECECEBEACC
:10067000E9E8E7E5E4E2E1DFDDDBD9D7D4D2D0CEAB
:10068000CBC9C6C4C2BFBDBBB8B6B4B2B0AEACAACB
:10069000A9A7A6A5A3A2A1A1A0A09F9F9F9F9F9E3F
:1006A0009D9C9B9A99979593918F8D8A888582803E
:1006B0007D7A7773706D6A6764615E5B58555250DE
:1006C0004D4B48464442413F3E3C3B3B3A3939F36F
:1006D000F3F3F3F3F3F3F3F3F2F2F2F2F2F2F2F1F3
:1006E000F1F1F1F1F0F0F0F0F0EFEFEFEFEFEEEE0F
:1006F000EEEEEEEDEDEDEDEDEDEDECECECECECEC2D
:10070000ECECECECECECECEBEBEBEBEAEAE9E9E83B
:10071000E8E7E6E6E5E4E4E3E2E1E0E0DFDEDDDCB5
:10072000DCDBDAD9D9D8D7D7D6D6D5D5D4D4D3D35C
:10073000D3D2D2D2D2D2D2D2D1D1D0CFCECCCBC9B9
:10074000C7C5C3C0BEBBB9B6B3B0ADA9A6A3A09C74
:10075000999693908C898683807E7B79767472706B
:100760006E6D6B6A69686867676767676666656507
:10077000646362615F5E5D5B5A58565553514F4DDD
:100780004B4947454342403E3C3A38373533323097
:100790002F2E2D2C2B2A29282827272727272727C4
:1007A00026262625252423232221201F1E1D1C1B2F
:1007B0001A1918171614131211100F0E0D0B0A091F
:1007C00008080706050404030302020201010101EF
:1007D00001010101010202020203030304040405F2
:1007E0000506060707080809090A0A0B0B0C0C0D79
:1007F0000D0E0E0F0F0F10101011111111121212F9
:1008000012121212121213131415151617181A1B9E
:100810001C1E1F2122242628292B2D2F313335364B
:10082000383A3C3E3F414244454748494A4B4C4D8B
:100830004D4E4E4F4F4F4F4F505152535557595B9E
:100840005D606366696D7174787C8084898D919632
:100850009A9EA2A7ABAFB3B7BABEC2C5C8CBCED023
:10086000D2D4D6D8D9DADBDCDCDCDCDCDCDCDDDDE8
:10087000DDDEDEDFDFE0E0E1E2E2E3E4E4E5E6E75F
:10088000E8E9E9EAEBECEDEDEEEFF0F0F1F2F2F38E
:10089000F4F4F5F5F5F6F6F6F7F7F7F7F7F7F7F7F7
:1008A000F7F7F7F7F7F7F7F7F6F6F6F6F6F6F6F6E0
:1008B000F6F6F5F5F5F5F5F5F5F5F4F4F4F4F4F4EC
:1008C000F4F4F4F4F3F3F3F3F3F3F3F3F3F3F300E7
:1008D00011241FBECFEFDAE0DEBFCDBF12E0A0E0F3
:1008E000B1E0E8E7FDE202C005900D92A030B1074B
:1008F000D9F722E0A0E0B2E001C01D92A83AB20709
:10090000E1F70E94BD0C0C94BA160C9400003F92C3
:100910004F925F926F927F928F929F92AF92BF920F
:10092000CF92DF92EF92FF920F931F93CF93DF93BB
:1009300000D000D01F92CDB7DEB78C010E94911677
:100940005C01892B09F404C10E5F1F4F0F3F23E0A8
:10095000120708F0FDC0E12CF12CA4E44A2EA2E01D
:100960005A2EB6E06B2E80E4382E6E0136E0C30EB0
:10097000D11C92E6792E10C0411101C1FFEFEF1A90
:10098000FF0AAE14BF0409F4E3C00E5F1F4F0F3F10
:1009900083E0180708F0DCC0C8010E949116AC0182
:1009A000852F552349F39A01ADECBCEC0E947A16D1
:1009B000FC01F695E795F695E795F695E7959F0185
:1009C000220F331FCF01880F991F880F991F880F9F
:1009D000991F820F931F9A01281B390B2D839F01AA
:1009E0000E947A1696958795969587959695879500
:1009F0009C01220F331F880F991F880F991F880FA2
:100A0000991F820F931FE81BF90BEC839A0136950F
:100A1000279536952795ABE7B4E10E947A16FC013D
:100A2000F695E7959F01ADECBCEC0E947A16969581
:100A3000879596958795969587959C01220F331FEC
:100A4000880F991F880F991F880F991F820F931F76
:100A5000E81BF90BEB839A01369527953695279578
:100A600036952795A5ECB0E20E947A16FC01F29526
:100A7000E295EF70EF27FF70EF279F01ADECBCEC24
:100A80000E947A169695879596958795969587955F
:100A90009C01220F331F880F991F880F991F880F01
:100AA000991F820F931FE81BF90BEA839A01329575
:100AB00022952F7023273F702327A7E4B3E00E94DD
:100AC0007A169695879596958795969587958983B5
:100AD000F201262D11922A95E9F73092420222E383
:100AE00048E062E472E081E00E94D011CE010196FC
:100AF0004C0170924402F40181914F01882319F056
:100B0000885A8093440222E348E062E472E081E084
:100B10000E94D0111092440222E348E062E472E0A5
:100B200081E00E94D011C814D90419F71092420232
:100B30001092440222E348E062E472E081E00E9405
:100B4000D011FFEFEF1AFF0AAE14BF0409F01DCF5A
:100B50000F900F900F900F900F90DF91CF911F91FA
:100B60000F91FF90EF90DF90CF90BF90AF909F904C
:100B70008F907F906F905F904F903F900895F2011B
:100B8000262D11922A95E9F747FD0DC08093420268
:100B90004F774093440222E348E062E472E081E050
:100BA0000E94D011C3CF80E2F1CF80914A02909190
:100BB0003102981731F08093310281E08093560220
:100BC000089580914B0290913302981731F08093F1
:100BD000330281E080935602089580914C029091F7
:100BE0003402981719F080933402E7CF80914D02B8
:100BF00090913502981719F080933502DECF8091DD
:100C00004E0290913602981719F080933602D5CF94
:100C100080914F0290913702981719F08093370214
:100C2000CCCF8091500290913802981719F08093A0
:100C30003802C3CF80E0089580915602811102C02E
:100C400081E008951092560222E348E061E372E0E9
:100C500081E00C94D0118091630290915802981712
:100C600029F18093580281E0209168023091690255
:100C700040915E0250915F0242175307C9F03093D2
:100C80005F0220935E0220916A0230916B02809194
:100C900061029091620282179307C9F03093620259
:100CA0002093610283E080936D02089580E0DCCFA1
:100CB00020916A0230916B02409161025091620270
:100CC0004217530759F7882381F381E0ECCF82E084
:100CD000EACFCF93DF9380916D02837080936D0292
:100CE000811104C081E0DF91CF9108950E94CD1160
:100CF0008823C1F38FB7F894C091E400CE5C92E0F2
:100D00009093E9009091E80095FD14C0D2E00CC0EA
:100D10008091E400C81731F38FB7F894D093E900BD
:100D20009091E80095FD06C08FBF0E94CD11811102
:100D3000EFCFD8CF90916D02923099F1933011F1AD
:100D40009130D1F410926D02909157029093F1007E
:100D5000909158029093F100909159029093F10074
:100D600090915A029093F10090915B029093F10060
:100D700090915C029093F1009AE39093E8008FBF0A
:100D800080E0B1CF10926D02909160029093F100DB
:100D9000909161029093F100909162029093F10022
:100DA000EBCF10926D0290915D029093F1009091C3
:100DB0005E029093F10090915F029093F100DCCF7E
:100DC0008091630281112FC0809168029091690225
:100DD000892B49F580916A0290916B02892B19F554
:100DE00080914B0281111FC080914C0281111BC068
:100DF00080914D02811117C080914E02811113C064
:100E000080914F0281110FC08091500281110BC05F
:100E100080914A02811107C081E090917C0291117A
:100E200003C080E0089581E0089580917C02909154
:100E30007A02981721F080937A0281E0089580E089
:100E40000895CF93DF938CE0EEE6F2E0DF01C82F48
:100E50001D92CA95E9F7E7E5F2E0DF011D928A9558
:100E6000E9F7A3E6B2E08BE0ED0119928A95E9F784
:100E700081E0808392E0968393E0918719968C932A
:100E8000DF91CF91089588E0E2E4F2E0DF01982F4E
:100E90001D929A95E9F7E1E3F2E0DF011D928A9550
:100EA000E9F7EAE4F2E08DE0DF011D928A95E9F7C7
:100EB00081E0808783878DE78187089588E0EAE372
:100EC000F2E0DF01982F1D929A95E9F7E5E0F2E054
:100ED000DF011D928A95E9F7089590917A0290FFBB
:100EE00006C02091390280E282278093390291FF67
:100EF00006C02091390280E182278093390293FD58
:100F000010C0892F807295FF0BC0809139028F5FCE
:100F1000982F9F70933008F0807F8093390281E092
:100F2000089589E191E00E94870481E0089584306A
:100F300031F090917C02892B80937C0208959091EE
:100F40003102992389F190914B02953391F32091CD
:100F50004C02253371F330914D02353351F34091FA
:100F60004E02453331F350914F02553311F36091E6
:100F700050026533F1F2992309F447C0222309F4A2
:100F80004AC0332309F450C0442309F453C0552305
:100F900009F453C06111CDCF25E030E0F901E65BE3
:100FA000FD4F95E39183C5CF90914B02993209F2A1
:100FB00020914C02293209F4BCCF30914D023932D4
:100FC00009F4B7CF40914E02493209F4B2CF5091A3
:100FD0004F02593209F4ADCF60915002693209F4E1
:100FE000A8CF9923A9F02223C9F03323D1F04423B9
:100FF000F1F0552329F161119CCF25E030E0F90192
:10100000E65BFD4F99E2918394CF20E030E0C6CFBC
:1010100020E030E0F4CF21E030E0C0CF21E030E04C
:10102000EECF22E030E0EBCF22E030E0B7CF23E09C
:1010300030E0E5CF23E030E0B1CF24E030E0AECFC8
:1010400024E030E0DCCF90914B02891711F1209120
:101050004C028217F1F030914D028317D1F040918C
:101060004E028417B1F050914F02851791F06091B4
:101070005002681771F0992371F02223A1F03323F5
:10108000A9F04423B1F05523B9F06623C1F080E004
:10109000089581E0089520E030E0F901E65BFD4F1E
:1010A000818381E0089521E030E0F7CF22E030E055
:1010B000F4CF23E030E0F1CF24E030E0EECF25E0C4
:1010C00030E0EBCFEAE4F2E09081892B8083089551
:1010D000E3E6F2E09081892B8083089590E090937D
:1010E0006902809368020895982F907F9039D9F013
:1010F00038F0903C91F0903E81F0903B71F0089573
:10110000903221F0903879F09111F9CF90E092600F
:1011100090936B0280936A02089590E090936B0223
:1011200080936A02089590E0916090936B0280939F
:101130006A020895E3E6F2E01082168215821086B4
:101140001782089586E0EBE4F2E0DF011D928A95B4
:10115000E9F710924A020895CF92DF92EF92FF9240
:101160000F931F93CF93DF9380E090E00E9491163E
:10117000EC0182E090E00E9491168C0184E090E006
:101180000E9491167C0186E090E00E9491166C010D
:1011900088E090E00E9491162A9749F0DF91CF9164
:1011A0001F910F91FF90EF90DF90CF9008950F3037
:1011B0001105A1F72DE1E216F10481F7E3E6CE1661
:1011C000D10461F7893A910549F78AE090E00E94DD
:1011D00089168093FA018BE090E00E948916809333
:1011E000FB018CE090E00E9489168093FC018DE069
:1011F00090E00E9489168093FD018EE090E00E94AD
:1012000089168093FE018FE090E00E9489168093FA
:10121000EC0180E190E00E9489168093ED0181E16C
:1012200090E00E9489168093EE0182E190E00E9496
:1012300089168093EF0183E190E00E9489168093E4
:10124000F00184E190E00E9489168093F10185E12C
:1012500090E00E9489168093F20186E190E00E945E
:1012600089168093F30187E190E00E9489168093AC
:10127000F40188E190E00E9489168093F50189E1EC
:1012800090E00E9489168093F6018AE190E00E9426
:1012900089168093F7018BE190E00E948916809374
:1012A000F8018CE190E00E9489168093F9010CE826
:1012B00011E0C0E0D0E0CE014D960E948916F80101
:1012C0008083CE014E960E948916F8018183CE015B
:1012D0004F960E948916F8018283CE0180960E9463
:1012E0008916F8018383CE0181960E948916F80140
:1012F0008483CE0182960E948916F8018583CE01EF
:1013000083960E948916F8018683CE0184960E94F6
:101310008916F8018783CE0185960E948916F80107
:101320008087CE0186960E948916F8018187CE01BA
:1013300087960E948916F8018287CE0188960E94BE
:101340008916F8018387CE0189960E948916F801D3
:101350008487CE018A960E948916F80185872E9689
:10136000025F1F4FC634D10509F0A5CF06E411E096
:10137000C0E0D0E0CE018D599F4F0E948916F80140
:101380008083CE018C599F4F0E948916F80181837A
:10139000CE018B599F4F0E948916F8018283CE019E
:1013A0008A599F4F0E948916F8018383CE0189597B
:1013B0009F4F0E948916F8018483CE0188599F4F60
:1013C0000E948916F8018583CE0187599F4F0E949C
:1013D0008916F8018683CE0186599F4F0E9489168F
:1013E000F8018783CE0185599F4F0E948916F80125
:1013F0008087CE0184599F4F0E948916F80181870A
:10140000CE0183599F4F0E948916F8018287CE0131
:1014100082599F4F0E948916F8018387CE01815916
:101420009F4F0E948916F8018487CE0180599F4FF3
:101430000E948916F80185872E96025F1F4FC634D9
:10144000D10509F097CF09EA10E0E12CF12CC80191
:101450000E9489169701220F331FE901CC0FDD1F6F
:10146000CC0FDD1FCC0FDD1FC21BD30BC050DF4FD5
:101470008883C80101960E9489168983C801029653
:101480000E9489168A83C80103960E9489168B835D
:10149000C80104960E9489168C83C80105960E9493
:1014A00089168D83C80106960E9489168E83C8010D
:1014B00007960E9489168F83C80108960E94891694
:1014C0008887C80109960E9489168987C8010A96EB
:1014D0000E9489168A87C8010B960E9489168B87FD
:1014E000C8010C960E9489168C87C8010D960E942F
:1014F00089168D87FFEFEF1AFF0A025F1F4F25E065
:10150000E216F10409F0A3CFCDE0D2E00FEE10E037
:101510000D501240C8018C0F9D1F0E94891689939F
:1015200082E0C133D807B1F783E191E00E948916C8
:1015300080937D0233CECF93DF9380917B02811124
:101540001BC0C0910502D0910602CF3F21EFD20708
:10155000B1F0CF3F82EFD80709F44AC08091520220
:101560008823B9F088E0E5E0F2E0DF011D928A957A
:10157000E9F781E080937B02DF91CF91089580911C
:101580005202813009F43EC08111ECCF0E94F10C6F
:101590001DC00E94F10CCE3FA3E0DA0748F4F99990
:1015A000FECF6091070270910802CE010E9497164B
:1015B000CE0102968E3FB3E09B0740F4F999FECF2F
:1015C0006091090270910A020E949716CE0104965A
:1015D0008E3F23E0920718F00E94FF0CC3CFF999C9
:1015E000FECF60910B0270910C020E949716F4CF0F
:1015F000809152028111B6CF0E94FF0C82E080934D
:101600005202B0CF10925202ADCF80E885BF85BFA5
:10161000089590E08931910540F4FC01EA5AFF4FAA
:101620000C9474166111A2C06E980895662309F493
:101630006DC0559A0895662309F46AC0549A0895B6
:10164000662309F46DC0859A0895662309F464C081
:10165000819A0895662309F467C0879A08956623DE
:1016600009F458C0809A0895662309F45BC0869AED
:101670000895662309F452C0849A0895662309F4F4
:1016800055C0269A0895662309F460C0259A0895E6
:10169000662309F453C0519A0895662309F45EC085
:1016A0003F9A0895662309F445C0229A0895662357
:1016B00009F450C0579A0895662309F443C0279A45
:1016C0000895662309F44EC0539A0895662381F164
:1016D000209A08956623E1F1249A0895662381F102
:1016E000509A08956623E1F13E9A0895662321F108
:1016F000219A0895662381F1569A0895662321F16F
:10170000239A0895662381F1529A08955598089571
:10171000549808958098089581980895849808951C
:10172000859808958698089587980895269808952D
:101730002098089522980895219808955198089521
:101740005098089527980895239808952598089506
:101750002498089557980895569808953F980895A5
:101760003E98089553980895529808956E9A089552
:1017700090E08931910540F4FC01E159FF4F0C9450
:1017800074166111A2C076980895662309F46DC09D
:101790005D9A0895662309F46AC05C9A08956623E9
:1017A00009F46DC08D9A0895662309F464C0899A7E
:1017B0000895662309F467C08F9A0895662309F493
:1017C00058C0889A0895662309F45BC08E9A0895DC
:1017D000662309F452C08C9A0895662309F455C013
:1017E0002E9A0895662309F460C02D9A0895662301
:1017F00009F453C0599A0895662309F45EC0479AC4
:101800000895662309F445C02A9A0895662309F4C9
:1018100050C05F9A0895662309F443C02F9A089533
:10182000662309F44EC05B9A0895662381F1289AD5
:1018300008956623E1F12C9A0895662381F1589A60
:1018400008956623E1F1469A0895662321F1299AC5
:101850000895662381F15E9A0895662321F12B9AFB
:101860000895662381F15A9A08955D9808955C98C9
:10187000089588980895899808958C9808958D986A
:1018800008958E9808958F9808952E980895289811
:1018900008952A9808952998089559980895589870
:1018A00008952F9808952B9808952D9808952C98B1
:1018B00008955F9808955E9808954798089546980A
:1018C00008955B9808955A980895769A089590E03F
:1018D0008931910510F080E00895FC01E857FF4F31
:1018E0000C94741689B18072089589B1807108953D
:1018F0008FB1817008958FB1827008958FB180711A
:1019000008958FB1807208958FB1807408958FB15A
:101910008078089583B18074089583B180720895AA
:1019200083B18071089589B18078089589B18074F8
:10193000089586B18078089586B18074089589B13C
:101940008870089589B18470089589B1827008956E
:1019500089B18170089583B18078089583B18870CA
:10196000089583B18470089583B18270089583B11E
:10197000817008958CB1807408950C9436110F9382
:101980001F93CF93DF93CCEED1E08E0160E089917D
:101990000E94090B61E0F80180810E94B80BF1E020
:1019A000CA3FDF0791F7DF91CF911F910F91089503
:1019B0000F931F93CF93DF93CAEFD1E08E0160E0C6
:1019C00089910E94090B61E0F80180810E94B80BA7
:1019D000F1E0CF3FDF0791F7DF91CF911F910F919A
:1019E0000895CF93DF93CAEED1E061E088810E9431
:1019F000B80B61E08981DF91CF910C94B80BCF9344
:101A0000DF93CAEED1E060E088810E94B80B60E00D
:101A10008981DF91CF910C94B80BCF93DF930E9413
:101A200023160E9425160E945716CAEED1E061E0E7
:101A300088810E94090B60E088810E94B80B61E0F8
:101A400089810E94090B60E089810E94B80B61E0E6
:101A500082E10E94090B60E082E10E94B80B80E005
:101A600098E09093A3028093A202DF91CF91089512
:101A7000CF93DF93811523E0920709F488C1811584
:101A800044E0940709F4A7C1811521E0920709F405
:101A90008BC08115924009F4C0C18091D201909110
:101AA000D3018115924020F01092D3011092D201FF
:101AB0008091D4019091D5018115924020F010922F
:101AC000D5011092D4018091D6019091D701811552
:101AD000924020F01092D7011092D6018091D80147
:101AE0009091D9018115924020F01092D901109265
:101AF000D8018091DA019091DB018115924020F0AC
:101B00001092DB011092DA018091DC019091DD01ED
:101B10008115924020F01092DD011092DC0180913D
:101B2000DE019091DF018115924020F01092DF01DB
:101B30001092DE018091E0019091E10181159240C7
:101B400020F01092E1011092E0018091E201909169
:101B5000E3018115924020F01092E3011092E2011E
:101B60008091E4019091E5018115924020F010925E
:101B7000E5011092E4018091E6019091E701811561
:101B8000924020F01092E7011092E6018091E80166
:101B90009091E9018115924020F01092E901109294
:101BA000E801DF91CF9108958091D2019091D30106
:101BB0008115924020F01092D3011092D2018091B1
:101BC000D2019091D30101969093D3018093D201D9
:101BD0008091D4019091D5018115924020F010920E
:101BE000D5011092D4018091D4019091D501019634
:101BF0009093D5018093D4018091D6019091D70123
:101C00008115924020F01092D7011092D601809158
:101C1000D6019091D70101969093D7018093D60178
:101C20008091D8019091D9018115924020F01092B5
:101C3000D9011092D8018091D8019091D9010196D3
:101C40009093D9018093D8018091DA019091DB01C2
:101C50008115924020F01092DB011092DA01809100
:101C6000DA019091DB0101969093DB018093DA0118
:101C70008091DC019091DD018115924020F010925D
:101C8000DD011092DC018091DC019091DD01019673
:101C90009093DD018093DC018091DE019091DF0162
:101CA0008115924020F01092DF011092DE018091A8
:101CB000DE019091DF0101969093DF018093DE01B8
:101CC0008091E0019091E1018115924020F0109205
:101CD000E1011092E0018091E0019091E101019613
:101CE0009093E1018093E0018091E2019091E30102
:101CF0008115924020F01092E3011092E201809150
:101D0000E2019091E30101969093E3018093E20157
:101D10008091E4019091E5018115924020F01092AC
:101D2000E5011092E4018091E4019091E5010196B2
:101D30009093E5018093E4018091E6019091E701A1
:101D40008115924020F01092E7011092E6018091F7
:101D5000E6019091E70101969093E7018093E601F7
:101D60008091E8019091E9018115924020F0109254
:101D7000E9011092E8018091E8019091E901019652
:101D80009093E9018093E801DF91CF910895C0E03D
:101D9000D0E0CE01880F991FFC01EE52FE4F20814A
:101DA00031812115324010F011821082FC01EE5277
:101DB000FE4F0190F081E02DE153FB4F6491609361
:101DC000A702CE010E9437162196CC30D10509F723
:101DD000DF91CF910895C0E0D0E0CE01880F991F28
:101DE000FC01EE52FE4F208131812115324010F06E
:101DF00011821082FC01EE52FE4F0190F081E02D25
:101E0000E153F94F64916093A602CE010E942D1612
:101E10002196CC30D10509F7C4CEC0E0D0E0CE0188
:101E2000880F991FFC01EE52FE4F20813181211550
:101E3000324010F011821082FC01EE52FE4F0190F0
:101E4000F081E02DE153FD4F64916093A402CE0137
:101E50000E9441162196CC30D10509F7A2CE0F93EE
:101E60001F93CF93DF938091510280FD7FC060E08C
:101E70008091EA010E94B80B8091510281FD70C0EF
:101E800060E08091EB010E94B80B8091390285FFE0
:101E900027C061E082E10E94B80B8091390284FF83
:101EA00027C08F70813009F467C0882309F43FC0D0
:101EB0008091A2029091A3028115974011F1809127
:101EC000A2029091A302892B21F580E098E09093E3
:101ED000A3028093A202DF91CF911F910F910895E9
:101EE00060E082E10E94B80B8091390284FDD9CF75
:101EF0000E9425168091A2029091A302811597401D
:101F0000F1F60E9457168091A2029091A302892BAC
:101F1000E1F28091A2029091A30201979093A30213
:101F20008093A202DF91CF911F910F91089580912C
:101F3000A2029091A3028115954009F0B9CFCDE09E
:101F4000D2E000E010E02A8149816881C8010E9446
:101F50004B160F5F1F4F23960C301105A1F7A8CF2A
:101F600061E08091EB010E94B80B8FCF61E080911E
:101F7000EA010E94B80B80CF8091A2029091A30247
:101F80000E94380D95CF4F925F926F927F928F9201
:101F90009F92AF92BF92CF92DF92EF92FF920F93F8
:101FA0001F93CF93DF93EAEF4E2EE1E05E2EA12C3C
:101FB000B12CFAEFEF2EF1E0FF2EA8E07A2EBFE071
:101FC0006B2ECFEFCC2EC1E0DC2EE20161E0F201FE
:101FD00081912F010E94090B60E088810E94B80B5B
:101FE0000CEE11E0C501880F991F4C01880C991C5B
:101FF000880C991C880C991C9401281B390BF90139
:10200000E050FF4F4F010BC0808187778083C80D60
:10201000D91D88818E3ED1F0E016F106E1F0E8018D
:10202000CC5ED140F80181918F010E94670CF401D0
:10203000EC0FFD1F8111E8CF80818868808370924A
:102040000102C80DD91D88818E3E31F76092A5022C
:10205000E016F10621F7CAEFD1E08E0160E0899128
:102060000E94090B61E0F80180810E94B80BCC1638
:10207000DD0699F7FFEFAF1ABF0A25E0A216B104FB
:1020800009F0A3CF0E94A2080E949A0810927C0235
:102090004CE8A42E41E0B42E56E4452E51E0552ED6
:1020A000C12CD12C72018501C0E0D0E0C601880F9F
:1020B000991F4C01880C991C880C991C880C991C40
:1020C0009401281B390BF901E050FF4F4F011AC052
:1020D000803B09F449C0A8F1803D09F454C0803F19
:1020E00009F44CC0803C21F4F80180810E946E0804
:1020F00021960F5F1F4FFFEFEF1AFF0ACE30D10579
:1021000009F450C0F401EC0FFD1F90818091A502ED
:1021100089238F3021F1E0F68B30E1F048F48930EB
:10212000B9F18A3029F7F70180810E946208E0CF77
:102130008C30F9F08D30E1F6F70180810E9474084F
:10214000D7CF803951F1803A99F6F80180810E9409
:102150006208CECFF70180810E946808C9CFF701DD
:1021600080810E949707C4CFF80180810E9468088F
:10217000BFCFF70180810E946E08BACFF80180813D
:102180000E949707B5CFF80180810E947408B0CFF4
:10219000F70180810E942308ABCFF80180810E9463
:1021A0002308A6CF2FEFC21AD20A3EE0A30EB11C1D
:1021B0008EE0480E511CE5E0CE16D10409F072CF36
:1021C0000E94E006811103C080EF8093A5020E9467
:1021D0001507882319F084E0809300020E94D5053A
:1021E000882319F084E0809300020E942B06882344
:1021F00019F084E080930002809101028830E1F0C0
:10220000813011F19091000281111AC0992319F0C7
:10221000915090930002DF91CF911F910F91FF9009
:10222000EF90DF90CF90BF90AF909F908F907F9076
:102230006F905F904F90089590910002913069F0F7
:10224000815080930102E2CF0E946D070E941C061C
:102250000E94690680910102D5CF0E946D070E94FD
:102260001C060E94690680910102CACF80E8809313
:102270006100109261000E94050B0E940D0D2FEF6E
:1022800089E698E1215080409040E1F700C00000CD
:102290000E94A9110E94CD1181110AC02FEF85EA79
:1022A0009EE0215080409040E1F700C00000F2CF56
:1022B0000E94BF0C0E94D80CC1E000E018E0D0EFF3
:1022C000C0937B02C0935202C0937D020E94A20879
:1022D0000E949A080E94AC0860E08091EA010E9486
:1022E000B80B60E08091EB010E94B80B60E082E1E6
:1022F0000E94B80B80917D02809339020E942516BE
:102300000E9457161093A3020093A202D093A50235
:102310002FEF89E698E1215080409040E1F700C01E
:10232000000022E348E061E372E081E00E94D01106
:102330000E949B0A80915202823011F28130C1F7D3
:102340000E94C30F809100028111F2CF0E942F0FD3
:10235000EFCF81E08093D70080EA8093D80082E1BC
:1023600089BD09B400FCFDCF80E98093D8001092AC
:10237000E0001092040288E08093E20084E0809301
:10238000E20078940E9443070E9421070E945E07A2
:1023900010927C0210927A020895809104020895AE
:1023A000909104029923E9F09FB7F8943091E400EA
:1023B000230F8093E9003091E80035FF0DC013C072
:1023C0009091E400291769F09FB7F8948093E90091
:1023D0003091E80035FD07C09FBF90910402911134
:1023E000EFCF81E00895442371F0FB014150242F89
:1023F00030E02F5F3F4F260F371F81918093F10010
:10240000E217F307D1F78AE38093E8009FBF80E0EB
:1024100008951F920F920FB60F9211242F933F939E
:102420004F938F939F938091E1001092E10083FF7F
:102430000FC01092E90091E09093EB001092EC0035
:1024400092E09093ED0098E09093F00010920402D7
:1024500082FF04C08091040281110AC09F918F9174
:102460004F913F912F910F900FBE0F901F90189595
:10247000909103029F5F89E2989F812D1124869598
:1024800086958695392F22E3829F30191124832F58
:10249000311116C0109203029091E80095FF12C00E
:1024A00090917B02992371F02091520221114AC030
:1024B0008091040281114EC021E020937B0202C072
:1024C0009093030290915302992341F2809102026A
:1024D0008F5F80930202837009F0C0CF81E0809308
:1024E000E9008091E80085FFB9CF809154028F5FA9
:1024F000809354028913B2CF10925402809131021A
:102500008093F100809132028093F1008091330238
:102510008093F100809134028093F1008091350224
:102520008093F100809136028093F1008091370210
:102530008093F100809138028093F1008AE38093C8
:10254000E8008CCF90910402911154C081E08093F7
:102550007B02B8CF8FB7F8943091E40094E0909369
:10256000E9009091E80095FD20C08FBF80910402A2
:10257000882309F4A1CF8091E400381709F49CCF97
:1025800044E00BC08FBF80910402882309F494CFEC
:102590008091E400381709F48FCF8FB7F8944093F7
:1025A000E9009091E80095FFEDCF9091F1009093B4
:1025B00005029091F100909306029091F1009093A2
:1025C00007029091F100909308029091F10090938E
:1025D00009029091F10090930A029091F10090937A
:1025E0000B029091F10090930C029AE39093E80013
:1025F0008FBF63CF9FB7F8943091E40024E020931D
:10260000E9002091E80025FD20C09FBF90910402C1
:10261000992309F49BCF9091E400931709F496CF86
:1026200044E00BC09FBF90910402992309F48ECF20
:102630009091E400391709F489CF9FB7F89440933B
:10264000E9002091E80025FFEDCF2091F1002093D3
:1026500005022091F100209306022AE32093E8006E
:102660009FBF75CF1F920F920FB60F9211242F9319
:102670003F934F935F936F937F938F939F93AF930A
:10268000BF93EF93FF931092E9008091E80083FFDE
:1026900038C07091F1004091F1008091F1002091DB
:1026A000F10090E0922B2091F1005091F10030E088
:1026B000352B6091F100E091F10052EF5093E8006A
:1026C000463099F1453009F43EC1493009F47BC0E8
:1026D000483009F407C14111B5C18091E80080FF7D
:1026E000FCCF723809F484C180E08093F10010922D
:1026F000F1008EEF8093E80007C02115310509F045
:102700000AC181E28093EB00FF91EF91BF91AF91FD
:102710009F918F917F916F915F914F913F912F91F9
:102720000F900FBE0F901F901895811541E09407F0
:1027300009F455C18115F2E09F0709F463C18115C1
:1027400042E2940709F425C18115F1E29F0709F4DB
:1027500062C1811523E0920709F061C2A4E0B0E0F4
:1027600024E048E751E0862F90E09E2B8F3F9105B3
:1027700009F020F48A179B0708F4262F6EEF80914A
:10278000E8008570E1F38091E80082FDBDCF322F33
:10279000293008F41FC138E0FA01832F94919093F7
:1027A000F100815031968111F9CF8FEF830F90E0C6
:1027B0000196480F591F231B6093E8002111DFCFBA
:1027C0003830E9F2A1CF71118FC0809304028EEFEF
:1027D0008093E80081E08093E900E2E4F1E0E49195
:1027E000E093EB00EE2309F463C1E3E4F1E0E4914C
:1027F000E093EC00E4E4F1E0E491E093ED0025E403
:1028000031E082E08093E900C9010196F901449129
:102810004093EB00442351F0FC0184918093EC0041
:10282000C9010396319624912093ED0023E0209373
:10283000E9009C012F5F3F4FFC0144914093EB0066
:10284000442359F0F90124912093EC009C012D5F61
:102850003F4F319684918093ED0084E08093E900AE
:10286000C9010196F90144914093EB00442351F0D2
:10287000FC0184918093EC00C90103963196249168
:102880002093ED0025E02093E9009C012F5F3F4F4E
:10289000FC0144914093EB00442359F0F901249149
:1028A0002093EC009C012D5F3F4F319684918093E3
:1028B000ED0086E08093E900C9010196F901449199
:1028C0004093EB00442341F0FC0184918093EC00A1
:1028D000319624912093ED008EE78093EA001092C8
:1028E000EA0012CF7038D1F121153105A1F4713A07
:1028F00009F4E1C0713209F004CF4930D9F14A300E
:1029000009F485C14B3009F0FCCE809355028EEF5F
:102910008093E800F9CE2230310509F444C021301B
:10292000310509F0EECE713A09F412C1713209F0A5
:10293000E8CE4B3009F465C14A3009F0E2CE8EEFA3
:102940008093E800E1CE2EEF2093E8002091E8008C
:1029500020FFFCCF80688093E300D6CE8091E80012
:1029600080FFFCCF809104028093F1008EEF809372
:10297000E800CACE8091E80082FFFCCF8091F10090
:10298000809351028BEF8093E8008EEF8093E800F4
:10299000BBCE2115310509F047C0A0E4B0E020E42A
:1029A0004DE752E0E0CE713A09F403C1713209F00B
:1029B000A8CE4A3021F2493009F0A3CE8091E80038
:1029C00082FFFCCF8BEF8093E8008091E80080FFCE
:1029D000FCCFB5CF2111E0CE6093E80095CE232B3C
:1029E00009F08FCEA2E1B0E022E14DEB52E0BBCE88
:1029F0002093E9008091EB0085FB882780F91092F5
:102A0000E90073CE232B09F07CCEABE5B0E02BE5DB
:102A10004CE751E0A8CE21153105E1F5A9E0B0E081
:102A200029E04EE851E09FCE2230310509F48AC0FA
:102A30002130310509F065CEA4E8B0E024E849EF83
:102A400051E091CE542F5D7F513009F04DCF72305F
:102A500009F04ACF009709F050CE522F5F776FEF01
:102A6000650F663008F049CE8EEF8093E8005093F2
:102A7000E900433009F445CE89E18093EB0081E021
:102A800090E001C0880F5A95EAF78093EA0010920F
:102A9000EA003ACE2230310509F4ADC021303105CB
:102AA00009F02FCEA9E0B0E029E047EA51E05BCE83
:102AB00023E431E0A6CE413089F04230B9F1433011
:102AC00009F01FCE8091E80080FFFCCF8091550275
:102AD0008093F1008EEF8093E80016CE8091E8009D
:102AE00080FFFCCF809131028093F100809132020F
:102AF0008093F100809133028093F1008091340241
:102B00008093F100809135028093F100809136022C
:102B10008093F100809137028093F1008091380218
:102B20008093F1008EEF8093E800EECD8091E80075
:102B300080FFFCCF809153028093F1008EEF809351
:102B4000E800E2CDA2E2B0E022E247ED51E00BCE98
:102B5000413079F0433009F0D4CD8091E80080FF16
:102B6000FCCF80916C028093F1008EEF8093E8009F
:102B7000CBCD8091E80080FFFCCF809157028093FD
:102B8000F100809158028093F10080915902809366
:102B9000F10080915A028093F10080915B02809352
:102BA000F10080915C028093F1008EEF8093E80049
:102BB000ABCD413009F0A5CD28E03EEF8091E80093
:102BC000982F9570D9F382FD9FCD922F293070F008
:102BD00098E0892F1092F1008150E1F7291B309382
:102BE000E8002111EBCF983049F38ECD2111F1CFC0
:102BF0003093E80089CDA9E0B0E029E040EC51E055
:102C0000B2CD80936C028EEF8093E8007DCD9093DF
:102C10005302109254028EEF8093E80075CD8130FC
:102C200043E0940751F08230934009F06ACDACE163
:102C3000B0E02CE140E551E096CDACE0B0E02CE016
:102C40004CE651E090CD869A089584E2EEE7F2E0FA
:102C5000DF011D928A95E9F708959C01220F331F29
:102C6000820F931FFC01E258FD4F618308959C0180
:102C7000220F331F820F931FFC01E258FD4F608328
:102C800008959C01220F331F820F931FFC01E2580D
:102C9000FD4F62830895FC01EE0FFF1F8E0F9F1FF3
:102CA000FC01E258FD4F4083618322830895F8942C
:102CB00021B32F7B91B39064EEE7F2E0819138E08D
:102CC00091BB000000C087FF21BB880F000000C03F
:102CD00000C000C021BB00C03A9591F782E0E23A03
:102CE000F80761F778940895EE0FFF1F0590F491AF
:102CF000E02D0994A29FB001B39FC001A39F700D66
:102D0000811D1124911DB29F700D811D1124911DF3
:102D10000895F999FECF92BD81BDF89A992780B5A3
:102D20000895A8E1B0E042E050E00C949E160E94A5
:102D3000AC16272F0C94AD16DC01CB01FC01F999E0
:102D4000FECF06C0F2BDE1BDF89A319600B40D92F7
:102D500041505040B8F70895262FF999FECF1FBA79
:102D600092BD81BD20BD0FB6F894FA9AF99A0FBEB4
:082D700001960895F894FFCFCD
:102D780071111111111111111111111111111111DB
:102D88001111111111111111111111111113131325
:102D98001010101010101010001122001111111134
:102DA80010101015150010112266220000110010D5
:102DB800110066221111353A3B3C3D3E3F404142ED
:102DC8004344454C2B595A5B5C5D5E5F60616256BB
:102DD80057313901040200000000000000000028FB
:102DE800020053474946000000EAE900005201008A
:102DF8000400002C000050000010514F041E1F203A
:102E0800212223242526272D2E2A2B141A081517AC
:102E18001C180C12132F303139041607090A0B0D30
:102E28000E0F3334002802001D1B06190511103639
:102E38003700385201000400002C00385000001000
:102E4800514F00002200440066008800AA00AA0032
:102E580088006600440022000000FF021514180ACA
:102E6800090F1601040E0D0C0B03050607081700C1
:00000001FF
