:100000000C9468040C9485040C9485040C94850469
:100010000C9485040C9485040C9485040C9485043C
:100020000C9485040C9485040C94EE110C94171315
:100030000C9485040C9485040C9485040C9485041C
:100040000C9485040C9485040C9485040C9485040C
:100050000C9485040C9485040C9485040C948504FC
:100060000C9485040C9485040C9485040C948504EC
:100070000C9485040C9485040C9485040C948504DC
:100080000C9485040C9485040C9485040C948504CC
:100090000C9485040C9485040C9485040C948504BC
:1000A0000C9485040C9485040C9485048C0B9C0B97
:1000B000780BA40B820B940B6E0BA80B870B980B81
:1000C000730BA00B7D0B900B690B640B500B5A0B41
:1000D000460B5F0B4B0B550B410B3C0B380B3B0C92
:1000E0004B0C270C530C310C430C1D0C570C360CCD
:1000F000470C220C4F0C2C0C3F0C180C130CFF0B54
:10010000090CF50B0E0CFA0B040CF00BEB0BE70BC8
:10011000DD0CDA0CD70CD40CD10CCE0CCB0CC80CEB
:10012000C50CC20CBF0CBC0CB90CB60CB30CB00C9B
:10013000AD0CAA0CA70CA40CA10C9E0C9B0C980C4B
:10014000E00C01C10601C10601C10601C0060000A4
:100150001C037A00690061006E005F006B0065009F
:10016000790062006F006100720064000C037A0085
:10017000690061006E0031000403090409025B009C
:10018000030100A03209040000010301010009215C
:100190001101000122400007058103080001090444
:1001A0000100010301020009211101000122840064
:1001B0000705820308000109040200020300000091
:1001C0000921110100012222000705830308000113
:1001D000070504030800010631FF0974A101097530
:1001E000150026FF0095087508810209761500267E
:1001F000FF00950875089102C005010902A101855B
:10020000010901A10005091901290515002501753C
:1002100001950581027503950181030501093009E6
:10022000311581257F7508950281060938158125CC
:100230007F35004500750895018106050C0A3802D6
:100240001581257F750895018106C0C005010980CB
:10025000A1018502150126B700190129B77510956E
:10026000018100C0050C0901A10185031501269C2F
:100270000219012A9C02751095018100C00501092F
:1002800006A10175019508050719E029E715002564
:10029000018102950175088103950575010508190D
:1002A00001290591029501750391039506750815BD
:1002B0000026FF000507190029FF8100C012010078
:1002C0000200000008C43260F100020102000100D7
:1002D000000001010102030404050708090A0C0DCE
:1002E0000F1112141617191B1D1F2122242628294D
:1002F0002B2D2E3031333435363738393A3A3B3BB3
:100300003C3C3C3C3C3C3D3D3E3E3F404142434406
:100310004647494A4C4D4F5152545658595B5D5FC0
:100320006062646567696A6B6D6E6F707172737419
:100330007475757676767676767676767676767661
:100340007676767676767677777777777777777744
:100350007777777777777777787878787878787825
:100360007878787878787878787878787879797A09
:100370007A7B7B7C7D7E7F7F808283848586878974
:100380008A8B8C8E8F9091929495969798999A9B40
:100390009C9D9D9E9F9FA0A0A0A1A1A1A1A1A1A263
:1003A000A2A3A3A4A5A6A7A9AAACADAFB0B2B4B6A8
:1003B000B8BABCBEC0C2C4C6C8CACCCED0D2D4D6CD
:1003C000D8D9DBDCDEDFE0E1E2E3E3E4E4E5E5E528
:1003D000E5E4E4E3E2E0DFDDDBD8D6D3D0CDCAC686
:1003E000C2BFBBB7B3AFABA6A29E9A95918D8985CC
:1003F000817D7A7673706D6A676563615F5E5C5B51
:100400005B5A5A5A5A595958575655545351504E87
:100410004C4A484644423F3D3A383633302E2B2929
:100420002724221F1D1B1917151312100F0D0C0B5B
:100430000A090908080808080808080909090A0A31
:100440000A0B0B0C0D0D0E0E0F10101112131314BE
:10045000151516171818191A1A1B1B1C1D1D1E1E00
:100460001E1F1F1F20202020202020202020202091
:100470001F1F1F1F1F1E1E1E1E1D1D1D1C1C1C1BA3
:100480001B1A1A1A191919181818171717161616E9
:100490001615151515151414141414141414141415
:1004A0001413131313121212111110100F0F0E0E3A
:1004B0000D0D0C0B0B0A0A090808070706060504B0
:1004C00004030303020201010101000000000039DE
:1004D00039393939383838373736363534343332B4
:1004E0003231302F2E2D2C2B2B2A2928272625245C
:1004F0002323222120201F1E1E1D1D1C1C1C1B1B14
:100500001B1B1B1B1B1B1B1A1A1A1919191818174E
:10051000161615141413121111100F0E0D0D0C0BCD
:100520000A0908080706060504040303020201017C
:1005300001000000000000000000000000000000BA
:1005400000000000000000000000000000000000AB
:10055000000000000000000000000000000000009B
:100560000000000000000000000000000101020384
:1005700004050607080A0B0D0F11131517191B1D8B
:100580001F212426282A2C2E31333537383A3C3D7A
:100590003F40424344454646474748484848494902
:1005A0004A4B4C4E4F515356585B5D6063666A6DC3
:1005B0007074787B7F83868A8E9195989C9FA2A584
:1005C000A8ABAEB0B3B5B7B9BBBCBDBEBFC0C0C0B1
:1005D000C0C0C0C0C0C0BFBFBFBFBEBEBEBEBDBD2D
:1005E000BDBCBCBBBBBBBABAB9B9B8B8B8B7B7B673
:1005F000B6B6B5B5B4B4B4B4B3B3B3B3B3B2B2B2C0
:10060000B2B2B2B2B2B2B2B2B2B2B2B3B3B3B3B3C5
:10061000B3B4B4B4B4B4B5B5B5B5B6B6B6B6B7B789
:10062000B7B7B7B8B8B8B8B9B9B9B9B9B9B9BABA42
:10063000BABABABABABABABABABBBBBBBCBDBDBE0B
:10064000BFC0C1C2C4C5C6C7C9CACCCDCFD0D2D421
:10065000D5D7D8DADBDDDEE0E1E2E3E5E6E7E8E99D
:10066000EAEAEBECECECEDEDEDEDEDEDECECEBEACC
:10067000E9E8E7E5E4E2E1DFDDDBD9D7D4D2D0CEAB
:10068000CBC9C6C4C2BFBDBBB8B6B4B2B0AEACAACB
:10069000A9A7A6A5A3A2A1A1A0A09F9F9F9F9F9E3F
:1006A0009D9C9B9A99979593918F8D8A888582803E
:1006B0007D7A7773706D6A6764615E5B58555250DE
:1006C0004D4B48464442413F3E3C3B3B3A3939F36F
:1006D000F3F3F3F3F3F3F3F3F2F2F2F2F2F2F2F1F3
:1006E000F1F1F1F1F0F0F0F0F0EFEFEFEFEFEEEE0F
:1006F000EEEEEEEDEDEDEDEDEDEDECECECECECEC2D
:10070000ECECECECECECECEBEBEBEBEAEAE9E9E83B
:10071000E8E7E6E6E5E4E4E3E2E1E0E0DFDEDDDCB5
:10072000DCDBDAD9D9D8D7D7D6D6D5D5D4D4D3D35C
:10073000D3D2D2D2D2D2D2D2D1D1D0CFCECCCBC9B9
:10074000C7C5C3C0BEBBB9B6B3B0ADA9A6A3A09C74
:10075000999693908C898683807E7B79767472706B
:100760006E6D6B6A69686867676767676666656507
:10077000646362615F5E5D5B5A58565553514F4DDD
:100780004B4947454342403E3C3A38373533323097
:100790002F2E2D2C2B2A29282827272727272727C4
:1007A00026262625252423232221201F1E1D1C1B2F
:1007B0001A1918171614131211100F0E0D0B0A091F
:1007C00008080706050404030302020201010101EF
:1007D00001010101010202020203030304040405F2
:1007E0000506060707080809090A0A0B0B0C0C0D79
:1007F0000D0E0E0F0F0F10101011111111121212F9
:1008000012121212121213131415151617181A1B9E
:100810001C1E1F2122242628292B2D2F313335364B
:10082000383A3C3E3F414244454748494A4B4C4D8B
:100830004D4E4E4F4F4F4F4F505152535557595B9E
:100840005D606366696D7174787C8084898D919632
:100850009A9EA2A7ABAFB3B7BABEC2C5C8CBCED023
:10086000D2D4D6D8D9DADBDCDCDCDCDCDCDCDDDDE8
:10087000DDDEDEDFDFE0E0E1E2E2E3E4E4E5E6E75F
:10088000E8E9E9EAEBECEDEDEEEFF0F0F1F2F2F38E
:10089000F4F4F5F5F5F6F6F6F7F7F7F7F7F7F7F7F7
:1008A000F7F7F7F7F7F7F7F7F6F6F6F6F6F6F6F6E0
:1008B000F6F6F5F5F5F5F5F5F5F5F4F4F4F4F4F4EC
:1008C000F4F4F4F4F3F3F3F3F3F3F3F3F3F3F300E7
:1008D00011241FBECFEFDAE0DEBFCDBF12E0A0E0F3
:1008E000B1E0E2E4FDE202C005900D92A431B1074F
:1008F000D9F722E0A4E1B2E001C01D92AE3CB207FC
:10090000E1F70E94E30C0C949F160C9400003F92B8
:100910004F925F926F927F928F929F92AF92BF920F
:10092000CF92DF92EF92FF920F931F93CF93DF93BB
:1009300000D000D01F92CDB7DEB78C010E94761692
:100940005C01892B09F404C10E5F1F4F0F3F23E0A8
:10095000120708F0FDC0E12CF12CA1E64A2EA2E01E
:100960005A2EB6E06B2E80E4382E6E0136E0C30EB0
:10097000D11C92E6792E10C0411101C1FFEFEF1A90
:10098000FF0AAE14BF0409F4E3C00E5F1F4F0F3F10
:1009900083E0180708F0DCC0C8010E947616AC019D
:1009A000852F552349F39A01ADECBCEC0E945F16EC
:1009B000FC01F695E795F695E795F695E7959F0185
:1009C000220F331FCF01880F991F880F991F880F9F
:1009D000991F820F931F9A01281B390B2D839F01AA
:1009E0000E945F169695879596958795969587951B
:1009F0009C01220F331F880F991F880F991F880FA2
:100A0000991F820F931FE81BF90BEC839A0136950F
:100A1000279536952795ABE7B4E10E945F16FC0158
:100A2000F695E7959F01ADECBCEC0E945F1696959C
:100A3000879596958795969587959C01220F331FEC
:100A4000880F991F880F991F880F991F820F931F76
:100A5000E81BF90BEB839A01369527953695279578
:100A600036952795A5ECB0E20E945F16FC01F29541
:100A7000E295EF70EF27FF70EF279F01ADECBCEC24
:100A80000E945F169695879596958795969587957A
:100A90009C01220F331F880F991F880F991F880F01
:100AA000991F820F931FE81BF90BEA839A01329575
:100AB00022952F7023273F702327A7E4B3E00E94DD
:100AC0005F169695879596958795969587958983D0
:100AD000F201262D11922A95E9F730925F0222E366
:100AE00048E06FE572E081E00E94B911CE01019605
:100AF0004C0170926102F40181914F01882319F039
:100B0000885A8093610222E348E06FE572E081E059
:100B10000E94B9111092610222E348E06FE572E091
:100B200081E00E94B911C814D90419F710925F022C
:100B30001092610222E348E06FE572E081E00E94DA
:100B4000B911FFEFEF1AFF0AAE14BF0409F01DCF71
:100B50000F900F900F900F900F90DF91CF911F91FA
:100B60000F91FF90EF90DF90CF90BF90AF909F904C
:100B70008F907F906F905F904F903F900895F2011B
:100B8000262D11922A95E9F747FD0DC080935F024B
:100B90004F774093610222E348E06FE572E081E025
:100BA0000E94B911C3CF80E2F1CF8091670290918A
:100BB0004E02981731F080934E0281E080937302C9
:100BC00008958091680290915002981731F08093B7
:100BD000500281E0809373020895809169029091A0
:100BE0005102981719F080935102E7CF80916A0261
:100BF00090915202981719F080935202DECF8091A3
:100C00006B0290915302981719F080935302D5CF3D
:100C100080916C0290915402981719F080935402BD
:100C2000CCCF80916D0290915502981719F0809366
:100C30005502C3CF80E0089580917302811102C0F4
:100C400081E008951092730222E348E06EE472E0BE
:100C500081E00C94B91180918002909175029817EF
:100C600029F18093750281E02091850230918602FE
:100C700040917B0250917C0242175307C9F0309398
:100C80007C0220937B022091870230918802809120
:100C90007E0290917F0282179307C9F030937F0202
:100CA00020937E0283E080938A02089580E0DCCF67
:100CB000209187023091880240917E0250917F02FC
:100CC0004217530759F7882381F381E0ECCF82E084
:100CD000EACFCF93DF9380918A02837080938A0258
:100CE000811104C081E0DF91CF9108950E94B61177
:100CF0008823C1F38FB7F894C091E400CE5C92E0F2
:100D00009093E9009091E80095FD14C0D2E00CC0EA
:100D10008091E400C81731F38FB7F894D093E900BD
:100D20009091E80095FD06C08FBF0E94B611811119
:100D3000EFCFD8CF90918A02923099F1933011F190
:100D40009130D1F410928A02909174029093F10044
:100D5000909175029093F100909176029093F1003A
:100D6000909177029093F100909178029093F10026
:100D7000909179029093F1009AE39093E8008FBFED
:100D800080E0B1CF10928A0290917D029093F100A1
:100D900090917E029093F10090917F029093F100E8
:100DA000EBCF10928A0290917A029093F100909189
:100DB0007B029093F10090917C029093F100DCCF44
:100DC0008091800281112FC08091850290918602CE
:100DD000892B49F58091870290918802892B19F51A
:100DE0008091680281111FC08091690281111BC02E
:100DF00080916A02811117C080916B02811113C02A
:100E000080916C0281110FC080916D0281110BC025
:100E100080916702811107C081E090919902911140
:100E200003C080E0089581E0089580919902909137
:100E30009702981721F08093970281E0089580E04F
:100E40000895CF93DF938CE0EBE8F2E0DF01C82F49
:100E50001D92CA95E9F7E4E7F2E0DF011D928A9559
:100E6000E9F7A0E8B2E08BE0ED0119928A95E9F785
:100E700081E0808392E0968393E0918719968C932A
:100E8000DF91CF91089588E0EFE5F2E0DF01982F40
:100E90001D929A95E9F7EEE4F2E0DF011D928A9542
:100EA000E9F7E7E6F2E08DE0DF011D928A95E9F7C8
:100EB00081E0808783878DE78187089588E0E7E573
:100EC000F2E0DF01982F1D929A95E9F7E6E4F2E04F
:100ED000DF011D928A95E9F708959091970290FF9E
:100EE00006C02091560280E282278093560291FF2D
:100EF00006C02091560280E182278093560293FD1E
:100F000010C0892F807295FF0BC0809156028F5FB1
:100F1000982F9F70933008F0807F8093560281E075
:100F2000089582E391E00E94870481E0089584306F
:100F300031F090919902892B8093990208959091B4
:100F40004E02992389F190916802953391F3209193
:100F50006902253371F330916A02353351F34091C0
:100F60006B02453331F350916C02553311F36091AC
:100F70006D026533F1F2992309F447C0222309F485
:100F80004AC0332309F450C0442309F453C0552305
:100F900009F453C06111CDCF25E030E0F901E959E2
:100FA000FD4F95E39183C5CF90916802993209F284
:100FB00020916902293209F4BCCF30916A0239329A
:100FC00009F4B7CF40916B02493209F4B2CF509186
:100FD0006C02593209F4ADCF60916D02693209F4A7
:100FE000A8CF9923A9F02223C9F03323D1F04423B9
:100FF000F1F0552329F161119CCF25E030E0F90192
:10100000E959FD4F99E2918394CF20E030E0C6CFBB
:1010100020E030E0F4CF21E030E0C0CF21E030E04C
:10102000EECF22E030E0EBCF22E030E0B7CF23E09C
:1010300030E0E5CF23E030E0B1CF24E030E0AECFC8
:1010400024E030E0DCCF90916802891711F1209103
:1010500069028217F1F030916A028317D1F0409152
:101060006B028417B1F050916C02851791F060917A
:101070006D02681771F0992371F02223A1F03323D8
:10108000A9F04423B1F05523B9F06623C1F080E004
:10109000089581E0089520E030E0F901E959FD4F1D
:1010A000818381E0089521E030E0F7CF22E030E055
:1010B000F4CF23E030E0F1CF24E030E0EECF25E0C4
:1010C00030E0EBCFE7E6F2E09081892B8083089552
:1010D000E0E8F2E09081892B8083089590E090937E
:1010E0008602809385020895982F907F9039D9F0D9
:1010F00038F0903C91F0903E81F0903B71F0089573
:10110000903221F0903879F09111F9CF90E092600F
:101110009093880280938702089590E090938802CC
:1011200080938702089590E0916090938802809365
:1011300087020895E0E8F2E0108216821582108698
:101140001782089586E0E8E6F2E0DF011D928A95B5
:10115000E9F7109267020895CF92DF92EF92FF9223
:101160000F931F93CF93DF9380E090E00E94761659
:10117000EC0182E090E00E9476168C0184E090E021
:101180000E9476167C0186E090E00E9476166C0143
:1011900088E090E00E9476162A9749F0DF91CF917F
:1011A0001F910F91FF90EF90DF90CF9008950F3037
:1011B0001105A1F72EE1E216F10481F7E9E6CE165A
:1011C000D10461F7843B910549F78AE090E00E94E1
:1011D0006E1680930E028BE090E00E946E16809354
:1011E0000F028CE090E00E946E16809310028DE05A
:1011F00090E00E946E16809311028EE090E00E94B3
:101200006E16809312028FE090E00E946E1680931B
:10121000FF0180E190E00E946E168093000281E160
:1012200090E00E946E168093010282E190E00E949D
:101230006E168093020283E190E00E946E16809306
:10124000030284E190E00E946E168093040285E11F
:1012500090E00E946E168093050286E190E00E9465
:101260006E168093060287E190E00E946E168093CE
:10127000070288E190E00E946E168093080289E1DF
:1012800090E00E946E16809309028AE190E00E942D
:101290006E1680930A028BE190E00E946E16809396
:1012A0000B028CE190E00E946E1680930C028DE19F
:1012B00090E00E946E1680930D0206E911E0C0E0F6
:1012C000D0E0CE014E960E946E16F8018083CE01CA
:1012D0004F960E946E16F8018183CE0180960E947F
:1012E0006E16F8018283CE0181960E946E16F80177
:1012F0008383CE0182960E946E16F8018483CE010C
:1013000083960E946E16F8018583CE0184960E9412
:101310006E16F8018683CE0185960E946E16F8013E
:101320008783CE0186960E946E16F8018087CE01D3
:1013300087960E946E16F8018187CE0188960E94DA
:101340006E16F8018287CE0189960E946E16F8010A
:101350008387CE018A960E946E16F8018487CE019B
:101360008B960E946E16F8018587CE018C960E949E
:101370006E16F80186872F96015F1F4FCB34D1057B
:1013800009F09FCF0BE411E0C0E0D0E0CE01875917
:101390009F4F0E946E16F8018083CE0186599F4FA1
:1013A0000E946E16F8018183CE0185599F4F0E94DD
:1013B0006E16F8018283CE0184599F4F0E946E16EB
:1013C000F8018383CE0183599F4F0E946E16F80166
:1013D0008483CE0182599F4F0E946E16F801858347
:1013E000CE0181599F4F0E946E16F8018683CE016F
:1013F00080599F4F0E946E16F8018783CE018F5847
:101400009F4F0E946E16F8018087CE018E589F4F25
:101410000E946E16F8018187CE018D589F4F0E9461
:101420006E16F8018287CE018C589F4F0E946E166F
:10143000F8018387CE018B589F4F0E946E16F801EA
:101440008487CE018A589F4F0E946E16F8018587C7
:10145000CE0189589F4F0E946E16F80186872F96FD
:10146000015F1F4FCB34D10509F090CF00E011E0B0
:10147000C0E0D0E0CE018C549F4F0E946E16F80160
:101480008083CE018B549F4F0E946E16F80181839A
:10149000CE018A549F4F0E946E16F8018283CE01BE
:1014A00089549F4F0E946E16F8018383CE018854A1
:1014B0009F4F0E946E16F8018483CE0187549F4F80
:1014C0000E946E16F8018583CE0186549F4F0E94BC
:1014D0006E16F8018683CE0185549F4F0E946E16CA
:1014E000F8018783CE0184549F4F0E946E16F80145
:1014F0008087CE0183549F4F0E946E16F80181872A
:10150000CE0182549F4F0E946E16F8018287CE0151
:1015100081549F4F0E946E16F8018387CE0180543C
:101520009F4F0E946E16F8018487CE018F539F4F04
:101530000E946E16F8018587CE018E539F4F0E9440
:101540006E16F80186872F96015F1F4FCB34D105A9
:1015500009F090CFC6E1D2E00FEF10E00651124043
:10156000C8018C0F9D1F0E946E168993F2E0C33450
:10157000DF07B1F78CE291E00E946E1680939A0229
:101580000DCECF93DF938091980281111BC0C09143
:101590004602D0914702CF3F21EFD207B1F0CF3FB3
:1015A00082EFD80709F44AC080916F028823B9F00E
:1015B00088E0E6E4F2E0DF011D928A95E9F781E038
:1015C00080939802DF91CF91089580916F028130CE
:1015D00009F43EC08111ECCF0E94CC0E1DC00E94C8
:1015E000CC0ECE3FA3E0DA0748F4F999FECF609124
:1015F000480270914902CE010E947C16CE010296EB
:101600008E3FB3E09B0740F4F999FECF60914A0208
:1016100070914B020E947C16CE0104968E3F23E00F
:10162000920718F00E94CD0EC3CFF999FECF6091BA
:101630004C0270914D020E947C16F4CF80916F0293
:101640008111B6CF0E94CD0E82E080936F02B0CFA1
:1016500010926F02ADCF80E885BF85BF089590E0FE
:101660008931910540F4FC01EA5AFF4F0C94591658
:101670006111A2C06E980895662309F46DC0559A51
:101680000895662309F46AC0549A0895662309F4FC
:101690006DC0859A0895662309F464C0819A0895FF
:1016A000662309F467C0879A0895662309F458C031
:1016B000809A0895662309F45BC0869A089566238C
:1016C00009F452C0849A0895662309F455C0269AF5
:1016D0000895662309F460C0259A0895662309F4E5
:1016E00053C0519A0895662309F45EC03F9A089545
:1016F000662309F445C0229A0895662309F450C070
:10170000579A0895662309F443C0279A08956623DB
:1017100009F44EC0539A0895662381F1209A0895E2
:101720006623E1F1249A0895662381F1509A089581
:101730006623E1F13E9A0895662321F1219A0895E6
:10174000662381F1569A0895662321F1239A08951C
:10175000662381F1529A08955598089554980895F2
:10176000809808958198089584980895859808959B
:101770008698089587980895269808952098089542
:1017800022980895219808955198089550980895A1
:1017900027980895239808952598089524980895E2
:1017A00057980895569808953F9808953E9808953B
:1017B00053980895529808956E9A089590E089314B
:1017C000910540F4FC01E159FF4F0C945916611149
:1017D000A2C076980895662309F46DC05D9A0895B5
:1017E000662309F46AC05C9A0895662309F46DC003
:1017F0008D9A0895662309F464C0899A0895662332
:1018000009F467C08F9A0895662309F458C0889A2E
:101810000895662309F45BC08E9A0895662309F43F
:1018200052C08C9A0895662309F455C02E9A0895E3
:10183000662309F460C02D9A0895662309F453C005
:10184000599A0895662309F45EC0479A089566235D
:1018500009F445C02A9A0895662309F450C05F9A96
:101860000895662309F443C02F9A0895662309F466
:101870004EC05B9A0895662381F1289A08956623E5
:10188000E1F12C9A0895662381F1589A0895662310
:10189000E1F1469A0895662321F1299A0895662375
:1018A00081F15E9A0895662321F12B9A08956623AB
:1018B00081F15A9A08955D9808955C9808958898E2
:1018C0000895899808958C9808958D9808958E9814
:1018D00008958F9808952E980895289808952A9825
:1018E00008952998089559980895589808952F981B
:1018F00008952B9808952D9808952C9808955F9831
:1019000008955E98089547980895469808955B98BD
:1019100008955A980895769A089590E0893191052E
:1019200010F080E00895FC01E857FF4F0C94591621
:1019300089B18072089589B1807108958FB18170E5
:1019400008958FB1827008958FB1807108958FB11D
:10195000807208958FB1807408958FB18078089552
:1019600083B18074089583B18072089583B18071CA
:10197000089589B18078089589B18074089586B1F9
:101980008078089586B18074089589B1887008952B
:1019900089B18470089589B18270089589B1817088
:1019A000089583B18078089583B18870089583B1D4
:1019B0008470089583B18270089583B18170089511
:1019C0008CB1807408950C946C0E0F931F93CF9379
:1019D000DF93CFEFD1E08E0160E089910E942F0B61
:1019E00061E0F80180810E94DE0BF2E0CE30DF077B
:1019F00091F7DF91CF911F910F9108950F931F934E
:101A0000CF93DF93CEE0D2E08E0160E089910E9417
:101A10002F0B61E0F80180810E94DE0BF2E0C33100
:101A2000DF0791F7DF91CF911F910F9108954F92AA
:101A30005F926F927F928F929F92AF92BF92CF925E
:101A4000DF92EF92FF920F931F93CF93DF9340E0CB
:101A5000442E41E0542E62015EE0A52E52E0B52EE8
:101A60000EE012E068E0762E7FE0672EE3E1EE2ED6
:101A7000E2E0FE2EE50161E0F50181915F010E9447
:101A80002F0B60E088810E94DE0B3FEF832E31E058
:101A9000932EE60107C088818777888321960815F1
:101AA0001905A1F0F40181914F010E948D0C811163
:101AB000F2CF888188688883709215028E3E71F714
:101AC0006092C80221960815190561F72EE0822E52
:101AD00022E0922EE40160E0F40181914F010E9426
:101AE0002F0B61E088810E94DE0BE814F90491F766
:101AF000FFE0CF0ED11C8BE4C81681E0D80609F0B8
:101B0000B9CF0E94A2080E949A0810929902C6E9D1
:101B1000D1E08BE4C82E81E0D82E91EE892E91E0A1
:101B2000992E7E01FFE0EF0EF11C5601820117C0D5
:101B3000803B09F495C008F480C0803D09F49DC045
:101B4000803F09F496C0803C19F488810E946E0899
:101B50002196FFEFAF1ABF0ACE15DF05F9F0F801A5
:101B600091918F018091C80289238F3009F473C04D
:101B7000F8F68B3009F46AC008F055C0893009F4D2
:101B800080C08A3029F7F50180810E946208219681
:101B9000FFEFAF1ABF0ACE15DF0509F78FE0480E39
:101BA000511CEFE0CE0ED11C8C169D0609F0B9CF6A
:101BB0000E94E006811103C080EF8093C8020E945A
:101BC0001507882319F084E0809314020E94D5053C
:101BD000882319F084E0809314020E942B0681115F
:101BE00059C080911502883009F45CC0813009F435
:101BF00061C090911402811159C0992319F091503C
:101C000090931402DF91CF911F910F91FF90EF906D
:101C1000DF90CF90BF90AF909F908F907F906F900C
:101C20005F904F9008958C30F9F08D3009F090CF8F
:101C3000F50180810E9474088BCF803939F1803A98
:101C400009F086CF88810E94620882CFF5018081E9
:101C50000E9468087DCFF50180810E94970778CFA8
:101C600088810E94680874CFF50180810E946E0807
:101C70006FCF88810E9497076BCF88810E9474087C
:101C800067CFF50180810E94230862CF88810E947E
:101C900023085ECF84E0809314028091150288307F
:101CA00009F0A4CF90911402913069F08150809393
:101CB0001502A3CF0E946D070E941C060E946906B0
:101CC0008091150296CF0E946D070E941C060E940B
:101CD0006906809115028ACF80E880936100109296
:101CE00061000E942B0B0E94CE0E2FEF89E698E137
:101CF000215080409040E1F700C000000E94921106
:101D00000E94B61181110AC02FEF85EA9EE0215092
:101D100080409040E1F700C00000F2CF0E94E50C47
:101D20000E94FE0CC1E012E0D0EFC0939802C09375
:101D30006F0210939A020E94A2080E949A080E94C1
:101D4000AC080E94DB0ED093C8022FEF85EA9EE01C
:101D5000215080409040E1F700C0000022E348E0BD
:101D60006EE472E081E00E94B91106C080916F02BA
:101D70008230D9F2813039F0809114028111F6CF8E
:101D80000E94C10AF3CF0E94170D809114028111A5
:101D9000F5CF0E943A11F0CF089508950E940816D9
:101DA0000E940A160E943C1680E890E09093CB02B5
:101DB0008093CA02089580919A02809356020E94ED
:101DC0000A160E943C1680E890E09093CB02809324
:101DD000CA020895CF93DF938033910509F4E2C1DD
:101DE0008034910509F402C28031910509F4ABC039
:101DF000809709F41DC28091E1019091E201811563
:101E0000924020F01092E2011092E1018091E301F2
:101E10009091E4018115924020F01092E40110921B
:101E2000E3018091E5019091E6018115924020F057
:101E30001092E6011092E5018091E7019091E8018E
:101E40008115924020F01092E8011092E7018091F4
:101E5000E9019091EA018115924020F01092EA0187
:101E60001092E9018091EB019091EC018115924073
:101E700020F01092EC011092EB018091ED01909115
:101E8000EE018115924020F01092EE011092ED01CA
:101E90008091EF019091F0018115924020F0109215
:101EA000F0011092EF018091F1019091F201811502
:101EB000924020F01092F2011092F1018091F30112
:101EC0009091F4018115924020F01092F40110924B
:101ED000F3018091F5019091F6018115924020F077
:101EE0001092F6011092F5018091F7019091F8019E
:101EF0008115924020F01092F8011092F701809124
:101F0000F9019091FA018115924020F01092FA01A6
:101F10001092F9018091FB019091FC018115924092
:101F200020F01092FC011092FB018091FD01909134
:101F3000FE018115924020F01092FE011092FD01E9
:101F4000DF91CF9108958091E1019091E201811597
:101F5000924020F01092E2011092E1018091E101A3
:101F60009091E20101969093E2018093E1018091CA
:101F7000E3019091E4018115924020F01092E40178
:101F80001092E3018091E3019091E4010196909316
:101F9000E4018093E3018091E5019091E6018115D0
:101FA000924020F01092E6011092E5018091E50147
:101FB0009091E60101969093E6018093E50180916E
:101FC000E7019091E8018115924020F01092E8011C
:101FD0001092E7018091E7019091E80101969093BA
:101FE000E8018093E7018091E9019091EA01811570
:101FF000924020F01092EA011092E9018091E901EB
:102000009091EA0101969093EA018093E901809111
:10201000EB019091EC018115924020F01092EC01BF
:102020001092EB018091EB019091EC01019690935D
:10203000EC018093EB018091ED019091EE0181150F
:10204000924020F01092EE011092ED018091ED018E
:102050009091EE0101969093EE018093ED018091B5
:10206000EF019091F0018115924020F01092F00163
:102070001092EF018091EF019091F0010196909301
:10208000F0018093EF018091F1019091F2018115AF
:10209000924020F01092F2011092F1018091F10132
:1020A0009091F20101969093F2018093F101809159
:1020B000F3019091F4018115924020F01092F40107
:1020C0001092F3018091F3019091F40101969093A5
:1020D000F4018093F3018091F5019091F60181154F
:1020E000924020F01092F6011092F5018091F501D6
:1020F0009091F60101969093F6018093F5018091FD
:10210000F7019091F8018115924020F01092F801AA
:102110001092F7018091F7019091F8010196909348
:10212000F8018093F7018091F9019091FA018115EE
:10213000924020F01092FA011092F9018091F90179
:102140009091FA0101969093FA018093F9018091A0
:10215000FB019091FC018115924020F01092FC014E
:102160001092FB018091FB019091FC0101969093EC
:10217000FC018093FB018091FD019091FE0181158E
:10218000924020F01092FE011092FD018091FD011D
:102190009091FE0101969093FE018093FD01DF91E5
:1021A000CF910895C0E0D0E0CE01880F991FFC01C7
:1021B000EF51FE4F208131812115324010F0118204
:1021C0001082FC01EF51FE4F0190F081E02DE153B0
:1021D000FB4F64916093C902CE010E941C162196A8
:1021E000CF30D10509F7DF91CF910895C0E0D0E05D
:1021F000CE01880F991FFC01EF51FE4F20813181E4
:102200002115324010F011821082FC01EF51FE4F77
:102210000190F081E02DE153F94F64916093CC027D
:10222000CE010E9412162196CF30D10509F788CE33
:10223000C0E0D0E0CE01880F991FFC01EF51FE4FA6
:10224000208131812115324010F011821082FC0171
:10225000EF51FE4F0190F081E02DE153FD4F64916D
:102260006093CD02CE010E9426162196CF30D10573
:1022700009F766CE0F931F93CF93DF938091560299
:1022800084FF0CC08F70813079F1811137C080914B
:10229000CA029091CB028035910599F18091CA02D2
:1022A0009091CB028037910531F18091CA029091D3
:1022B000CB02892B59F480E890E09093CB02809375
:1022C000CA02DF91CF911F910F9108958091CA02A8
:1022D0009091CB0201979093CB028093CA02DF9139
:1022E000CF911F910F9108958091CA029091CB02D6
:1022F0000E94EA0ED3CF0E943C16D7CF0E940A1646
:10230000CDCFC6E1D2E000E010E02A8149816881AA
:10231000C8010E9430160F5F1F4F23960F30110522
:10232000A1F7BCCF81E08093D70080EA8093D800EA
:1023300082E189BD09B400FCFDCF80E98093D8001B
:102340001092E0001092450288E08093E20084E061
:102350008093E20078940E9443070E9421070E9424
:102360005E0710929902109297020895809145029B
:102370000895909145029923E9F09FB7F894309120
:10238000E400230F8093E9003091E80035FF0DC091
:1023900013C09091E400291769F09FB7F8948093D7
:1023A000E9003091E80035FD07C09FBF90914502DC
:1023B0009111EFCF81E00895442351F0FB019B017F
:1023C000240F311D81918093F1002E173F07D1F723
:1023D0008AE38093E8009FBF80E008951F920F92E8
:1023E0000FB60F9211242F933F934F938F939F9388
:1023F0008091E1001092E10083FF0FC01092E9008C
:1024000091E09093EB001092EC0092E09093ED003D
:1024100098E09093F0001092450282FF04C08091F2
:10242000450281110AC09F918F914F913F912F9149
:102430000F900FBE0F901F901895909144029F5FD0
:1024400089E2989F812D1124869586958695392F4E
:1024500022E3829F30191124832F311116C010926C
:1024600044029091E80095FF12C090919802992340
:1024700071F020916F0221114AC0809145028111B3
:102480004EC021E02093980202C0909344029091A4
:102490007002992341F2809143028F5F809343023F
:1024A000837009F0C0CF81E08093E9008091E8005B
:1024B00085FFB9CF809171028F5F8093710289137C
:1024C000B2CF1092710280914E028093F100809100
:1024D0004F028093F100809150028093F10080912F
:1024E00051028093F100809152028093F10080911B
:1024F00053028093F100809154028093F100809107
:1025000055028093F1008AE38093E8008CCF90918C
:102510004502911154C081E080939802B8CF8FB7E3
:10252000F8943091E40094E09093E9009091E800F1
:1025300095FD20C08FBF80914502882309F4A1CF6B
:102540008091E400381709F49CCF44E00BC08FBFA2
:1025500080914502882309F494CF8091E4003817D4
:1025600009F48FCF8FB7F8944093E9009091E80079
:1025700095FFEDCF9091F100909346029091F1007C
:10258000909347029091F100909348029091F1004E
:10259000909349029091F10090934A029091F1003A
:1025A00090934B029091F10090934C029091F10026
:1025B00090934D029AE39093E8008FBF63CF9FB74B
:1025C000F8943091E40024E02093E9002091E800A1
:1025D00025FD20C09FBF90914502992309F49BCF10
:1025E0009091E400931709F496CF44E00BC09FBF8D
:1025F00090914502992309F48ECF9091E400391708
:1026000009F489CF9FB7F8944093E9002091E8003E
:1026100025FFEDCF2091F100209346022091F1009B
:10262000209347022AE32093E8009FBF75CF1F92B3
:102630000F920FB60F9211242F933F934F935F93F6
:102640006F937F938F939F93AF93BF93EF93FF937A
:102650001092E9008091E80083FF38C07091F1008A
:102660004091F1008091F1002091F10090E0922BD7
:102670002091F1005091F10030E0352B6091F10094
:10268000E091F10052EF5093E800463099F1453067
:1026900009F43EC1493009F47BC0483009F407C150
:1026A0004111B5C18091E80080FFFCCF723809F478
:1026B00084C180E08093F1001092F1008EEF80934E
:1026C000E80007C02115310509F00AC181E28093B5
:1026D000EB00FF91EF91BF91AF919F918F917F910F
:1026E0006F915F914F913F912F910F900FBE0F907F
:1026F0001F901895811541E0940709F455C1811583
:10270000F2E09F0709F463C1811542E2940709F4DE
:1027100025C18115F1E29F0709F462C1811523E00B
:10272000920709F061C2A4E0B0E024E048E751E07C
:10273000862F90E09E2B8F3F910509F020F48A1799
:102740009B0708F4262F6EEF8091E8008570E1F377
:102750008091E80082FDBDCF322F293008F41FC1DF
:1027600038E0FA01832F94919093F10081503196D3
:102770008111F9CF8FEF830F90E00196480F591F19
:10278000231B6093E8002111DFCF3830E9F2A1CF9D
:1027900071118FC0809345028EEF8093E80081E035
:1027A0008093E900E2E4F1E0E491E093EB00EE23B2
:1027B00009F463C1E3E4F1E0E491E093EC00E4E4C4
:1027C000F1E0E491E093ED0025E431E082E08093D4
:1027D000E900C9010196F90144914093EB004423BB
:1027E00051F0FC0184918093EC00C901039631966D
:1027F00024912093ED0023E02093E9009C012F5FBA
:102800003F4FFC0144914093EB00442359F0F90100
:1028100024912093EC009C012D5F3F4F31968491D1
:102820008093ED0084E08093E900C9010196F901ED
:1028300044914093EB00442351F0FC018491809338
:10284000EC00C9010396319624912093ED0025E018
:102850002093E9009C012F5F3F4FFC01449140937E
:10286000EB00442359F0F90124912093EC009C01E2
:102870002D5F3F4F319684918093ED0086E08093E9
:10288000E900C9010196F90144914093EB0044230A
:1028900041F0FC0184918093EC00319624912093C7
:1028A000ED008EE78093EA001092EA0012CF7038B4
:1028B000D1F121153105A1F4713A09F4E1C0713269
:1028C00009F004CF4930D9F14A3009F485C14B30C1
:1028D00009F0FCCE809372028EEF8093E800F9CE6F
:1028E0002230310509F444C02130310509F0EECE23
:1028F000713A09F412C1713209F0E8CE4B3009F493
:1029000065C14A3009F0E2CE8EEF8093E800E1CE57
:102910002EEF2093E8002091E80020FFFCCF806894
:102920008093E300D6CE8091E80080FFFCCF8091B9
:1029300045028093F1008EEF8093E800CACE80912B
:10294000E80082FFFCCF8091F10080936E028BEF54
:102950008093E8008EEF8093E800BBCE211531050F
:1029600009F047C0A0E4B0E020E44DE752E0E0CE3B
:10297000713A09F403C1713209F0A8CE4A3021F24C
:10298000493009F0A3CE8091E80082FFFCCF8BEFA5
:102990008093E8008091E80080FFFCCFB5CF211143
:1029A000E0CE6093E80095CE232B09F08FCEA2E114
:1029B000B0E022E14DEB52E0BBCE2093E9008091E4
:1029C000EB0085FB882780F91092E90073CE232B5A
:1029D00009F07CCEABE5B0E02BE54CE751E0A8CEAA
:1029E00021153105E1F5A9E0B0E029E04EE851E01C
:1029F0009FCE2230310509F48AC02130310509F01B
:102A000065CEA4E8B0E024E849EF51E091CE542F20
:102A10005D7F513009F04DCF723009F04ACF0097F9
:102A200009F050CE522F5F776FEF650F663008F0D8
:102A300049CE8EEF8093E8005093E900433009F4CB
:102A400045CE89E18093EB0081E090E001C0880FE2
:102A50005A95EAF78093EA001092EA003ACE2230C3
:102A6000310509F4ADC02130310509F02FCEA9E0C0
:102A7000B0E029E047EA51E05BCE23E431E0A6CEA6
:102A8000413089F04230B9F1433009F01FCE8091D6
:102A9000E80080FFFCCF809172028093F1008EEFFE
:102AA0008093E80016CE8091E80080FFFCCF8091F3
:102AB0004E028093F10080914F028093F10080914B
:102AC00050028093F100809151028093F100809137
:102AD00052028093F100809153028093F100809123
:102AE00054028093F100809155028093F1008EEFA3
:102AF0008093E800EECD8091E80080FFFCCF8091CC
:102B000070028093F1008EEF8093E800E2CDA2E2A4
:102B1000B0E022E247ED51E00BCE413079F0433096
:102B200009F0D4CD8091E80080FFFCCF809189022C
:102B30008093F1008EEF8093E800CBCD8091E80088
:102B400080FFFCCF809174028093F1008091750228
:102B50008093F100809176028093F100809177025A
:102B60008093F100809178028093F1008091790246
:102B70008093F1008EEF8093E800ABCD413009F0F7
:102B8000A5CD28E03EEF8091E800982F9570D9F30D
:102B900082FD9FCD922F293070F098E0892F1092FE
:102BA000F1008150E1F7291B3093E8002111EBCFB0
:102BB000983049F38ECD2111F1CF3093E80089CDC3
:102BC000A9E0B0E029E040EC51E0B2CD8093890269
:102BD0008EEF8093E8007DCD909370021092710289
:102BE0008EEF8093E80075CD813043E0940751F07B
:102BF0008230934009F06ACDACE1B0E02CE140E5D1
:102C000051E096CDACE0B0E02CE04CE651E090CD48
:102C1000579A08958DE2EBE9F2E0DF011D928A9563
:102C2000E9F708959C01220F331F820F931FFC01C7
:102C3000E556FD4F618308959C01220F331F820FDB
:102C4000931FFC01E556FD4F608308959C01220F00
:102C5000331F820F931FFC01E556FD4F62830895D9
:102C6000FC01EE0FFF1F8E0F9F1FFC01E556FD4F6D
:102C70004083618322830895F8942BB12F779BB111
:102C80009068EBE9F2E0819138E09BB9000000C068
:102C900087FF2BB9880F000000C000C000C02BB90F
:102CA00000C03A9591F782E0E83CF80761F7789424
:102CB0000895EE0FFF1F0590F491E02D0994A29F57
:102CC000B001B39FC001A39F700D811D1124911D00
:102CD000B29F700D811D1124911D0895F999FECFA9
:102CE00092BD81BDF89A992780B50895A8E1B0E01A
:102CF00042E050E00C9483160E949116272F0C940A
:102D00009216DC01CB01FC01F999FECF06C0F2BDA1
:102D1000E1BDF89A319600B40D9241505040B8F799
:102D20000895262FF999FECF1FBA92BD81BD20BD0F
:102D30000FB6F894FA9AF99A0FBE01960895F8948E
:022D4000FFCFC3
:102D42007111111111111111111111111100111023
:102D52000010101010101010101010101010100091
:102D6200101010101010101010101010000022116E
:102D720017101010101010101022112222660022BB
:102D82000000110000006666111111353A3B3C3D0E
:102D92003E3F404142434445004C000000000000D9
:102DA2000000000000000000000000000000000021
:102DB20000000000000000000002530200000000BA
:102DC200000000002052100100000400002C00004E
:102DD20000000050514F041E1F20212223242526CB
:102DE200272D2E002A2B00141A0815171C180C1256
:102DF200132F30313900041607090A0B0D0E0F3359
:102E020034280000021D1B06190511103637382020
:102E120052100100000400002C000000000050517C
:102E22004F00002200440066008800AA00CD00F096
:102E320000CD00AA008800660044002200000010B5
:102E420011121314151800010203050607080A09D6
:042E52000F0E0D0052
:00000001FF
