:100000000C9441040C945E040C945E040C945E0405
:100010000C945E040C945E040C945E040C945E04D8
:100020000C945E040C945E040C945E040C94C30E59
:100030000C94E40F0C945E040C945E040C945E0427
:100040000C945E040C945E040C945E040C945E04A8
:100050000C945E040C945E040C945E040C945E0498
:100060000C945E040C945E040C945E040C945E0488
:100070000C945E049B0AAB0A870AB30A910AA30A8E
:100080007D0AB70A960AA70A820AAF0A8C0A9F0A53
:10009000780A730A690A6E0A640A5F0A5A0A550ADC
:1000A000500A4C0A430B530B2F0B5B0B390B4B0BBA
:1000B000250B5F0B3E0B4F0B2A0B570B340B470BDB
:1000C000200B1B0B110B160B0C0B070B020BFD0A65
:1000D000F80AF40AE00BDD0BDA0BD70BD40BD10BCB
:1000E000CE0BCB0BC80BC50BC20BBF0BBC0BB90B9C
:1000F000B60BB30BB00BAD0BAA0BA70BA40BA10B4C
:100100009E0BE30B01C10201C10201C10601C00641
:100110000E037300740061007200790075000C0317
:100120007A00690061006E003100040309040902CD
:100130005B00030100A0320904000001030101007B
:100140000921110100012240000705810308000177
:10015000090401000103010200092111010001222B
:10016000840007058203080001090402000203005D
:100170000000092111010001222200070583030864
:100180000001070504030800010631FF0974A101FD
:100190000975150026FF0095087508810209761576
:1001A0000026FF00950875089102C005010902A10B
:1001B0000185010901A1000509190129051500257D
:1001C00001750195058102750395018103050109FA
:1001D0003009311581257F7508950281060938158A
:1001E00081257F35004500750895018106050C0ABB
:1001F00038021581257F750895018106C0C005016B
:100200000980A1018502150126B700190129B775DA
:100210001095018100C0050C0901A101850315019C
:10022000269C0219012A9C02751095018100C005C7
:10023000010906A10175019508050719E029E715CF
:100240000025018102950175088103950575010559
:100250000819012905910295017503910395067509
:1002600008150026FF000507190029FF8100C012AC
:1002700001000200000008C23205D00002010200A5
:100280000100000001010102030404050708090A36
:100290000C0D0F1112141617191B1D1F21222426D5
:1002A00028292B2D2E3031333435363738393A3A28
:1002B0003B3B3C3C3C3C3C3C3D3D3E3E3F40414268
:1002C00043444647494A4C4D4F5152545658595B46
:1002D0005D5F6062646567696A6B6D6E6F70717295
:1002E00073747475757676767676767676767676B7
:1002F0007676767676767676767777777777777797
:100300007777777777777777777778787878787877
:10031000787878787878787878787878787878795C
:10032000797A7A7B7B7C7D7E7F7F808283848586E1
:1003300087898A8B8C8E8F909192949596979899B5
:100340009A9B9C9D9D9E9F9FA0A0A0A1A1A1A1A1C1
:10035000A1A2A2A3A3A4A5A6A7A9AAACADAFB0B21F
:10036000B4B6B8BABCBEC0C2C4C6C8CACCCED0D25D
:10037000D4D6D8D9DBDCDEDFE0E1E2E3E3E4E4E598
:10038000E5E5E5E4E4E3E2E0DFDDDBD8D6D3D0CD9C
:10039000CAC6C2BFBBB7B3AFABA6A29E9A95918D9A
:1003A0008985817D7A7673706D6A676563615F5E4A
:1003B0005C5B5B5A5A5A5A595958575655545351BF
:1003C000504E4C4A484644423F3D3A383633302E30
:1003D0002B292724221F1D1B1917151312100F0D6F
:1003E0000C0B0A090908080808080808080909097F
:1003F0000A0A0A0B0B0C0D0D0E0E0F101011121322
:100400001314151516171818191A1A1B1B1C1D1D65
:100410001E1E1E1F1F1F20202020202020202020E5
:1004200020201F1F1F1F1F1E1E1E1E1D1D1D1C1CEA
:100430001C1B1B1A1A1A191919181818171717162E
:100440001616161515151515141414141414141461
:1004500014141413131313121212111110100F0F7E
:100460000E0E0D0D0C0B0B0A0A09080807070606ED
:10047000050404030303020201010101000000005E
:100480000039393939393838383737363635343430
:1004900033323231302F2E2D2C2B2B2A2928272690
:1004A00025242323222120201F1E1E1D1D1C1C1C51
:1004B0001B1B1B1B1B1B1B1B1B1A1A1A1919191898
:1004C0001817161615141413121111100F0E0D0D06
:1004D0000C0B0A09080807060605040403030202B8
:1004E0000101010000000000000000000000000009
:1004F00000000000000000000000000000000000FC
:1005000000000000000000000000000000000000EB
:1005100000000000000000000000000000000101D9
:10052000020304050607080A0B0D0F11131517190E
:100530001B1D1F212426282A2C2E31333537383A0B
:100540003C3D3F404243444546464747484848486B
:1005500049494A4B4C4E4F515356585B5D60636658
:100560006A6D7074787B7F83868A8E9195989C9F44
:10057000A2A5A8ABAEB0B3B5B7B9BBBCBDBEBFC03A
:10058000C0C0C0C0C0C0C0C0BFBFBFBFBEBEBEBE77
:10059000BDBDBDBCBCBBBBBBBABAB9B9B8B8B8B7B6
:1005A000B7B6B6B6B5B5B4B4B4B4B3B3B3B3B3B207
:1005B000B2B2B2B2B2B2B2B2B2B2B2B2B2B3B3B318
:1005C000B3B3B3B4B4B4B4B4B5B5B5B5B6B6B6B6E2
:1005D000B7B7B7B7B7B8B8B8B8B9B9B9B9B9B9B999
:1005E000BABABABABABABABABABABABBBBBBBCBD63
:1005F000BDBEBFC0C1C2C4C5C6C7C9CACCCDCFD09D
:10060000D2D4D5D7D8DADBDDDEE0E1E2E3E5E6E718
:10061000E8E9EAEAEBECECECEDEDEDEDEDEDECEC20
:10062000EBEAE9E8E7E5E4E2E1DFDDDBD9D7D4D2C4
:10063000D0CECBC9C6C4C2BFBDBBB8B6B4B2B0AED3
:10064000ACAAA9A7A6A5A3A2A1A1A0A09F9F9F9F76
:100650009F9E9D9C9B9A99979593918F8D8A888553
:1006600082807D7A7773706D6A6764615E5B5855CE
:1006700052504D4B48464442413F3E3C3B3B3A3949
:1006800039F3F3F3F3F3F3F3F3F3F2F2F2F2F2F2FA
:10069000F2F1F1F1F1F1F0F0F0F0F0EFEFEFEFEF58
:1006A000EEEEEEEEEEEDEDEDEDEDEDEDECECECEC79
:1006B000ECECECECECECECECECEBEBEBEBEAEAE985
:1006C000E9E8E8E7E6E6E5E4E4E3E2E1E0E0DFDEEE
:1006D000DDDCDCDBDAD9D9D8D7D7D6D6D5D5D4D49A
:1006E000D3D3D3D2D2D2D2D2D2D2D1D1D0CFCECCF8
:1006F000CBC9C7C5C3C0BEBBB9B6B3B0ADA9A6A36D
:10070000A09C999693908C898683807E7B79767461
:1007100072706E6D6B6A696868676767676766663F
:100720006565646362615F5E5D5B5A5856555351FF
:100730004F4D4B4947454342403E3C3A38373533AD
:1007400032302F2E2D2C2B2A292828272727272700
:10075000272726262625252423232221201F1E1D68
:100760001C1B1A1918171614131211100F0E0D0B4B
:100770000A0908080706050404030302020201012E
:100780000101010101010102020202030303040449
:1007900004050506060707080809090A0A0B0B0CD9
:1007A0000C0D0D0E0E0F0F0F101010111111111254
:1007B0001212121212121212131314151516171800
:1007C0001A1B1C1E1F2122242628292B2D2F3133D2
:1007D0003536383A3C3E3F414244454748494A4B0A
:1007E0004C4D4D4E4E4F4F4F4F4F5051525355570A
:1007F000595B5D606366696D7174787C8084898DF6
:1008000091969A9EA2A7ABAFB3B7BABEC2C5C8CBEA
:10081000CED0D2D4D6D8D9DADBDCDCDCDCDCDCDC54
:10082000DDDDDDDEDEDFDFE0E0E1E2E2E3E4E4E5C2
:10083000E6E7E8E9E9EAEBECEDEDEEEFF0F0F1F2F6
:10084000F2F3F4F4F5F5F5F6F6F6F7F7F7F7F7F750
:10085000F7F7F7F7F7F7F7F7F7F7F6F6F6F6F6F62E
:10086000F6F6F6F6F5F5F5F5F5F5F5F5F4F4F4F438
:10087000F4F4F4F4F4F4F3F3F3F3F3F3F3F3F3F342
:10088000F30011241FBECFEFD4E0DEBFCDBF11E0D7
:10089000A0E0B1E0EAEDF6E202C005900D92AE31C3
:1008A000B107D9F721E0AEE1B1E001C01D92A33854
:1008B000B207E1F70E94E60B0C946B130C94000056
:1008C0002F923F924F925F926F927F928F929F9260
:1008D000AF92BF92CF92DF92EF92FF920F931F934E
:1008E000CF93DF9300D000D01F92CDB7DEB77C014D
:1008F0000E9442134C01892B09F499C032E0E30EA7
:10090000F11C8FEFE81683E0F80608F090C0C12CC8
:10091000D12C8AE0682E712C94E6492E512C26E0C9
:10092000222E5E01E6E0AE0EB11C32E6332E13C07D
:10093000922F211194C0FFEFCF1ADF0A8C149D046F
:1009400009F475C0F2E0EF0EF11C3FEFE31633E05F
:10095000F30608F06CC0C7010E9442139C01832F6C
:10096000332331F3C901B3010E9420138D83CB01DE
:10097000B3010E9420138C83C901B2010E9420138D
:10098000CB01B3010E9420138B83C90168EE73E091
:100990000E942013CB01B3010E9420138A83C90156
:1009A00060E177E20E9420136983E0E4F1E0322DF8
:1009B00011923A95E9F780E480933E0122E348E002
:1009C0006EE371E081E00E948A0E8E010F5F1F4F7F
:1009D00030924001F80181918F01882319F0885AE3
:1009E0008093400122E348E06EE371E081E00E94E1
:1009F0008A0E1092400122E348E06EE371E081E04C
:100A00000E948A0EA016B10619F710923E011092AC
:100A1000400122E348E06EE371E081E00E948A0E2B
:100A2000FFEFCF1ADF0A8C149D0409F08BCF0F90D3
:100A30000F900F900F900F90DF91CF911F910F911A
:100A4000FF90EF90DF90CF90BF90AF909F908F90EE
:100A50007F906F905F904F903F902F900895E0E4CB
:100A6000F1E0322D11923A95E9F797FD0DC0809390
:100A70003E012F772093400122E348E06EE371E0CE
:100A800081E00E948A0EC1CF80E2F1CF80914601C1
:100A900090912E01981731F080932E0181E0809380
:100AA000520108958091470190913001981731F0DB
:100AB0008093300181E08093520108958091480134
:100AC00090913101981719F080933101E7CF80910F
:100AD000490190913201981719F080933201DECFCD
:100AE00080914A0190913301981719F08093330156
:100AF000D5CF80914B0190913401981719F08093D4
:100B00003401CCCF80914C0190913501981719F0A8
:100B100080933501C3CF80E0089580915201811107
:100B200002C081E008951092520122E348E06EE293
:100B300071E081E00C948A0E80915F0190915401E4
:100B4000981729F18093540181E02091640130913C
:100B5000650140915A0150915B0142175307C9F05A
:100B600030935B0120935A01209166013091670117
:100B700080915D0190915E0182179307C9F03093D7
:100B80005E0120935D0183E080936901089580E018
:100B9000DCCF209166013091670140915D01509159
:100BA0005E014217530759F7882381F381E0ECCFA8
:100BB00082E0EACFCF93DF938091690183708093C5
:100BC0006901811104C081E0DF91CF9108950E94F5
:100BD000870E8823C1F38FB7F894C091E400CE5CF0
:100BE00092E09093E9009091E80095FD14C0D2E066
:100BF0000CC08091E400C81731F38FB7F894D093FC
:100C0000E9009091E80095FD06C08FBF0E94870E15
:100C10008111EFCFD8CF90916901923099F1933043
:100C200011F19130D1F41092690190915301909398
:100C3000F100909154019093F1009091550190939F
:100C4000F100909156019093F1009091570190938B
:100C5000F100909158019093F1009AE39093E8008D
:100C60008FBF80E0B1CF1092690190915C019093A9
:100C7000F10090915D019093F10090915E0190934D
:100C8000F100EBCF10926901909159019093F1001E
:100C900090915A019093F10090915B019093F10033
:100CA000DCCF80915F0181112FC080916401909110
:100CB0006501892B49F58091660190916701892B27
:100CC00019F58091470181111FC080914801811160
:100CD0001BC080914901811117C080914A01811187
:100CE00013C080914B0181110FC080914C01811183
:100CF0000BC080914601811107C081E0909179017C
:100D0000911103C080E0089581E0089580917901F8
:100D100090917601981721F08093760181E00895F3
:100D200080E00895CF93DF938CE0EAE6F1E0DF0105
:100D3000C82F1D92CA95E9F7E3E5F1E0DF011D92A6
:100D40008A95E9F7AFE5B1E08BE0ED0119928A955C
:100D5000E9F781E0808392E0968393E0918719968A
:100D60008C93DF91CF91089588E0EEE3F1E0DF010D
:100D7000982F1D929A95E9F7EEE2F1E0DF011D92BE
:100D80008A95E9F7E6E4F1E08DE0DF011D928A95AE
:100D9000E9F781E0808783878DE78187089588E080
:100DA000E6E3F1E0DF01982F1D929A95E9F7E5E27D
:100DB000F1E0DF011D928A95E9F70895843031F062
:100DC00090917901892B80937901089590912E015A
:100DD000992389F190914701953391F3209148012E
:100DE000253371F330914901353351F340914A0174
:100DF000453331F350914B01553311F360914C0160
:100E00006533F1F2992309F447C0222309F44AC05B
:100E1000332309F450C0442309F453C0552309F483
:100E200053C06111CDCF25E030E0F901EA5BFE4F00
:100E300095E39183C5CF90914701993209F22091B2
:100E40004801293209F4BCCF30914901393209F403
:100E5000B7CF40914A01493209F4B2CF50914B01CA
:100E6000593209F4ADCF60914C01693209F4A8CF31
:100E70009923A9F02223C9F03323D1F04423F1F0C0
:100E8000552329F161119CCF25E030E0F901EA5B9F
:100E9000FE4F99E2918394CF20E030E0C6CF20E06E
:100EA00030E0F4CF21E030E0C0CF21E030E0EECF01
:100EB00022E030E0EBCF22E030E0B7CF23E030E0BB
:100EC000E5CF23E030E0B1CF24E030E0AECF24E046
:100ED00030E0DCCF90914701891711F12091480152
:100EE0008217F1F0309149018317D1F040914A0106
:100EF0008417B1F050914B01851791F060914C012E
:100F0000681771F0992371F02223A1F03323A9F01F
:100F10004423B1F05523B9F06623C1F080E0089571
:100F200081E0089520E030E0F901EA5BFE4F818323
:100F300081E0089521E030E0F7CF22E030E0F4CF07
:100F400023E030E0F1CF24E030E0EECF25E030E0E8
:100F5000EBCFE6E4F1E09081892B80830895EFE503
:100F6000F1E09081892B8083089590E09093650152
:100F7000809364010895982F907F9039D9F038F0CC
:100F8000903C91F0903E81F0903B71F0089590324A
:100F900021F0903879F09111F9CF90E09260909320
:100FA000670180936601089590E0909367018093B4
:100FB0006601089590E091609093670180936601C7
:100FC0000895EFE5F1E010821682158210861782EF
:100FD000089586E0E7E4F1E0DF011D928A95E9F7E4
:100FE000109246010895CF92DF92EF92FF920F93F5
:100FF0001F93CF93DF9380E090E00E944213EC01B7
:1010000082E090E00E9442138C0184E090E00E9414
:1010100042137C0186E090E00E9442136C0188E05C
:1010200090E00E9442132A9749F0DF91CF911F91DF
:101030000F91FF90EF90DF90CF9008950B30110546
:10104000A1F720E1E216F10481F725E1C216D104EF
:1010500061F74A9751F78AE090E00E943A13809333
:1010600014018BE090E00E943A13809315018CE00C
:1010700090E00E943A13809316018DE090E00E9468
:101080003A13809317018EE090E00E943A13809308
:1010900018018FE090E00E943A138093190180E1DB
:1010A00090E00E943A1380930A0181E190E00E944F
:1010B0003A1380930B0182E190E00E943A138093EF
:1010C0000C0183E190E00E943A1380930D0184E1CA
:1010D00090E00E943A1380930E0185E190E00E9417
:1010E0003A138093050186E190E00E943A138093C1
:1010F000060187E190E00E943A138093070188E19E
:1011000090E00E943A138093080189E190E00E94E8
:101110003A13809309018AE190E00E943A13809388
:1011200000018BE190E00E943A13809301018CE171
:1011300090E00E943A13809302018DE190E00E94BA
:101140003A13809303018EE190E00E943A1380935A
:1011500004018FE190E00E943A1380931A0180E22B
:1011600090E00E943A1380931B0181E290E00E947C
:101170003A1380931C0182E290E00E943A1380931C
:101180002D0153CFCF93DF938091780181111BC044
:10119000C0912501D0912601CF3F21EFD207B1F0B8
:1011A000CF3F82EFD80709F44AC080914E018823CF
:1011B000B9F088E0E5E2F1E0DF011D928A95E9F7F8
:1011C00081E080937801DF91CF91089580914E0165
:1011D000813009F43EC08111ECCF0E94010C1DC08A
:1011E0000E94010CCE3FA3E0DA0748F4F999FECF44
:1011F0006091270170912801CE010E944813CE0111
:1012000002968E3FB3E09B0740F4F999FECF6091C0
:10121000290170912A010E944813CE0104968E3F45
:1012200023E0920718F00E94100CC3CFF999FECF6B
:1012300060912B0170912C010E944813F4CF809192
:101240004E018111B6CF0E94100C82E080934E01B6
:10125000B0CF10924E01ADCF2F923F924F925F923E
:101260006F927F928F929F92AF92BF92CF92DF92B6
:10127000EF92FF920F931F93CF93DF9300D000D094
:101280001F92CDB7DEB7FC01859094908114910434
:1012900009F498C07C0122E0E20EF11C41E0E41662
:1012A00040E7F40608F08EC0C12CD12C8AE0682EED
:1012B000712C94E6492E512C26E0222E5E0186E008
:1012C000A80EB11C32E6332E12C0211193C0FFEFDD
:1012D000CF1ADF0A8C149D0409F474C0E2E0EE0E0C
:1012E000F11CF1E0EF16F0E7FF0608F06BC0F70124
:1012F00025913491832F332341F3C901B3010E9417
:1013000020138D83CB01B3010E9420138C83C9016C
:10131000B2010E942013CB01B3010E9420138B83E2
:10132000C90168EE73E00E942013CB01B3010E9453
:1013300020138A83C90160E177E20E942013698348
:10134000E0E4F1E0222D11922A95E9F740E4409380
:101350003E0122E348E06EE371E081E00E948A0EE4
:101360008E010F5F1F4F30924001F80181918F0174
:10137000882319F0885A8093400122E348E06EE305
:1013800071E081E00E948A0E1092400122E348E061
:101390006EE371E081E00E948A0EA016B10619F793
:1013A00010923E011092400122E348E06EE371E0AA
:1013B00081E00E948A0EFFEFCF1ADF0A8C149D0491
:1013C00009F08CCF0F900F900F900F900F90DF913E
:1013D000CF911F910F91FF90EF90DF90CF90BF9032
:1013E000AF909F908F907F906F905F904F903F90C5
:1013F0002F900895E0E4F1E0422D11924A95E9F72B
:1014000027FD0DC080933E012F772093400122E3FA
:1014100048E06EE371E081E00E948A0EC1CF80E275
:10142000F1CF9091760190FF06C02091770180E284
:1014300082278093770191FF06C02091770180E198
:1014400082278093770193FD12C094FD16C0892FE7
:10145000807295FF0BC0809177018F5F982F9F70EE
:10146000923008F0807F8093770181E0089588E2D0
:1014700090E00E94600481E0089580E090E70E947F
:101480002C0981E0089590E08831910540F4FC0139
:10149000E65CFF4F0C94341361119BC0579808957C
:1014A000662309F468C0569A0895662309F465C056
:1014B000559A0895662309F462C0549A08956623E4
:1014C00009F45FC0539A0895662309F45EC0529AE6
:1014D0000895662309F457C0509A0895662309F4C5
:1014E00056C0519A0895662309F453C03F9A08954F
:1014F000662309F45EC03E9A0895662309F451C03C
:10150000269A0895662309F45CC03A9A08956623E2
:1015100009F443C0229A0895662309F44EC03C9A08
:101520000895662309F441C0249A0895662309F4B6
:101530004CC0389A0895662371F1209A0895662365
:10154000D1F13D9A0895662371F1259A0895662395
:10155000D1F1399A0895662311F1219A08956623ED
:1015600071F13B9A0895662311F1239A0895662339
:1015700071F1279A089556980895559808955498AA
:101580000895539808955098089552980895519841
:1015900008953F98089520980895229808952198D5
:1015A00008952698089525980895249808952398D5
:1015B00008953E9808953D9808953C9808953B9865
:1015C00008953A9808953998089538980895279875
:1015D0000895579A089590E08831910540F4FC01F0
:1015E000EE5AFF4F0C94341361119BC05F9808951D
:1015F000662309F468C05E9A0895662309F465C0FD
:101600005D9A0895662309F462C05C9A0895662382
:1016100009F45FC05B9A0895662309F45EC05A9A84
:101620000895662309F457C0589A0895662309F46B
:1016300056C0599A0895662309F453C0479A0895ED
:10164000662309F45EC0469A0895662309F451C0E2
:101650002E9A0895662309F45CC0429A0895662381
:1016600009F443C02A9A0895662309F44EC0449AA7
:101670000895662309F441C02C9A0895662309F45D
:101680004CC0409A0895662371F1289A0895662304
:10169000D1F1459A0895662371F12D9A0895662334
:1016A000D1F1419A0895662311F1299A089566238C
:1016B00071F1439A0895662311F12B9A08956623D8
:1016C00071F12F9A08955E9808955D9808955C9839
:1016D00008955B980895589808955A9808955998D0
:1016E000089547980895289808952A980895299864
:1016F00008952E9808952D9808952C9808952B9864
:1017000008954698089545980895449808954398F3
:1017100008954298089541980895409808952F9803
:1017200008955F9A089590E08831910510F080E067
:101730000895FC01E659FF4F0C94341389B180746D
:10174000089589B18072089589B18071089589B131
:101750008870089589B18470089589B18270089560
:1017600089B18170089586B18078089586B18074BA
:10177000089586B18072089586B18071089586B10A
:101780008870089586B18470089586B18270089536
:1017900086B18170089583B18078089583B1807493
:1017A000089583B18072089583B18071089583B1E3
:1017B0008870089583B18470089583B1827008950C
:1017C00083B18170089589B1807808950C94010ED9
:1017D0000F931F93CF93DF93C5E1D1E08E0160E0BB
:1017E00089910E94430A61E0F80180810E94EB0A1E
:1017F000F1E0CA31DF0791F7DF91CF911F910F918F
:101800000895CF93DF93CFE0D1E060E089910E940B
:10181000EB0A81E0C431D807C1F7DF91CF91089579
:10182000CF93DF93CFE0D1E061E089910E94EB0A92
:1018300081E0C431D807C1F7DF91CF9108950F93AC
:101840001F93CF93DF930E94A9120E94AB120E94B4
:10185000DB12CFE0D1E08E0161E089910E94430A62
:1018600061E0F80180810E94EB0AF1E0C431DF07FA
:1018700091F780E190E090937E0180937D01DF916C
:10188000CF911F910F910895209120013091210156
:101890002115324020F01092210110922001803455
:1018A000910501F18033910551F18032910569F084
:1018B000409709F0089580912001909121010196AF
:1018C00090932101809320010895E0912001F091EF
:1018D0002101EF57FD4F649160937F0180E090E01C
:1018E0000C94C512E0912001F0912101EF57F94FBE
:1018F00064916093810180E090E00C94B112E091DA
:101900002001F0912101EF57FB4F64916093820118
:1019100080E090E00C94BB120F931F93CF93DF9362
:1019200080917701CFE0D1E085FD2BC004E111E08B
:1019300061E089910E94EB0A0C171D07C9F780919D
:10194000770184FF5DC08F70813009F45CC088230B
:1019500049F180917D0190917E0180379105D1F10F
:1019600080917D0190917E01892BE1F580E890E0E6
:1019700090937E0180937D01DF91CF911F910F9114
:10198000089560E089910E94EB0A81E0C431D80794
:10199000B1F260E089910E94EB0A81E0C431D8077E
:1019A00081F7CDCF80917D0190917E0180359105A9
:1019B00081F620911C0140911B0160911A0180E089
:1019C00090E00E94CF1280917D0190917E0180373E
:1019D000910531F60E94DB1280917D0190917E018C
:1019E000892B21F280917D0190917E010197909346
:1019F0007E0180937D01DF91CF911F910F9108951A
:101A00000E94AB12A6CF80917D0190917E010E9431
:101A1000440C9FCFEF92FF920F931F93CF93DF93CE
:101A200005E111E0C0E0D0E098E0F92E2FE0E22ED1
:101A3000F80181918F010E94930BFE01E050FF4F4E
:101A40008823A1F180818777808380818E3EB1F1E8
:101A50002196C530D10561F70E94E9070E94E10790
:101A6000109279018AE0E82E81E0F82E05E011E07D
:101A7000C0E0D0E0FE01E050FF4F908180918001F6
:101A800089238F3009F4A6C0E0F0803B09F49DC0A3
:101A900030F1803D09F494C0803F09F47FC0803C60
:101AA00089F5F70180810E94B5072CC08081886884
:101AB0008083F0921F0180818E3E51F6E09280017A
:101AC000C7CF8B3009F477C0A0F4893009F457C030
:101AD0008A30C1F4F80180810E94A90713C08039BF
:101AE00009F452C0803A71F4F70180810E94A9077D
:101AF00009C08C3009F44DC08D3021F4F80180818B
:101B00000E94BB072196FFEFEF1AFF0A0F5F1F4FDE
:101B1000C530D10509F0AECF0E945106811103C036
:101B200080EF809380010E948606882319F084E06C
:101B300080931E010E944605882319F084E080935B
:101B40001E010E949C05882319F084E080931E01E9
:101B500080911F01883039F1813009F440C09091A3
:101B60001E01811124C0992319F0915090931E01F8
:101B7000DF91CF911F910F91FF90EF900895F801A1
:101B800080810E946A07BECFF70180810E946A07A8
:101B9000B9CFF80180810E94B507B4CFF7018081E9
:101BA0000E94DE06AFCF90911E01913009F1815065
:101BB00080931F01D8CFF80180810E94AF07A2CF88
:101BC000F70180810E94BB079DCFF70180810E94B1
:101BD000AF0798CFF80180810E94DE0693CF0E9464
:101BE000110A0E948D050E94DA0580911F01B7CF6E
:101BF0000E94110A0E948D050E94DA0580911F0142
:101C0000ABCF80E880936100109261000E941F0CAE
:101C10002FEF89E698E1215080409040E1F700C025
:101C200000000E94660E0E94870E81110AC02FEFED
:101C300085EA9EE0215080409040E1F700C000001E
:101C4000F2CF0E94E80B11E000EF1093780110939F
:101C50004E0110932D010E94E9070E94E1070E94A6
:101C6000F307CFE0D1E061E089910E94EB0A21E027
:101C7000C431D207C1F780912D01809377010E9472
:101C8000AB120E94DB12009380018FEF99E628E1EE
:101C9000815090402040E1F700C0000022E348E07E
:101CA0006EE271E081E00E948A0E0E94C20880917B
:101CB0004E01823051F28130C1F70E940A0D8091AD
:101CC0001E018111F2CF0E948C0CEFCF80EA80932D
:101CD000D80086E089BD09B400FCFDCF80E8809380
:101CE000D8001092E0001092240188E08093E20076
:101CF00084E08093E20078940E94B4060E949206E9
:101D00000E94CF0610927901109276010895809179
:101D100024010895909124019923E9F09FB7F89444
:101D20003091E400230F8093E9003091E80035FF03
:101D30000DC013C09091E400291769F09FB7F89483
:101D40008093E9003091E80035FD07C09FBF909176
:101D500024019111EFCF81E00895442371F0FB013C
:101D60004150242F30E02F5F3F4F260F371F8191C6
:101D70008093F100E217F307D1F78AE38093E8003C
:101D80009FBF80E008951F920F920FB60F9211240B
:101D90002F933F934F936F937F938F939F93809154
:101DA000E1001092E10083FF0FC01092E90091E082
:101DB0009093EB001092EC0092E09093ED0098E08D
:101DC0009093F0001092240182FF04C080912401BE
:101DD00081110CC09F918F917F916F914F913F9195
:101DE0002F910F900FBE0F901F90189520912301F7
:101DF0002F5F822F62E30E941413911116C010927C
:101E000023018091E80085FF12C08091780188232A
:101E100071F020914E0180912401211147C0811160
:101E20004BC021E02093780102C0209323019091C0
:101E30004F01992379F2809122018F5F80932201D3
:101E4000837041F681E08093E9008091E80085FF8E
:101E5000C1CF809150018F5F809350018913BACF19
:101E60001092500180912E018093F10080912F01FA
:101E70008093F100809130018093F10080913101D5
:101E80008093F100809132018093F10080913301C1
:101E90008093F100809134018093F10080913501AD
:101EA0008093F1008AE38093E80094CF811154C0BD
:101EB00091E090937801BBCF8FB7F8943091E40014
:101EC00094E09093E9009091E80095FD20C08FBFC9
:101ED00080912401882309F4A4CF8091E40038176D
:101EE00009F49FCF44E00BC08FBF80912401882369
:101EF00009F497CF8091E400381709F492CF8FB797
:101F0000F8944093E9009091E80095FFEDCF90910F
:101F1000F100909325019091F1009093260190910A
:101F2000F100909327019091F100909328019091F6
:101F3000F100909329019091F10090932A019091E2
:101F4000F10090932B019091F10090932C019AE372
:101F50009093E8008FBF66CF8FB7F8943091E4007C
:101F600024E02093E9002091E80025FD20C08FBFE8
:101F700080912401882309F49BCF8091E40083178A
:101F800009F496CF44E00BC08FBF809124018823D1
:101F900009F48ECF8091E400381709F489CF8FB708
:101FA000F8944093E9002091E80025FFEDCF2091BF
:101FB000F100209325012091F100209326012AE3CE
:101FC0002093E8008FBF75CF1F920F920FB60F922C
:101FD00011242F933F934F935F936F937F938F932E
:101FE0009F93AF93BF93EF93FF931092E90080917B
:101FF000E80083FF38C07091F1004091F1008091BA
:10200000F1002091F10090E0922B2091F10050918D
:10201000F10030E0352B6091F100E091F10052EFDA
:102020005093E800463099F1453009F412C1493027
:1020300009F47BC0483009F4DBC0411189C18091AB
:10204000E80080FFFCCF723809F458C180E080932B
:10205000F1001092F1008EEF8093E80007C0211587
:10206000310509F0DEC081E28093EB00FF91EF9132
:10207000BF91AF919F918F917F916F915F914F91A0
:102080003F912F910F900FBE0F901F9018958115C3
:1020900041E0940709F429C18115F2E09F0709F492
:1020A00037C1811542E2940709F4F9C08115F1E2C4
:1020B0009F0709F436C1811523E0920709F035C264
:1020C000A4E0B0E024E04AE251E0862F90E09E2BAD
:1020D0008F3F910509F020F48A179B0708F4262FFB
:1020E0006EEF8091E8008570E1F38091E80082FD59
:1020F000BDCF322F293008F4F3C038E0FA01832F26
:1021000094919093F100815031968111F9CF8FEF26
:10211000830F90E00196480F591F231B6093E8003E
:102120002111DFCF3830E9F2A1CF711163C0809364
:1021300024018EEF8093E80081E08093E900E4E0E1
:10214000F1E0E491E093EB00EE2309F437C1E5E020
:10215000F1E0E491E093EC00E6E0F1E0E491E0935B
:10216000ED0027E031E082E08093E900C9010196AB
:10217000F90144914093EB00442351F0FC01849118
:102180008093EC00C9010396319624912093ED00D1
:1021900023E02093E9009C012F5F3F4FFC01449115
:1021A0004093EB00442359F0F90124912093EC0073
:1021B0009C012D5F3F4F319684918093ED0084E028
:1021C0008093E900C9010196F90144914093EB0025
:1021D000442341F0FC0184918093EC0031962491DA
:1021E0002093ED008EE18093EA001092EA003ECF4A
:1021F0007038D1F121153105A1F4713A09F4E1C02B
:10220000713209F030CF4930D9F14A3009F485C133
:102210004B3009F028CF809351018EEF8093E80076
:1022200025CF2230310509F444C02130310509F0B1
:102230001ACF713A09F412C1713209F014CF4B3040
:1022400009F465C14A3009F00ECF8EEF8093E800A3
:102250000DCF2EEF2093E8002091E80020FFFCCF67
:1022600080688093E30002CF8091E80080FFFCCF7C
:10227000809124018093F1008EEF8093E800F6CEE8
:102280008091E80082FFFCCF8091F10080934D01A6
:102290008BEF8093E8008EEF8093E800E7CE211566
:1022A000310509F047C0A0E4B0E020E44FE252E07D
:1022B0000CCF713A09F403C1713209F0D4CE4A301F
:1022C00021F2493009F0CFCE8091E80082FFFCCFA7
:1022D0008BEF8093E8008091E80080FFFCCFB5CFC2
:1022E00021110CCF6093E800C1CE232B09F0BBCEA7
:1022F000A2E1B0E022E14FE652E0E7CE2093E90010
:102300008091EB0085FB882780F91092E9009FCE31
:10231000232B09F0A8CEABE5B0E02BE54EE251E06F
:10232000D4CE21153105E1F5A9E0B0E029E040E483
:1023300051E0CBCE2230310509F48AC0213031057D
:1023400009F091CEA4E8B0E024E84BEA51E0BDCE1C
:10235000542F5D7F513009F04DCF723009F04ACFD4
:10236000009709F07CCE522F5F776FEF650F6430D6
:1023700008F075CE8EEF8093E8005093E90043306B
:1023800009F471CE89E18093EB0081E090E001C017
:10239000880F5A95EAF78093EA001092EA0066CE19
:1023A0002230310509F4ADC02130310509F05BCE92
:1023B000A9E0B0E029E049E551E087CE25E031E031
:1023C000D2CE413089F04230B9F1433009F04BCEE2
:1023D0008091E80080FFFCCF809151018093F10053
:1023E0008EEF8093E80042CE8091E80080FFFCCF22
:1023F00080912E018093F10080912F018093F10054
:10240000809130018093F100809131018093F1003F
:10241000809132018093F100809133018093F1002B
:10242000809134018093F100809135018093F10017
:102430008EEF8093E8001ACE8091E80080FFFCCFF9
:1024400080914F018093F1008EEF8093E8000ECED3
:10245000A2E2B0E022E249E851E037CE413079F023
:10246000433009F000CE8091E80080FFFCCF8091DE
:1024700068018093F1008EEF8093E800F7CD8091A2
:10248000E80080FFFCCF809153018093F1008091A0
:1024900054018093F100809155018093F100809167
:1024A00056018093F100809157018093F100809153
:1024B00058018093F1008EEF8093E800D7CD413032
:1024C00009F0D1CD28E03EEF8091E800982F95707B
:1024D000D9F382FDCBCD922F293070F098E0892F6F
:1024E0001092F1008150E1F7291B3093E80021118F
:1024F000EBCF983049F3BACD2111F1CF3093E800FA
:10250000B5CDA9E0B0E029E042E751E0DECD80930F
:1025100068018EEF8093E800A9CD90934F0110924F
:1025200050018EEF8093E800A1CD813043E0940705
:1025300051F08230934009F096CDACE1B0E02CE14F
:1025400040E151E0C2CDACE0B0E02CE04EE151E022
:10255000BCCD3E9A0895EAE7F1E010821182128222
:1025600008959C01220F331F820F931FFC01E65830
:10257000FE4F618308959C01220F331F820F931F2A
:10258000FC01E658FE4F608308959C01220F331F23
:10259000820F931FFC01E658FE4F62830895FC01F1
:1025A000EE0FFF1F8E0F9F1FFC01E658FE4F40836A
:1025B000618322830895F89498B19F7B88B18064E9
:1025C000EAE7F1E0208138E088B9000000C027FF89
:1025D00098B9220F000000C000C000C098B900C028
:1025E0003A9591F7218138E088B9000000C027FFB3
:1025F00098B9220F000000C000C000C098B900C008
:102600003A9591F7228138E088B9000000C027FF91
:1026100098B9220F000000C000C000C098B900C0E7
:102620003A9591F778940895991B79E004C0991F21
:10263000961708F0961B881F7A95C9F7809508951C
:10264000AA1BBB1B51E107C0AA1FBB1FA617B707D8
:1026500010F0A61BB70B881F991F5A95A9F78095F4
:102660009095BC01CD010895EE0FFF1F0590F491E8
:10267000E02D0994F999FECF92BD81BDF89A992772
:1026800080B50895A8E1B0E042E050E00C944F130B
:102690000E945D13272F0C945E13DC01CB01FC011B
:1026A000F999FECF06C0F2BDE1BDF89A319600B4AB
:1026B0000D9241505040B8F70895262FF999FECF5A
:1026C0001FBA92BD81BD20BD0FB6F894FA9AF99A4F
:0A26D0000FBE01960895F894FFCFA5
:1026DA001766171717010010200252004F51500AAF
:0E26EA000F151600FF1011121314C8C8C800F7
:00000001FF
