:100000000C9468040C9485040C9485040C94850469
:100010000C9485040C9485040C9485040C9485043C
:100020000C9485040C9485040C9417110C944012C4
:100030000C9485040C9485040C9485040C9485041C
:100040000C9485040C9485040C9485040C9485040C
:100050000C9485040C9485040C9485040C948504FC
:100060000C9485040C9485040C9485040C948504EC
:100070000C9485040C9485040C9485040C948504DC
:100080000C9485040C9485040C9485040C948504CC
:100090000C9485040C9485040C9485040C948504BC
:1000A0000C9485040C9485040C948504140A240A89
:1000B000000A2C0A0A0A1C0AF609300A0F0A200A4A
:1000C000FB09280A050A180AF109EC09D809E2090E
:1000D000CE09E709D309DD09C909C409C009C30A62
:1000E000D30AAF0ADB0AB90ACB0AA50ADF0ABE0A9D
:1000F000CF0AAA0AD70AB40AC70AA00A9B0A870A23
:10010000910A7D0A960A820A8C0A780A730A6F0A93
:10011000650B620B5F0B5C0B590B560B530B500BB3
:100120004D0B4A0B470B440B410B3E0B3B0B380B63
:10013000350B320B2F0B2C0B290B260B230B200B13
:10014000680B01C10601C10601C10601C00600001D
:100150001C037A00690061006E005F006B0065009F
:10016000790062006F006100720064000C037A0085
:10017000690061006E0031000403090409025B009C
:10018000030100A03209040000010301010009215C
:100190001101000122400007058103080001090444
:1001A0000100010301020009211101000122840064
:1001B0000705820308000109040200020300000091
:1001C0000921110100012222000705830308000113
:1001D000070504030800010631FF0974A101097530
:1001E000150026FF0095087508810209761500267E
:1001F000FF00950875089102C005010902A101855B
:10020000010901A10005091901290515002501753C
:1002100001950581027503950181030501093009E6
:10022000311581257F7508950281060938158125CC
:100230007F35004500750895018106050C0A3802D6
:100240001581257F750895018106C0C005010980CB
:10025000A1018502150126B700190129B77510956E
:10026000018100C0050C0901A10185031501269C2F
:100270000219012A9C02751095018100C00501092F
:1002800006A10175019508050719E029E715002564
:10029000018102950175088103950575010508190D
:1002A00001290591029501750391039506750815BD
:1002B0000026FF000507190029FF8100C012010078
:1002C0000200000008C43260C00002010200010008
:1002D000000001010102030404050708090A0C0DCE
:1002E0000F1112141617191B1D1F2122242628294D
:1002F0002B2D2E3031333435363738393A3A3B3BB3
:100300003C3C3C3C3C3C3D3D3E3E3F404142434406
:100310004647494A4C4D4F5152545658595B5D5FC0
:100320006062646567696A6B6D6E6F707172737419
:100330007475757676767676767676767676767661
:100340007676767676767677777777777777777744
:100350007777777777777777787878787878787825
:100360007878787878787878787878787879797A09
:100370007A7B7B7C7D7E7F7F808283848586878974
:100380008A8B8C8E8F9091929495969798999A9B40
:100390009C9D9D9E9F9FA0A0A0A1A1A1A1A1A1A263
:1003A000A2A3A3A4A5A6A7A9AAACADAFB0B2B4B6A8
:1003B000B8BABCBEC0C2C4C6C8CACCCED0D2D4D6CD
:1003C000D8D9DBDCDEDFE0E1E2E3E3E4E4E5E5E528
:1003D000E5E4E4E3E2E0DFDDDBD8D6D3D0CDCAC686
:1003E000C2BFBBB7B3AFABA6A29E9A95918D8985CC
:1003F000817D7A7673706D6A676563615F5E5C5B51
:100400005B5A5A5A5A595958575655545351504E87
:100410004C4A484644423F3D3A383633302E2B2929
:100420002724221F1D1B1917151312100F0D0C0B5B
:100430000A090908080808080808080909090A0A31
:100440000A0B0B0C0D0D0E0E0F10101112131314BE
:10045000151516171818191A1A1B1B1C1D1D1E1E00
:100460001E1F1F1F20202020202020202020202091
:100470001F1F1F1F1F1E1E1E1E1D1D1D1C1C1C1BA3
:100480001B1A1A1A191919181818171717161616E9
:100490001615151515151414141414141414141415
:1004A0001413131313121212111110100F0F0E0E3A
:1004B0000D0D0C0B0B0A0A090808070706060504B0
:1004C00004030303020201010101000000000039DE
:1004D00039393939383838373736363534343332B4
:1004E0003231302F2E2D2C2B2B2A2928272625245C
:1004F0002323222120201F1E1E1D1D1C1C1C1B1B14
:100500001B1B1B1B1B1B1B1A1A1A1919191818174E
:10051000161615141413121111100F0E0D0D0C0BCD
:100520000A0908080706060504040303020201017C
:1005300001000000000000000000000000000000BA
:1005400000000000000000000000000000000000AB
:10055000000000000000000000000000000000009B
:100560000000000000000000000000000101020384
:1005700004050607080A0B0D0F11131517191B1D8B
:100580001F212426282A2C2E31333537383A3C3D7A
:100590003F40424344454646474748484848494902
:1005A0004A4B4C4E4F515356585B5D6063666A6DC3
:1005B0007074787B7F83868A8E9195989C9FA2A584
:1005C000A8ABAEB0B3B5B7B9BBBCBDBEBFC0C0C0B1
:1005D000C0C0C0C0C0C0BFBFBFBFBEBEBEBEBDBD2D
:1005E000BDBCBCBBBBBBBABAB9B9B8B8B8B7B7B673
:1005F000B6B6B5B5B4B4B4B4B3B3B3B3B3B2B2B2C0
:10060000B2B2B2B2B2B2B2B2B2B2B2B3B3B3B3B3C5
:10061000B3B4B4B4B4B4B5B5B5B5B6B6B6B6B7B789
:10062000B7B7B7B8B8B8B8B9B9B9B9B9B9B9BABA42
:10063000BABABABABABABABABABBBBBBBCBDBDBE0B
:10064000BFC0C1C2C4C5C6C7C9CACCCDCFD0D2D421
:10065000D5D7D8DADBDDDEE0E1E2E3E5E6E7E8E99D
:10066000EAEAEBECECECEDEDEDEDEDEDECECEBEACC
:10067000E9E8E7E5E4E2E1DFDDDBD9D7D4D2D0CEAB
:10068000CBC9C6C4C2BFBDBBB8B6B4B2B0AEACAACB
:10069000A9A7A6A5A3A2A1A1A0A09F9F9F9F9F9E3F
:1006A0009D9C9B9A99979593918F8D8A888582803E
:1006B0007D7A7773706D6A6764615E5B58555250DE
:1006C0004D4B48464442413F3E3C3B3B3A3939F36F
:1006D000F3F3F3F3F3F3F3F3F2F2F2F2F2F2F2F1F3
:1006E000F1F1F1F1F0F0F0F0F0EFEFEFEFEFEEEE0F
:1006F000EEEEEEEDEDEDEDEDEDEDECECECECECEC2D
:10070000ECECECECECECECEBEBEBEBEAEAE9E9E83B
:10071000E8E7E6E6E5E4E4E3E2E1E0E0DFDEDDDCB5
:10072000DCDBDAD9D9D8D7D7D6D6D5D5D4D4D3D35C
:10073000D3D2D2D2D2D2D2D2D1D1D0CFCECCCBC9B9
:10074000C7C5C3C0BEBBB9B6B3B0ADA9A6A3A09C74
:10075000999693908C898683807E7B79767472706B
:100760006E6D6B6A69686867676767676666656507
:10077000646362615F5E5D5B5A58565553514F4DDD
:100780004B4947454342403E3C3A38373533323097
:100790002F2E2D2C2B2A29282827272727272727C4
:1007A00026262625252423232221201F1E1D1C1B2F
:1007B0001A1918171614131211100F0E0D0B0A091F
:1007C00008080706050404030302020201010101EF
:1007D00001010101010202020203030304040405F2
:1007E0000506060707080809090A0A0B0B0C0C0D79
:1007F0000D0E0E0F0F0F10101011111111121212F9
:1008000012121212121213131415151617181A1B9E
:100810001C1E1F2122242628292B2D2F313335364B
:10082000383A3C3E3F414244454748494A4B4C4D8B
:100830004D4E4E4F4F4F4F4F505152535557595B9E
:100840005D606366696D7174787C8084898D919632
:100850009A9EA2A7ABAFB3B7BABEC2C5C8CBCED023
:10086000D2D4D6D8D9DADBDCDCDCDCDCDCDCDDDDE8
:10087000DDDEDEDFDFE0E0E1E2E2E3E4E4E5E6E75F
:10088000E8E9E9EAEBECEDEDEEEFF0F0F1F2F2F38E
:10089000F4F4F5F5F5F6F6F6F7F7F7F7F7F7F7F7F7
:1008A000F7F7F7F7F7F7F7F7F6F6F6F6F6F6F6F6E0
:1008B000F6F6F5F5F5F5F5F5F5F5F4F4F4F4F4F4EC
:1008C000F4F4F4F4F3F3F3F3F3F3F3F3F3F3F300E7
:1008D00011241FBECFEFDAE0DEBFCDBF12E0A0E0F3
:1008E000B1E0E8E5FBE202C005900D92A234B10749
:1008F000D9F724E0A2E4B2E001C01D92A43AB20705
:10090000E1F70E94D50C0C94AA150C94000080917C
:10091000A80390918F03981731F080938F0381E0A3
:100920008093B40308958091A9039091910398173F
:1009300031F08093910381E08093B4030895809116
:10094000AA0390919203981719F080939203E7CF2E
:100950008091AB0390919303981719F080939303C0
:10096000DECF8091AC0390919403981719F0809397
:100970009403D5CF8091AD0390919503981719F00A
:1009800080939503CCCF8091AE03909196039817F6
:1009900019F080939603C3CF80E008958091B4034B
:1009A000811102C081E008951092B40322E348E06F
:1009B0006FE873E081E00C94E2108091C2039091A3
:1009C000B703981729F18093B70381E02091C703FB
:1009D0003091C8034091BD035091BE0342175307A5
:1009E000C9F03093BE032093BD032091C903309119
:1009F000CA038091C0039091C10382179307C9F085
:100A00003093C1032093C00383E08093CC03089507
:100A100080E0DCCF2091C9033091CA034091C0032C
:100A20005091C1034217530759F7882381F381E09E
:100A3000ECCF82E0EACFCF93DF938091CC03837039
:100A40008093CC03811104C081E0DF91CF910895A0
:100A50000E94DF108823C1F38FB7F894C091E4009F
:100A6000CE5C92E09093E9009091E80095FD14C06F
:100A7000D2E00CC08091E400C81731F38FB7F8942E
:100A8000D093E9009091E80095FD06C08FBF0E94C9
:100A9000DF108111EFCFD8CF9091CC03923099F134
:100AA000933011F19130D1F41092CC039091B603B0
:100AB0009093F1009091B7039093F1009091B80357
:100AC0009093F1009091B9039093F1009091BA0343
:100AD0009093F1009091BB039093F1009AE390936F
:100AE000E8008FBF80E0B1CF1092CC039091BF039C
:100AF0009093F1009091C0039093F1009091C10305
:100B00009093F100EBCF1092CC039091BC039093A3
:100B1000F1009091BD039093F1009091BE039093EA
:100B2000F100DCCF8091C20381112FC08091C703F7
:100B30009091C803892B49F58091C9039091CA030C
:100B4000892B19F58091A90381111FC08091AA03F7
:100B500081111BC08091AB03811117C08091AC0340
:100B6000811113C08091AD0381110FC08091AE033C
:100B700081110BC08091A803811107C081E0909181
:100B8000DA03911103C080E0089581E00895809117
:100B9000DA039091D903981721F08093D90381E06B
:100BA000089580E00895CF93DF938CE0EDECF3E0BF
:100BB000DF01C82F1D92CA95E9F7E6EBF3E0DF01EC
:100BC0001D928A95E9F7A2ECB3E08BE0ED01199252
:100BD0008A95E9F781E0808392E0968393E091879C
:100BE00019968C93DF91CF91089588E0E0EAF3E0C5
:100BF000DF01982F1D929A95E9F7EFE8F3E0DF0106
:100C00001D928A95E9F7E8EAF3E08DE0DF011D9295
:100C10008A95E9F781E0808783878DE7818708954A
:100C200088E0E8E9F3E0DF01982F1D929A95E9F753
:100C3000E7E8F3E0DF011D928A95E9F70895843033
:100C400031F09091DA03892B8093DA030895909123
:100C50008F03992389F19091A903953391F3209102
:100C6000AA03253371F33091AB03353351F340912F
:100C7000AC03453331F35091AD03553311F360911B
:100C8000AE036533F1F2992309F447C0222309F436
:100C90004AC0332309F450C0442309F453C05523F8
:100CA00009F453C06111CDCF25E030E0F901E855DA
:100CB000FC4F95E39183C5CF9091A903993209F236
:100CC0002091AA03293209F4BCCF3091AB03393209
:100CD00009F4B7CF4091AC03493209F4B2CF509137
:100CE000AD03593209F4ADCF6091AE03693209F416
:100CF000A8CF9923A9F02223C9F03323D1F04423AC
:100D0000F1F0552329F161119CCF25E030E0F90184
:100D1000E855FC4F99E2918394CF20E030E0C6CFB4
:100D200020E030E0F4CF21E030E0C0CF21E030E03F
:100D3000EECF22E030E0EBCF22E030E0B7CF23E08F
:100D400030E0E5CF23E030E0B1CF24E030E0AECFBB
:100D500024E030E0DCCF9091A903891711F12091B4
:100D6000AA038217F1F03091AB038317D1F04091C1
:100D7000AC038417B1F05091AD03851791F06091E9
:100D8000AE03681771F0992371F02223A1F0332389
:100D9000A9F04423B1F05523B9F06623C1F080E0F7
:100DA000089581E0089520E030E0F901E855FC4F16
:100DB000818381E0089521E030E0F7CF22E030E048
:100DC000F4CF23E030E0F1CF24E030E0EECF25E0B7
:100DD00030E0EBCFE8EAF3E09081892B808308953F
:100DE000E2ECF3E09081892B8083089590E090936A
:100DF000C8038093C7030895982F907F9039D9F046
:100E000038F0903C91F0903E81F0903B71F0089565
:100E1000903221F0903879F09111F9CF90E0926002
:100E20009093CA038093C903089590E09093CA03F6
:100E30008093C903089590E091609093CA038093D2
:100E4000C9030895E2ECF3E0108216821582108641
:100E50001782089586E0E9EAF3E0DF011D928A95A2
:100E6000E9F71092A8030895CF92DF92EF92FF92D4
:100E70000F931F93CF93DF9380E090E00E94811542
:100E8000EC0182E090E00E9481158C0184E090E00A
:100E90000E9481157C0186E090E00E9481156C0122
:100EA00088E090E00E9481152A9749F0DF91CF9168
:100EB0001F910F91FF90EF90DF90CF9008950F302A
:100EC0001105A1F72EE1E216F10481F7E9E6CE164D
:100ED000D10461F7843B910549F78AE090E00E94D4
:100EE000791580933C028BE090E00E947915809305
:100EF0003D028CE090E00E94791580933E028DE0E7
:100F000090E00E94791580933F028EE090E00E946D
:100F10007915809340028FE090E00E9479158093CC
:100F20002D0280E190E00E94791580932E0281E1EC
:100F300090E00E94791580932F0282E190E00E9458
:100F400079158093300283E190E00E9479158093B7
:100F5000310284E190E00E9479158093320285E1AC
:100F600090E00E9479158093330286E190E00E9420
:100F700079158093340287E190E00E94791580937F
:100F8000350288E190E00E9479158093360289E16C
:100F900090E00E947915809337028AE190E00E94E8
:100FA0007915809338028BE190E00E947915809347
:100FB00039028CE190E00E94791580933A028DE12C
:100FC00090E00E94791580933B0201EE11E0C0E0B1
:100FD000D0E0CE014E960E947915F8018083CE01B3
:100FE0004F960E947915F8018183CE0180960E9468
:100FF0007915F8018283CE0181960E947915F80156
:101000008383CE0182960E947915F8018483CE01F4
:1010100083960E947915F8018583CE0184960E94FB
:101020007915F8018683CE0185960E947915F8011D
:101030008783CE0186960E947915F8018087CE01BC
:1010400087960E947915F8018187CE0188960E94C3
:101050007915F8018287CE0189960E947915F801E9
:101060008387CE018A960E947915F8018487CE0184
:101070008B960E947915F8018587CE018C960E9487
:101080007915F80186872F96015F1F4FCB34D10564
:1010900009F09FCF06E911E0C0E0D0E0CE0187590A
:1010A0009F4F0E947915F8018083CE0186599F4F8A
:1010B0000E947915F8018183CE0185599F4F0E94C6
:1010C0007915F8018283CE0184599F4F0E947915CA
:1010D000F8018383CE0183599F4F0E947915F8014F
:1010E0008483CE0182599F4F0E947915F801858330
:1010F000CE0181599F4F0E947915F8018683CE0158
:1011000080599F4F0E947915F8018783CE018F582F
:101110009F4F0E947915F8018087CE018E589F4F0E
:101120000E947915F8018187CE018D589F4F0E944A
:101130007915F8018287CE018C589F4F0E9479154E
:10114000F8018387CE018B589F4F0E947915F801D3
:101150008487CE018A589F4F0E947915F8018587B0
:10116000CE0189589F4F0E947915F80186872F96E6
:10117000015F1F4FCB34D10509F090CF0BE411E094
:10118000C0E0D0E0CE018C549F4F0E947915F80149
:101190008083CE018B549F4F0E947915F801818383
:1011A000CE018A549F4F0E947915F8018283CE01A7
:1011B00089549F4F0E947915F8018383CE0188548A
:1011C0009F4F0E947915F8018483CE0187549F4F69
:1011D0000E947915F8018583CE0186549F4F0E94A5
:1011E0007915F8018683CE0185549F4F0E947915A9
:1011F000F8018783CE0184549F4F0E947915F8012E
:101200008087CE0183549F4F0E947915F801818712
:10121000CE0182549F4F0E947915F8018287CE013A
:1012200081549F4F0E947915F8018387CE01805425
:101230009F4F0E947915F8018487CE018F539F4FED
:101240000E947915F8018587CE018E539F4F0E9429
:101250007915F80186872F96015F1F4FCB34D10592
:1012600009F090CFC4E4D2E00FEF10E00454124034
:10127000C8018C0F9D1F0E9479158993F3E0C4303B
:10128000DF07B1F785EC91E00E9479158093DB03CD
:101290000DCECF93DF938091B50381111BC0C09118
:1012A0008703D0918803CF3F21EFD207B1F0CF3F22
:1012B00082EFD80709F44AC08091B0038823B9F0BF
:1012C00088E0E7E8F3E0DF011D928A95E9F781E025
:1012D0008093B503DF91CF9108958091B003813061
:1012E00009F43EC08111ECCF0E940D0D1DC00E947B
:1012F0000D0DCE3FA3E0DA0748F4F999FECF6091D7
:10130000890370918A03CE010E948715CE0102964F
:101310008E3FB3E09B0740F4F999FECF60918B03B9
:1013200070918C030E948715CE0104968E3F23E0B6
:10133000920718F00E941C0DC3CFF999FECF60915F
:101340008D0370918E030E948715F4CF8091B003B6
:101350008111B6CF0E941C0D82E08093B003B0CF04
:101360001092B003ADCF80E885BF85BF089590E0AF
:101370008931910540F4FC01EA5AFF4F0C94641541
:101380006111A2C06E980895662309F46DC0559A44
:101390000895662309F46AC0549A0895662309F4EF
:1013A0006DC0859A0895662309F464C0819A0895F2
:1013B000662309F467C0879A0895662309F458C024
:1013C000809A0895662309F45BC0869A089566237F
:1013D00009F452C0849A0895662309F455C0269AE8
:1013E0000895662309F460C0259A0895662309F4D8
:1013F00053C0519A0895662309F45EC03F9A089538
:10140000662309F445C0229A0895662309F450C062
:10141000579A0895662309F443C0279A08956623CE
:1014200009F44EC0539A0895662381F1209A0895D5
:101430006623E1F1249A0895662381F1509A089574
:101440006623E1F13E9A0895662321F1219A0895D9
:10145000662381F1569A0895662321F1239A08950F
:10146000662381F1529A08955598089554980895E5
:10147000809808958198089584980895859808958E
:101480008698089587980895269808952098089535
:101490002298089521980895519808955098089594
:1014A00027980895239808952598089524980895D5
:1014B00057980895569808953F9808953E9808952E
:1014C00053980895529808956E9A089590E089313E
:1014D000910540F4FC01E159FF4F0C946415611132
:1014E000A2C076980895662309F46DC05D9A0895A8
:1014F000662309F46AC05C9A0895662309F46DC0F6
:101500008D9A0895662309F464C0899A0895662324
:1015100009F467C08F9A0895662309F458C0889A21
:101520000895662309F45BC08E9A0895662309F432
:1015300052C08C9A0895662309F455C02E9A0895D6
:10154000662309F460C02D9A0895662309F453C0F8
:10155000599A0895662309F45EC0479A0895662350
:1015600009F445C02A9A0895662309F450C05F9A89
:101570000895662309F443C02F9A0895662309F459
:101580004EC05B9A0895662381F1289A08956623D8
:10159000E1F12C9A0895662381F1589A0895662303
:1015A000E1F1469A0895662321F1299A0895662368
:1015B00081F15E9A0895662321F12B9A089566239E
:1015C00081F15A9A08955D9808955C9808958898D5
:1015D0000895899808958C9808958D9808958E9807
:1015E00008958F9808952E980895289808952A9818
:1015F00008952998089559980895589808952F980E
:1016000008952B9808952D9808952C9808955F9823
:1016100008955E98089547980895469808955B98B0
:1016200008955A980895769A089590E08931910521
:1016300010F080E00895FC01E857FF4F0C9464150A
:1016400089B18072089589B1807108958FB18170D8
:1016500008958FB1827008958FB1807108958FB110
:10166000807208958FB1807408958FB18078089545
:1016700083B18074089583B18072089583B18071BD
:10168000089589B18078089589B18074089586B1EC
:101690008078089586B18074089589B1887008951E
:1016A00089B18470089589B18270089589B181707B
:1016B000089583B18078089583B18870089583B1C7
:1016C0008470089583B18270089583B18170089504
:1016D0008CB1807408953F924F925F926F927F9287
:1016E0008F929F92AF92BF92CF92DF92EF92FF9232
:1016F0000F931F93CF93DF9300D000D01F92CDB7ED
:10170000DEB78C010E9481155C01892B09F404C1AC
:101710000E5F1F4F0F3F23E0120708F0FDC0E12CC2
:10172000F12CA2EA4A2EA3E05A2EB6E06B2E80E4FA
:10173000382E6E0136E0C30ED11C92E6792E10C011
:10174000411101C1FFEFEF1AFF0AAE14BF0409F403
:10175000E3C00E5F1F4F0F3F83E0180708F0DCC0A7
:10176000C8010E948115AC01852F552349F39A01C8
:10177000ADECBCEC0E946A15FC01F695E795F69578
:10178000E795F695E7959F01220F331FCF01880F4C
:10179000991F880F991F880F991F820F931F9A0115
:1017A000281B390B2D839F010E946A1596958795FA
:1017B00096958795969587959C01220F331F880FE4
:1017C000991F880F991F880F991F820F931FE81B7D
:1017D000F90BEC839A013695279536952795ABE75B
:1017E000B4E10E946A15FC01F695E7959F01ADEC06
:1017F000BCEC0E946A159695879596958795969567
:1018000087959C01220F331F880F991F880F991FFE
:10181000880F991F820F931FE81BF90BEB839A0126
:10182000369527953695279536952795A5ECB0E200
:101830000E946A15FC01F295E295EF70EF27FF70A8
:10184000EF279F01ADECBCEC0E946A159695879539
:1018500096958795969587959C01220F331F880F43
:10186000991F880F991F880F991F820F931FE81BDC
:10187000F90BEA839A01329522952F7023273F7046
:101880002327A7E4B3E00E946A159695879596955D
:101890008795969587958983F201262D11922A9531
:1018A000E9F73092A00322E348E060EA73E081E0C8
:1018B0000E94E210CE0101964C017092A203F40145
:1018C00081914F01882319F0885A8093A20322E363
:1018D00048E060EA73E081E00E94E2101092A20307
:1018E00022E348E060EA73E081E00E94E210C8145D
:1018F000D90419F71092A0031092A20322E348E042
:1019000060EA73E081E00E94E210FFEFEF1AFF0A45
:10191000AE14BF0409F01DCF0F900F900F900F90E1
:101920000F90DF91CF911F910F91FF90EF90DF907B
:10193000CF90BF90AF909F908F907F906F905F906F
:101940004F903F900895F201262D11922A95E9F7C4
:1019500047FD0DC08093A0034F774093A20322E37D
:1019600048E060EA73E081E00E94E210C3CF80E2C9
:10197000F1CF9091D90390FF06C02091970380E2A8
:1019800082278093970391FF06C02091970380E1FF
:10199000822780939703892F887093FF089585ECA1
:1019A00091E00E946B0B81E008950C944D10109211
:1019B000E103E0E0F0E0E35DFD4F60E080810E9444
:1019C000B709E091E103F0E0E35DFD4F61E0808164
:1019D0000E94660AE091E103EF5FE093E103EF30DC
:1019E00048F308951092E103E0E0F0E0E45CFD4F7D
:1019F00060E080810E94B709E091E103F0E0E45CDF
:101A0000FD4F61E080810E94660AE091E103EF5F93
:101A1000E093E103E53048F308951092E10360E0BC
:101A200080912C020E94660A8091E1038F5F80936F
:101A3000E1038823A1F308951092E10361E080910E
:101A40002C020E94660A8091E1038F5F8093E1037C
:101A50008823A1F308950E9431150E9433150E9436
:101A600047151092E10361E080912C020E94B709B2
:101A7000E091E103F0E0E45DFD4F61E080810E94D0
:101A8000660A8091E1038F5F8093E103882359F315
:101A900080E890E09093DF038093DE0308950F9336
:101AA0001F93CF93DF938091AF0381FF29C060E044
:101AB00080912C020E94660A8091970384FF29C0BE
:101AC0008F70813009F4ECC081112AC08091DE034F
:101AD0009091DF038035910509F4D1C080389105DC
:101AE00009F41BC1009709F0C0C080E890E0909312
:101AF000DF038093DE03DF91CF911F910F91089553
:101B000061E080912C020E94660A8091970384FD17
:101B1000D7CF0E9433158091DE039091DF03DECF93
:101B20008230C9F71092E00340E0DFE3CFE010928B
:101B3000E20380E0242F30E01EC0262F462F8D2F99
:101B400090E00E943B154091E0038091E203242F36
:101B500030E0C29FF001C39FF00D1124E55BFE4F02
:101B6000E80FF11D9081977709F0D1508F5F809336
:101B7000E2038F30A0F4C29FF001C39FF00D112447
:101B8000E050FF4FE80FF11D60816111D6CF20E0DA
:101B900040E060E08D2F90E00E943B15D4CF4F5F76
:101BA0004093E003453018F28091DE039091DF030B
:101BB0008036910509F092CFE0E0F1E02081222308
:101BC00011F0269520832181222311F0269521836F
:101BD0002281222311F0269522832381222311F0D2
:101BE000269523832481222311F0269524832581A1
:101BF000222311F0269525832681222311F0269594
:101C000026832781222311F02695278320852223EE
:101C100011F0269520872185222311F02695218712
:101C20002285222311F0269522872385222311F075
:101C3000269523872485222311F026952487258540
:101C4000222311F0269525872685222311F026953B
:101C500026873F9621E0EB34F20709F0AFCF25E06D
:101C60002093E0032FE02093E20301979093DF039A
:101C70008093DE03DF91CF911F910F910895C4E40B
:101C8000D2E000E010E02A8149816881C8010E9409
:101C90003B150F5F1F4F239600341105A1F73BCF73
:101CA0008091DE039091DF038033910509F016CF18
:101CB000C4E0D3E000E010E021C0F901E153F94FA6
:101CC000A90141535B4F21533D4F64916093E00361
:101CD000FA0144914093DD03F90124912093DC0340
:101CE000C8010E943B158881998101968993999337
:101CF0000F5F1F4F0034110509F40DCF2881398182
:101D0000211582E03807C8F2198218822FEC32E0E0
:101D10004FEC54E0EFECF6E0D8CF8FE790E09093F3
:101D2000DF038093DE03DF91CF911F910F910C941D
:101D300047150F931F93CF93DF931092E003E0E0DA
:101D4000CFE01FEF0FE0D8E0F0E0E45CFD4F61E092
:101D500080810E94B709E091E003F0E0E45CFD4F70
:101D600060E080810E94660A1092E203E0E011C008
:101D7000A091E003CA9FD0011124A55BBE4FAE0F16
:101D8000B11D8C9187778C93EF5FE093E203EF3086
:101D900050F5F0E0E35DFD4F80810E94150BE0916E
:101DA000E2038111E5CF9091E0034E2F50E0C99FEF
:101DB000C0011124DC01A55BBE4FA40FB51F2C91FF
:101DC00028682C93D093430280509F4FDC01A40FCE
:101DD000B51F1C932E3EC1F60093A304EF5FE09362
:101DE000E203EF30B0F21092E103E0E0F0E0E45CF7
:101DF000FD4F60E080810E94B709E091E103F0E0CF
:101E0000E45CFD4F61E080810E94660AE091E1039D
:101E1000EF5FE093E103E53048F3E091E003EF5F2B
:101E2000E093E003E53008F48FCF0E942A070E9478
:101E300022071092DA031092E00340E0CFE0109204
:101E4000E20390E01DC0803B09F4D3C008F48DC0CC
:101E5000803D09F4C2C0803F09F4B3C0803C59F40E
:101E60002F513E4FE20FF31F80810E94F6064091F2
:101E7000E0039091E2039F5F9093E2039F3068F547
:101E8000E92FF0E0C49F90011124D901A55BBE4F5A
:101E9000AE0FBF1F5C918091A30485238F3009F49E
:101EA000C1C088F68B3009F472C008F04BC089308D
:101EB00009F47AC08A30F9F6A9014A565E4FE40F58
:101EC000F51F80810E94EA064091E0039091E203B1
:101ED0009F5F9093E2039F3098F24F5F4093E0033F
:101EE000453008F4ACCF0E949205811103C080EF09
:101EF0008093A3040E94C705882319F084E080938F
:101F000042020E948704882319F084E080934202F1
:101F10000E94DD0481119FC080914302883009F442
:101F2000A2C0813009F4A7C09091420281119FC0E4
:101F3000992319F0915090934202DF91CF911F9114
:101F40000F9108958C3009F460C08D3009F093CF63
:101F5000A9014A565E4FE40FF51F80810E94FC06DE
:101F60004091E0039091E20386CF803909F467C085
:101F7000803A09F080CF2F513E4FE20FF31F80814E
:101F80000E94EA064091E0039091E20374CFA90118
:101F90004A565E4FE40FF51F80810E94F006409183
:101FA000E0039091E20367CFA9014A565E4FE40F28
:101FB000F51F80810E94AB064091E0039091E203FF
:101FC0005ACF2F513E4FE20FF31F80810E941F0610
:101FD0004091E0039091E2034ECF2F513E4FE20F2C
:101FE000F31F80810E94FC064091E0039091E20380
:101FF00042CF2F513E4FE20FF31F80810E94F00627
:102000004091E0039091E20336CFA9014A565E4F1A
:10201000E40FF51F80810E94F6064091E003909145
:10202000E20329CFC9018A569E4FE80FF91F80812C
:102030000E941F064091E0039091E2031CCF2F51B4
:102040003E4FE20FF31F80810E94AB064091E003F8
:102050009091E20310CF84E080934202809143028A
:10206000883009F05ECF90914202913069F0815042
:10207000809343025DCF0E94B90C0E94CE040E945F
:102080001B058091430250CF0E94B90C0E94CE04E0
:102090000E941B058091430244CF80E88093610039
:1020A000109261000E94B3090E942B0D2FEF89E668
:1020B00098E1215080409040E1F700C000000E946C
:1020C000BB100E94DF1081110AC02FEF85EA9EE04D
:1020D000215080409040E1F700C00000F2CF0E9404
:1020E000D70C0E94F20CC1E012E0D0EFC093B50310
:1020F000C093B0031093DB030E942A070E942207BB
:102100000E9434071092E10361E080912C020E944A
:10211000660A8091E1038F5F8093E1038823A1F336
:102120008091DB03809397030E9433150E9447152B
:10213000D093A3042FEF89E698E12150804090408E
:10214000E1F700C0000022E348E06FE873E081E0BF
:102150000E94E2100E9449098091B003823031F25E
:102160008130C1F70E94990E809142028111F2CF15
:102170000E944F0DEFCF81E08093D70080EA8093DB
:10218000D80082E189BD09B400FCFDCF80E98093CD
:10219000D8001092E0001092860388E08093E2005D
:1021A00084E08093E20078940E94F5050E94D305B4
:1021B0000E9410061092DA031092D90308958091BC
:1021C00086030895909186039923E9F09FB7F894C8
:1021D0003091E400230F8093E9003091E80035FF4F
:1021E0000DC013C09091E400291769F09FB7F894CF
:1021F0008093E9003091E80035FD07C09FBF9091C2
:1022000086039111EFCF81E00895442351F0FB0143
:102210009B01240F311D81918093F1002E173F0700
:10222000D1F78AE38093E8009FBF80E008951F9272
:102230000F920FB60F9211242F933F934F938F93CA
:102240009F938091E1001092E10083FF0FC01092F4
:10225000E90091E09093EB001092EC0092E09093F3
:10226000ED0098E09093F0001092860382FF04C086
:102270008091860381110AC09F918F914F913F9168
:102280002F910F900FBE0F901F901895909185037E
:102290009F5F89E2989F812D11248695869586956A
:1022A000392F22E3829F30191124832F311116C058
:1022B000109285039091E80095FF12C09091B503AC
:1022C000992371F02091B00321114AC080918603B7
:1022D00081114EC021E02093B50302C09093850385
:1022E0009091B103992341F2809184038F5F809391
:1022F0008403837009F0C0CF81E08093E90080916E
:10230000E80085FFB9CF8091B2038F5F8093B2035D
:102310008913B2CF1092B20380918F038093F100A2
:10232000809190038093F100809191038093F1005C
:10233000809192038093F100809193038093F10048
:10234000809194038093F100809195038093F10034
:10235000809196038093F1008AE38093E8008CCF0C
:1023600090918603911154C081E08093B503B8CF5A
:102370008FB7F8943091E40094E09093E900909145
:10238000E80095FD20C08FBF80918603882309F463
:10239000A1CF8091E400381709F49CCF44E00BC032
:1023A0008FBF80918603882309F494CF8091E40045
:1023B000381709F48FCF8FB7F8944093E9009091C4
:1023C000E80095FFEDCF9091F100909387039091F5
:1023D000F100909388039091F1009093890390917C
:1023E000F10090938A039091F10090938B03909168
:1023F000F10090938C039091F10090938D03909154
:10240000F10090938E039AE39093E8008FBF63CF1F
:102410009FB7F8943091E40024E02093E9002091E4
:10242000E80025FD20C09FBF90918603992309F401
:102430009BCF9091E400931709F496CF44E00BC032
:102440009FBF90918603992309F48ECF9091E40069
:10245000391709F489CF9FB7F8944093E900209188
:10246000E80025FFEDCF2091F10020938703209114
:10247000F100209388032AE32093E8009FBF75CFE3
:102480001F920F920FB60F9211242F933F934F93E9
:102490005F936F937F938F939F93AF93BF93EF93CC
:1024A000FF931092E9008091E80083FF38C070919B
:1024B000F1004091F1008091F1002091F10090E055
:1024C000922B2091F1005091F10030E0352B60917A
:1024D000F100E091F10052EF5093E800463099F19D
:1024E000453009F43EC1493009F47BC0483009F455
:1024F00007C14111B5C18091E80080FFFCCF72385F
:1025000009F484C180E08093F1001092F1008EEF15
:102510008093E80007C02115310509F00AC181E266
:102520008093EB00FF91EF91BF91AF919F918F91BD
:102530007F916F915F914F913F912F910F900FBEBF
:102540000F901F901895811541E0940709F455C12B
:102550008115F2E09F0709F463C1811542E29407F7
:1025600009F425C18115F1E29F0709F462C18115C3
:1025700023E0920709F061C2A4E0B0E024E048E75C
:1025800051E0862F90E09E2B8F3F910509F020F4BB
:102590008A179B0708F4262F6EEF8091E80085705C
:1025A000E1F38091E80082FDBDCF322F293008F49D
:1025B0001FC138E0FA01832F94919093F10081506C
:1025C00031968111F9CF8FEF830F90E00196480F7C
:1025D000591F231B6093E8002111DFCF3830E9F247
:1025E000A1CF71118FC0809386038EEF8093E80096
:1025F00081E08093E900E2E4F1E0E491E093EB0014
:10260000EE2309F463C1E3E4F1E0E491E093EC002C
:10261000E4E4F1E0E491E093ED0025E431E082E0D0
:102620008093E900C9010196F90144914093EB00C0
:10263000442351F0FC0184918093EC00C90103967E
:10264000319624912093ED0023E02093E9009C0132
:102650002F5F3F4FFC0144914093EB00442359F01E
:10266000F90124912093EC009C012D5F3F4F31969E
:1026700084918093ED0084E08093E900C901019684
:10268000F90144914093EB00442351F0FC01849103
:102690008093EC00C9010396319624912093ED00BC
:1026A00025E02093E9009C012F5F3F4FFC014491FE
:1026B0004093EB00442359F0F90124912093EC005E
:1026C0009C012D5F3F4F319684918093ED0086E011
:1026D0008093E900C9010196F90144914093EB0010
:1026E000442341F0FC0184918093EC0031962491C5
:1026F0002093ED008EE78093EA001092EA0012CF5B
:102700007038D1F121153105A1F4713A09F4E1C015
:10271000713209F004CF4930D9F14A3009F485C14A
:102720004B3009F0FCCE8093B3038EEF8093E8002A
:10273000F9CE2230310509F444C02130310509F0C9
:10274000EECE713A09F412C1713209F0E8CE4B3085
:1027500009F465C14A3009F0E2CE8EEF8093E800BB
:10276000E1CE2EEF2093E8002091E80020FFFCCF7F
:1027700080688093E300D6CE8091E80080FFFCCF94
:10278000809186038093F1008EEF8093E800CACE9B
:102790008091E80082FFFCCF8091F1008093AF032D
:1027A0008BEF8093E8008EEF8093E800BBCE21157D
:1027B000310509F047C0A0E4B0E020E44DE752E065
:1027C000E0CE713A09F403C1713209F0A8CE4A3063
:1027D00021F2493009F0A3CE8091E80082FFFCCFBE
:1027E0008BEF8093E8008091E80080FFFCCFB5CFAD
:1027F0002111E0CE6093E80095CE232B09F08FCE17
:10280000A2E1B0E022E14DEB52E0BBCE2093E90023
:102810008091EB0085FB882780F91092E90073CE48
:10282000232B09F07CCEABE5B0E02BE54CE751E083
:10283000A8CE21153105E1F5A9E0B0E029E04EE888
:1028400051E09FCE2230310509F48AC02130310594
:1028500009F065CEA4E8B0E024E849EF51E091CE5C
:10286000542F5D7F513009F04DCF723009F04ACFBF
:10287000009709F050CE522F5F776FEF650F6630EB
:1028800008F049CE8EEF8093E8005093E900433082
:1028900009F445CE89E18093EB0081E090E001C02E
:1028A000880F5A95EAF78093EA001092EA003ACE30
:1028B0002230310509F4ADC02130310509F02FCEA9
:1028C000A9E0B0E029E047EA51E05BCE23E431E043
:1028D000A6CE413089F04230B9F1433009F01FCE25
:1028E0008091E80080FFFCCF8091B3038093F100DA
:1028F0008EEF8093E80016CE8091E80080FFFCCF39
:1029000080918F038093F100809190038093F10078
:10291000809191038093F100809192038093F10064
:10292000809193038093F100809194038093F10050
:10293000809195038093F100809196038093F1003C
:102940008EEF8093E800EECD8091E80080FFFCCF11
:102950008091B1038093F1008EEF8093E800E2CD87
:10296000A2E2B0E022E247ED51E00BCE413079F037
:10297000433009F0D4CD8091E80080FFFCCF8091F6
:10298000CB038093F1008EEF8093E800CBCD809154
:10299000E80080FFFCCF8091B6038093F100809126
:1029A000B7038093F1008091B8038093F100809188
:1029B000B9038093F1008091BA038093F100809174
:1029C000BB038093F1008EEF8093E800ABCD4130E4
:1029D00009F0A5CD28E03EEF8091E800982F957092
:1029E000D9F382FD9FCD922F293070F098E0892F86
:1029F0001092F1008150E1F7291B3093E80021117A
:102A0000EBCF983049F38ECD2111F1CF3093E80010
:102A100089CDA9E0B0E029E040EC51E0B2CD80934F
:102A2000CB038EEF8093E8007DCD9093B10310929D
:102A3000B2038EEF8093E80075CD813043E09407B8
:102A400051F08230934009F06ACDACE1B0E02CE166
:102A500040E551E096CDACE0B0E02CE04CE651E032
:102A600090CD579A089580ECE3EEF3E0DF011D92DC
:102A70008A95E9F70895FC01EE0FFF1F8E0F9F1F47
:102A8000FC01ED51FC4F4083618322830895F8944B
:102A90002BB12F779BB19068E3EEF3E0819138E0A2
:102AA0009BB9000000C087FF2BB9880F000000C051
:102AB00000C000C02BB900C03A9591F784E0E33A1A
:102AC000F80761F778940895EE0FFF1F0590F491D1
:102AD000E02D0994A29FB001B39FC001A39F700D88
:102AE000811D1124911DB29F700D811D1124911D16
:102AF0000895F999FECF92BD81BDF89A992780B5C6
:102B00000895A8E1B0E042E050E00C948E150E94D8
:102B10009C15272F0C949D15DC01CB01FC01F99924
:102B2000FECF06C0F2BDE1BDF89A319600B40D9219
:102B300041505040B8F70895262FF999FECF1FBA9B
:102B400092BD81BD20BD0FB6F894FA9AF99A0FBED6
:082B500001960895F894FFCFEF
:102B580080808080808080808080808080008080ED
:102B6800008080808080808080808080808080005D
:102B7800808080808080808080808080000080804D
:102B880080808080808080808080808080800080BD
:102B98000000800000008080808080711111111178
:102BA8001111111111111111001110001010101034
:102BB800101010101010101010100010101010101D
:102BC8001010101010101000002211171010101003
:102BD800101010102211222266002200001100009D
:102BE800006666111111353A3B3C3D3E3F4041427B
:102BF800434445004C0000000000000000000000B5
:102C080000000000000000000000000000000000BC
:102C18000000000002530200000000000000002035
:102C280052100100000400002C0000000000505168
:102C38004F041E1F20212223242526272D2E002A5B
:102C48002B00141A0815171C180C12132F303139C1
:102C580000041607090A0B0D0E0F33342800000272
:102C68001D1B0619051110363738205210010000B7
:102C78000400002C000000000050514F17101112E2
:102C88001314151800010203050607080A090F0E98
:022C98000D002D
:00000001FF
