:100000000C9468040C9485040C9485040C94850469
:100010000C9485040C9485040C9485040C9485043C
:100020000C9485040C9485040C943B110C9464127C
:100030000C9485040C9485040C9485040C9485041C
:100040000C9485040C9485040C9485040C9485040C
:100050000C9485040C9485040C9485040C948504FC
:100060000C9485040C9485040C9485040C948504EC
:100070000C9485040C9485040C9485040C948504DC
:100080000C9485040C9485040C9485040C948504CC
:100090000C9485040C9485040C9485040C948504BC
:1000A0000C9485040C9485040C948504340A440A49
:1000B000200A4C0A2A0A3C0A160A500A2F0A400A49
:1000C0001B0A480A250A380A110A0C0AF809020A0A
:1000D000EE09070AF309FD09E909E409E009E30A61
:1000E000F30ACF0AFB0AD90AEB0AC50AFF0ADE0A9D
:1000F000EF0ACA0AF70AD40AE70AC00ABB0AA70A23
:10010000B10A9D0AB60AA20AAC0A980A930A8F0A93
:10011000850B820B7F0B7C0B790B760B730B700BB3
:100120006D0B6A0B670B640B610B5E0B5B0B580B63
:10013000550B520B4F0B4C0B490B460B430B400B13
:10014000880B01C10601C10601C10601C0060000FD
:100150001C037A00690061006E005F006B0065009F
:10016000790062006F006100720064000C037A0085
:10017000690061006E0031000403090409025B009C
:10018000030100A03209040000010301010009215C
:100190001101000122400007058103080001090444
:1001A0000100010301020009211101000122840064
:1001B0000705820308000109040200020300000091
:1001C0000921110100012222000705830308000113
:1001D000070504030800010631FF0974A101097530
:1001E000150026FF0095087508810209761500267E
:1001F000FF00950875089102C005010902A101855B
:10020000010901A10005091901290515002501753C
:1002100001950581027503950181030501093009E6
:10022000311581257F7508950281060938158125CC
:100230007F35004500750895018106050C0A3802D6
:100240001581257F750895018106C0C005010980CB
:10025000A1018502150126B700190129B77510956E
:10026000018100C0050C0901A10185031501269C2F
:100270000219012A9C02751095018100C00501092F
:1002800006A10175019508050719E029E715002564
:10029000018102950175088103950575010508190D
:1002A00001290591029501750391039506750815BD
:1002B0000026FF000507190029FF8100C012010078
:1002C0000200000008C43284F100020102000100B3
:1002D000000001010102030404050708090A0C0DCE
:1002E0000F1112141617191B1D1F2122242628294D
:1002F0002B2D2E3031333435363738393A3A3B3BB3
:100300003C3C3C3C3C3C3D3D3E3E3F404142434406
:100310004647494A4C4D4F5152545658595B5D5FC0
:100320006062646567696A6B6D6E6F707172737419
:100330007475757676767676767676767676767661
:100340007676767676767677777777777777777744
:100350007777777777777777787878787878787825
:100360007878787878787878787878787879797A09
:100370007A7B7B7C7D7E7F7F808283848586878974
:100380008A8B8C8E8F9091929495969798999A9B40
:100390009C9D9D9E9F9FA0A0A0A1A1A1A1A1A1A263
:1003A000A2A3A3A4A5A6A7A9AAACADAFB0B2B4B6A8
:1003B000B8BABCBEC0C2C4C6C8CACCCED0D2D4D6CD
:1003C000D8D9DBDCDEDFE0E1E2E3E3E4E4E5E5E528
:1003D000E5E4E4E3E2E0DFDDDBD8D6D3D0CDCAC686
:1003E000C2BFBBB7B3AFABA6A29E9A95918D8985CC
:1003F000817D7A7673706D6A676563615F5E5C5B51
:100400005B5A5A5A5A595958575655545351504E87
:100410004C4A484644423F3D3A383633302E2B2929
:100420002724221F1D1B1917151312100F0D0C0B5B
:100430000A090908080808080808080909090A0A31
:100440000A0B0B0C0D0D0E0E0F10101112131314BE
:10045000151516171818191A1A1B1B1C1D1D1E1E00
:100460001E1F1F1F20202020202020202020202091
:100470001F1F1F1F1F1E1E1E1E1D1D1D1C1C1C1BA3
:100480001B1A1A1A191919181818171717161616E9
:100490001615151515151414141414141414141415
:1004A0001413131313121212111110100F0F0E0E3A
:1004B0000D0D0C0B0B0A0A090808070706060504B0
:1004C00004030303020201010101000000000039DE
:1004D00039393939383838373736363534343332B4
:1004E0003231302F2E2D2C2B2B2A2928272625245C
:1004F0002323222120201F1E1E1D1D1C1C1C1B1B14
:100500001B1B1B1B1B1B1B1A1A1A1919191818174E
:10051000161615141413121111100F0E0D0D0C0BCD
:100520000A0908080706060504040303020201017C
:1005300001000000000000000000000000000000BA
:1005400000000000000000000000000000000000AB
:10055000000000000000000000000000000000009B
:100560000000000000000000000000000101020384
:1005700004050607080A0B0D0F11131517191B1D8B
:100580001F212426282A2C2E31333537383A3C3D7A
:100590003F40424344454646474748484848494902
:1005A0004A4B4C4E4F515356585B5D6063666A6DC3
:1005B0007074787B7F83868A8E9195989C9FA2A584
:1005C000A8ABAEB0B3B5B7B9BBBCBDBEBFC0C0C0B1
:1005D000C0C0C0C0C0C0BFBFBFBFBEBEBEBEBDBD2D
:1005E000BDBCBCBBBBBBBABAB9B9B8B8B8B7B7B673
:1005F000B6B6B5B5B4B4B4B4B3B3B3B3B3B2B2B2C0
:10060000B2B2B2B2B2B2B2B2B2B2B2B3B3B3B3B3C5
:10061000B3B4B4B4B4B4B5B5B5B5B6B6B6B6B7B789
:10062000B7B7B7B8B8B8B8B9B9B9B9B9B9B9BABA42
:10063000BABABABABABABABABABBBBBBBCBDBDBE0B
:10064000BFC0C1C2C4C5C6C7C9CACCCDCFD0D2D421
:10065000D5D7D8DADBDDDEE0E1E2E3E5E6E7E8E99D
:10066000EAEAEBECECECEDEDEDEDEDEDECECEBEACC
:10067000E9E8E7E5E4E2E1DFDDDBD9D7D4D2D0CEAB
:10068000CBC9C6C4C2BFBDBBB8B6B4B2B0AEACAACB
:10069000A9A7A6A5A3A2A1A1A0A09F9F9F9F9F9E3F
:1006A0009D9C9B9A99979593918F8D8A888582803E
:1006B0007D7A7773706D6A6764615E5B58555250DE
:1006C0004D4B48464442413F3E3C3B3B3A3939F36F
:1006D000F3F3F3F3F3F3F3F3F2F2F2F2F2F2F2F1F3
:1006E000F1F1F1F1F0F0F0F0F0EFEFEFEFEFEEEE0F
:1006F000EEEEEEEDEDEDEDEDEDEDECECECECECEC2D
:10070000ECECECECECECECEBEBEBEBEAEAE9E9E83B
:10071000E8E7E6E6E5E4E4E3E2E1E0E0DFDEDDDCB5
:10072000DCDBDAD9D9D8D7D7D6D6D5D5D4D4D3D35C
:10073000D3D2D2D2D2D2D2D2D1D1D0CFCECCCBC9B9
:10074000C7C5C3C0BEBBB9B6B3B0ADA9A6A3A09C74
:10075000999693908C898683807E7B79767472706B
:100760006E6D6B6A69686867676767676666656507
:10077000646362615F5E5D5B5A58565553514F4DDD
:100780004B4947454342403E3C3A38373533323097
:100790002F2E2D2C2B2A29282827272727272727C4
:1007A00026262625252423232221201F1E1D1C1B2F
:1007B0001A1918171614131211100F0E0D0B0A091F
:1007C00008080706050404030302020201010101EF
:1007D00001010101010202020203030304040405F2
:1007E0000506060707080809090A0A0B0B0C0C0D79
:1007F0000D0E0E0F0F0F10101011111111121212F9
:1008000012121212121213131415151617181A1B9E
:100810001C1E1F2122242628292B2D2F313335364B
:10082000383A3C3E3F414244454748494A4B4C4D8B
:100830004D4E4E4F4F4F4F4F505152535557595B9E
:100840005D606366696D7174787C8084898D919632
:100850009A9EA2A7ABAFB3B7BABEC2C5C8CBCED023
:10086000D2D4D6D8D9DADBDCDCDCDCDCDCDCDDDDE8
:10087000DDDEDEDFDFE0E0E1E2E2E3E4E4E5E6E75F
:10088000E8E9E9EAEBECEDEDEEEFF0F0F1F2F2F38E
:10089000F4F4F5F5F5F6F6F6F7F7F7F7F7F7F7F7F7
:1008A000F7F7F7F7F7F7F7F7F6F6F6F6F6F6F6F6E0
:1008B000F6F6F5F5F5F5F5F5F5F5F4F4F4F4F4F4EC
:1008C000F4F4F4F4F3F3F3F3F3F3F3F3F3F3F300E7
:1008D00011241FBECFEFDAE0DEBFCDBF14E0A0E0F1
:1008E000B1E0ECEDFBE202C005900D92AE32B10733
:1008F000D9F725E0AEE2B4E001C01D92AC3EB207EC
:10090000E1F70E94030D0C94EC150C94000080910B
:10091000B40490919B04981731F080939B0481E07C
:100920008093C00408958091B50490919D04981718
:1009300031F080939D0481E08093C00408958091FC
:10094000B60490919E04981719F080939E04E7CF07
:100950008091B70490919F04981719F080939F0499
:10096000DECF8091B8049091A004981719F080937D
:10097000A004D5CF8091B9049091A104981719F0E3
:100980008093A104CCCF8091BA049091A2049817CF
:1009900019F08093A204C3CF80E008958091C00431
:1009A000811102C081E008951092C00422E348E062
:1009B0006BE974E081E00C9406118091CD04909174
:1009C000C204981729F18093C20481E02091D204D7
:1009D0003091D3044091C8045091C9044217530781
:1009E000C9F03093C9042093C8042091D4043091F5
:1009F000D5048091CB049091CC0482179307C9F061
:100A00003093CC042093CB0483E08093D7040895E3
:100A100080E0DCCF2091D4043091D5044091CB0408
:100A20005091CC044217530759F7882381F381E092
:100A3000ECCF82E0EACFCF93DF938091D70483702D
:100A40008093D704811104C081E0DF91CF91089594
:100A50000E9403118823C1F38FB7F894C091E4007A
:100A6000CE5C92E09093E9009091E80095FD14C06F
:100A7000D2E00CC08091E400C81731F38FB7F8942E
:100A8000D093E9009091E80095FD06C08FBF0E94C9
:100A900003118111EFCFD8CF9091D704923099F103
:100AA000933011F19130D1F41092D7049091C10498
:100AB0009093F1009091C2049093F1009091C3043F
:100AC0009093F1009091C4049093F1009091C5042B
:100AD0009093F1009091C6049093F1009AE3909363
:100AE000E8008FBF80E0B1CF1092D7049091CA0484
:100AF0009093F1009091CB049093F1009091CC04ED
:100B00009093F100EBCF1092D7049091C70490938B
:100B1000F1009091C8049093F1009091C9049093D2
:100B2000F100DCCF8091CD0481112FC08091D204DF
:100B30009091D304892B49F58091D4049091D504E8
:100B4000892B19F58091B50481111FC08091B604DD
:100B500081111BC08091B704811117C08091B80426
:100B6000811113C08091B90481110FC08091BA0422
:100B700081110BC08091B404811107C081E0909174
:100B8000E604911103C080E0089581E0089580910A
:100B9000E6049091E404981721F08093E40481E046
:100BA000089580E00895CF93DF938CE0E8EDF4E0C2
:100BB000DF01C82F1D92CA95E9F7E1ECF4E0DF01EF
:100BC0001D928A95E9F7ADECB4E08BE0ED01199246
:100BD0008A95E9F781E0808392E0968393E091879C
:100BE00019968C93DF91CF91089588E0ECEAF4E0B8
:100BF000DF01982F1D929A95E9F7EBE9F4E0DF0108
:100C00001D928A95E9F7E4EBF4E08DE0DF011D9297
:100C10008A95E9F781E0808783878DE7818708954A
:100C200088E0E4EAF4E0DF01982F1D929A95E9F755
:100C3000E3E9F4E0DF011D928A95E9F70895843035
:100C400031F09091E604892B8093E6040895909109
:100C50009B04992389F19091B504953391F32091E8
:100C6000B604253371F33091B704353351F3409115
:100C7000B804453331F35091B904553311F3609101
:100C8000BA046533F1F2992309F447C0222309F429
:100C90004AC0332309F450C0442309F453C05523F8
:100CA00009F453C06111CDCF25E030E0F901EC54D7
:100CB000FB4F95E39183C5CF9091B504993209F22A
:100CC0002091B604293209F4BCCF3091B7043932EF
:100CD00009F4B7CF4091B804493209F4B2CF50912A
:100CE000B904593209F4ADCF6091BA04693209F4FC
:100CF000A8CF9923A9F02223C9F03323D1F04423AC
:100D0000F1F0552329F161119CCF25E030E0F90184
:100D1000EC54FB4F99E2918394CF20E030E0C6CFB2
:100D200020E030E0F4CF21E030E0C0CF21E030E03F
:100D3000EECF22E030E0EBCF22E030E0B7CF23E08F
:100D400030E0E5CF23E030E0B1CF24E030E0AECFBB
:100D500024E030E0DCCF9091B504891711F12091A7
:100D6000B6048217F1F03091B7048317D1F04091A7
:100D7000B8048417B1F05091B904851791F06091CF
:100D8000BA04681771F0992371F02223A1F033237C
:100D9000A9F04423B1F05523B9F06623C1F080E0F7
:100DA000089581E0089520E030E0F901EC54FB4F14
:100DB000818381E0089521E030E0F7CF22E030E048
:100DC000F4CF23E030E0F1CF24E030E0EECF25E0B7
:100DD00030E0EBCFE4EBF4E09081892B8083089541
:100DE000EDECF4E09081892B8083089590E090935E
:100DF000D3048093D2040895982F907F9039D9F02E
:100E000038F0903C91F0903E81F0903B71F0089565
:100E1000903221F0903879F09111F9CF90E0926002
:100E20009093D5048093D404089590E09093D504D2
:100E30008093D404089590E091609093D5048093BA
:100E4000D4040895EDECF4E0108216821582108629
:100E50001782089586E0E5EBF4E0DF011D928A95A4
:100E6000E9F71092B4040895CF92DF92EF92FF92C7
:100E70000F931F93CF93DF9380E090E00E94C31500
:100E8000EC0182E090E00E94C3158C0184E090E0C8
:100E90000E94C3157C0186E090E00E94C3156C019E
:100EA00088E090E00E94C3152A9749F0DF91CF9126
:100EB0001F910F91FF90EF90DF90CF900895003138
:100EC0001105A1F720E2E216F10481F7E0E8CE1661
:100ED000D10461F7803E910549F78AE090E00E94D5
:100EE000BB15809330028BE090E00E94BB1580938D
:100EF00031028CE090E00E94BB15809332028DE0BD
:100F000090E00E94BB15809333028EE090E00E9437
:100F1000BB15809334028FE090E00E94BB15809354
:100F2000350280E190E00E94BB158093200281E1B0
:100F300090E00E94BB158093210282E190E00E9424
:100F4000BB158093220283E190E00E94BB15809341
:100F5000230284E190E00E94BB158093240285E186
:100F600090E00E94BB158093250286E190E00E94EC
:100F7000BB158093260287E190E00E94BB15809309
:100F8000270288E190E00E94BB158093280289E146
:100F900090E00E94BB15809329028AE190E00E94B4
:100FA000BB1580932A028BE190E00E94BB158093D1
:100FB0002B028CE190E00E94BB1580932C028DE106
:100FC00090E00E94BB1580932D028EE190E00E947C
:100FD000BB1580932E028FE190E00E94BB15809399
:100FE0002F0200EC11E0C0E0D0E0CE0180960E941C
:100FF000BB15F8018083CE0181960E94BB15F801D4
:101000008183CE0182960E94BB15F8018283CE01B6
:1010100083960E94BB15F8018383CE0184960E94BB
:10102000BB15F8018483CE0185960E94BB15F8019B
:101030008583CE0186960E94BB15F8018683CE017A
:1010400087960E94BB15F8018783CE0188960E947F
:10105000BB15F8018087CE0189960E94BB15F80167
:101060008187CE018A960E94BB15F8018287CE0146
:101070008B960E94BB15F8018387CE018C960E9447
:10108000BB15F8018487CE018D960E94BB15F8012F
:101090008587CE018E960E94BB15F8018687CE010A
:1010A0008F960E94BB15F80187876096005F1F4FDF
:1010B000C036D10509F099CF00E314E0C0E0D0E0DC
:1010C000CE0180589F4F0E94BB15F8018083CE014E
:1010D0008F579F4F0E94BB15F8018183CE018E5719
:1010E0009F4F0E94BB15F8018283CE018D579F4F01
:1010F0000E94BB15F8018383CE018C579F4F0E943D
:10110000BB15F8018483CE018B579F4F0E94BB15FE
:10111000F8018583CE018A579F4F0E94BB15F801C5
:101120008683CE0189579F4F0E94BB15F8018783A4
:10113000CE0188579F4F0E94BB15F8018087CE01D2
:1011400087579F4F0E94BB15F8018187CE018657B4
:101150009F4F0E94BB15F8018287CE0185579F4F94
:101160000E94BB15F8018387CE0184579F4F0E94D0
:10117000BB15F8018487CE0183579F4F0E94BB1592
:10118000F8018587CE0182579F4F0E94BB15F80159
:101190008687CE0181579F4F0E94BB15F801878734
:1011A0006096005F1F4FC036D10509F089CF00E679
:1011B00011E0C0E0D0E0CE0180529F4F0E94BB15ED
:1011C000F8018083CE018F519F4F0E94BB15F8011B
:1011D0008183CE018E519F4F0E94BB15F8018283FF
:1011E000CE018D519F4F0E94BB15F8018383CE0124
:1011F0008C519F4F0E94BB15F8018483CE018B5107
:101200009F4F0E94BB15F8018583CE018A519F4FE5
:101210000E94BB15F8018683CE0189519F4F0E9421
:10122000BB15F8018783CE0188519F4F0E94BB15E3
:10123000F8018087CE0187519F4F0E94BB15F801AE
:101240008187CE0186519F4F0E94BB15F80182878E
:10125000CE0185519F4F0E94BB15F8018387CE01B7
:1012600084519F4F0E94BB15F8018487CE018351A2
:101270009F4F0E94BB15F8018587CE0182519F4F79
:101280000E94BB15F8018687CE0181519F4F0E94B5
:10129000BB15F80187876096005F1F4FC036D105E8
:1012A00009F089CFC6E3D2E000E411E00653124012
:1012B000C8018C0F9D1F0E94BB158993F3E0C233B8
:1012C000DF07B1F78CE392E00E94BB158093E7043F
:1012D000EDCDCF93DF938091E50481111BC0C091C8
:1012E0009304D0919404CF3F21EFD207B1F0CF3FC8
:1012F00082EFD80709F44AC08091BC048823B9F072
:1013000088E0E3E9F4E0DF011D928A95E9F781E0E6
:101310008093E504DF91CF9108958091BC048130E2
:1013200009F43EC08111ECCF0E943B0D1DC00E940C
:101330003B0DCE3FA3E0DA0748F4F999FECF609168
:10134000950470919604CE010E94C915CE010296B3
:101350008E3FB3E09B0740F4F999FECF609197046C
:10136000709198040E94C915CE0104968E3F23E027
:10137000920718F00E943E0DC3CFF999FECF6091FD
:10138000990470919A040E94C915F4CF8091BC040D
:101390008111B6CF0E943E0D82E08093BC04B0CF95
:1013A0001092BC04ADCF80E885BF85BF089590E062
:1013B0008931910540F4FC01EA5AFF4F0C94A615BF
:1013C0006111A2C06E980895662309F46DC0559A04
:1013D0000895662309F46AC0549A0895662309F4AF
:1013E0006DC0859A0895662309F464C0819A0895B2
:1013F000662309F467C0879A0895662309F458C0E4
:10140000809A0895662309F45BC0869A089566233E
:1014100009F452C0849A0895662309F455C0269AA7
:101420000895662309F460C0259A0895662309F497
:1014300053C0519A0895662309F45EC03F9A0895F7
:10144000662309F445C0229A0895662309F450C022
:10145000579A0895662309F443C0279A089566238E
:1014600009F44EC0539A0895662381F1209A089595
:101470006623E1F1249A0895662381F1509A089534
:101480006623E1F13E9A0895662321F1219A089599
:10149000662381F1569A0895662321F1239A0895CF
:1014A000662381F1529A08955598089554980895A5
:1014B000809808958198089584980895859808954E
:1014C00086980895879808952698089520980895F5
:1014D0002298089521980895519808955098089554
:1014E0002798089523980895259808952498089595
:1014F00057980895569808953F9808953E980895EE
:1015000053980895529808956E9A089590E08931FD
:10151000910540F4FC01E159FF4F0C94A6156111AF
:10152000A2C076980895662309F46DC05D9A089567
:10153000662309F46AC05C9A0895662309F46DC0B5
:101540008D9A0895662309F464C0899A08956623E4
:1015500009F467C08F9A0895662309F458C0889AE1
:101560000895662309F45BC08E9A0895662309F4F2
:1015700052C08C9A0895662309F455C02E9A089596
:10158000662309F460C02D9A0895662309F453C0B8
:10159000599A0895662309F45EC0479A0895662310
:1015A00009F445C02A9A0895662309F450C05F9A49
:1015B0000895662309F443C02F9A0895662309F419
:1015C0004EC05B9A0895662381F1289A0895662398
:1015D000E1F12C9A0895662381F1589A08956623C3
:1015E000E1F1469A0895662321F1299A0895662328
:1015F00081F15E9A0895662321F12B9A089566235E
:1016000081F15A9A08955D9808955C980895889894
:101610000895899808958C9808958D9808958E98C6
:1016200008958F9808952E980895289808952A98D7
:1016300008952998089559980895589808952F98CD
:1016400008952B9808952D9808952C9808955F98E3
:1016500008955E98089547980895469808955B9870
:1016600008955A980895769A089590E089319105E1
:1016700010F080E00895FC01E857FF4F0C94A61588
:1016800089B18072089589B1807108958FB1817098
:1016900008958FB1827008958FB1807108958FB1D0
:1016A000807208958FB1807408958FB18078089505
:1016B00083B18074089583B18072089583B180717D
:1016C000089589B18078089589B18074089586B1AC
:1016D0008078089586B18074089589B188700895DE
:1016E00089B18470089589B18270089589B181703B
:1016F000089583B18078089583B18870089583B187
:101700008470089583B18270089583B181700895C3
:101710008CB1807408953F924F925F926F927F9246
:101720008F929F92AF92BF92CF92DF92EF92FF92F1
:101730000F931F93CF93DF9300D000D01F92CDB7AC
:10174000DEB78C010E94C3155C01892B09F404C12A
:101750000E5F1F4F0F3F23E0120708F0FDC0E12C82
:10176000F12CAEEA4A2EA4E05A2EB6E06B2E80E4AD
:10177000382E6E0136E0C30ED11C92E6792E10C0D1
:10178000411101C1FFEFEF1AFF0AAE14BF0409F4C3
:10179000E3C00E5F1F4F0F3F83E0180708F0DCC067
:1017A000C8010E94C315AC01852F552349F39A0146
:1017B000ADECBCEC0E94AC15FC01F695E795F695F6
:1017C000E795F695E7959F01220F331FCF01880F0C
:1017D000991F880F991F880F991F820F931F9A01D5
:1017E000281B390B2D839F010E94AC159695879578
:1017F00096958795969587959C01220F331F880FA4
:10180000991F880F991F880F991F820F931FE81B3C
:10181000F90BEC839A013695279536952795ABE71A
:10182000B4E10E94AC15FC01F695E7959F01ADEC83
:10183000BCEC0E94AC1596958795969587959695E4
:1018400087959C01220F331F880F991F880F991FBE
:10185000880F991F820F931FE81BF90BEB839A01E6
:10186000369527953695279536952795A5ECB0E2C0
:101870000E94AC15FC01F295E295EF70EF27FF7026
:10188000EF279F01ADECBCEC0E94AC1596958795B7
:1018900096958795969587959C01220F331F880F03
:1018A000991F880F991F880F991F820F931FE81B9C
:1018B000F90BEA839A01329522952F7023273F7006
:1018C0002327A7E4B3E00E94AC15969587959695DB
:1018D0008795969587958983F201262D11922A95F1
:1018E000E9F73092AC0422E348E06CEA74E081E06E
:1018F0000E940611CE0101964C017092AE04F401D3
:1019000081914F01882319F0885A8093AE0422E315
:1019100048E06CEA74E081E00E9406111092AE0487
:1019200022E348E06CEA74E081E00E940611C814EA
:10193000D90419F71092AC041092AE0422E348E0E7
:101940006CEA74E081E00E940611FFEFEF1AFF0AD3
:10195000AE14BF0409F01DCF0F900F900F900F90A1
:101960000F90DF91CF911F910F91FF90EF90DF903B
:10197000CF90BF90AF909F908F907F906F905F902F
:101980004F903F900895F201262D11922A95E9F784
:1019900047FD0DC08093AC044F774093AE0422E323
:1019A00048E06CEA74E081E00E940611C3CF80E257
:1019B000F1CF9091E40490FF06C02091A30480E24F
:1019C00082278093A30491FF06C02091A30480E1A5
:1019D00082278093A30493FD10C0892F807295FF06
:1019E0000BC08091A3048F5F982F9F70933008F0F5
:1019F000807F8093A30481E0089582E492E00E94B6
:101A00008B0B81E008950C9477101092ED04E0E0C8
:101A1000F0E0E05EFD4F60E080810E94D709E09138
:101A2000ED04F0E0E05EFD4F61E080810E94860AF7
:101A3000E091ED04EF5FE093ED04E03148F30895A9
:101A40001092ED04E0E0F0E0E05DFD4F60E08081A9
:101A50000E94D709E091ED04F0E0E05DFD4F61E008
:101A600080810E94860AE091ED04EF5FE093ED042F
:101A7000E63048F308951092ED0408951092ED04B5
:101A800008950E9455150E9457150E9489151092BD
:101A9000ED0480E890E09093EB048093EA040895CD
:101AA000EF92FF920F931F93CF93DF931092ED0469
:101AB0008091A30484FFA1C08F70813009F4A4C079
:101AC00081111CC08091EA049091EB04803591054E
:101AD00009F4FCC08037910509F447C1009709F06B
:101AE00080C080E790E09093EB048093EA04DF915C
:101AF000CF911F910F91FF90EF900895823009F4DC
:101B0000F8C08091EA049091EB04E4CFEF5FE0939A
:101B1000EC04E63008F4F1C08091EA049091EB0403
:101B200080369105B9F6E0E0F1E02081222311F042
:101B3000269520832181222311F02695218322815D
:101B4000222311F0269522832381222311F026954A
:101B500023832481222311F02695248325812223A7
:101B600011F0269525832681222311F026952683C0
:101B70002781222311F0269527832085222311F027
:101B8000269520872185222311F0269521872285FD
:101B9000222311F0269522872385222311F02695F2
:101BA00023872485222311F0269524872585222347
:101BB00011F0269525872685222311F02695268764
:101BC0002785222311F026952787709621E0E0369D
:101BD000F20709F0AACF26E02093EC0420E120933D
:101BE000EE0401979093EB048093EA04DF91CF9188
:101BF0001F910F91FF90EF9008950E9457158091CB
:101C0000EA049091EB0466CF8091EA049091EB0492
:101C1000C6E8D3E002E313E02EE2E22E24E0F22E47
:101C200007C022960F5F1F4FEC16FD0609F452CF36
:101C3000E881F981E11522E0F20720F0198218828B
:101C4000E0E0F0E08034910591F180339105F1F00E
:101C50008032910551F08031910519F72881398141
:101C60002F5F3F4F39832883DCCFE881F981E1532F
:101C7000FD4F64916093E804F801808190E00E9438
:101C800073158091EA049091EB04E5CFE881F98126
:101C9000E153FB4F64916093E904F801808190E087
:101CA0000E9469158091EA049091EB04D1CFE15331
:101CB000F94F64916093EC04F801808190E00E94F8
:101CC0005F158091EA049091EB04BFCFC6E3D2E0A8
:101CD00002E313E0F80181918F012A814981688133
:101CE00090E00E947D152396F3E0C233DF0791F761
:101CF00008CF1092EC04E0E0C0E01092EE0480E027
:101D00001BC0262F462F90E00E947D15E091EC0429
:101D10008091EE0490E1E99FD0011124A05ABE4FBA
:101D2000A80FB11D9C91977709F0CF5F8F5F8093CB
:101D3000EE04803108F0EACEC435C0F720E1E29F1E
:101D4000F0011124E050FF4FE80FF11D6081EC2FEE
:101D5000F0E0EE5CFC4F80816111D3CF20E040E0E9
:101D600060E090E00E947D15D1CF8FE690E09093E7
:101D7000EB048093EA04DF91CF911F910F91FF90C4
:101D8000EF900C9489151F93CF93DF931092EC047E
:101D9000E0E0DFEFC8E01FE0F0E0E05DFD4F61E074
:101DA00080810E94D709E091EC04F0E0E05DFD4FF6
:101DB00060E080810E94860A1092EE04E0E012C08A
:101DC000A091EC0420E1A29FD0011124A05ABE4FA3
:101DD000AE0FB11D8C9187778C93EF5FE093EE048B
:101DE000E03158F5F0E0E05EFD4F80810E94350B58
:101DF000E091EE048111E4CF9091EC044E2F50E07D
:101E000020E1929FC0011124DC01A05ABE4FA40F13
:101E1000B51F2C9128682C93C0932F0480509F4F9E
:101E2000DC01A40FB51FDC932E3EB9F61093EB0531
:101E3000EF5FE093EE04E031A8F21092ED04E0E0F1
:101E4000F0E0E05DFD4F60E080810E94D709E09105
:101E5000ED04F0E0E05DFD4F61E080810E94860AC4
:101E6000E091ED04EF5FE093ED04E63048F3E0919C
:101E7000EC04EF5FE093EC04E63008F48DCF0E94B1
:101E80002A070E9422071092E6041092EC0440E018
:101E90001092EE0490E01DC0803B09F4D4C008F419
:101EA0008DC0803D09F4C3C0803F09F4B3C0803CBD
:101EB00059F420543E4FE20FF31F80810E94F60632
:101EC0004091EC049091EE049F5F9093EE0490316A
:101ED00070F5E92FF0E080E1489F90011124D901CD
:101EE000A05ABE4FAE0FBF1F5C918091EB058523BA
:101EF0008F3009F4C1C080F68B3009F471C008F04E
:101F00004AC0893009F479C08A30F1F6A901405DF0
:101F10005B4FE40FF51F80810E94EA064091EC04BC
:101F20009091EE049F5F9093EE04903190F24F5F9A
:101F30004093EC04463008F4ABCF0E949205811127
:101F400003C080EF8093EB050E94C705882319F03A
:101F500084E080932E040E948704882319F084E093
:101F600080932E040E94DD0481119FC080912F0474
:101F7000883009F4A2C0813009F4A7C090912E04E2
:101F800081119FC0992319F0915090932E04DF91F5
:101F9000CF911F9108958C3009F461C08D3009F004
:101FA00093CFA901405D5B4FE40FF51F80810E9434
:101FB000FC064091EC049091EE0486CF803909F440
:101FC00068C0803A09F080CF20543E4FE20FF31FE3
:101FD00080810E94EA064091EC049091EE0474CF57
:101FE000A901405D5B4FE40FF51F80810E94F00660
:101FF0004091EC049091EE0467CFA901405D5B4FE6
:10200000E40FF51F80810E94AB064091EC04909193
:10201000EE045ACFA90140545E4FE40FF51F8081B2
:102020000E941F064091EC049091EE044DCF205485
:102030003E4FE20FF31F80810E94FC064091EC04AA
:102040009091EE0441CF20543E4FE20FF31F808168
:102050000E94F0064091EC049091EE0435CFA90166
:10206000405D5B4FE40FF51F80810E94F6064091B2
:10207000EC049091EE0428CFC901805D9B4FE80FDE
:10208000F91F80810E941F064091EC049091EE049C
:102090001BCF20543E4FE20FF31F80810E94AB06FE
:1020A0004091EC049091EE040FCF84E080932E04D5
:1020B00080912F04883009F05ECF90912E049130EA
:1020C00069F0815080932F045DCF0E94D90C0E944B
:1020D000CE040E941B0580912F0450CF0E94D90C82
:1020E0000E94CE040E941B0580912F0444CF80E8FB
:1020F00080936100109261000E94D3090E94410DFB
:102100002FEF89E698E1215080409040E1F700C030
:1021100000000E94DF100E94031181110AC02FEFFE
:1021200085EA9EE0215080409040E1F700C0000029
:10213000F2CF0E94050D0E94200DC1E012E0D0EF09
:10214000C093E504C093BC041093E7040E942A07DF
:102150000E9422070E9434071092ED048091E70448
:102160008093A3040E9457150E948915D093EB0514
:102170002FEF85EA9EE0215080409040E1F700C0BB
:10218000000022E348E06BE974E081E00E94061160
:1021900006C08091BC04823099F2813039F0809180
:1021A0002E048111F6CF0E946909F3CF0E94C30E5D
:1021B00080912E048111F5CF0E94500DF0CF81E067
:1021C0008093D70080EA8093D80082E189BD09B46A
:1021D00000FCFDCF80E98093D8001092E0001092BF
:1021E000920488E08093E20084E08093E200789497
:1021F0000E94F5050E94D3050E9410061092E60485
:102200001092E404089580919204089590919204AC
:102210009923E9F09FB7F8943091E400230F80935D
:10222000E9003091E80035FF0DC013C09091E40043
:10223000291769F09FB7F8948093E9003091E8007E
:1022400035FD07C09FBF909192049111EFCF81E0BF
:102250000895442351F0FB019B01240F311D81910E
:102260008093F1002E173F07D1F78AE38093E800AF
:102270009FBF80E008951F920F920FB60F92112416
:102280002F933F934F938F939F938091E1001092F0
:10229000E10083FF0FC01092E90091E09093EB0002
:1022A0001092EC0092E09093ED0098E09093F00093
:1022B0001092920482FF04C08091920481110AC09E
:1022C0009F918F914F913F912F910F900FBE0F9043
:1022D0001F901895909191049F5F89E2989F812D9E
:1022E0001124869586958695392F22E3829F301991
:1022F0001124832F311116C0109291049091E8009F
:1023000095FF12C09091E504992371F02091BC04CF
:1023100021114AC08091920481114EC021E0209386
:10232000E50402C0909391049091BD04992341F279
:10233000809190048F5F80939004837009F0C0CFE8
:1023400081E08093E9008091E80085FFB9CF80911A
:10235000BE048F5F8093BE048913B2CF1092BE0477
:1023600080919B048093F10080919C048093F10004
:1023700080919D048093F10080919E048093F100F0
:1023800080919F048093F1008091A0048093F100DC
:102390008091A1048093F1008091A2048093F100C8
:1023A0008AE38093E8008CCF90919204911154C0FD
:1023B00081E08093E504B8CF8FB7F8943091E400C2
:1023C00094E09093E9009091E80095FD20C08FBFC4
:1023D00080919204882309F4A1CF8091E4003817FA
:1023E00009F49CCF44E00BC08FBF809192048823F6
:1023F00009F494CF8091E400381709F48FCF8FB798
:10240000F8944093E9009091E80095FFEDCF90910A
:10241000F100909393049091F10090939404909123
:10242000F100909395049091F1009093960490910F
:10243000F100909397049091F100909398049091FB
:10244000F100909399049091F10090939A049AE38B
:102450009093E8008FBF63CF9FB7F8943091E4006A
:1024600024E02093E9002091E80025FD20C09FBFD3
:1024700090919204992309F49BCF9091E4009317D3
:1024800009F496CF44E00BC09FBF9091920499232A
:1024900009F48ECF9091E400391709F489CF9FB7E2
:1024A000F8944093E9002091E80025FFEDCF2091BA
:1024B000F100209393042091F100209394042AE3E7
:1024C0002093E8009FBF75CF1F920F920FB60F9217
:1024D00011242F933F934F935F936F937F938F9329
:1024E0009F93AF93BF93EF93FF931092E900809176
:1024F000E80083FF38C07091F1004091F1008091B5
:10250000F1002091F10090E0922B2091F100509188
:10251000F10030E0352B6091F100E091F10052EFD5
:102520005093E800463099F1453009F43EC14930F6
:1025300009F47BC0483009F407C14111B5C180914D
:10254000E80080FFFCCF723809F484C180E08093FA
:10255000F1001092F1008EEF8093E80007C0211582
:10256000310509F00AC181E28093EB00FF91EF9100
:10257000BF91AF919F918F917F916F915F914F919B
:102580003F912F910F900FBE0F901F9018958115BE
:1025900041E0940709F455C18115F2E09F0709F461
:1025A00063C1811542E2940709F425C18115F1E266
:1025B0009F0709F462C1811523E0920709F061C207
:1025C000A4E0B0E024E048E751E0862F90E09E2BA5
:1025D0008F3F910509F020F48A179B0708F4262FF6
:1025E0006EEF8091E8008570E1F38091E80082FD54
:1025F000BDCF322F293008F41FC138E0FA01832FF4
:1026000094919093F100815031968111F9CF8FEF21
:10261000830F90E00196480F591F231B6093E80039
:102620002111DFCF3830E9F2A1CF71118FC0809333
:1026300092048EEF8093E80081E08093E900E2E469
:10264000F1E0E491E093EB00EE2309F463C1E3E4ED
:10265000F1E0E491E093EC00E4E4F1E0E491E09354
:10266000ED0025E431E082E08093E900C9010196A4
:10267000F90144914093EB00442351F0FC01849113
:102680008093EC00C9010396319624912093ED00CC
:1026900023E02093E9009C012F5F3F4FFC01449110
:1026A0004093EB00442359F0F90124912093EC006E
:1026B0009C012D5F3F4F319684918093ED0084E023
:1026C0008093E900C9010196F90144914093EB0020
:1026D000442351F0FC0184918093EC00C9010396DE
:1026E000319624912093ED0025E02093E9009C0190
:1026F0002F5F3F4FFC0144914093EB00442359F07E
:10270000F90124912093EC009C012D5F3F4F3196FD
:1027100084918093ED0086E08093E900C9010196E1
:10272000F90144914093EB00442341F0FC01849172
:102730008093EC00319624912093ED008EE78093F6
:10274000EA001092EA0012CF7038D1F1211531055C
:10275000A1F4713A09F4E1C0713209F004CF4930B3
:10276000D9F14A3009F485C14B3009F0FCCE809391
:10277000BF048EEF8093E800F9CE2230310509F4D2
:1027800044C02130310509F0EECE713A09F412C18E
:10279000713209F0E8CE4B3009F465C14A3009F0D6
:1027A000E2CE8EEF8093E800E1CE2EEF2093E8009A
:1027B0002091E80020FFFCCF80688093E300D6CE14
:1027C0008091E80080FFFCCF809192048093F1001B
:1027D0008EEF8093E800CACE8091E80082FFFCCFA4
:1027E0008091F1008093BB048BEF8093E8008EEF23
:1027F0008093E800BBCE2115310509F047C0A0E465
:10280000B0E020E44DE752E0E0CE713A09F403C1B4
:10281000713209F0A8CE4A3021F2493009F0A3CE36
:102820008091E80082FFFCCF8BEF8093E8008091DD
:10283000E80080FFFCCFB5CF2111E0CE6093E80027
:1028400095CE232B09F08FCEA2E1B0E022E14DEB33
:1028500052E0BBCE2093E9008091EB0085FB8827F6
:1028600080F91092E90073CE232B09F07CCEABE502
:10287000B0E02BE54CE751E0A8CE21153105E1F59C
:10288000A9E0B0E029E04EE851E09FCE22303105CA
:1028900009F48AC02130310509F065CEA4E8B0E022
:1028A00024E849EF51E091CE542F5D7F513009F07B
:1028B0004DCF723009F04ACF009709F050CE522F19
:1028C0005F776FEF650F663008F049CE8EEF80932B
:1028D000E8005093E900433009F445CE89E1809344
:1028E000EB0081E090E001C0880F5A95EAF78093F1
:1028F000EA001092EA003ACE2230310509F4ADC068
:102900002130310509F02FCEA9E0B0E029E047EAF7
:1029100051E05BCE23E431E0A6CE413089F0423075
:10292000B9F1433009F01FCE8091E80080FFFCCF61
:102930008091BF048093F1008EEF8093E80016CE63
:102940008091E80080FFFCCF80919B048093F10090
:1029500080919C048093F10080919D048093F1000C
:1029600080919E048093F10080919F048093F100F8
:102970008091A0048093F1008091A1048093F100E4
:102980008091A2048093F1008EEF8093E800EECD59
:102990008091E80080FFFCCF8091BD048093F1001E
:1029A0008EEF8093E800E2CDA2E2B0E022E247EDB4
:1029B00051E00BCE413079F0433009F0D4CD809115
:1029C000E80080FFFCCF8091D6048093F1008EEF69
:1029D0008093E800CBCD8091E80080FFFCCF809110
:1029E000C1048093F1008091C2048093F100809132
:1029F000C3048093F1008091C4048093F10080911E
:102A0000C5048093F1008091C6048093F1008EEF9D
:102A10008093E800ABCD413009F0A5CD28E03EEF32
:102A20008091E800982F9570D9F382FD9FCD922F69
:102A3000293070F098E0892F1092F1008150E1F771
:102A4000291B3093E8002111EBCF983049F38ECD4C
:102A50002111F1CF3093E80089CDA9E0B0E029E061
:102A600040EC51E0B2CD8093D6048EEF8093E80025
:102A70007DCD9093BD041092BE048EEF8093E8004C
:102A800075CD813043E0940751F08230934009F0D6
:102A90006ACDACE1B0E02CE140E551E096CDACE090
:102AA000B0E02CE04CE651E090CD219A08958CEFF7
:102AB000EFEEF4E0DF011D928A95E9F708959C019D
:102AC000220F331F820F931FFC01E151FB4F6183E3
:102AD00008959C01220F331F820F931FFC01E151C7
:102AE000FB4F608308959C01220F331F820F931FB9
:102AF000FC01E151FB4F62830895FC01EE0FFF1FC3
:102B00008E0F9F1FFC01E151FB4F408361832283A5
:102B10000895F89425B12D7F95B19260EFEEF4E021
:102B2000819138E095B9000000C087FF25B9880F72
:102B3000000000C000C000C025B900C03A9591F760
:102B400085E0EB3EF80761F778940895EE0FFF1FDC
:102B50000590F491E02D0994A29FB001B39FC001AC
:102B6000A39F700D811D1124911DB29F700D811DB9
:102B70001124911D0895F999FECF92BD81BDF89A57
:102B8000992780B50895A8E1B0E042E050E00C94A8
:102B9000D0150E94DE15272F0C94DF15DC01CB0128
:102BA000FC01F999FECF06C0F2BDE1BDF89A31965D
:102BB00000B40D9241505040B8F70895262FF9996E
:102BC000FECF1FBA92BD81BD20BD0FB6F894FA9A10
:0C2BD000F99A0FBE01960895F894FFCF0B
:102BDC0080808080808080808080808080808080E9
:102BEC008080808080808080808080808000808059
:102BFC008080808080808080808080808000808049
:102C0C0080808080808080808080808000008080B8
:102C1C0080808080808080808080800000808080A8
:102C2C008080800000800000008080800080808098
:102C3C001010101010101010101010101010101088
:102C4C001010101010101010101010101000101088
:102C5C001010101010101010101010101000101078
:102C6C001010101010101010101010100000101078
:102C7C002010101010101010101010000020101048
:102C8C0020202000001000000020602000101010F8
:102C9C00293A3B3C3D3E3F40414243444546484C2B
:102CAC00351E1F20212223242526272D2E002A4ABB
:102CBC002B141A0815171C180C12132F3000314B3B
:102CCC0039041607090A0B0D0E0F33340000284E79
:102CDC00021D1B0619051110363738000020524D05
:102CEC0001080400002C0000004000100050514F5F
:102CFC001514131211100A090C0B171608070605E8
:102D0C00040F0E0D0302EE222EE21053D000767249
:102D1C0000785A0F81323C9A2258AA03BBE209B9B7
:102D2C00A214B25743B81872C70EDBED20EDBB18D6
:102D3C00F79412F33F01EE222EE21053D00076727C
:102D4C0000785A0F81323C9A2258AA03BBE209B987
:102D5C00A214B25743B81872C70EDBED20EDBB18A6
:102D6C00F33F01EE222ED5036FA70077660179455C
:102D7C00268E2747A1118DC802BFDB10B3672AB579
:102D8C003A4FBA08B5DF19E1DF1EF6A114F33F0183
:102D9C00EE222ED200768A007761077C3B32942695
:102DAC004AA209A8D705BCC212B25B39B7265ABED3
:102DBC000ACFE81EE7CE1BF33F01EE222EC10076B0
:102DCC00670078501A872B439E1A70B801C0E50D26
:102DDC00B6811DB34C4CBA0C93D314DDEA20F79496
:102DEC0012F33F01EE222EDB0963A7007761077C0B
:102DFC0043B81872C70EDBED20EDBB18F79412F335
:102E0C003F01000102030405060708090A0B0C0D1B
:102E1C000E0F101112131415161718191A1B1C1D4E
:102E2C001E1F202122232425262728292A2B2C2D3E
:102E3C002E2F303132333435363738393A3B3C3D2E
:102E4C003E3F404142434445464748494A4B4C4D1E
:102E5C004E4F505152530D001D002C003C004C00A5
:102E6C005C006C007C008C009C00AB00BB00CB00B9
:102E7C00DB00EB00FB000D001D002C003C004C00A7
:102E8C005C006C007C008C009C00AB00BB00CB0099
:102E9C00DB00FB000D0025003400440054006400EE
:102EAC00740084009400A400B300C300D300E300BA
:102EBC00FB000D002900380048005800680078001D
:102ECC0088009800A800B700C700D700FB000D00D1
:102EDC003000400050006000700080009000A000A6
:102EEC00AF00BF00CF00EB00FB000D002100340051
:0E2EFC004800AB00BB00CB00DB00EB00FB008E
:00000001FF
