:100000000C9468040C9485040C9485040C94850469
:100010000C9485040C9485040C9485040C9485043C
:100020000C9485040C9485040C948A130C94B314DA
:100030000C9485040C9485040C9485040C9485041C
:100040000C9485040C9485040C9485040C9485040C
:100050000C9485040C9485040C9485040C948504FC
:100060000C9485040C9485040C9485040C948504EC
:100070000C9485040C9485040C9485040C948504DC
:100080000C9485040C9485040C9485040C948504CC
:100090000C9485040C9485040C9485040C948504BC
:1000A0000C9485040C9485040C948504140A240A89
:1000B000000A2C0A0A0A1C0AF609300A0F0A200A4A
:1000C000FB09280A050A180AF109EC09D809E2090E
:1000D000CE09E709D309DD09C909C409C009C30A62
:1000E000D30AAF0ADB0AB90ACB0AA50ADF0ABE0A9D
:1000F000CF0AAA0AD70AB40AC70AA00A9B0A870A23
:10010000910A7D0A960A820A8C0A780A730A6F0A93
:10011000650B620B5F0B5C0B590B560B530B500BB3
:100120004D0B4A0B470B440B410B3E0B3B0B380B63
:10013000350B320B2F0B2C0B290B260B230B200B13
:10014000680B01C10601C10601C10601C00600001D
:100150001C037A00690061006E005F006B0065009F
:10016000790062006F006100720064000C037A0085
:10017000690061006E0031000403090409025B009C
:10018000030100A03209040000010301010009215C
:100190001101000122400007058103080001090444
:1001A0000100010301020009211101000122840064
:1001B0000705820308000109040200020300000091
:1001C0000921110100012222000705830308000113
:1001D000070504030800010631FF0974A101097530
:1001E000150026FF0095087508810209761500267E
:1001F000FF00950875089102C005010902A101855B
:10020000010901A10005091901290515002501753C
:1002100001950581027503950181030501093009E6
:10022000311581257F7508950281060938158125CC
:100230007F35004500750895018106050C0A3802D6
:100240001581257F750895018106C0C005010980CB
:10025000A1018502150126B700190129B77510956E
:10026000018100C0050C0901A10185031501269C2F
:100270000219012A9C02751095018100C00501092F
:1002800006A10175019508050719E029E715002564
:10029000018102950175088103950575010508190D
:1002A00001290591029501750391039506750815BD
:1002B0000026FF000507190029FF8100C012010078
:1002C0000200000008C43260F000020102000100D8
:1002D000000001010102030404050708090A0C0DCE
:1002E0000F1112141617191B1D1F2122242628294D
:1002F0002B2D2E3031333435363738393A3A3B3BB3
:100300003C3C3C3C3C3C3D3D3E3E3F404142434406
:100310004647494A4C4D4F5152545658595B5D5FC0
:100320006062646567696A6B6D6E6F707172737419
:100330007475757676767676767676767676767661
:100340007676767676767677777777777777777744
:100350007777777777777777787878787878787825
:100360007878787878787878787878787879797A09
:100370007A7B7B7C7D7E7F7F808283848586878974
:100380008A8B8C8E8F9091929495969798999A9B40
:100390009C9D9D9E9F9FA0A0A0A1A1A1A1A1A1A263
:1003A000A2A3A3A4A5A6A7A9AAACADAFB0B2B4B6A8
:1003B000B8BABCBEC0C2C4C6C8CACCCED0D2D4D6CD
:1003C000D8D9DBDCDEDFE0E1E2E3E3E4E4E5E5E528
:1003D000E5E4E4E3E2E0DFDDDBD8D6D3D0CDCAC686
:1003E000C2BFBBB7B3AFABA6A29E9A95918D8985CC
:1003F000817D7A7673706D6A676563615F5E5C5B51
:100400005B5A5A5A5A595958575655545351504E87
:100410004C4A484644423F3D3A383633302E2B2929
:100420002724221F1D1B1917151312100F0D0C0B5B
:100430000A090908080808080808080909090A0A31
:100440000A0B0B0C0D0D0E0E0F10101112131314BE
:10045000151516171818191A1A1B1B1C1D1D1E1E00
:100460001E1F1F1F20202020202020202020202091
:100470001F1F1F1F1F1E1E1E1E1D1D1D1C1C1C1BA3
:100480001B1A1A1A191919181818171717161616E9
:100490001615151515151414141414141414141415
:1004A0001413131313121212111110100F0F0E0E3A
:1004B0000D0D0C0B0B0A0A090808070706060504B0
:1004C00004030303020201010101000000000039DE
:1004D00039393939383838373736363534343332B4
:1004E0003231302F2E2D2C2B2B2A2928272625245C
:1004F0002323222120201F1E1E1D1D1C1C1C1B1B14
:100500001B1B1B1B1B1B1B1A1A1A1919191818174E
:10051000161615141413121111100F0E0D0D0C0BCD
:100520000A0908080706060504040303020201017C
:1005300001000000000000000000000000000000BA
:1005400000000000000000000000000000000000AB
:10055000000000000000000000000000000000009B
:100560000000000000000000000000000101020384
:1005700004050607080A0B0D0F11131517191B1D8B
:100580001F212426282A2C2E31333537383A3C3D7A
:100590003F40424344454646474748484848494902
:1005A0004A4B4C4E4F515356585B5D6063666A6DC3
:1005B0007074787B7F83868A8E9195989C9FA2A584
:1005C000A8ABAEB0B3B5B7B9BBBCBDBEBFC0C0C0B1
:1005D000C0C0C0C0C0C0BFBFBFBFBEBEBEBEBDBD2D
:1005E000BDBCBCBBBBBBBABAB9B9B8B8B8B7B7B673
:1005F000B6B6B5B5B4B4B4B4B3B3B3B3B3B2B2B2C0
:10060000B2B2B2B2B2B2B2B2B2B2B2B3B3B3B3B3C5
:10061000B3B4B4B4B4B4B5B5B5B5B6B6B6B6B7B789
:10062000B7B7B7B8B8B8B8B9B9B9B9B9B9B9BABA42
:10063000BABABABABABABABABABBBBBBBCBDBDBE0B
:10064000BFC0C1C2C4C5C6C7C9CACCCDCFD0D2D421
:10065000D5D7D8DADBDDDEE0E1E2E3E5E6E7E8E99D
:10066000EAEAEBECECECEDEDEDEDEDEDECECEBEACC
:10067000E9E8E7E5E4E2E1DFDDDBD9D7D4D2D0CEAB
:10068000CBC9C6C4C2BFBDBBB8B6B4B2B0AEACAACB
:10069000A9A7A6A5A3A2A1A1A0A09F9F9F9F9F9E3F
:1006A0009D9C9B9A99979593918F8D8A888582803E
:1006B0007D7A7773706D6A6764615E5B58555250DE
:1006C0004D4B48464442413F3E3C3B3B3A3939F36F
:1006D000F3F3F3F3F3F3F3F3F2F2F2F2F2F2F2F1F3
:1006E000F1F1F1F1F0F0F0F0F0EFEFEFEFEFEEEE0F
:1006F000EEEEEEEDEDEDEDEDEDEDECECECECECEC2D
:10070000ECECECECECECECEBEBEBEBEAEAE9E9E83B
:10071000E8E7E6E6E5E4E4E3E2E1E0E0DFDEDDDCB5
:10072000DCDBDAD9D9D8D7D7D6D6D5D5D4D4D3D35C
:10073000D3D2D2D2D2D2D2D2D1D1D0CFCECCCBC9B9
:10074000C7C5C3C0BEBBB9B6B3B0ADA9A6A3A09C74
:10075000999693908C898683807E7B79767472706B
:100760006E6D6B6A69686867676767676666656507
:10077000646362615F5E5D5B5A58565553514F4DDD
:100780004B4947454342403E3C3A38373533323097
:100790002F2E2D2C2B2A29282827272727272727C4
:1007A00026262625252423232221201F1E1D1C1B2F
:1007B0001A1918171614131211100F0E0D0B0A091F
:1007C00008080706050404030302020201010101EF
:1007D00001010101010202020203030304040405F2
:1007E0000506060707080809090A0A0B0B0C0C0D79
:1007F0000D0E0E0F0F0F10101011111111121212F9
:1008000012121212121213131415151617181A1B9E
:100810001C1E1F2122242628292B2D2F313335364B
:10082000383A3C3E3F414244454748494A4B4C4D8B
:100830004D4E4E4F4F4F4F4F505152535557595B9E
:100840005D606366696D7174787C8084898D919632
:100850009A9EA2A7ABAFB3B7BABEC2C5C8CBCED023
:10086000D2D4D6D8D9DADBDCDCDCDCDCDCDCDDDDE8
:10087000DDDEDEDFDFE0E0E1E2E2E3E4E4E5E6E75F
:10088000E8E9E9EAEBECEDEDEEEFF0F0F1F2F2F38E
:10089000F4F4F5F5F5F6F6F6F7F7F7F7F7F7F7F7F7
:1008A000F7F7F7F7F7F7F7F7F6F6F6F6F6F6F6F6E0
:1008B000F6F6F5F5F5F5F5F5F5F5F4F4F4F4F4F4EC
:1008C000F4F4F4F4F3F3F3F3F3F3F3F3F3F3F300E7
:1008D00011241FBECFEFDAE0DEBFCDBF13E0A0E0F2
:1008E000B1E0EAE7F0E302C005900D92A637B10748
:1008F000D9F724E0A6E7B3E001C01D92A13EB207FC
:10090000E1F70E94E30C0C943B180C9400008091DA
:10091000E7039091CE03981731F08093CE0381E0E6
:100920008093F30308958091E8039091D003981782
:1009300031F08093D00381E08093F3030895809198
:10094000E9039091D103981719F08093D103E7CF71
:100950008091EA039091D203981719F08093D20303
:10096000DECF8091EB039091D303981719F0809319
:10097000D303D5CF8091EC039091D403981719F04D
:100980008093D403CCCF8091ED039091D503981739
:1009900019F08093D503C3CF80E008958091F303CD
:1009A000811102C081E008951092F30322E348E030
:1009B0006EEC73E081E00C945113809100049091EF
:1009C000F503981729F18093F50381E02091050440
:1009D000309106044091FB035091FC0342175307EA
:1009E000C9F03093FC032093FB032091070430915E
:1009F00008048091FE039091FF0382179307C9F0CA
:100A00003093FF032093FE0383E080930A0408954C
:100A100080E0DCCF20910704309108044091FE0370
:100A20005091FF034217530759F7882381F381E060
:100A3000ECCF82E0EACFCF93DF9380910A048370FA
:100A400080930A04811104C081E0DF91CF91089561
:100A50000E944E138823C1F38FB7F894C091E4002D
:100A6000CE5C92E09093E9009091E80095FD14C06F
:100A7000D2E00CC08091E400C81731F38FB7F8942E
:100A8000D093E9009091E80095FD06C08FBF0E94C9
:100A90004E138111EFCFD8CF90910A04923099F183
:100AA000933011F19130D1F410920A049091F40333
:100AB0009093F1009091F5039093F1009091F603DB
:100AC0009093F1009091F7039093F1009091F803C7
:100AD0009093F1009091F9039093F1009AE3909331
:100AE000E8008FBF80E0B1CF10920A049091FD031F
:100AF0009093F1009091FE039093F1009091FF0389
:100B00009093F100EBCF10920A049091FA03909326
:100B1000F1009091FB039093F1009091FC0390936E
:100B2000F100DCCF8091000481112FC08091050479
:100B300090910604892B49F580910704909108044F
:100B4000892B19F58091E80381111FC08091E90379
:100B500081111BC08091EA03811117C08091EB03C2
:100B6000811113C08091EC0381110FC08091ED03BE
:100B700081110BC08091E703811107C081E0909142
:100B80001904911103C080E0089581E008958091D7
:100B9000190490911704981721F08093170481E0AD
:100BA000089580E00895CF93DF938CE0EBE0F4E0CC
:100BB000DF01C82F1D92CA95E9F7E4EFF3E0DF01EA
:100BC0001D928A95E9F7A0E0B4E08BE0ED0119925F
:100BD0008A95E9F781E0808392E0968393E091879C
:100BE00019968C93DF91CF91089588E0EFEDF3E0B3
:100BF000DF01982F1D929A95E9F7EEECF3E0DF0103
:100C00001D928A95E9F7E7EEF3E08DE0DF011D9292
:100C10008A95E9F781E0808783878DE7818708954A
:100C200088E0E7EDF3E0DF01982F1D929A95E9F750
:100C3000E6ECF3E0DF011D928A95E9F70895843030
:100C400031F090911904892B8093190408959091A3
:100C5000CE03992389F19091E803953391F3209184
:100C6000E903253371F33091EA03353351F34091B1
:100C7000EB03453331F35091EC03553311F360919D
:100C8000ED036533F1F2992309F447C0222309F4F7
:100C90004AC0332309F450C0442309F453C05523F8
:100CA00009F453C06111CDCF25E030E0F901E951DD
:100CB000FC4F95E39183C5CF9091E803993209F2F7
:100CC0002091E903293209F4BCCF3091EA0339328B
:100CD00009F4B7CF4091EB03493209F4B2CF5091F8
:100CE000EC03593209F4ADCF6091ED03693209F498
:100CF000A8CF9923A9F02223C9F03323D1F04423AC
:100D0000F1F0552329F161119CCF25E030E0F90184
:100D1000E951FC4F99E2918394CF20E030E0C6CFB7
:100D200020E030E0F4CF21E030E0C0CF21E030E03F
:100D3000EECF22E030E0EBCF22E030E0B7CF23E08F
:100D400030E0E5CF23E030E0B1CF24E030E0AECFBB
:100D500024E030E0DCCF9091E803891711F1209175
:100D6000E9038217F1F03091EA038317D1F0409143
:100D7000EB038417B1F05091EC03851791F060916B
:100D8000ED03681771F0992371F02223A1F033234A
:100D9000A9F04423B1F05523B9F06623C1F080E0F7
:100DA000089581E0089520E030E0F901E951FC4F19
:100DB000818381E0089521E030E0F7CF22E030E048
:100DC000F4CF23E030E0F1CF24E030E0EECF25E0B7
:100DD00030E0EBCFE7EEF3E09081892B808308953C
:100DE000E0E0F4E09081892B8083089590E0909377
:100DF0000604809305040895982F907F9039D9F0C8
:100E000038F0903C91F0903E81F0903B71F0089565
:100E1000903221F0903879F09111F9CF90E0926002
:100E20009093080480930704089590E09093080439
:100E300080930704089590E0916090930804809354
:100E400007040895E0E0F4E010821682158210860F
:100E50001782089586E0E8EEF3E0DF011D928A959F
:100E6000E9F71092E7030895CF92DF92EF92FF9295
:100E70000F931F93CF93DF9380E090E00E941218AE
:100E8000EC0182E090E00E9412188C0184E090E076
:100E90000E9412187C0186E090E00E9412186C01FA
:100EA00088E090E00E9412182A9749F0DF91CF91D4
:100EB0001F910F91FF90EF90DF90CF9008950F302A
:100EC0001105A1F72EE1E216F10481F7E9E6CE164D
:100ED000D10461F7843B910549F78AE090E00E94D4
:100EE0000A188093F1018BE090E00E940A18809329
:100EF000F2018CE090E00E940A188093F3018DE0EB
:100F000090E00E940A188093F4018EE090E00E9425
:100F10000A188093F5018FE090E00E940A188093F0
:100F2000E20180E190E00E940A188093E30181E1F0
:100F300090E00E940A188093E40182E190E00E9410
:100F40000A188093E50183E190E00E940A188093DB
:100F5000E60184E190E00E940A188093E70185E1B0
:100F600090E00E940A188093E80186E190E00E94D8
:100F70000A188093E90187E190E00E940A188093A3
:100F8000EA0188E190E00E940A188093EB0189E170
:100F900090E00E940A188093EC018AE190E00E94A0
:100FA0000A188093ED018BE190E00E940A1880936B
:100FB000EE018CE190E00E940A188093EF018DE130
:100FC00090E00E940A188093F00106E911E0C0E069
:100FD000D0E0CE014E960E940A18F8018083CE011F
:100FE0004F960E940A18F8018183CE0180960E94D4
:100FF0000A18F8018283CE0181960E940A18F8012E
:101000008383CE0182960E940A18F8018483CE0160
:1010100083960E940A18F8018583CE0184960E9467
:101020000A18F8018683CE0185960E940A18F801F5
:101030008783CE0186960E940A18F8018087CE0128
:1010400087960E940A18F8018187CE0188960E942F
:101050000A18F8018287CE0189960E940A18F801C1
:101060008387CE018A960E940A18F8018487CE01F0
:101070008B960E940A18F8018587CE018C960E94F3
:101080000A18F80186872F96015F1F4FCB34D105D0
:1010900009F09FCF0BE411E0C0E0D0E0CE0187590A
:1010A0009F4F0E940A18F8018083CE0186599F4FF6
:1010B0000E940A18F8018183CE0185599F4F0E9432
:1010C0000A18F8018283CE0184599F4F0E940A18A2
:1010D000F8018383CE0183599F4F0E940A18F801BB
:1010E0008483CE0182599F4F0E940A18F80185839C
:1010F000CE0181599F4F0E940A18F8018683CE01C4
:1011000080599F4F0E940A18F8018783CE018F589B
:101110009F4F0E940A18F8018087CE018E589F4F7A
:101120000E940A18F8018187CE018D589F4F0E94B6
:101130000A18F8018287CE018C589F4F0E940A1826
:10114000F8018387CE018B589F4F0E940A18F8013F
:101150008487CE018A589F4F0E940A18F80185871C
:10116000CE0189589F4F0E940A18F80186872F9652
:10117000015F1F4FCB34D10509F090CF00E011E0A3
:10118000C0E0D0E0CE018C549F4F0E940A18F801B5
:101190008083CE018B549F4F0E940A18F8018183EF
:1011A000CE018A549F4F0E940A18F8018283CE0113
:1011B00089549F4F0E940A18F8018383CE018854F6
:1011C0009F4F0E940A18F8018483CE0187549F4FD5
:1011D0000E940A18F8018583CE0186549F4F0E9411
:1011E0000A18F8018683CE0185549F4F0E940A1881
:1011F000F8018783CE0184549F4F0E940A18F8019A
:101200008087CE0183549F4F0E940A18F80181877E
:10121000CE0182549F4F0E940A18F8018287CE01A6
:1012200081549F4F0E940A18F8018387CE01805491
:101230009F4F0E940A18F8018487CE018F539F4F59
:101240000E940A18F8018587CE018E539F4F0E9495
:101250000A18F80186872F96015F1F4FCB34D105FE
:1012600009F090CFC6EFD1E00FEF10E0065F11401C
:10127000C8018C0F9D1F0E940A188993F2E0C63B9B
:10128000DF07B1F78FEB91E00E940A1880931A04F0
:101290000DCECF93DF938091180481111BC0C091B4
:1012A000C603D091C703CF3F21EFD207B1F0CF3FA4
:1012B00082EFD80709F44AC08091EF038823B9F080
:1012C00088E0E6ECF3E0DF011D928A95E9F781E022
:1012D00080931804DF91CF9108958091EF038130BE
:1012E00009F43EC08111ECCF0E94170D1DC00E9471
:1012F000170DCE3FA3E0DA0748F4F999FECF6091CD
:10130000C8037091C903CE010E941818CE0102963D
:101310008E3FB3E09B0740F4F999FECF6091CA037A
:101320007091CB030E941818CE0104968E3F23E0E3
:10133000920718F00E941C0DC3CFF999FECF60915F
:10134000CC037091CD030E941818F4CF8091EF0365
:101350008111B6CF0E941C0D82E08093EF03B0CFC5
:101360001092EF03ADCF80E885BF85BF089590E070
:101370008931910540F4FC01EA5AFF4F0C94F517AE
:101380006111A2C06E980895662309F46DC0559A44
:101390000895662309F46AC0549A0895662309F4EF
:1013A0006DC0859A0895662309F464C0819A0895F2
:1013B000662309F467C0879A0895662309F458C024
:1013C000809A0895662309F45BC0869A089566237F
:1013D00009F452C0849A0895662309F455C0269AE8
:1013E0000895662309F460C0259A0895662309F4D8
:1013F00053C0519A0895662309F45EC03F9A089538
:10140000662309F445C0229A0895662309F450C062
:10141000579A0895662309F443C0279A08956623CE
:1014200009F44EC0539A0895662381F1209A0895D5
:101430006623E1F1249A0895662381F1509A089574
:101440006623E1F13E9A0895662321F1219A0895D9
:10145000662381F1569A0895662321F1239A08950F
:10146000662381F1529A08955598089554980895E5
:10147000809808958198089584980895859808958E
:101480008698089587980895269808952098089535
:101490002298089521980895519808955098089594
:1014A00027980895239808952598089524980895D5
:1014B00057980895569808953F9808953E9808952E
:1014C00053980895529808956E9A089590E089313E
:1014D000910540F4FC01E159FF4F0C94F51761119F
:1014E000A2C076980895662309F46DC05D9A0895A8
:1014F000662309F46AC05C9A0895662309F46DC0F6
:101500008D9A0895662309F464C0899A0895662324
:1015100009F467C08F9A0895662309F458C0889A21
:101520000895662309F45BC08E9A0895662309F432
:1015300052C08C9A0895662309F455C02E9A0895D6
:10154000662309F460C02D9A0895662309F453C0F8
:10155000599A0895662309F45EC0479A0895662350
:1015600009F445C02A9A0895662309F450C05F9A89
:101570000895662309F443C02F9A0895662309F459
:101580004EC05B9A0895662381F1289A08956623D8
:10159000E1F12C9A0895662381F1589A0895662303
:1015A000E1F1469A0895662321F1299A0895662368
:1015B00081F15E9A0895662321F12B9A089566239E
:1015C00081F15A9A08955D9808955C9808958898D5
:1015D0000895899808958C9808958D9808958E9807
:1015E00008958F9808952E980895289808952A9818
:1015F00008952998089559980895589808952F980E
:1016000008952B9808952D9808952C9808955F9823
:1016100008955E98089547980895469808955B98B0
:1016200008955A980895769A089590E08931910521
:1016300010F080E00895FC01E857FF4F0C94F51777
:1016400089B18072089589B1807108958FB18170D8
:1016500008958FB1827008958FB1807108958FB110
:10166000807208958FB1807408958FB18078089545
:1016700083B18074089583B18072089583B18071BD
:10168000089589B18078089589B18074089586B1EC
:101690008078089586B18074089589B1887008951E
:1016A00089B18470089589B18270089589B181707B
:1016B000089583B18078089583B18870089583B1C7
:1016C0008470089583B18270089583B18170089504
:1016D0008CB1807408953F924F925F926F927F9287
:1016E0008F929F92AF92BF92CF92DF92EF92FF9232
:1016F0000F931F93CF93DF9300D000D01F92CDB7ED
:10170000DEB78C010E9412185C01892B09F404C118
:101710000E5F1F4F0F3F23E0120708F0FDC0E12CC2
:10172000F12CA1EE4A2EA3E05A2EB6E06B2E80E4F7
:10173000382E6E0136E0C30ED11C92E6792E10C011
:10174000411101C1FFEFEF1AFF0AAE14BF0409F403
:10175000E3C00E5F1F4F0F3F83E0180708F0DCC0A7
:10176000C8010E941218AC01852F552349F39A0134
:10177000ADECBCEC0E94FB17FC01F695E795F695E5
:10178000E795F695E7959F01220F331FCF01880F4C
:10179000991F880F991F880F991F820F931F9A0115
:1017A000281B390B2D839F010E94FB179695879567
:1017B00096958795969587959C01220F331F880FE4
:1017C000991F880F991F880F991F820F931FE81B7D
:1017D000F90BEC839A013695279536952795ABE75B
:1017E000B4E10E94FB17FC01F695E7959F01ADEC73
:1017F000BCEC0E94FB1796958795969587959695D4
:1018000087959C01220F331F880F991F880F991FFE
:10181000880F991F820F931FE81BF90BEB839A0126
:10182000369527953695279536952795A5ECB0E200
:101830000E94FB17FC01F295E295EF70EF27FF7015
:10184000EF279F01ADECBCEC0E94FB1796958795A6
:1018500096958795969587959C01220F331F880F43
:10186000991F880F991F880F991F820F931FE81BDC
:10187000F90BEA839A01329522952F7023273F7046
:101880002327A7E4B3E00E94FB17969587959695CA
:101890008795969587958983F201262D11922A9531
:1018A000E9F73092DF0322E348E06FED73E081E077
:1018B0000E945113CE0101964C017092E103F40194
:1018C00081914F01882319F0885A8093E10322E324
:1018D00048E06FED73E081E00E9451131092E10344
:1018E00022E348E06FED73E081E00E945113C814D9
:1018F000D90419F71092DF031092E10322E348E0C4
:101900006FED73E081E00E945113FFEFEF1AFF0AC1
:10191000AE14BF0409F01DCF0F900F900F900F90E1
:101920000F90DF91CF911F910F91FF90EF90DF907B
:10193000CF90BF90AF909F908F907F906F905F906F
:101940004F903F900895F201262D11922A95E9F7C4
:1019500047FD0DC08093DF034F774093E10322E3FF
:1019600048E06FED73E081E00E945113C3CF80E245
:10197000F1CF9091170490FF06C02091D60380E22A
:1019800082278093D60391FF06C02091D60380E181
:1019900082278093D60393FD10C0892F807295FF14
:1019A0000BC08091D6038F5F982F9F70933008F003
:1019B000807F8093D60381E0089585EC91E00E94BA
:1019C0006B0B81E008950C94CA120F931F93CF9371
:1019D000DF93C2EED1E08E0160E089910E94B709E9
:1019E00061E0F80180810E94660AF1E0C13FDF07F3
:1019F00091F7DF91CF911F910F9108950F931F934E
:101A0000CF93DF93C1EFD1E08E0160E089910E9416
:101A1000B70961E0F80180810E94660AF1E0C63FE3
:101A2000DF0791F7DF91CF911F910F91089560E04B
:101A30008091E1010C94660A61E08091E1010C94CF
:101A4000660A0E94A4170E94A6170E94D81761E098
:101A50008091E1010E94B70961E08091E1010E945B
:101A6000660A80E890E090931E0480931D04089518
:101A7000EF92FF920F931F93CF93DF9380339105E3
:101A8000D1F18034910509F47AC080319105C9F013
:101A9000809709F455C0E6EFF2E026E733E0808155
:101AA00091818115924010F01182108232962E178A
:101AB0003F07A9F7DF91CF911F910F91FF90EF9012
:101AC0000895E6EFF2E080819181811522E092078E
:101AD00020F01182108280E090E001968193919332
:101AE00043E0E637F40779F7DF91CF911F910F912B
:101AF000FF90EF900895C6EFD2E006EB12E0E88188
:101B0000F981E11522E0F20720F019821882E0E065
:101B1000F0E0E153FB4F649160931C04F801819164
:101B20008F0190E00E94B8172296F3E0C637DF07D6
:101B300031F7DF91CF911F910F91FF90EF900895B2
:101B4000C6EFD2E006EB12E0E881F981E11582E010
:101B5000F80720F019821882E0E0F0E0E153FD4F31
:101B6000649160931B04F80181918F0190E00E94C1
:101B7000C2172296F3E0C637DF0731F79BCFC6EFD7
:101B8000D2E006EB12E086E7E82E83E0F82EE8814B
:101B9000F981E11582E0F80720F019821882E0E06F
:101BA000F0E0E153F94F649160931F04F8018191D3
:101BB0008F0190E00E94AE172296EC16FD0639F7D1
:101BC00079CF2F923F924F925F926F927F928F9236
:101BD0009F92AF92BF92CF92DF92EF92FF920F93BC
:101BE0001F93CF93DF93CDB7DEB72E970FB6F89440
:101BF000DEBF0FBECDBF61E08091E1010E94660AA9
:101C000080911A048093D6030E94A6170E94D817C9
:101C10008CE391E09C878B87E4EBF3E0FA87E9871C
:101C20008FE490E098878F8322242A9440E8442E02
:101C3000512C6F8078849FE0691A7108FA83E983D8
:101C40008B859C859C838B83EB81FC818191FC83BC
:101C5000EB838777D9F1E981FA812082812C912C5D
:101C60000FC080911D0490911E04019790931E0453
:101C700080931D048FEF881A980A6814790430F154
:101C80008FEA94E00197F1F700C0000080911D04F5
:101C900090911E048036910509F49BC080911D042B
:101CA00090911E048037910509F490C080911D0425
:101CB00090911E04892BA9F650921E0440921D0497
:101CC0008FEF881A980A68147904D0F6FFEF6F1A1C
:101CD0007F0A89819A8101969A838983EF81F885A9
:101CE0006E167F0609F0B0CFF3013196F887EF83C7
:101CF0008B859C850F979C878B87E985FA853F9715
:101D0000FA87E9878F8198858435910509F091CF0D
:101D100091EFA92EB12C23EC622E23E0722E30E835
:101D2000432E512C0DC080911D0490911E040197EB
:101D300090931E0480931D0481E0A81AB10821F13C
:101D4000EFEAF4E03197F1F700C0000080911D0444
:101D500090911E048036910509F4E6C080911D041F
:101D600090911E048037910509F4DBC080911D0419
:101D700090911E04892BB9F650921E0440921D04C6
:101D800081E0A81AB108E1F680E890E090931E0483
:101D900080931D040E94A6172E960FB6F894DEBFFE
:101DA0000FBECDBFDF91CF911F910F91FF90EF90AC
:101DB000DF90CF90BF90AF909F908F907F906F906B
:101DC0005F904F903F902F900C94D8170E94D81797
:101DD0006DCFE0E0F1E008E713E05801312CFE8719
:101DE000ED871E830D83132DCD84DE84FFE0CF0E9F
:101DF000D11C750118C0262F462F90E00E94CC17E9
:101E0000ED85FE858081877709F01F5F8D859E8532
:101E100001969E878D879FEFE91AF90AED85FE8569
:101E2000EC15FD0591F0103488F7F7016081E12F82
:101E3000F0E0EA54FD4F80816111DDCF20E040E009
:101E400060E090E00E94CC17DBCFFFE0AF0EB11C4A
:101E500083ECA81683E0B80639F60D811E81F801DF
:101E60008081882311F086958083F8018181882301
:101E700011F086958183F8018281882311F086957F
:101E80008283F8018381882311F086958383F8018A
:101E90008481882311F086958483F80185818823C5
:101EA00011F086958583F8018681882311F0869547
:101EB0008683F8018781882311F086958783F8014E
:101EC0008085882311F086958087F8018185882395
:101ED00011F086958187F8018285882311F0869517
:101EE0008287F8018385882311F086958387F8011E
:101EF0008485882311F086958487F8018585882359
:101F000011F086958587F8018685882311F08695DE
:101F10008687015F1F4FF3E0033C1F0709F09FCF47
:101F2000BDCE0E94D81722CF80E091E09A838983AA
:101F300088E7E82E83E0F82E4701312CC980DA804B
:101F40009FE0C90ED11C840115C0262F462F90E0BA
:101F50000E94CC17E981FA818081877709F0339458
:101F600089819A8101969A8389830F5F1F4FC816D2
:101F7000D90699F0FFE3F31598F3F8016081E32D9A
:101F8000F0E0EA54FD4F80816111DFCF20E040E0B6
:101F900060E090E00E94CC17DDCF9FE0890E911C9D
:101FA000E3EC8E16E3E09E0649F6F7018081882374
:101FB00011F086958083F7018181882311F0869541
:101FC0008183F7018281882311F086958283F7014E
:101FD0008381882311F086958383F7018481882388
:101FE00011F086958483F7018581882311F0869509
:101FF0008583F7018681882311F086958683F70112
:102000008781882311F086958783F701808588234F
:1020100011F086958087F7018185882311F08695D8
:102020008187F7018285882311F086958287F701E1
:102030008385882311F086958387F701848588231B
:1020400011F086958487F7018585882311F08695A0
:102050008587F7018685882311F086958687FFE0BE
:10206000EF0EF11C6E147F0409F09FCF77CE8F9294
:102070009F92AF92BF92CF92DF92EF92FF920F9317
:102080001F93CF93DF938091EE0381FF33C060E015
:102090008091E1010E94660A8091D60384FF33C0DB
:1020A0008F70813009F468C0882309F447C08230FA
:1020B00009F469C080911D0490911E048037910538
:1020C00059F180911D0490911E04892B69F580E8D7
:1020D00090E090931E0480931D04DF91CF911F9197
:1020E0000F91FF90EF90DF90CF90BF90AF909F90B7
:1020F0008F90089561E08091E1010E94660A8091CD
:10210000D60384FDCDCF0E94A61780911D04909127
:102110001E0480379105A9F60E94D81780911D04EE
:1021200090911E04892B99F280911D0490911E04B8
:10213000019790931E0480931D04CFCF80911D04BE
:1021400090911E048035910509F0B4CFC6EFD1E01F
:1021500006EB12E096EBE92E92E0F92EF801819160
:102160008F012A814981688190E00E94CC172396D3
:10217000EC16FD0699F79ECF80911D0490911E04E8
:102180000E94380D97CF80911D0490911E048036D7
:10219000910509F08FCFC0E0D1E088E7882E83E079
:1021A000982E5401F12C6E01EFE0CE0ED11C85016A
:1021B0000FC0262F462F90E00E94CC17888187778A
:1021C00009F0F39421960F5F1F4FCC16DD0699F0AE
:1021D000FFE3FF15B8F3F8016081EF2DF0E0EA545A
:1021E000FD4F80816111E5CF20E040E060E090E0AC
:1021F0000E94CC17E3CFFFE0AF0EB11C83ECA81612
:1022000083E0B80681F6F4018081882311F0869579
:102210008083F4018181882311F086958183F40104
:102220008281882311F086958283F401838188233B
:1022300011F086958383F4018481882311F08695BB
:102240008483F4018581882311F086958583F401C8
:102250008681882311F086958683F40187818823FF
:1022600011F086958783F4018085882311F0869587
:102270008087F4018185882311F086958187F40198
:102280008285882311F086958287F40183858823CF
:1022900011F086958387F4018485882311F0869553
:1022A0008487F4018585882311F086958587F4015C
:1022B0008685882311F086958687FFE08F0E911C16
:1022C00083EC881683E0980609F09DCFF3CE3F9209
:1022D0004F925F926F927F928F929F92AF92BF9236
:1022E000CF92DF92EF92FF920F931F93CF93DF93E2
:1022F00030E0432E31E0532E48E7A42E43E0B42EC5
:10230000620151EFE52E51E0F52E66246A9468E0F3
:10231000762E7FE0372EE70161E0F70181917F01A2
:102320000E94B70960E088810E94660A22EE822E30
:1023300021E0922E8501E6010BC088818777888392
:1023400021960F5F1F4FF1EF8F16F1E09F06D1F03E
:10235000F40181914F010E94150B8111EECF88810C
:102360008868888370927703F80160828E3E41F717
:102370003092E00421960F5F1F4FF1EF8F16F1E0CE
:102380009F0631F7C1EFD1E08E0160E089910E9494
:10239000B70961E0F80180810E94660AF1E0C63F5A
:1023A000DF0791F78FE0C80ED11CEFE0AE0EB11C35
:1023B000F6EFEF16F1E0FF0609F0ADCF0E942A0715
:1023C0000E94220710921904C6E9D1E08BE4C82EBE
:1023D00081E0D82E91EE892E91E0992E7E01FFE0CA
:1023E000EF0EF11C5601820117C0803B09F496C024
:1023F00008F481C0803D09F49EC0803F09F497C075
:10240000803C19F488810E94F6062196FFEFAF1AEE
:10241000BF0ACE15DF05F9F0F80191918F01809187
:10242000E00489238F3009F474C0F8F68B3009F486
:102430006BC008F056C0893009F481C08A3029F792
:10244000F50180810E94EA062196FFEFAF1ABF0ACC
:10245000CE15DF0509F78FE0480E511CEFE0CE0ED8
:10246000D11C8C169D0609F0B9CF0E9492058111EE
:1024700003C080EF8093E0040E94C705882319F011
:1024800084E0809376030E948704882319F084E017
:10249000809376030E94DD0481115AC080917703F6
:1024A000883009F45DC0813009F462C090917603F0
:1024B00081115AC0992319F0915090937603DF91BE
:1024C000CF911F910F91FF90EF90DF90CF90BF9031
:1024D000AF909F908F907F906F905F904F903F90C4
:1024E00008958C30F9F08D3009F08FCFF50180819F
:1024F0000E94FC068ACF803939F1803A09F085CFF5
:1025000088810E94EA0681CFF50180810E94F00651
:102510007CCFF50180810E941F0677CF88810E94C1
:10252000F00673CFF50180810E94F6066ECF888198
:102530000E941F066ACF88810E94FC0666CFF501C3
:1025400080810E94AB0661CF88810E94AB065DCF7F
:1025500084E08093760380917703883009F0A3CFDD
:1025600090917603913069F0815080937703A2CFE8
:102570000E94B90C0E94CE040E941B058091770333
:1025800095CF0E94B90C0E94CE040E941B05809139
:10259000770389CF80E880936100109261000E94E8
:1025A000B3090E94210D2FEF89E698E12150804068
:1025B0009040E1F700C000000E942A130E944E13D1
:1025C00081110AC02FEF85EA9EE0215080409040A3
:1025D000E1F700C00000F2CF0E94E50C0E94FE0C63
:1025E000C1E012E0D0EFC0931804C093EF03109342
:1025F0001A040E942A070E9422070E9434070E94A0
:10260000E10DD093E0042FEF85EA9EE02150804059
:102610009040E1F700C0000022E348E06EEC73E078
:1026200081E00E94511306C08091EF038230D9F2FD
:10263000813039F0809176038111F6CF0E944909EB
:10264000F3CF0E946711809176038111F5CF0E942C
:102650003710F0CF81E08093D70080EA8093D800D4
:1026600082E189BD09B400FCFDCF80E98093D800E8
:102670001092E0001092C50388E08093E20084E0AD
:102680008093E20078940E94F5050E94D3050E9491
:102690001006109219041092170408958091C50332
:1026A00008959091C5039923E9F09FB7F89430916C
:1026B000E400230F8093E9003091E80035FF0DC05E
:1026C00013C09091E400291769F09FB7F8948093A4
:1026D000E9003091E80035FD07C09FBF9091C50328
:1026E0009111EFCF81E00895442371F0FB01415037
:1026F000242F30E02F5F3F4F260F371F81918093AB
:10270000F100E217F307D1F78AE38093E8009FBF57
:1027100080E008951F920F920FB60F9211242F930D
:102720003F934F938F939F938091E1001092E1002C
:1027300083FF0FC01092E90091E09093EB0010929C
:10274000EC0092E09093ED0098E09093F0001092EE
:10275000C50382FF04C08091C50381110AC09F9107
:102760008F914F913F912F910F900FBE0F901F901F
:1027700018959091C4039F5F89E2989F812D112441
:10278000869586958695392F22E3829F30191124EC
:10279000832F311116C01092C4039091E80095FF69
:1027A00012C090911804992371F02091EF03211128
:1027B0004AC08091C50381114EC021E020931804C6
:1027C00002C09093C4039091F003992341F2809149
:1027D000C3038F5F8093C303837009F0C0CF81E090
:1027E0008093E9008091E80085FFB9CF8091F103E3
:1027F0008F5F8093F1038913B2CF1092F103809120
:10280000CE038093F1008091CF038093F1008091FB
:10281000D0038093F1008091D1038093F1008091E7
:10282000D2038093F1008091D3038093F1008091D3
:10283000D4038093F1008091D5038093F1008AE363
:102840008093E8008CCF9091C503911154C081E032
:1028500080931804B8CF8FB7F8943091E40094E0D7
:102860009093E9009091E80095FD20C08FBF809182
:10287000C503882309F4A1CF8091E400381709F437
:102880009CCF44E00BC08FBF8091C503882309F41F
:1028900094CF8091E400381709F48FCF8FB7F89464
:1028A0004093E9009091E80095FFEDCF9091F10001
:1028B0009093C6039091F1009093C7039091F1001B
:1028C0009093C8039091F1009093C9039091F10007
:1028D0009093CA039091F1009093CB039091F100F3
:1028E0009093CC039091F1009093CD039AE3909351
:1028F000E8008FBF63CF9FB7F8943091E40024E0E5
:102900002093E9002091E80025FD20C09FBF909111
:10291000C503992309F49BCF9091E400931709F420
:1029200096CF44E00BC09FBF9091C503992309F453
:102930008ECF9091E400391709F489CF9FB7F894AE
:102940004093E9002091E80025FFEDCF2091F100B0
:102950002093C6032091F1002093C7032AE320931C
:10296000E8009FBF75CF1F920F920FB60F921124F0
:102970002F933F934F935F936F937F938F939F9387
:10298000AF93BF93EF93FF931092E9008091E8001B
:1029900083FF38C07091F1004091F1008091F10007
:1029A0002091F10090E0922B2091F1005091F100E4
:1029B00030E0352B6091F100E091F10052EF50933F
:1029C000E800463099F1453009F43EC1493009F438
:1029D0007BC0483009F407C14111B5C18091E800BE
:1029E00080FFFCCF723809F484C180E08093F1004D
:1029F0001092F1008EEF8093E80007C02115310599
:102A000009F00AC181E28093EB00FF91EF91BF9141
:102A1000AF919F918F917F916F915F914F913F9176
:102A20002F910F900FBE0F901F901895811541E0C8
:102A3000940709F455C18115F2E09F0709F463C1B9
:102A4000811542E2940709F425C18115F1E29F073F
:102A500009F462C1811523E0920709F061C2A4E084
:102A6000B0E024E048E751E0862F90E09E2B8F3FB6
:102A7000910509F020F48A179B0708F4262F6EEFC2
:102A80008091E8008570E1F38091E80082FDBDCF80
:102A9000322F293008F41FC138E0FA01832F9491B6
:102AA0009093F100815031968111F9CF8FEF830F10
:102AB00090E00196480F591F231B6093E8002111F5
:102AC000DFCF3830E9F2A1CF71118FC08093C503F9
:102AD0008EEF8093E80081E08093E900E2E4F1E08A
:102AE000E491E093EB00EE2309F463C1E3E4F1E049
:102AF000E491E093EC00E4E4F1E0E491E093ED0094
:102B000025E431E082E08093E900C9010196F901F2
:102B100044914093EB00442351F0FC018491809355
:102B2000EC00C9010396319624912093ED0023E037
:102B30002093E9009C012F5F3F4FFC01449140939B
:102B4000EB00442359F0F90124912093EC009C01FF
:102B50002D5F3F4F319684918093ED0084E0809308
:102B6000E900C9010196F90144914093EB00442327
:102B700051F0FC0184918093EC00C90103963196D9
:102B800024912093ED0025E02093E9009C012F5F24
:102B90003F4FFC0144914093EB00442359F0F9016D
:102BA00024912093EC009C012D5F3F4F319684913E
:102BB0008093ED0086E08093E900C9010196F90158
:102BC00044914093EB00442341F0FC0184918093B5
:102BD000EC00319624912093ED008EE78093EA007B
:102BE0001092EA0012CF7038D1F121153105A1F40D
:102BF000713A09F4E1C0713209F004CF4930D9F1DA
:102C00004A3009F485C14B3009F0FCCE8093F203C1
:102C10008EEF8093E800F9CE2230310509F444C0EC
:102C20002130310509F0EECE713A09F412C171324A
:102C300009F0E8CE4B3009F465C14A3009F0E2CE24
:102C40008EEF8093E800E1CE2EEF2093E8002091F4
:102C5000E80020FFFCCF80688093E300D6CE80910F
:102C6000E80080FFFCCF8091C5038093F1008EEFD8
:102C70008093E800CACE8091E80082FFFCCF80916B
:102C8000F1008093EE038BEF8093E8008EEF80934A
:102C9000E800BBCE2115310509F047C0A0E4B0E043
:102CA00020E44DE752E0E0CE713A09F403C17132FD
:102CB00009F0A8CE4A3021F2493009F0A3CE809124
:102CC000E80082FFFCCF8BEF8093E8008091E80062
:102CD00080FFFCCFB5CF2111E0CE6093E80095CE08
:102CE000232B09F08FCEA2E1B0E022E14DEB52E0C0
:102CF000BBCE2093E9008091EB0085FB882780F90B
:102D00001092E90073CE232B09F07CCEABE5B0E046
:102D10002BE54CE751E0A8CE21153105E1F5A9E0FE
:102D2000B0E029E04EE851E09FCE2230310509F4B1
:102D30008AC02130310509F065CEA4E8B0E024E86E
:102D400049EF51E091CE542F5D7F513009F04DCFC6
:102D5000723009F04ACF009709F050CE522F5F77BA
:102D60006FEF650F663008F049CE8EEF8093E80074
:102D70005093E900433009F445CE89E18093EB009C
:102D800081E090E001C0880F5A95EAF78093EA004D
:102D90001092EA003ACE2230310509F4ADC021305C
:102DA000310509F02FCEA9E0B0E029E047EA51E073
:102DB0005BCE23E431E0A6CE413089F04230B9F158
:102DC000433009F01FCE8091E80080FFFCCF809156
:102DD000F2038093F1008EEF8093E80016CE80918D
:102DE000E80080FFFCCF8091CE038093F1008091BA
:102DF000CF038093F1008091D0038093F100809104
:102E0000D1038093F1008091D2038093F1008091EF
:102E1000D3038093F1008091D4038093F1008091DB
:102E2000D5038093F1008EEF8093E800EECD809182
:102E3000E80080FFFCCF8091F0038093F1008EEFDB
:102E40008093E800E2CDA2E2B0E022E247ED51E05B
:102E50000BCE413079F0433009F0D4CD8091E800B9
:102E600080FFFCCF809109048093F1008EEF809366
:102E7000E800CBCD8091E80080FFFCCF8091F40387
:102E80008093F1008091F5038093F1008091F60327
:102E90008093F1008091F7038093F1008091F80313
:102EA0008093F1008091F9038093F1008EEF80937D
:102EB000E800ABCD413009F0A5CD28E03EEF809190
:102EC000E800982F9570D9F382FD9FCD922F29307D
:102ED00070F098E0892F1092F1008150E1F7291BE2
:102EE0003093E8002111EBCF983049F38ECD2111BA
:102EF000F1CF3093E80089CDA9E0B0E029E040ECC3
:102F000051E0B2CD809309048EEF8093E8007DCD2F
:102F10009093F0031092F1038EEF8093E80075CD4B
:102F2000813043E0940751F08230934009F06ACD3C
:102F3000ACE1B0E02CE140E551E096CDACE0B0E092
:102F40002CE04CE651E090CD579A089580ECE0E2F9
:102F5000F4E0DF011D928A95E9F708959C01220FA4
:102F6000331F820F931FFC01E05EFB4F61830895C6
:102F70009C01220F331F820F931FFC01E05EFB4F69
:102F8000608308959C01220F331F820F931FFC0161
:102F9000E05EFB4F62830895FC01EE0FFF1F8E0F72
:102FA0009F1FFC01E05EFB4F4083618322830895F5
:102FB000F8942BB12F779BB19068E0E2F4E0819117
:102FC00038E09BB9000000C087FF2BB9880F0000D4
:102FD00000C000C000C02BB900C03A9591F784E052
:102FE000E03EF80761F778940895EE0FFF1F059013
:102FF000F491E02D0994A29FB001B39FC001A39F5B
:10300000700D811D1124911DB29F700D811D112421
:10301000911D0895F999FECF92BD81BDF89A992727
:1030200080B50895A8E1B0E042E050E00C941F188C
:103030000E942D18272F0C942E18DC01CB01FC01C7
:10304000F999FECF06C0F2BDE1BDF89A319600B401
:103050000D9241505040B8F70895262FF999FECFB0
:103060001FBA92BD81BD20BD0FB6F894FA9AF99AA5
:0A3070000FBE01960895F894FFCFFB
:10307A0071111111111111111111111111001110E8
:10308A000010101010101010101010101010100056
:10309A001010101010101010101010100000221133
:1030AA001710101010101010102211222266002280
:1030BA000000110000006666111111353A3B3C3DD3
:1030CA003E3F404142434445004C0000000000009E
:1030DA0000000000000000000000000000000000E6
:1030EA00000000000000000000025302000000007F
:1030FA00000000002052100100000400002C000013
:10310A0000000050514F041E1F202122232425268F
:10311A00272D2E002A2B00141A0815171C180C121A
:10312A00132F30313900041607090A0B0D0E0F331D
:10313A0034280000021D1B061905111036373820E5
:10314A0052100100000400002C0000000000505141
:10315A004F17101112131415180001020305060760
:10316A00080A090F0E0DED2032DE0D5BC6007667E8
:10317A0000784D1D882946A01386C402BFDB11B30F
:10318A006231B6305ABE0AD4EA1FEAC51AF7971353
:10319A00ED2032D301748A007760087D3637972490
:1031AA0053A703BBE20AB89918B3524AB90E93D38C
:1031BA0014DEE81FF5A515F56E0AED2032D2007669
:1031CA007200785712822E409D1C69B401C0E50E28
:1031DA00B57923B4434FBA08BCE21BE3D71DF79F66
:1031EA0014ED2032C600766700784D1D882946A066
:1031FA001386C402BFDB11B36231B6305ABE0AD499
:10320A00EA1FEAC51AF79713F33F01ED2032D806F1
:10321A006A8A00775712825ABE0AD4EA1FEAC51A86
:10322A00F79713F33F013F3E3D3C3B3A3938373677
:10323A003534333231302F2E2D2C2B2A29282726AC
:10324A002524232221201F1E1D1C1B1A191817169C
:10325A001514131211100F0E0D0C0B0A090807068C
:10326A000504030201000E001F002F004000510058
:10327A006200730084009500A600B700C800D90058
:10328A00EA000E002700380049005A006B007C0053
:10329A008D009E00AE00BF00D000E100F2000E00DB
:1032AA002B003C004D005E006F0080009100A200E0
:1032BA00B300C400D500E6000E002F004000510004
:1032CA006200730084009500A600B700C800D90008
:1032DA00EA00FB000E00230038004D00B700C800CA
:0632EA00D900EA00FB0020
:00000001FF
