:100000000C9468040C9485040C9485040C94850469
:100010000C9485040C9485040C9485040C9485043C
:100020000C9485040C9485040C9482120C94AB13EC
:100030000C9485040C9485040C9485040C9485041C
:100040000C9485040C9485040C9485040C9485040C
:100050000C9485040C9485040C9485040C948504FC
:100060000C9485040C9485040C9485040C948504EC
:100070000C9485040C9485040C9485040C948504DC
:100080000C9485040C9485040C9485040C948504CC
:100090000C9485040C9485040C9485040C948504BC
:1000A0000C9485040C9485040C948504970BA70B81
:1000B000830BAF0B8D0B9F0B790BB30B920BA30B29
:1000C0007E0BAB0B880B9B0B740B6F0B5B0B650BE9
:1000D000510B6A0B560B600B4C0B470B430B460C3A
:1000E000560C320C5E0C3C0C4E0C280C620C410C75
:1000F000520C2D0C5A0C370C4A0C230C1E0C0A0CFB
:10010000140C000C190C050C0F0CFB0BF60BF20B6E
:10011000E80CE50CE20CDF0CDC0CD90CD60CD30C93
:10012000D00CCD0CCA0CC70CC40CC10CBE0CBB0C43
:10013000B80CB50CB20CAF0CAC0CA90CA60CA30CF3
:10014000EB0C01C10601C10601C10601C006000099
:100150001C037A00690061006E005F006B0065009F
:10016000790062006F006100720064000C037A0085
:10017000690061006E0031000403090409025B009C
:10018000030100A03209040000010301010009215C
:100190001101000122400007058103080001090444
:1001A0000100010301020009211101000122840064
:1001B0000705820308000109040200020300000091
:1001C0000921110100012222000705830308000113
:1001D000070504030800010631FF0974A101097530
:1001E000150026FF0095087508810209761500267E
:1001F000FF00950875089102C005010902A101855B
:10020000010901A10005091901290515002501753C
:1002100001950581027503950181030501093009E6
:10022000311581257F7508950281060938158125CC
:100230007F35004500750895018106050C0A3802D6
:100240001581257F750895018106C0C005010980CB
:10025000A1018502150126B700190129B77510956E
:10026000018100C0050C0901A10185031501269C2F
:100270000219012A9C02751095018100C00501092F
:1002800006A10175019508050719E029E715002564
:10029000018102950175088103950575010508190D
:1002A00001290591029501750391039506750815BD
:1002B0000026FF000507190029FF8100C012010078
:1002C0000200000008C43284F200020102000100B2
:1002D000000001010102030404050708090A0C0DCE
:1002E0000F1112141617191B1D1F2122242628294D
:1002F0002B2D2E3031333435363738393A3A3B3BB3
:100300003C3C3C3C3C3C3D3D3E3E3F404142434406
:100310004647494A4C4D4F5152545658595B5D5FC0
:100320006062646567696A6B6D6E6F707172737419
:100330007475757676767676767676767676767661
:100340007676767676767677777777777777777744
:100350007777777777777777787878787878787825
:100360007878787878787878787878787879797A09
:100370007A7B7B7C7D7E7F7F808283848586878974
:100380008A8B8C8E8F9091929495969798999A9B40
:100390009C9D9D9E9F9FA0A0A0A1A1A1A1A1A1A263
:1003A000A2A3A3A4A5A6A7A9AAACADAFB0B2B4B6A8
:1003B000B8BABCBEC0C2C4C6C8CACCCED0D2D4D6CD
:1003C000D8D9DBDCDEDFE0E1E2E3E3E4E4E5E5E528
:1003D000E5E4E4E3E2E0DFDDDBD8D6D3D0CDCAC686
:1003E000C2BFBBB7B3AFABA6A29E9A95918D8985CC
:1003F000817D7A7673706D6A676563615F5E5C5B51
:100400005B5A5A5A5A595958575655545351504E87
:100410004C4A484644423F3D3A383633302E2B2929
:100420002724221F1D1B1917151312100F0D0C0B5B
:100430000A090908080808080808080909090A0A31
:100440000A0B0B0C0D0D0E0E0F10101112131314BE
:10045000151516171818191A1A1B1B1C1D1D1E1E00
:100460001E1F1F1F20202020202020202020202091
:100470001F1F1F1F1F1E1E1E1E1D1D1D1C1C1C1BA3
:100480001B1A1A1A191919181818171717161616E9
:100490001615151515151414141414141414141415
:1004A0001413131313121212111110100F0F0E0E3A
:1004B0000D0D0C0B0B0A0A090808070706060504B0
:1004C00004030303020201010101000000000039DE
:1004D00039393939383838373736363534343332B4
:1004E0003231302F2E2D2C2B2B2A2928272625245C
:1004F0002323222120201F1E1E1D1D1C1C1C1B1B14
:100500001B1B1B1B1B1B1B1A1A1A1919191818174E
:10051000161615141413121111100F0E0D0D0C0BCD
:100520000A0908080706060504040303020201017C
:1005300001000000000000000000000000000000BA
:1005400000000000000000000000000000000000AB
:10055000000000000000000000000000000000009B
:100560000000000000000000000000000101020384
:1005700004050607080A0B0D0F11131517191B1D8B
:100580001F212426282A2C2E31333537383A3C3D7A
:100590003F40424344454646474748484848494902
:1005A0004A4B4C4E4F515356585B5D6063666A6DC3
:1005B0007074787B7F83868A8E9195989C9FA2A584
:1005C000A8ABAEB0B3B5B7B9BBBCBDBEBFC0C0C0B1
:1005D000C0C0C0C0C0C0BFBFBFBFBEBEBEBEBDBD2D
:1005E000BDBCBCBBBBBBBABAB9B9B8B8B8B7B7B673
:1005F000B6B6B5B5B4B4B4B4B3B3B3B3B3B2B2B2C0
:10060000B2B2B2B2B2B2B2B2B2B2B2B3B3B3B3B3C5
:10061000B3B4B4B4B4B4B5B5B5B5B6B6B6B6B7B789
:10062000B7B7B7B8B8B8B8B9B9B9B9B9B9B9BABA42
:10063000BABABABABABABABABABBBBBBBCBDBDBE0B
:10064000BFC0C1C2C4C5C6C7C9CACCCDCFD0D2D421
:10065000D5D7D8DADBDDDEE0E1E2E3E5E6E7E8E99D
:10066000EAEAEBECECECEDEDEDEDEDEDECECEBEACC
:10067000E9E8E7E5E4E2E1DFDDDBD9D7D4D2D0CEAB
:10068000CBC9C6C4C2BFBDBBB8B6B4B2B0AEACAACB
:10069000A9A7A6A5A3A2A1A1A0A09F9F9F9F9F9E3F
:1006A0009D9C9B9A99979593918F8D8A888582803E
:1006B0007D7A7773706D6A6764615E5B58555250DE
:1006C0004D4B48464442413F3E3C3B3B3A3939F36F
:1006D000F3F3F3F3F3F3F3F3F2F2F2F2F2F2F2F1F3
:1006E000F1F1F1F1F0F0F0F0F0EFEFEFEFEFEEEE0F
:1006F000EEEEEEEDEDEDEDEDEDEDECECECECECEC2D
:10070000ECECECECECECECEBEBEBEBEAEAE9E9E83B
:10071000E8E7E6E6E5E4E4E3E2E1E0E0DFDEDDDCB5
:10072000DCDBDAD9D9D8D7D7D6D6D5D5D4D4D3D35C
:10073000D3D2D2D2D2D2D2D2D1D1D0CFCECCCBC9B9
:10074000C7C5C3C0BEBBB9B6B3B0ADA9A6A3A09C74
:10075000999693908C898683807E7B79767472706B
:100760006E6D6B6A69686867676767676666656507
:10077000646362615F5E5D5B5A58565553514F4DDD
:100780004B4947454342403E3C3A38373533323097
:100790002F2E2D2C2B2A29282827272727272727C4
:1007A00026262625252423232221201F1E1D1C1B2F
:1007B0001A1918171614131211100F0E0D0B0A091F
:1007C00008080706050404030302020201010101EF
:1007D00001010101010202020203030304040405F2
:1007E0000506060707080809090A0A0B0B0C0C0D79
:1007F0000D0E0E0F0F0F10101011111111121212F9
:1008000012121212121213131415151617181A1B9E
:100810001C1E1F2122242628292B2D2F313335364B
:10082000383A3C3E3F414244454748494A4B4C4D8B
:100830004D4E4E4F4F4F4F4F505152535557595B9E
:100840005D606366696D7174787C8084898D919632
:100850009A9EA2A7ABAFB3B7BABEC2C5C8CBCED023
:10086000D2D4D6D8D9DADBDCDCDCDCDCDCDCDDDDE8
:10087000DDDEDEDFDFE0E0E1E2E2E3E4E4E5E6E75F
:10088000E8E9E9EAEBECEDEDEEEFF0F0F1F2F2F38E
:10089000F4F4F5F5F5F6F6F6F7F7F7F7F7F7F7F7F7
:1008A000F7F7F7F7F7F7F7F7F6F6F6F6F6F6F6F6E0
:1008B000F6F6F5F5F5F5F5F5F5F5F4F4F4F4F4F4EC
:1008C000F4F4F4F4F3F3F3F3F3F3F3F3F3F3F300E7
:1008D00011241FBECFEFDAE0DEBFCDBF13E0A0E0F2
:1008E000B1E0EAE6FEE202C005900D92AE3CB1072F
:1008F000D9F725E0AEECB3E001C01D92AA3EB207E5
:10090000E1F70E94EE0C0C9433170C9400003F9218
:100910004F925F926F927F928F929F92AF92BF920F
:10092000CF92DF92EF92FF920F931F93CF93DF93BB
:1009300000D000D01F92CDB7DEB78C010E940A17FD
:100940005C01892B09F404C10E5F1F4F0F3F23E0A8
:10095000120708F0FDC0E12CF12CAEEA4A2EA4E00B
:100960005A2EB6E06B2E80E4382E6E0136E0C30EB0
:10097000D11C92E6792E10C0411101C1FFEFEF1A90
:10098000FF0AAE14BF0409F4E3C00E5F1F4F0F3F10
:1009900083E0180708F0DCC0C8010E940A17AC0108
:1009A000852F552349F39A01ADECBCEC0E94F31658
:1009B000FC01F695E795F695E795F695E7959F0185
:1009C000220F331FCF01880F991F880F991F880F9F
:1009D000991F820F931F9A01281B390B2D839F01AA
:1009E0000E94F31696958795969587959695879587
:1009F0009C01220F331F880F991F880F991F880FA2
:100A0000991F820F931FE81BF90BEC839A0136950F
:100A1000279536952795ABE7B4E10E94F316FC01C4
:100A2000F695E7959F01ADECBCEC0E94F316969508
:100A3000879596958795969587959C01220F331FEC
:100A4000880F991F880F991F880F991F820F931F76
:100A5000E81BF90BEB839A01369527953695279578
:100A600036952795A5ECB0E20E94F316FC01F295AD
:100A7000E295EF70EF27FF70EF279F01ADECBCEC24
:100A80000E94F316969587959695879596958795E6
:100A90009C01220F331F880F991F880F991F880F01
:100AA000991F820F931FE81BF90BEA839A01329575
:100AB00022952F7023273F702327A7E4B3E00E94DD
:100AC000F31696958795969587959695879589833C
:100AD000F201262D11922A95E9F73092AC0422E317
:100AE00048E06CEA74E081E00E944912CE01019670
:100AF0004C017092AE04F40181914F01882319F0EA
:100B0000885A8093AE0422E348E06CEA74E081E006
:100B10000E9449121092AE0422E348E06CEA74E0AD
:100B200081E00E944912C814D90419F71092AC044C
:100B30001092AE0422E348E06CEA74E081E00E9487
:100B40004912FFEFEF1AFF0AAE14BF0409F01DCFE0
:100B50000F900F900F900F900F90DF91CF911F91FA
:100B60000F91FF90EF90DF90CF90BF90AF909F904C
:100B70008F907F906F905F904F903F900895F2011B
:100B8000262D11922A95E9F747FD0DC08093AC04FC
:100B90004F774093AE0422E348E06CEA74E081E0D2
:100BA0000E944912C3CF80E2F1CF8091B4049091AA
:100BB0009B04981731F080939B0481E08093C004DC
:100BC00008958091B50490919D04981731F0809319
:100BD0009D0481E08093C00408958091B6049091B3
:100BE0009E04981719F080939E04E7CF8091B70474
:100BF00090919F04981719F080939F04DECF809105
:100C0000B8049091A004981719F08093A004D5CF50
:100C10008091B9049091A104981719F08093A104D0
:100C2000CCCF8091BA049091A204981719F08093C8
:100C3000A204C3CF80E008958091C004811102C056
:100C400081E008951092C00422E348E06BE974E06B
:100C500081E00C9449128091CD049091C2049817C0
:100C600029F18093C20481E02091D2043091D30411
:100C70004091C8045091C90442175307C9F03093FA
:100C8000C9042093C8042091D4043091D5048091E4
:100C9000CB049091CC0482179307C9F03093CC0415
:100CA0002093CB0483E08093D704089580E0DCCFC9
:100CB0002091D4043091D5044091CB045091CC04C0
:100CC0004217530759F7882381F381E0ECCF82E084
:100CD000EACFCF93DF938091D70483708093D704BA
:100CE000811104C081E0DF91CF9108950E944612E6
:100CF0008823C1F38FB7F894C091E400CE5C92E0F2
:100D00009093E9009091E80095FD14C0D2E00CC0EA
:100D10008091E400C81731F38FB7F894D093E900BD
:100D20009091E80095FD06C08FBF0E944612811188
:100D3000EFCFD8CF9091D704923099F1933011F141
:100D40009130D1F41092D7049091C1049093F100A6
:100D50009091C2049093F1009091C3049093F1009C
:100D60009091C4049093F1009091C5049093F10088
:100D70009091C6049093F1009AE39093E8008FBF9E
:100D800080E0B1CF1092D7049091CA049093F10003
:100D90009091CB049093F1009091CC049093F1004A
:100DA000EBCF1092D7049091C7049093F1009091EB
:100DB000C8049093F1009091C9049093F100DCCFA6
:100DC0008091CD0481112FC08091D2049091D304E1
:100DD000892B49F58091D4049091D504892B19F57C
:100DE0008091B50481111FC08091B60481111BC090
:100DF0008091B704811117C08091B804811113C08C
:100E00008091B90481110FC08091BA0481110BC087
:100E10008091B404811107C081E09091E6049111A2
:100E200003C080E0089581E008958091E6049091E8
:100E3000E404981721F08093E40481E0089580E0B1
:100E40000895CF93DF938CE0E8EDF4E0DF01C82F45
:100E50001D92CA95E9F7E1ECF4E0DF011D928A9555
:100E6000E9F7ADECB4E08BE0ED0119928A95E9F772
:100E700081E0808392E0968393E0918719968C932A
:100E8000DF91CF91089588E0ECEAF4E0DF01982F3C
:100E90001D929A95E9F7EBE9F4E0DF011D928A953E
:100EA000E9F7E4EBF4E08DE0DF011D928A95E9F7C4
:100EB00081E0808783878DE78187089588E0E4EA71
:100EC000F4E0DF01982F1D929A95E9F7E3E9F4E049
:100ED000DF011D928A95E9F708959091E40490FF4F
:100EE00006C02091A30480E282278093A30491FF8F
:100EF00006C02091A30480E182278093A30493FD80
:100F000010C0892F807295FF0BC08091A3048F5F62
:100F1000982F9F70933008F0807F8093A30481E026
:100F2000089582E492E00E94870481E0089584306D
:100F300031F09091E604892B8093E6040895909116
:100F40009B04992389F19091B504953391F32091F5
:100F5000B604253371F33091B704353351F3409122
:100F6000B804453331F35091B904553311F360910E
:100F7000BA046533F1F2992309F447C0222309F436
:100F80004AC0332309F450C0442309F453C0552305
:100F900009F453C06111CDCF25E030E0F901EC54E4
:100FA000FB4F95E39183C5CF9091B504993209F237
:100FB0002091B604293209F4BCCF3091B7043932FC
:100FC00009F4B7CF4091B804493209F4B2CF509137
:100FD000B904593209F4ADCF6091BA04693209F409
:100FE000A8CF9923A9F02223C9F03323D1F04423B9
:100FF000F1F0552329F161119CCF25E030E0F90192
:10100000EC54FB4F99E2918394CF20E030E0C6CFBF
:1010100020E030E0F4CF21E030E0C0CF21E030E04C
:10102000EECF22E030E0EBCF22E030E0B7CF23E09C
:1010300030E0E5CF23E030E0B1CF24E030E0AECFC8
:1010400024E030E0DCCF9091B504891711F12091B4
:10105000B6048217F1F03091B7048317D1F04091B4
:10106000B8048417B1F05091B904851791F06091DC
:10107000BA04681771F0992371F02223A1F0332389
:10108000A9F04423B1F05523B9F06623C1F080E004
:10109000089581E0089520E030E0F901EC54FB4F21
:1010A000818381E0089521E030E0F7CF22E030E055
:1010B000F4CF23E030E0F1CF24E030E0EECF25E0C4
:1010C00030E0EBCFE4EBF4E09081892B808308954E
:1010D000EDECF4E09081892B8083089590E090936B
:1010E000D3048093D2040895982F907F9039D9F03B
:1010F00038F0903C91F0903E81F0903B71F0089573
:10110000903221F0903879F09111F9CF90E092600F
:101110009093D5048093D404089590E09093D504DF
:101120008093D404089590E091609093D5048093C7
:10113000D4040895EDECF4E0108216821582108636
:101140001782089586E0E5EBF4E0DF011D928A95B1
:10115000E9F71092B4040895CF92DF92EF92FF92D4
:101160000F931F93CF93DF9380E090E00E940A17C4
:10117000EC0182E090E00E940A178C0184E090E08C
:101180000E940A177C0186E090E00E940A176C0119
:1011900088E090E00E940A172A9749F0DF91CF91EA
:1011A0001F910F91FF90EF90DF90CF900895003145
:1011B0001105A1F720E2E216F10481F7E0E8CE166E
:1011C000D10461F7803E910549F78AE090E00E94E2
:1011D00002178093CC028BE090E00E94021780936C
:1011E000CD028CE090E00E9402178093CE028DE049
:1011F00090E00E9402178093CF028EE090E00E9460
:1012000002178093D0028FE090E00E940217809333
:10121000D10280E190E00E9402178093BC0281E13C
:1012200090E00E9402178093BD0282E190E00E944C
:1012300002178093BE0283E190E00E940217809320
:10124000BF0284E190E00E9402178093C00285E112
:1012500090E00E9402178093C10286E190E00E9414
:1012600002178093C20287E190E00E9402178093E8
:10127000C30288E190E00E9402178093C40289E1D2
:1012800090E00E9402178093C5028AE190E00E94DC
:1012900002178093C6028BE190E00E9402178093B0
:1012A000C7028CE190E00E9402178093C8028DE192
:1012B00090E00E9402178093C9028EE190E00E94A4
:1012C00002178093CA028FE190E00E940217809378
:1012D000CB020CE512E0C0E0D0E0CE0180960E9487
:1012E0000217F8018083CE0181960E940217F8014F
:1012F0008183CE0182960E940217F8018283CE017B
:1013000083960E940217F8018383CE0184960E947F
:101310000217F8018483CE0185960E940217F80116
:101320008583CE0186960E940217F8018683CE013E
:1013300087960E940217F8018783CE0188960E9443
:101340000217F8018087CE0189960E940217F801E2
:101350008187CE018A960E940217F8018287CE010A
:101360008B960E940217F8018387CE018C960E940B
:101370000217F8018487CE018D960E940217F801AA
:101380008587CE018E960E940217F8018687CE01CE
:101390008F960E940217F80187876096005F1F4FA3
:1013A000C036D10509F099CF00E314E0C0E0D0E0E9
:1013B000CE0180589F4F0E940217F8018083CE0112
:1013C0008F579F4F0E940217F8018183CE018E57DD
:1013D0009F4F0E940217F8018283CE018D579F4FC5
:1013E0000E940217F8018383CE018C579F4F0E9401
:1013F0000217F8018483CE018B579F4F0E9402177A
:10140000F8018583CE018A579F4F0E940217F80189
:101410008683CE0189579F4F0E940217F801878368
:10142000CE0188579F4F0E940217F8018087CE0196
:1014300087579F4F0E940217F8018187CE01865778
:101440009F4F0E940217F8018287CE0185579F4F58
:101450000E940217F8018387CE0184579F4F0E9494
:101460000217F8018487CE0183579F4F0E9402170D
:10147000F8018587CE0182579F4F0E940217F8011D
:101480008687CE0181579F4F0E940217F8018787F8
:101490006096005F1F4FC036D10509F089CF00EE7E
:1014A00010E0E12CF12CC8010E940217E701C2955F
:1014B000D295D07FDC27C07FDC27C450DE4F8883E5
:1014C000C80101960E9402178983C80102960E94F2
:1014D00002178A83C80103960E9402178B83C801F2
:1014E00004960E9402178C83C80105960E94021779
:1014F0008D83C80106960E9402178E83C801079645
:101500000E9402178F83C80108960E9402178887DD
:10151000C80109960E9402178987C8010A960E948D
:1015200002178A87C8010B960E9402178B87C80191
:101530000C960E9402178C87C8010D960E94021714
:101540008D87C8010E960E9402178E87C8010F96DC
:101550000E9402178F87FFEFEF1AFF0A005F1F4FED
:1015600026E0E216F10409F09ECFC2EDD2E000E4DD
:1015700011E0025D1240C8018C0F9D1F0E940217EE
:10158000899383E0CE3CD807B1F78CE392E00E94C8
:1015900002178093E70402CECF93DF938091E50496
:1015A00081111BC0C0919304D0919404CF3F21EFCF
:1015B000D207B1F0CF3F82EFD80709F44AC080913B
:1015C000BC048823B9F088E0E3E9F4E0DF011D9270
:1015D0008A95E9F781E08093E504DF91CF91089542
:1015E0008091BC04813009F43EC08111ECCF0E948F
:1015F0001B0E1DC00E941B0ECE3FA3E0DA0748F46D
:10160000F999FECF6091950470919604CE010E94E5
:101610001017CE0102968E3FB3E09B0740F4F99974
:10162000FECF60919704709198040E941017CE012C
:1016300004968E3F23E0920718F00E941C0EC3CF41
:10164000F999FECF6091990470919A040E94101745
:10165000F4CF8091BC048111B6CF0E941C0E82E0B1
:101660008093BC04B0CF1092BC04ADCF80E885BF9E
:1016700085BF089590E08931910540F4FC01EA5A54
:10168000FF4F0C94ED166111A2C06E980895662369
:1016900009F46DC0559A0895662309F46AC0549AF6
:1016A0000895662309F46DC0859A0895662309F4A8
:1016B00064C0819A0895662309F467C0879A0895E3
:1016C000662309F458C0809A0895662309F45BC024
:1016D000869A0895662309F452C0849A0895662371
:1016E00009F455C0269A0895662309F460C0259A26
:1016F0000895662309F453C0519A0895662309F4A6
:101700005EC03F9A0895662309F445C0229A089561
:10171000662309F450C0579A0895662309F443C01C
:10172000279A0895662309F44EC0539A08956623B4
:1017300081F1209A08956623E1F1249A08956623A1
:1017400081F1509A08956623E1F13E9A0895662347
:1017500021F1219A0895662381F1569A089566230E
:1017600021F1239A0895662381F1529A089555989C
:1017700008955498089580980895819808958498BC
:1017800008958598089586980895879808952698CD
:1017900008952098089522980895219808955198C1
:1017A00008955098089527980895239808952598A6
:1017B00008952498089557980895569808953F9845
:1017C00008953E98089553980895529808956E9AF2
:1017D000089590E08931910540F4FC01E159FF4FF3
:1017E0000C94ED166111A2C076980895662309F451
:1017F0006DC05D9A0895662309F46AC05C9A0895E5
:10180000662309F46DC08D9A0895662309F464C0B7
:10181000899A0895662309F467C08F9A089566230C
:1018200009F458C0889A0895662309F45BC08E9A1B
:101830000895662309F452C08C9A0895662309F42A
:1018400055C02E9A0895662309F460C02D9A089514
:10185000662309F453C0599A0895662309F45EC0BB
:10186000479A0895662309F445C02A9A0895662385
:1018700009F450C05F9A0895662309F443C02F9A73
:101880000895662309F44EC05B9A0895662381F19A
:10189000289A08956623E1F12C9A0895662381F130
:1018A000589A08956623E1F1469A0895662321F136
:1018B000299A0895662381F15E9A0895662321F19D
:1018C0002B9A0895662381F15A9A08955D98089598
:1018D0005C98089588980895899808958C9808953B
:1018E0008D9808958E9808958F9808952E9808954C
:1018F000289808952A980895299808955998089540
:10190000589808952F9808952B9808952D98089524
:101910002C9808955F9808955E98089547980895C3
:10192000469808955B9808955A980895769A089570
:1019300090E08931910510F080E00895FC01E857AE
:10194000FF4F0C94ED1689B18072089589B18071B2
:1019500008958FB1817008958FB1827008958FB10D
:10196000807108958FB1807208958FB18074089549
:101970008FB18078089583B18074089583B18072A7
:10198000089583B18071089589B18078089589B1EF
:101990008074089586B18078089586B18074089522
:1019A00089B18870089589B18470089589B1827071
:1019B000089589B18170089583B18078089583B1C5
:1019C0008870089583B18470089583B182700895FA
:1019D00083B1817008958CB1807408950C94521174
:1019E000AF92BF92CF92DF92EF92FF921F93CF936D
:1019F000DF93A12CB12C10E0C0E0D0E0C5018295AE
:101A00009295907F9827807F98279C0120533C4F88
:101A100069019C0124503E4F790116C0208140810C
:101A20006081E12FF0E0E050FF4F808190E00E9464
:101A3000C416F701EC0FFD1F8081877709F01F5F47
:101A40002196C031D105A1F01435D0F7F601EC0F85
:101A5000FD1F80818111E2CFE12FF0E0E050FF4FC8
:101A6000808120E040E060E090E00E94C416E1CF79
:101A70002FEFA21AB20A36E0A316B10409F0BCCFC8
:101A800020E030E0C90182959295907F9827807F71
:101A90009827FC01E053FC4F4081442319F040811A
:101AA00046954083FC01E053FC4F4181442319F0EB
:101AB000418146954183FC01E053FC4F4281442320
:101AC00019F0428146954283FC01E053FC4F43816B
:101AD000442319F0438146954383FC01E053FC4FB6
:101AE0004481442319F0448146954483FC01E0532A
:101AF000FC4F4581442319F0458146954583FC01FF
:101B0000E053FC4F4681442319F0468146954683B5
:101B1000FC01E053FC4F4781442319F0478146956F
:101B20004783FC01E053FC4F4085442319F0408576
:101B300046954087FC01E053FC4F4185442319F052
:101B4000418546954187FC01E053FC4F4285442383
:101B500019F0428546954287FC01E053FC4F4385CE
:101B6000442319F0438546954387FC01E053FC4F1D
:101B70004485442319F0448546954487FC01E0538D
:101B8000FC4F4585442319F0458546954587FC0162
:101B9000E053FC4F4685442319F046854695468719
:101BA000FC01E053FC4F8785882319F087858695D3
:101BB00087872F5F3F4F2630310509F063CFDF91D4
:101BC000CF911F91FF90EF90DF90CF90BF90AF909B
:101BD00008950F931F93CF93DF93CCEBD2E08E0148
:101BE00060E089910E943A0B61E0F80180810E94D7
:101BF000E90BF2E0CC3CDF0791F7DF91CF911F9129
:101C00000F9108950F931F93CF93DF93CCECD2E005
:101C10008E0160E089910E943A0B61E0F8018081B9
:101C20000E94E90BF2E0C23DDF0791F7DF91CF910F
:101C30001F910F910895089508950F931F93CF93C7
:101C4000DF938033910509F443C08034910509F492
:101C50008DC080319105D1F0809709F462C080E099
:101C600090E0FC01EE0FFF1FEC5AFE4F2081318106
:101C70002115324010F011821082019684359105B1
:101C800081F7DF91CF911F910F91089580E090E04F
:101C9000FC01EE0FFF1FDF01AC5ABE4F2D913C91AE
:101CA00011972115324018F011961C921E92EC5A91
:101CB000FE4F208131812F5F3F4F3183208301967A
:101CC0008435910529F7DF91CF911F910F910895E8
:101CD000C0E0D1E0CE0180509140880F991FFC01F7
:101CE000EC5AFE4F208131812115324010F01182D3
:101CF0001082FC01EC5AFE4F0190F081E02DE1537F
:101D0000FB4F64916093E905899190E00E94B016C1
:101D100081E0C435D807F1F6DF91CF911F910F9183
:101D20000895C0E0D1E0CE0180509140880F991F06
:101D3000FC01EC5AFE4F208131812115324010F018
:101D400011821082FC01EC5AFE4F0190F081E02DCF
:101D5000E153FD4F64916093E605899190E00E9404
:101D6000BA1681E0C435D807F1F68BCF04E511E04F
:101D7000C0E0D1E0CE0180509140880F991FFC0156
:101D8000EC5AFE4F208131812115324010F0118232
:101D90001082FC01EC5AFE4F0190F081E02DE153DE
:101DA000F94F64916093E805899190E00E94A6162E
:101DB0000C171D07F9F665CF3F924F925F926F9215
:101DC0007F928F929F92AF92BF92CF92DF92EF92CB
:101DD000FF920F931F93CF93DF938091E70480933B
:101DE000A3040E949E160E94D01645E0442E512C5A
:101DF00033243A9450E8E52EF12C812C912CC20129
:101E000082959295907F9827807F98279C012450F7
:101E10003E4F69019C0120533C4F590135E4632E2C
:101E2000712C64187508F601E80DF91D808187771B
:101E3000D9F1F501E80DF91D30828301080D191D56
:101E4000C0E0D0E00DC08091E4059091E5050197D8
:101E50009093E5058093E40521960C171D0720F16A
:101E60008FEA94E00197F1F700C000008091E4054B
:101E70009091E5058036910509F471C08091E405E3
:101E80009091E5058037910509F466C08091E405DD
:101E90009091E505892BB9F6F092E505E092E4050D
:101EA00021960C171D07E0F62FEF821A920A30E1F7
:101EB0008316910409F0B7CF91E0491A510808F050
:101EC0009CCFC1EFD0E000E810E00BC08091E405AA
:101ED0009091E50501979093E5058093E40521979E
:101EE00001F18FEA94E00197F1F700C000008091C2
:101EF000E4059091E50580369105B9F18091E405FE
:101F00009091E5058037910569F18091E405909104
:101F1000E505892BD9F61093E5050093E405219793
:101F200001F780E890E09093E5058093E4050E9436
:101F30009E16DF91CF911F910F91FF90EF90DF9050
:101F4000CF90BF90AF909F908F907F906F905F9059
:101F50004F903F900C94D0160E94D01697CF0E94BD
:101F6000F00C8CCF0E94D016D0CF0E94F00CC6CFC0
:101F70003F924F925F926F927F928F929F92AF9219
:101F8000BF92CF92DF92EF92FF920F931F93CF9366
:101F9000DF9300D000D0CDB7DEB72CEC32E03A832F
:101FA0002983612C712C6CECE62E62E0F62E442421
:101FB0004A9478E0572EEFE03E2EF2EDAF2EF2E09D
:101FC000BF2E89819A819C838B8361E0FC01819182
:101FD000FA83E9830E943A0B60E0EB81FC81808107
:101FE0000E94E90B0CEB12E0C30182959295907F61
:101FF0009827807F98279C0124503E4F4901FC017F
:10200000E053FC4F6F010EC08081877780832B8166
:102010003C81280D391DF90180818E3E29F1E016A1
:10202000F10639F198012C5B32403C832B83F80197
:1020300081918F010E94980CEB81FC81E80DF91DC4
:102040008111E2CF8081886880835092CF03EB8139
:10205000FC81EC0DFD1D40822B813C81280D391D3A
:10206000F90180818E3ED9F63092E705E016F1063F
:10207000C9F60CEC12E01C830B8360E0F80181913F
:102080008F010E943A0B61E0EB81FC8180810E940C
:10209000E90BA016B10679F7FFEF6F1A7F0A26E069
:1020A0006216710409F08DCF0E94A2080E949A085E
:1020B0001092E6043CE5A32E32E0B32E40E3642EFA
:1020C00044E0742EC12CD12C730185011A8219822F
:1020D000C60182959295907F9827807F9827FC0172
:1020E000E450FE4F4F0120C0803B09F450C0E0F1A6
:1020F000803D09F45BC0803F09F453C0803C21F46B
:10210000F80180810E946E0829813A812F5F3F4F3C
:102110003A8329830F5F1F4F3FEFE31AF30A898148
:102120009A81409709F451C0E981FA81E80DF91DBF
:1021300090818091E70589238F3021F1A8F68B30BB
:10214000E1F048F48930B9F18A30F1F6F701808185
:102150000E946208D9CF8C30F9F08D30A9F6F701D2
:1021600080810E947408D0CF803951F1803A61F6A5
:10217000F80180810E946208C7CFF70180810E9428
:102180006808C2CFF70180810E949707BDCFF80190
:1021900080810E946808B8CFF70180810E946E0894
:1021A000B3CFF80180810E949707AECFF8018081FC
:1021B0000E947408A9CFF70180810E942308A4CF50
:1021C000F80180810E9423089FCF9FEFC91AD90A86
:1021D000E0E1AE0EB11CF0E16F0E711C26E0C216FC
:1021E000D10409F071CF0E94E006811103C080EF95
:1021F0008093E7050E941507882319F084E08093F7
:10220000CE030E94D505882319F084E08093CE0385
:102210000E942B06811125C08091CF03883041F1A7
:102220008130B9F19091CE03811126C0992319F024
:1022300091509093CE030F900F900F900F90DF91DD
:10224000CF911F910F91FF90EF90DF90CF90BF90B3
:10225000AF909F908F907F906F905F904F903F9046
:10226000089584E08093CE038091CF038830C1F637
:102270009091CE03913021F081508093CF03D6CF3F
:102280000E946D070E941C060E9469068091CF0380
:10229000C7CF0E946D070E941C060E9469068091AC
:1022A000CF03C0CF80E880936100109261000E944C
:1022B000360B0E949C160E949E160E94D01680E843
:1022C00090E09093E5058093E4052FEF89E698E18F
:1022D000215080409040E1F700C000000E9422128F
:1022E0000E94461281110AC0EFEFF5EA2EE0E1509C
:1022F000F0402040E1F700C00000F2CF0E94E90D5D
:102300000E94020EC1E012E0D0EF20E8A22EB12C14
:10231000C093E504C093BC041093E7040E94A20894
:102320000E949A080E94AC080E94DC0ED093E70538
:102330008FEF95EAEEE081509040E040E1F700C079
:10234000000022E348E06BE974E081E00E9449125A
:1023500006C08091BC048230D9F2813039F080917E
:10236000CE038111F6CF0E94CC0AF3CF0E94B80FA2
:102370008091CE038111F5CF8091A30484FF3DC0ED
:102380008F708130E9F1811123C08091E405909133
:10239000E50580359105D9F18091E4059091E50539
:1023A0008037910539F18091E4059091E505892BFD
:1023B00029F4B092E505A092E405D1CF8091E4051F
:1023C0009091E50501979093E5058093E405C7CFCB
:1023D000823011F78091E4059091E50580369105F2
:1023E000D9F60E94F00C8091E4059091E5058037C4
:1023F0009105C9F60E94D016D6CF0E949E16CCCF6A
:102400008091E4059091E5050E941D0EC5CF82EDF7
:10241000E82E82E0F82E90E0C92E91E0D92EF60148
:1024200081916F01F70122814181608190E00E94DA
:10243000C416F3E0EF0EF11C2EECE21623E0F206D8
:1024400071F7AACF81E08093D70080EA8093D8000B
:1024500082E189BD09B400FCFDCF80E98093D800FA
:102460001092E0001092920488E08093E20084E0F1
:102470008093E20078940E9443070E9421070E9403
:102480005E071092E6041092E4040895809192048D
:102490000895909192049923E9F09FB7F8943091B0
:1024A000E400230F8093E9003091E80035FF0DC070
:1024B00013C09091E400291769F09FB7F8948093B6
:1024C000E9003091E80035FD07C09FBF909192046C
:1024D0009111EFCF81E00895442371F0FB01415049
:1024E000242F30E02F5F3F4F260F371F81918093BD
:1024F000F100E217F307D1F78AE38093E8009FBF6A
:1025000080E008951F920F920FB60F9211242F931F
:102510003F934F938F939F938091E1001092E1003E
:1025200083FF0FC01092E90091E09093EB001092AE
:10253000EC0092E09093ED0098E09093F000109200
:10254000920482FF04C08091920481110AC09F917D
:102550008F914F913F912F910F900FBE0F901F9031
:102560001895909191049F5F89E2989F812D112485
:10257000869586958695392F22E3829F30191124FE
:10258000832F311116C0109291049091E80095FFAD
:1025900012C09091E504992371F02091BC0421119F
:1025A0004AC08091920481114EC021E02093E5043D
:1025B00002C0909391049091BD04992341F28091BF
:1025C00090048F5F80939004837009F0C0CF81E006
:1025D0008093E9008091E80085FFB9CF8091BE0427
:1025E0008F5F8093BE048913B2CF1092BE04809196
:1025F0009B048093F10080919C048093F100809172
:102600009D048093F10080919E048093F10080915D
:102610009F048093F1008091A0048093F100809149
:10262000A1048093F1008091A2048093F1008AE3D9
:102630008093E8008CCF90919204911154C081E076
:102640008093E504B8CF8FB7F8943091E40094E01C
:102650009093E9009091E80095FD20C08FBF809194
:102660009204882309F4A1CF8091E400381709F47B
:102670009CCF44E00BC08FBF80919204882309F463
:1026800094CF8091E400381709F48FCF8FB7F89476
:102690004093E9009091E80095FFEDCF9091F10013
:1026A000909393049091F100909394049091F10091
:1026B000909395049091F100909396049091F1007D
:1026C000909397049091F100909398049091F10069
:1026D000909399049091F10090939A049AE39093C7
:1026E000E8008FBF63CF9FB7F8943091E40024E0F7
:1026F0002093E9002091E80025FD20C09FBF909124
:102700009204992309F49BCF9091E400931709F464
:1027100096CF44E00BC09FBF90919204992309F497
:102720008ECF9091E400391709F489CF9FB7F894C0
:102730004093E9002091E80025FFEDCF2091F100C2
:10274000209393042091F100209394042AE3209392
:10275000E8009FBF75CF1F920F920FB60F92112402
:102760002F933F934F935F936F937F938F939F9399
:10277000AF93BF93EF93FF931092E9008091E8002D
:1027800083FF38C07091F1004091F1008091F10019
:102790002091F10090E0922B2091F1005091F100F6
:1027A00030E0352B6091F100E091F10052EF509351
:1027B000E800463099F1453009F43EC1493009F44A
:1027C0007BC0483009F407C14111B5C18091E800D0
:1027D00080FFFCCF723809F484C180E08093F1005F
:1027E0001092F1008EEF8093E80007C021153105AB
:1027F00009F00AC181E28093EB00FF91EF91BF9154
:10280000AF919F918F917F916F915F914F913F9188
:102810002F910F900FBE0F901F901895811541E0DA
:10282000940709F455C18115F2E09F0709F463C1CB
:10283000811542E2940709F425C18115F1E29F0751
:1028400009F462C1811523E0920709F061C2A4E096
:10285000B0E024E048E751E0862F90E09E2B8F3FC8
:10286000910509F020F48A179B0708F4262F6EEFD4
:102870008091E8008570E1F38091E80082FDBDCF92
:10288000322F293008F41FC138E0FA01832F9491C8
:102890009093F100815031968111F9CF8FEF830F22
:1028A00090E00196480F591F231B6093E800211107
:1028B000DFCF3830E9F2A1CF71118FC0809392043D
:1028C0008EEF8093E80081E08093E900E2E4F1E09C
:1028D000E491E093EB00EE2309F463C1E3E4F1E05B
:1028E000E491E093EC00E4E4F1E0E491E093ED00A6
:1028F00025E431E082E08093E900C9010196F90105
:1029000044914093EB00442351F0FC018491809367
:10291000EC00C9010396319624912093ED0023E049
:102920002093E9009C012F5F3F4FFC0144914093AD
:10293000EB00442359F0F90124912093EC009C0111
:102940002D5F3F4F319684918093ED0084E080931A
:10295000E900C9010196F90144914093EB00442339
:1029600051F0FC0184918093EC00C90103963196EB
:1029700024912093ED0025E02093E9009C012F5F36
:102980003F4FFC0144914093EB00442359F0F9017F
:1029900024912093EC009C012D5F3F4F3196849150
:1029A0008093ED0086E08093E900C9010196F9016A
:1029B00044914093EB00442341F0FC0184918093C7
:1029C000EC00319624912093ED008EE78093EA008D
:1029D0001092EA0012CF7038D1F121153105A1F41F
:1029E000713A09F4E1C0713209F004CF4930D9F1EC
:1029F0004A3009F485C14B3009F0FCCE8093BF0406
:102A00008EEF8093E800F9CE2230310509F444C0FE
:102A10002130310509F0EECE713A09F412C171325C
:102A200009F0E8CE4B3009F465C14A3009F0E2CE36
:102A30008EEF8093E800E1CE2EEF2093E800209106
:102A4000E80020FFFCCF80688093E300D6CE809121
:102A5000E80080FFFCCF809192048093F1008EEF1C
:102A60008093E800CACE8091E80082FFFCCF80917D
:102A7000F1008093BB048BEF8093E8008EEF80938E
:102A8000E800BBCE2115310509F047C0A0E4B0E055
:102A900020E44DE752E0E0CE713A09F403C171320F
:102AA00009F0A8CE4A3021F2493009F0A3CE809136
:102AB000E80082FFFCCF8BEF8093E8008091E80074
:102AC00080FFFCCFB5CF2111E0CE6093E80095CE1A
:102AD000232B09F08FCEA2E1B0E022E14DEB52E0D2
:102AE000BBCE2093E9008091EB0085FB882780F91D
:102AF0001092E90073CE232B09F07CCEABE5B0E059
:102B00002BE54CE751E0A8CE21153105E1F5A9E010
:102B1000B0E029E04EE851E09FCE2230310509F4C3
:102B20008AC02130310509F065CEA4E8B0E024E880
:102B300049EF51E091CE542F5D7F513009F04DCFD8
:102B4000723009F04ACF009709F050CE522F5F77CC
:102B50006FEF650F663008F049CE8EEF8093E80086
:102B60005093E900433009F445CE89E18093EB00AE
:102B700081E090E001C0880F5A95EAF78093EA005F
:102B80001092EA003ACE2230310509F4ADC021306E
:102B9000310509F02FCEA9E0B0E029E047EA51E085
:102BA0005BCE23E431E0A6CE413089F04230B9F16A
:102BB000433009F01FCE8091E80080FFFCCF809168
:102BC000BF048093F1008EEF8093E80016CE8091D1
:102BD000E80080FFFCCF80919B048093F1008091FE
:102BE0009C048093F10080919D048093F10080917A
:102BF0009E048093F10080919F048093F100809166
:102C0000A0048093F1008091A1048093F100809151
:102C1000A2048093F1008EEF8093E800EECD8091C6
:102C2000E80080FFFCCF8091BD048093F1008EEF1F
:102C30008093E800E2CDA2E2B0E022E247ED51E06D
:102C40000BCE413079F0433009F0D4CD8091E800CB
:102C500080FFFCCF8091D6048093F1008EEF8093AB
:102C6000E800CBCD8091E80080FFFCCF8091C104CB
:102C70008093F1008091C2048093F1008091C3049D
:102C80008093F1008091C4048093F1008091C50489
:102C90008093F1008091C6048093F1008EEF8093C1
:102CA000E800ABCD413009F0A5CD28E03EEF8091A2
:102CB000E800982F9570D9F382FD9FCD922F29308F
:102CC00070F098E0892F1092F1008150E1F7291BF4
:102CD0003093E8002111EBCF983049F38ECD2111CC
:102CE000F1CF3093E80089CDA9E0B0E029E040ECD5
:102CF00051E0B2CD8093D6048EEF8093E8007DCD75
:102D00009093BD041092BE048EEF8093E80075CDC1
:102D1000813043E0940751F08230934009F06ACD4E
:102D2000ACE1B0E02CE140E551E096CDACE0B0E0A4
:102D30002CE04CE651E090CD3F9A08958CEFE8EE00
:102D4000F4E0DF011D928A95E9F708959C01220FB6
:102D5000331F820F931FFC01E851FB4F61830895DD
:102D60009C01220F331F820F931FFC01E851FB4F80
:102D7000608308959C01220F331F820F931FFC0173
:102D8000E851FB4F62830895FC01EE0FFF1F8E0F89
:102D90009F1FFC01E851FB4F40836183228308950C
:102DA000F89428B12F7798B19068E8EEF4E081911B
:102DB00038E098B9000000C087FF28B9880F0000EC
:102DC00000C000C000C028B900C03A9591F785E066
:102DD000E43EF80761F778940895EE0FFF1F059021
:102DE000F491E02D0994A29FB001B39FC001A39F6D
:102DF000700D811D1124911DB29F700D811D112434
:102E0000911D0895F999FECF92BD81BDF89A992739
:102E100080B50895A8E1B0E042E050E00C941717A7
:102E20000E942517272F0C942617DC01CB01FC01EB
:102E3000F999FECF06C0F2BDE1BDF89A319600B413
:102E40000D9241505040B8F70895262FF999FECFC2
:102E50001FBA92BD81BD20BD0FB6F894FA9AF99AB7
:0A2E60000FBE01960895F894FFCF0D
:102E6A001A191817161514131211100F0E0D0C0B30
:102E7A001B1C1D1E1F2021222324252627280A3633
:102E8A003534333231302F2E2D2C2B2A290937385D
:102E9A00393A3B3C3D3E3F4041424308504F4E4D3C
:102EAA004C4B4A4948474645440751525300010290
:102EBA00030405060D001D002C003C004C005C00BC
:102ECA006C007C008C009C00AB00BB00CB00DB00DC
:102EDA00EB00FB000D001D002C003C004C005C00C8
:102EEA006C007C008C009C00AB00BB00CB00DB00BC
:102EFA00FB000D00250034004400540064007400F7
:102F0A0084009400A400B300C300D300E300FB00D4
:102F1A000D00290038004800580068007800880031
:102F2A009800A800B700C700D700FB000D003000CA
:102F3A00400050006000700080009000A000AF00C8
:102F4A00BF00CF00EB00FB000D0021003400480059
:102F5A00AB00BB00CB00DB00EB00FB001010101035
:102F6A001010101010101010101010101010101057
:102F7A001010101010101010100010101000101067
:102F8A001010101010101010101010101000101047
:102F9A001010101010101010101000100020101037
:102FAA0010101010101010100020101020200020F7
:102FBA00000010000000206620101010293A3B3C47
:102FCA003D3E3F40414243444546484C351E1F2042
:102FDA00212223242526272D2E002A4A2B00141AC3
:102FEA000815171C180C12132F30314B3900041610
:102FFA0007090A0B0D0E0F333428004E00021D1B61
:10300A0006190511103637380020524D0108000400
:10301A0000002C00000040001050514F10111213F4
:10302A001415070817160B0C0D0E0F0900010203E1
:10303A000506EE222EE21053D000767200785A0F5F
:10304A0081323C9A2258AA03BBE209B9A214B257A8
:10305A0043B81872C70EDBED20EDBB18F79412F3D4
:10306A003F01EE222EE21053D000767200785A0FFA
:10307A0081323C9A2258AA03BBE209B9A214B25778
:10308A0043B81872C70EDBED20EDBB18F33F01EE13
:10309A00222ED5036FA7007766017945268E27472A
:1030AA00A1118DC802BFDB10B3672AB53A4FBA081F
:1030BA00B5DF19E1DF1EF6A114F33F01EE222ED28D
:1030CA0000768A007761077C3B3294264AA209A8D7
:1030DA00D705BCC212B25B39B7265ABE0ACFE81E60
:1030EA00E7CE1BF33F01EE222EC10076670078502F
:1030FA001A872B439E1A70B801C0E50DB6811DB31D
:10310A004C4CBA0C93D314DDEA20F79412F33F0126
:10311A00EE222EDB0963A7007761077C43B8187299
:0E312A00C70EDBED20EDBB18F79412F33F014A
:00000001FF
