:100000000C943D040C9475040C945A040C945A04FA
:100010000C945A040C945A040C945A040C945A04E8
:100020000C945A040C945A040C945A040C945A04D8
:100030000C945A040C945A040C945A040C945A04C8
:100040000C945A040C945A040C945A040C945A04B8
:100050000C945A04C10BD50BAD0BDD0BB70BCB0BBE
:10006000A30BE10BBC0BD00BA80BD90BB20BC60B2F
:100070009E0B990B850B8F0B7B0B940B800B8A0BC4
:10008000760B710B670B6C0B620B5D0B580B530BF4
:100090004E0B4A0BA50CB90C910CC10C9B0CAF0C70
:1000A000870CC50CA00CB40C8C0CBD0C960CAA0CC7
:1000B000820C7D0C690C730C5F0C780C640C6E0C5C
:1000C0005A0C550C4B0C500C460C410C3C0C370C8C
:1000D000320C2E0C6E0D6B0D680D650D620D5F0DF3
:1000E0005C0D590D560D530D500D4D0D4A0D470D1C
:1000F000440D410D3E0D3B0D380D350D320D2F0DCC
:100100002C0D290D260D230D200D1D0D1A0D170D7B
:10011000140D710D0902540003010080320904001E
:100120000001030101000921110100012240000723
:1001300005810308000A0904010001030102000906
:1001400021110100012284000705820308000A0929
:100150000402000103000000092111010001221521
:10016000000705030308000A12011001000000083F
:10017000A03296B00100010200011803760075005C
:10018000730062005F006B00650079005F0039005A
:1001900036000A037A00690061006E000403090456
:1001A0000631FF0974A1010975150026FF009508A5
:1001B00075089102C005010902A10185010901A18B
:1001C000000509190129051500250175019505810D
:1001D0000275039501810305010930093115812557
:1001E0007F75089502810609381581257F35004500
:1001F00000750895018106050C0A38021581257FD6
:10020000750895018106C0C005010980A10185021C
:10021000150126B700190129B7751095018100C095
:10022000050C0901A10185031501269C0219012A6B
:100230009C02751095018100C005010906A1017598
:10024000019508050719E029E715002501810295A8
:1002500001750881039505750105081901290591A6
:100260000295017503910395067508150026FF0098
:100270000507190029FF8100C000000001010102EB
:10028000030404050708090A0C0D0F1112141617B0
:10029000191B1D1F2122242628292B2D2E303133F6
:1002A0003435363738393A3A3B3B3C3C3C3C3C3CB5
:1002B0003D3D3E3E3F40414243444647494A4C4D06
:1002C0004F5152545658595B5D5F6062646567696F
:1002D0006A6B6D6E6F707172737474757576767605
:1002E00076767676767676767676767676767676AE
:1002F000767777777777777777777777777777778F
:10030000777778787878787878787878787878786F
:100310007878787878787879797A7A7B7B7C7D7E42
:100320007F7F80828384858687898A8B8C8E8F905D
:1003300091929495969798999A9B9C9D9D9E9F9F2C
:10034000A0A0A0A1A1A1A1A1A1A2A2A3A3A4A5A68E
:10035000A7A9AAACADAFB0B2B4B6B8BABCBEC0C261
:10036000C4C6C8CACCCED0D2D4D6D8D9DBDCDEDF66
:10037000E0E1E2E3E3E4E4E5E5E5E5E4E4E3E2E04B
:10038000DFDDDBD8D6D3D0CDCAC6C2BFBBB7B3AFD3
:10039000ABA6A29E9A95918D8985817D7A767370A0
:1003A0006D6A676563615F5E5C5B5B5A5A5A5A5956
:1003B0005958575655545351504E4C4A484644424A
:1003C0003F3D3A383633302E2B292724221F1D1B60
:1003D0001917151312100F0D0C0B0A09090808083C
:1003E00008080808080909090A0A0A0B0B0C0D0D70
:1003F0000E0E0F10101112131314151516171818CE
:10040000191A1A1B1B1C1D1D1E1E1E1F1F1F20201C
:10041000202020202020202020201F1F1F1F1F1EE3
:100420001E1E1E1D1D1D1C1C1C1B1B1A1A1A191911
:100430001918181817171716161616151515151555
:100440001414141414141414141414131313131272
:100450001212111110100F0F0E0E0D0D0C0B0B0AB6
:100460000A09080807070606050404030303020235
:1004700001010101000000000039393939393838EB
:10048000383737363635343433323231302F2E2D3B
:100490002C2B2B2A29282726252423232221202000
:1004A0001F1E1E1D1D1C1C1C1B1B1B1B1B1B1B1B8B
:1004B0001B1A1A1A191919181817161615141413C5
:1004C000121111100F0E0D0D0C0B0A09080807066A
:1004D00006050404030302020101010000000000FC
:1004E000000000000000000000000000000000000C
:1004F00000000000000000000000000000000000FC
:1005000000000000000000000000000000000000EB
:100510000000000000000101020304050607080AAC
:100520000B0D0F11131517191B1D1F212426282A27
:100530002C2E31333537383A3C3D3F404243444519
:10054000464647474848484849494A4B4C4E4F5110
:100550005356585B5D6063666A6D7074787B7F8309
:10056000868A8E9195989C9FA2A5A8ABAEB0B3B594
:10057000B7B9BBBCBDBEBFC0C0C0C0C0C0C0C0C09A
:10058000BFBFBFBFBEBEBEBEBDBDBDBCBCBBBBBB97
:10059000BABAB9B9B8B8B8B7B7B6B6B6B5B5B4B4EB
:1005A000B4B4B3B3B3B3B3B2B2B2B2B2B2B2B2B222
:1005B000B2B2B2B2B2B3B3B3B3B3B3B4B4B4B4B40B
:1005C000B5B5B5B5B6B6B6B6B7B7B7B7B7B8B8B8C4
:1005D000B8B9B9B9B9B9B9B9BABABABABABABABA84
:1005E000BABABABBBBBBBCBDBDBEBFC0C1C2C4C52D
:1005F000C6C7C9CACCCDCFD0D2D4D5D7D8DADBDDE7
:10060000DEE0E1E2E3E5E6E7E8E9EAEAEBECECEC80
:10061000EDEDEDEDEDEDECECEBEAE9E8E7E5E4E23C
:10062000E1DFDDDBD9D7D4D2D0CECBC9C6C4C2BFBF
:10063000BDBBB8B6B4B2B0AEACAAA9A7A6A5A3A2DA
:10064000A1A1A0A09F9F9F9F9F9E9D9C9B9A9997D1
:100650009593918F8D8A888582807D7A7773706D6E
:100660006A6764615E5B585552504D4B4846444240
:10067000413F3E3C3B3B3A3939F3F3F3F3F3F3F3B9
:10068000F3F3F2F2F2F2F2F2F2F1F1F1F1F1F0F051
:10069000F0F0F0EFEFEFEFEFEEEEEEEEEEEDEDED72
:1006A000EDEDEDEDECECECECECECECECECECECEC86
:1006B000ECEBEBEBEBEAEAE9E9E8E8E7E6E6E5E4B0
:1006C000E4E3E2E1E0E0DFDEDDDCDCDBDAD9D9D84F
:1006D000D7D7D6D6D5D5D4D4D3D3D3D2D2D2D2D2DB
:1006E000D2D2D1D1D0CFCECCCBC9C7C5C3C0BEBB6F
:1006F000B9B6B3B0ADA9A6A3A09C999693908C89E6
:100700008683807E7B79767472706E6D6B6A6968A1
:1007100068676767676766666565646362615F5E91
:100720005D5B5A58565553514F4D4B4947454342CF
:10073000403E3C3A3837353332302F2E2D2C2B2A81
:10074000292828272727272727272626262525243F
:1007500023232221201F1E1D1C1B1A1918171614D3
:10076000131211100F0E0D0B0A09080807060504D5
:10077000040303020202010101010101010101025E
:100780000202020303030404040505060607070822
:100790000809090A0A0B0B0C0C0D0D0E0E0F0F0F9A
:1007A0001010101111111112121212121212121233
:1007B00013131415151617181A1B1C1E1F2122249B
:1007C0002628292B2D2F31333536383A3C3E3F41F0
:1007D0004244454748494A4B4C4D4D4E4E4F4F4F72
:1007E0004F4F505152535557595B5D606366696D69
:1007F0007174787C8084898D91969A9EA2A7ABAF04
:10080000B3B7BABEC2C5C8CBCED0D2D4D6D8D9DA47
:10081000DBDCDCDCDCDCDCDCDDDDDDDEDEDFDFE008
:10082000E0E1E2E2E3E4E4E5E6E7E8E9E9EAEBEC6B
:10083000EDEDEEEFF0F0F1F2F2F3F4F4F5F5F5F69C
:10084000F6F6F7F7F7F7F7F7F7F7F7F7F7F7F7F73A
:10085000F7F7F6F6F6F6F6F6F6F6F6F6F5F5F5F53A
:10086000F5F5F5F5F4F4F4F4F4F4F4F4F4F4F3F346
:10087000F3F3F3F3F3F3F3F3F30011241FBECFE527
:10088000D8E0DEBFCDBF11E0A0E6B0E0E6EDFBE2D0
:1008900002C005900D92A038B107D9F724E0A0E876
:1008A000B1E001C01D92A931B207E1F70E94280F03
:1008B0000C94E9150C940000A82FB92F80E090E06B
:1008C00041E050EA609530E009C02D91822797956C
:1008D000879510F084279527305EC8F36F5FA8F3E3
:1008E0000895EADF8D939D930895CF93CFB7CF936B
:1008F000DF93C395839BE9F7839B0BC0839B09C060
:10090000839B07C0839B05C0839B03C0839B01C05F
:100910008EC06F93C091F003DD27C950DC4F2F9339
:1009200065E5839B03C02F916F91E6CF0F931F93D3
:100930004F9320E040E15F9300B30C7003FB27F975
:100940003F9350E03BE039C01C7040642F77012F8B
:100950005F5F1EC0406810B31C702F7752501FC0DD
:10096000406400B32F770C70D1F15F5F00C023C0EB
:10097000406210B32F771C7091F15F5F00C025C0FB
:100980000C701027515012F45D5F00001150279534
:100990002C3F10B3C8F61C700127015027952C3F3F
:1009A000C8F64227499300B30C7010274F731150BB
:1009B00027952C3FA8F64695469510B31C7079F004
:1009C0000127015027952C3F98F66B5A60F3315060
:1009D00000B3B0F600C010E41ABF00271CC03B50A3
:1009E0003195C31BD04010E41ABF0881033C21F1AC
:1009F0000B3411F12091EE031981110F1213EDCF79
:100A00004A81441F093669F10D3211F0013E29F780
:100A10004F7009F0042F0093F5033F915F914F91C0
:100A20001F910F912F916F91CAB7C6FD62CFDF91D1
:100A3000CF91CFBFCF9118952091F503222369F371
:100A40001091F3031123E9F53430EAF13093F30305
:100A50002093EF031091F0033BE0311B3093F00340
:100A600032C00091F303013064F50AE54F7049F498
:100A700030917F0134FD28C000937F01C7EDD3E0A2
:100A800027C0423049F03091E20334FD1DC000938D
:100A9000E203C3EED3E01CC030910D0434FD14C05A
:100AA00000930D04CEE0D4E013C0052710E000C091
:100AB000000002BB1AC0052710E0221F1DC010E075
:100AC00021C04AE502C032ED432FC4E1D0E032E05C
:100AD00011B31C60939A02B311BB5CE020E865E39C
:100AE00020FF052702BB279517951C3FF0F666955A
:100AF000B8F7B1F720FF052702BB279517951C3FD4
:100B0000D0F62795179517FF052700001C3F02BB5D
:100B1000B0F629913A9519F7037F1091F403110F5C
:100B2000C651D04002BB11F01093EE0310E41ABF7F
:100B3000086011B3137F402F437F54E05A95F1F7BB
:100B400002BB11BB42BB69CF80916B03811102C014
:100B500080E0089510926B03A0918301B0E0CD0175
:100B600001968F71992720918201281789F0AA0F89
:100B7000BB1FAA0FBB1FAA0FBB1FAC57BE4F98E0ED
:100B8000E4E4F3E001900D929A95E1F780938301FC
:100B90000E9483138091F603882321F08091E20361
:100BA00084FD02C081E008958091820190918301CB
:100BB0009817C1F390E0880F991F880F991F880F2D
:100BC000991F68E08C579E4F0E94371380918201D5
:100BD00090E001968F7199278093820181E00895BA
:100BE0008091780390916D03981729F180936D039C
:100BF00081E020917D0330917E03409173035091F9
:100C0000740342175307C9F030937403209373039E
:100C100020917F0330918003809176039091770338
:100C200082179307C9F0309377032093760383E00C
:100C300080938203089580E0DCCF20917F03309180
:100C4000800340917603509177034217530759F779
:100C5000882381F381E0ECCF82E0EACF80915F03CB
:100C600090914403981731F08093440381E080937E
:100C70006B0308958091600390914603981731F0BB
:100C80008093460381E080936B0308958091610314
:100C900090914703981719F080934703E7CF80910D
:100CA000620390914803981719F080934803DECFB0
:100CB0008091630390914903981719F08093490339
:100CC000D5CF8091640390914A03981719F08093CF
:100CD0004A03CCCF8091650390914B03981719F08C
:100CE00080934B03C3CF80E008958091900390914F
:100CF0008F03981721F080938F0381E0089580E09F
:100D00000895CF9380918203882381F081E08093BE
:100D100081010E94831380910D0484FD0BC080919A
:100D200081018F5F80938101823398F3C0E08C2F23
:100D3000CF910895C0918203C13089F0C230B9F0DB
:100D4000C33021F0C1E08C2FCF91089563E085E797
:100D500093E00E945D1310928203C1E0E8CF66E049
:100D60008CE693E00E945D1310928203E0CF63E073
:100D700082E793E00E945D1310928203C1E0D7CF17
:100D800080916B03882381F081E0809380010E9431
:100D900083138091E20384FD09C0809180018F5FFD
:100DA00080938001823398F380E0089580916B03F3
:100DB000811102C081E0089568E084E493E00E941C
:100DC000371310926B0381E008950E948313809182
:100DD000F603882319F08091E20384FF089580913F
:100DE0008201909183019817C9F390E0880F991FB1
:100DF000880F991F880F991F68E08C579E4F0E949B
:100E000037138091820190E001968F71992780932A
:100E1000820108958091780381112FC080917D0314
:100E200090917E03892B49F580917F0390918003F7
:100E3000892B19F58091600381111FC08091610396
:100E400081111BC080916203811117C080916303DF
:100E5000811113C08091640381110FC080916503DB
:100E600081110BC080915F03811107C081E09091D7
:100E70009003911103C080E0089581E00895CF931D
:100E8000DF938CE0E3E8F3E0DF01C82F1D92CA9501
:100E9000E9F7ECE6F3E0DF011D928A95E9F78BE0D4
:100EA000A8E7B3E0ED0119928A95E9F781E0808324
:100EB00082E0868383E08187DF91CF91089588E087
:100EC000E7E5F3E0DF01982F1D929A95E9F7E4E456
:100ED000F3E0DF011D928A95E9F7EFE5F3E08DE09D
:100EE000DF011D928A95E9F781E08087089588E007
:100EF000EFE4F3E0DF01982F1D929A95E9F7E0E027
:100F0000F3E0DF011D928A95E9F70895843031F00E
:100F100090919003892B80939003089590914403BE
:100F2000992389F190916003953391F320916103A6
:100F3000253371F330916203353351F340916303EC
:100F4000453331F350916403553311F360916503D8
:100F50006533F1F2992309F447C0222309F44AC00A
:100F6000332309F450C0442309F453C0552309F432
:100F700053C06111CDCF25E030E0F901E15AFC4FBB
:100F800095E39183C5CF90916003993209F2209146
:100F90006103293209F4BCCF30916203393209F47C
:100FA000B7CF40916303493209F4B2CF5091640343
:100FB000593209F4ADCF60916503693209F4A8CFC5
:100FC0009923A9F02223C9F03323D1F04423F1F06F
:100FD000552329F161119CCF25E030E0F901E15A58
:100FE000FC4F99E2918394CF20E030E0C6CF20E01F
:100FF00030E0F4CF21E030E0C0CF21E030E0EECFB0
:1010000022E030E0EBCF22E030E0B7CF23E030E069
:10101000E5CF23E030E0B1CF24E030E0AECF24E0F4
:1010200030E0DCCF90916003891711F120916103CA
:101030008217F1F0309162038317D1F0409163037E
:101040008417B1F050916403851791F060916503A6
:10105000681771F0992371F02223A1F03323A9F0CE
:101060004423B1F05523B9F06623C1F080E0089520
:1010700081E0089520E030E0F901E15AFC4F8183DE
:1010800081E0089521E030E0F7CF22E030E0F4CFB6
:1010900023E030E0F1CF24E030E0EECF25E030E097
:1010A000EBCFEFE5F3E09081892B80830895E8E7AB
:1010B000F3E09081892B8083089590E090937E03E4
:1010C00080937D030895982F907F9039D9F038F060
:1010D000903C91F0903E81F0903B71F008959032F9
:1010E00021F0903879F09111F9CF90E092609093CF
:1010F000800380937F03089590E090938003809312
:101100007F03089590E091609093800380937F0324
:101110000895E8E7F3E010821682158210861782A0
:10112000089586E0E0E6F3E0DF011D928A95E9F795
:1011300010925F030895CF92DF92EF92FF920F9388
:101140001F93CF93DF9380E090E00E94C115EC01E4
:1011500082E090E00E94C1158C0184E090E00E9442
:10116000C1157C0186E090E00E94C1156C0188E009
:1011700090E00E94C1152A9749F0DF91CF911F910D
:101180000F91FF90EF90DF90CF90089502311105FD
:10119000A1F721E2E216F10481F7E9E9CE16D104C4
:1011A00061F78131914049F78AE090E00E94B915DA
:1011B000809372008BE090E00E94B91580937300D9
:1011C0008CE090E00E94B915809374008DE090E06F
:1011D0000E94B915809375008EE090E00E94B915C9
:1011E000809376008FE090E00E94B915809377009D
:1011F00080E190E00E94B9158093780081E190E051
:101200000E94B9158093790082E190E00E94B9159F
:101210008093630083E190E00E94B915809364009D
:1012200084E190E00E94B9158093650085E190E02B
:101230000E94B9158093660086E190E00E94B9157E
:101240008093670087E190E00E94B9158093680061
:1012500088E190E00E94B9158093690089E190E0EF
:101260000E94B91580936A008AE190E00E94B91546
:1012700080936B008BE190E00E94B91580936C0025
:101280008CE190E00E94B91580936D008DE190E0B3
:101290000E94B91580936E008EE190E00E94B9150E
:1012A00080936F008FE190E00E94B91580937000E9
:1012B00080E290E00E94B915809371000AE710E087
:1012C000C0E0D0E0CE0181960E94B915F80180837C
:1012D000CE0182960E94B915F8018183CE018396D2
:1012E0000E94B915F8018283CE0184960E94B91537
:1012F000F8018383CE0185960E94B915F801848395
:10130000CE0186960E94B915F8018583CE01879695
:101310000E94B915F8018683CE0188960E94B915FE
:10132000F8018783CE0189960E94B915F80180875C
:10133000CE018A960E94B915F8018187CE018B965D
:101340000E94B915F8018287CE018C960E94B915CA
:10135000F8018387CE018D960E94B915F801848724
:10136000CE018E960E94B915F8018587CE018F9621
:101370000E94B915F80186872F96015F1F4FC83765
:10138000D10509F09FCF06E812E0C0E0D0E0CE0121
:1013900087569F4F0E94B915F8018083CE0186566B
:1013A0009F4F0E94B915F8018183CE0185569F4F4A
:1013B0000E94B915F8018283CE0184569F4F0E9486
:1013C000B915F8018383CE0183569F4F0E94B9154A
:1013D000F8018483CE0182569F4F0E94B915F8010F
:1013E0008583CE0181569F4F0E94B915F8018683EF
:1013F000CE0180569F4F0E94B915F8018783CE0118
:101400008F559F4F0E94B915F8018087CE018E55E8
:101410009F4F0E94B915F8018187CE018D559F4FCE
:101420000E94B915F8018287CE018C559F4F0E940A
:10143000B915F8018387CE018B559F4F0E94B915CE
:10144000F8018487CE018A559F4F0E94B915F80193
:101450008587CE0189559F4F0E94B915F80186876F
:101460002F96015F1F4FC837D10509F090CF02EFCB
:1014700010E0C0E0D0E0CE018F5E9E4F0E94B91513
:10148000F8018083CE018E5E9E4F0E94B915F8014F
:101490008183CE018D5E9E4F0E94B915F801828333
:1014A000CE018C5E9E4F0E94B915F8018383CE0158
:1014B0008B5E9E4F0E94B915F8018483CE018A5E2F
:1014C0009E4F0E94B915F8018583CE01895E9E4F1B
:1014D0000E94B915F8018683CE01885E9E4F0E9456
:1014E000B915F8018783CE01875E9E4F0E94B9151A
:1014F000F8018087CE01865E9E4F0E94B915F801E3
:101500008187CE01855E9E4F0E94B915F8018287C2
:10151000CE01845E9E4F0E94B915F8018387CE01EB
:10152000835E9E4F0E94B915F8018487CE01825ECA
:101530009E4F0E94B915F8018587CE01815E9E4FAE
:101540000E94B915F80186872F96015F1F4FC83793
:10155000D10509F090CFC8E0D3E009E811E00850C8
:101560001340C8018C0F9D1F0E94B9158993F3E0A9
:10157000C434DF07B1F785EC91E00E94B915809380
:101580009103FBCDCF93DF93683019F0DF91CF91BA
:101590000895EC0128812F3F09F45AC02091670378
:1015A0002111F4CFFC0188E0A0E0B3E0ED01199235
:1015B0008A95E9F7808180930003818180930103FC
:1015C00082818093020383818093030384818093CB
:1015D00004038581809305038681809306038781B8
:1015E00080930703C0910003D09101030E94600F14
:1015F000CF3FE3E0DE0780F0CE0102968F3FF3E0BD
:101600009F07E8F0CE0104968F3F23E0920770F029
:10161000DF91CF910C94720FE199FECF609102039C
:1016200070910303CE010E94C715E6CFE199FECF6A
:1016300060910603709107030E94C715E9CFE199F5
:10164000FECF60910403709105030E94C715DACFA5
:101650002981213F71F0223F09F0A0CF80916703DB
:10166000811194CF82E080936703DF91CF910C9436
:10167000720F80916703813009F088CF1092670361
:1016800085CF90E08032910540F4FC01E65DFF4F8C
:101690000C94A4156111D7C08F980895662309F49E
:1016A00094C08E9A0895662309F491C08D9A089586
:1016B000662309F48EC08C9A0895662309F48BC0C2
:1016C0008B9A0895662309F48AC08A9A089566233E
:1016D00009F483C0889A0895662309F482C0899A20
:1016E0000895662309F47FC0A79A0895662309F434
:1016F00082C0A69A0895662309F479C0A29A089533
:10170000662309F47CC0A49A0895662309F46DC089
:10171000A09A0895662309F470C0A59A08956623D7
:1017200009F467C0A19A0895662309F46AC0A39AD0
:101730000895662309F467C0BF9A0895662309F4E3
:1017400072C0BE9A0895662309F465C0D69A0895BA
:10175000662309F470C0BA9A0895662309F457C045
:10176000D29A0895662309F462C0BC9A089566234C
:1017700009F455C0D49A0895662309F460C0B89A54
:101780000895662309F441C0D09A0895662309F4A8
:101790004CC0BD9A0895662309F43FC0D59A0895B8
:1017A000662309F44AC0B99A0895662391F1D19A43
:1017B00008956623F1F1BB9A0895662391F1D39AB7
:1017C00008956623F1F1D79A08958E9808958D981B
:1017D00008958C9808958B980895889808958A980C
:1017E000089589980895A7980895A0980895A298B3
:1017F0000895A1980895A6980895A5980895A49885
:101800000895A3980895BF980895D0980895D29800
:101810000895D1980895D6980895D5980895D498A4
:101820000895D3980895BE980895BD980895BC98DA
:101830000895BB980895BA980895B9980895B898EE
:101840000895D79808958F9A089590E08032910571
:1018500040F4FC01E65BFF4F0C94A4156111D7C066
:1018600097980895662309F494C0969A089566237C
:1018700009F491C0959A0895662309F48EC0949A4C
:101880000895662309F48BC0939A0895662309F49A
:101890008AC0929A0895662309F483C0909A0895A5
:1018A000662309F482C0919A0895662309F47FC0E3
:1018B000AF9A0895662309F482C0AE9A089566230C
:1018C00009F479C0AA9A0895662309F47CC0AC9AF9
:1018D0000895662309F46DC0A89A0895662309F453
:1018E00070C0AD9A0895662309F467C0A99A089557
:1018F000662309F46AC0AB9A0895662309F467C0A9
:10190000C79A0895662309F472C0C69A089566239B
:1019100009F465C0DE9A0895662309F470C0C29A7E
:101920000895662309F457C0DA9A0895662309F4E6
:1019300062C0C49A0895662309F455C0DC9A0895DC
:10194000662309F460C0C09A0895662309F441C073
:10195000D89A0895662309F44CC0C59A0895662361
:1019600009F43FC0DD9A0895662309F44AC0C19A7C
:101970000895662391F1D99A08956623F1F1C39AE7
:101980000895662391F1DB9A08956623F1F1DF9AB9
:101990000895969808959598089594980895939821
:1019A0000895909808959298089591980895AF9801
:1019B0000895A8980895AA980895A9980895AE98AA
:1019C0000895AD980895AC980895AB980895C79878
:1019D0000895D8980895DA980895D9980895DE98CA
:1019E0000895DD980895DC980895DB980895C698C9
:1019F0000895C5980895C4980895C3980895C29805
:101A00000895C1980895C0980895DF980895979A09
:101A1000089590E08032910510F080E00895FC0177
:101A2000E659FF4F0C94A41580B38074089580B3D9
:101A30008072089580B38071089580B3887008958E
:101A400080B38470089580B38270089580B38170EC
:101A5000089583B38078089583B38074089583B321
:101A60008072089583B38071089583B38870089558
:101A700083B38470089583B38270089583B38170B3
:101A8000089586B38078089586B38074089586B3E8
:101A90008072089586B38071089586B38870089522
:101AA00086B38470089586B38270089586B381707A
:101AB000089589B38078089589B38074089589B3AF
:101AC0008072089589B38071089589B388700895EC
:101AD00089B38470089589B38270089589B3817041
:101AE000089580B380780895FF920F931F93CF934A
:101AF000DF938C01E7E5F3E088E0DF011D928A9532
:101B0000E9F70E9483138091F6038823D1F3809133
:101B1000E20384FFF6CF80E48093570310925903C9
:101B200068E087E593E00E9437130E948313E80181
:101B30000B5F1F4F82E6F82E0E9483138091F603FD
:101B40008823D1F38091E20384FFF6CFF09259030A
:101B50008991882319F0885A8093590368E087E5B2
:101B600093E00E9437130E9483130E948313809195
:101B7000F6038823D1F38091E20384FFF6CF10921D
:101B8000590368E087E593E00E9437130E948313AE
:101B90000C171D0789F60E9483138091F603882392
:101BA000D1F38091E20384FFF6CF10925703109295
:101BB000590368E087E593E00E943713DF91CF91E6
:101BC0001F910F91FF900C9483135F926F927F92FD
:101BD0008F929F92AF92BF92CF92DF92EF92FF923D
:101BE0000F931F93CF93DF9300D000D01F92CDB7F8
:101BF000DEB790918F0390FF06C020914C0380E2E6
:101C0000822780934C0391FF06C020914C0380E112
:101C1000822780934C03892F887093FD15C00F9005
:101C20000F900F900F900F90DF91CF911F910F9118
:101C3000FF90EF90DF90CF90BF90AF909F908F90EC
:101C40007F906F905F9008958BEC91E00E94C1159A
:101C50006C01892B09F4C3C00DEC11E0E12CF12CCF
:101C6000A7E5AA2EA3E0BA2EB8E07B2E11C0582E0D
:101C70008111B7C0FFEFEF1AFF0ACE14DF0409F499
:101C8000AEC00E5F1F4F013024E0120709F4A7C059
:101C9000C8010E94C1154C01692C992041F39C0197
:101CA000ADECBCEC0E94AA15AC0156954795569533
:101CB0004795569547959A01220F331FCA01880F01
:101CC000991F880F991F880F991F820F931FF40186
:101CD000E81BF90BED839A010E94AA15969587954A
:101CE00096958795969587959C01220F331F880FAF
:101CF000991F880F991F880F991F820F931F481BE8
:101D0000590B4C8394013695279536952795ABE76B
:101D1000B4E10E94AA15AC01569547959A01ADEC25
:101D2000BCEC0E94AA1596958795969587959695F1
:101D300087959C01220F331F880F991F880F991FC9
:101D4000880F991F820F931F481B590B4B839401D7
:101D5000369527953695279536952795A5ECB0E2CB
:101D60000E94AA15AC01529542954F7045275F70AD
:101D700045279A01ADECBCEC0E94AA159695879573
:101D800096958795969587959C01220F331F880F0E
:101D9000991F880F991F880F991F820F931F481B47
:101DA000590B4A839401329522952F7023273F7057
:101DB0002327A7E4B3E00E94AA15969587959695E8
:101DC0008795969587958983CE0101960E94740D1B
:101DD000FFEFEF1AFF0ACE14DF0409F052CF81E0C3
:101DE0001ECFF501272D11922A95E9F70E94831342
:101DF0008091F6038823D1F38091E20384FFF6CF2C
:101E000057FC23C060925703282D2F772093590346
:101E100068E087E593E00E9437130E9483130E94D5
:101E200083138091F6038823D1F38091E20384FF2A
:101E3000F6CF109257031092590368E087E593E0BC
:101E40000E9437130E94831315CFF0E26F2EDACF72
:101E50000C94081210929603E0E0F0E0ED59FF4F69
:101E600060E080810E94410BE0919603F0E0ED5923
:101E7000FF4F61E080810E94250CE0919603EF5FA7
:101E8000E0939603EF3048F3089510929603E0E054
:101E9000F0E0EE58FF4F60E080810E94410BE0913E
:101EA0009603F0E0EE58FF4F61E080810E94250C20
:101EB000E0919603EF5FE0939603E83048F30895CE
:101EC00010929603E0E0F0E0E05AFF4F61E080817D
:101ED0000E94250CE0919603EF5FE0939603E330B8
:101EE00090F3089510929603E0E0F0E0E05AFF4F7F
:101EF00060E080810E94250CE0919603EF5FE09303
:101F00009603E33090F308950E9471150E947315B3
:101F10000E94871510929603E0E0F0E0E05AFF4F30
:101F200061E080810E94410BE0919603F0E0E05A6D
:101F3000FF4F60E080810E94250CE0919603EF5FE7
:101F4000E0939603E33048F361E08CE10E94410B9B
:101F500060E08CE10E94250C80E090E19093940376
:101F6000809393030895EF92FF920F931F93CF9363
:101F7000DF931092960380E0C1E0D0E00BC060E0F8
:101F800080810E94250C809196038F5F8093960339
:101F90008330F0F4282F30E0AE0102C0440F551F0B
:101FA0008A95E2F78091660390E084239523F901F6
:101FB000E05AFF4F4817590711F761E080810E94EE
:101FC000250C809196038F5F80939603833010F3E6
:101FD00080914C0385FF32C061E08CE10E94250CAA
:101FE0008091930390919403811520E1920758F119
:101FF00080914C0384FF4EC09AE6E92E91E0F92EC1
:1020000008E013E0C0E0D0E00CC02196FFEFEF1A2B
:10201000FF0A0D5F1F4FC431D10509F43DC0809107
:102020004C038F708130F9F08111EFCFF8012281DC
:1020300041816081CE010E947B15E7CF60E08CE199
:102040000E94250CCDCF009709F037C080E090E1C9
:102050009093940380939303DF91CF911F910F91FD
:10206000FF90EF900895F701208130E0F901E758E3
:10207000F94F6491F901E758FB4F4491F901E75892
:10208000FD4F2491CE010E947B15F70180818F5F67
:102090008083BBCF0E94731580919303909194032A
:1020A00001979093940380939303DF91CF911F91B5
:1020B0000F91FF90EF900C948715019790939403E4
:1020C00080939303DF91CF911F910F91FF90EF9039
:1020D00008951F93CF93DF9310929503E0E0CFE034
:1020E0001FE0D6E0F0E0EE58FF4F61E080810E94F3
:1020F000410BE0919503F0E0EE58FF4F60E08081E6
:102100000E94250C10929703E0E008C08C9187771D
:102110008C93EF5FE0939703EF3008F5F0E0ED5913
:10212000FF4F80810E94090DE0919703A0919503D4
:10213000CA9FD0011124AE50BF4FAE0FB11D811107
:10214000E5CF8C9188688C93D09385028E3E09F7F9
:102150001093D403EF5FE0939703EF30F8F21092FF
:102160009603E0E0F0E0EE58FF4F60E080810E94CF
:10217000410BE0919603F0E0EE58FF4F61E0808163
:102180000E94250CE0919603EF5FE0939603E83000
:1021900048F3E0919503EF5FE0939503E83008F48E
:1021A000A1CF0E9491080E9489081092900310927A
:1021B000950340E0CFE01092970390E01DC0803B74
:1021C00009F4D2C008F48CC0803D09F4C1C0803F3E
:1021D00009F4B2C0803C59F426583F4FE20FF31F78
:1021E00080810E945D0840919503909197039F5FC5
:1021F000909397039F3068F5E92FF0E0C49F90011A
:102200001124D901AE50BF4FAE0FBF1F5C9180911A
:10221000D40385238F3009F4C0C088F68B3009F4CD
:1022200071C008F04AC0893009F479C08A30F9F6E3
:10223000A9014A575D4FE40FF51F80810E945108A4
:1022400040919503909197039F5F909397039F30E0
:1022500098F24F5F40939503483008F4ACCF0E944A
:102260000A07811103C080EF8093D4030E94750692
:10227000882319F083E0809384020E942E0688232D
:1022800019F083E0809384020E94F00581119EC0C2
:1022900080918502863009F4A1C0813009F4A6C07E
:1022A0009091840281119EC0992319F091509093CE
:1022B0008402DF91CF911F9108958C3009F460C0A2
:1022C0008D3009F094CFA9014A575D4FE40FF51FF7
:1022D00080810E946308409195039091970387CF76
:1022E000803909F467C0803A09F081CF26583F4F02
:1022F000E20FF31F80810E94510840919503909155
:10230000970375CFA9014A575D4FE40FF51F8081F0
:102310000E945708409195039091970368CFA901B7
:102320004A575D4FE40FF51F80810E9412084091CB
:102330009503909197035BCF26583F4FE20FF31F11
:1023400080810E94860740919503909197034FCF1B
:1023500026583F4FE20FF31F80810E94630840918F
:1023600095039091970343CF26583F4FE20FF31FF9
:1023700080810E945708409195039091970337CF31
:10238000A9014A575D4FE40FF51F80810E945D0847
:1023900040919503909197032ACFC9018A579D4F89
:1023A000E80FF91F80810E94860740919503909164
:1023B00097031DCF26583F4FE20FF31F80810E94E5
:1023C0001208409195039091970311CF83E0809379
:1023D000840280918502863009F05FCF909184025B
:1023E000913069F08150809385025ECF0E94E50DA7
:1023F0000E94C0060E9481068091850251CF0E94F2
:10240000E50D0E94C0060E9481068091850245CF9D
:102410000E94840F2FEF89E698E121508040904080
:10242000E1F700C000000E9468120E942A0F0E947B
:10243000450FC1E0D0EFC0936703C09391030E94A2
:1024400091080E9489080E949B0810929603E0E080
:10245000F0E0E05AFF4F60E080810E94250CE0919F
:102460009603EF5FE0939603E33090F360E08CE136
:102470000E94250C8091910380934C030E94731558
:102480000E948715D093D4032FEF83ED90E3215062
:1024900080409040E1F700C000000E94A4050E9427
:1024A000E50680916703823031F28130C1F70E94E6
:1024B00069108091F603882391F38091E20384FFF1
:1024C000EECF809184028111EACF0E94B30FE7CF53
:1024D00089B78E7F89BF89B78B7F89BF89B78F7B8B
:1024E00089BF8D98959A0E945E158B9A2FEF89E689
:1024F00098E1215080409040E1F700C000008B98A7
:1025000078940E945F070E943F070E94770710920D
:10251000900310928F032FEF89E698E121508040BD
:102520009040E1F700C000000895FC019093D603AD
:102530008093D50390819076903211F080E00895D9
:102540008181813069F0823099F08A3021F18930BF
:10255000A9F7828193818115924091F08FEF0895C0
:1025600084E493E09093F2038093F10388E008956C
:102570008EEF92E09093F2038093F10381E008954F
:1025800084819581892B51F78091660380688093BF
:1025900066038FEF089583818093FE0280E00895A3
:1025A000FC019091660397FD02C08FEF0895808132
:1025B0008093660381E00895FC019381923079F164
:1025C00020F1913291F09232F1F484819581813041
:1025D0009105A9F1E0F10297B1F480EA91E09093BE
:1025E000F2038093F10385E1089582818130F9F04F
:1025F000B0F1823041F488E591E09093F20380934A
:10260000F10389E0089580E008959130E1F788E6CC
:1026100091E09093F2038093F10382E1089584E1C5
:1026200091E09093F2038093F10384E508958FE3A2
:1026300091E09093F2038093F10389E0089585EB94
:1026400091E09093F2038093F10384E8089589E385
:1026500092E09093F2038093F10380E4089586E280
:1026600091E09093F2038093F10389E00895CF9372
:102670002091E2032E31C1F02091E20324FD16C027
:102680002AE52093E203FC01A4EEB3E0862F9191AA
:102690009D938150E1F7C62F84EE93E00E94710470
:1026A00064E06C0F6093E203CF9108953091E303EF
:1026B00028E823272093E303E6CFCF932091E2037A
:1026C0002E31C1F020910D0424FD16C02AE520937F
:1026D0000D04FC01AFE0B4E0862F91919D938150F1
:1026E000E1F7C62F8FE094E00E94710464E06C0F64
:1026F00060930D04CF91089530910E0428E82327AC
:1027000020930E04E6CFCF93DF936091F3036350E1
:1027100067FD17C02091F0038CE090E0821B9109C7
:10272000EC01C950DC4F8091EF03803108F494C074
:102730008D3209F495C08091FF0287FDEDC01092A3
:10274000F30380917F0184FF61C060917E016F3F40
:1027500009F45CC0693008F46BC0685060937E0176
:102760009091D70388E889278093D703CCE068E06D
:10277000A091F103B091F2038091FF0286FF8FC018
:10278000FD0184918093D80331968FEF860F09F471
:102790002DC0E491E093D903FD013296623031F10E
:1027A000E491E093DA03FD0133966330F9F0E491AC
:1027B000E093DB03FD0134966430C1F0E491E093D3
:1027C000DC03FD013596653089F0E491E093DD038B
:1027D000FD013696663051F0E491E093DE03FD0191
:1027E0003796673019F0E491E093DF0390E00196AB
:1027F000A80FB91FB093F203A093F10388ED93E003
:102800000E947104CC3021F5C0937F0194E180B324
:102810008C7059F49150D9F71092F4031092EE0392
:102820008AE58093E20380930D04DF91CF910895B0
:1028300010927E019091D70388E889278093D7036F
:10284000611196C060E088ED93E00E947104C4E0DD
:102850008FEF80937E01D8CFCE010E94C20A6FCF46
:10286000683009F06CCF83EC8093D7038AE58093BE
:102870007F011092FF029881892F807609F45BC056
:10288000CE010E9495128F3F09F069C0988197FD93
:102890009CC090E89093FF0280937E0150CF8C9172
:1028A0008093D8038FEF860F09F4A0CF11969C91E7
:1028B00011979093D903623009F498CF12969C91A6
:1028C00012979093DA03633009F490CF13969C919A
:1028D00013979093DB03643009F488CF14969C918E
:1028E00014979093DC03653009F480CF15969C9182
:1028F00015979093DD03663009F478CF16969C9176
:1029000016979093DE03673009F470CF17969C9169
:1029100017979093DF036ACFCE010E94D0128F3FAA
:1029200031F0882309F40BCF10927E0108CF8EE19D
:1029300080937F0104CF2A813C811092E00389813A
:10294000811119C09F71923009F441C01092E103C6
:1029500020EE33E082E03093F2032093F1039F8175
:1029600091119ACF9E81981708F096CF892F94CF16
:10297000C4E0C60FFDCE982F9D7F913099F0853031
:1029800009F444C0863009F447C08830D9F1893051
:1029900071F18A3041F18B3009F450C020EE33E000
:1029A00080E0D9CF2111FACF3138C1F7813009F455
:1029B00043C08EE18093E2038BE48093E303809332
:1029C0000E0420EE33E080E0C6CF8E8162CF313836
:1029D00009F0BCCF9091E20381E09E3109F080E0E4
:1029E0008093E003B3CF20EE33E081E0B4CF2093B7
:1029F000F6038AE58093E20380930D0420EE33E032
:102A000080E0A9CF26EF33E081E0A5CF2093F40347
:102A100020EE33E080E09FCF8B81813099F18230CE
:102A200049F18330E9F0813299F0823269F080E037
:102A300090E49093FF0227CF8AE5BCCF8BE480938C
:102A4000E30380930E04D5CFCE010E94DC12F0CFB9
:102A500086E291E09093F2038093F10389E0E8CF5E
:102A6000211118C08CE991E09093F2038093F10357
:102A700084E0DECF84E191E09093F2038093F10350
:102A800084E5D6CF88E691E09093F2038093F1033A
:102A900082E1CECF213051F0223049F68AE791E031
:102AA0009093F2038093F10388E1C2CF82E991E031
:102AB0009093F2038093F1038AE0BACF85B78260E6
:102AC00085BF8BB780648BBFA2EEB3E08BE4119619
:102AD0008C931197EDE0F4E081838AE58C938083F9
:102AE0000895A19A08958CE3E8E9F3E0DF011D92CF
:102AF0008A95E9F70895FC01EE0FFF1F8E0F9F1FC7
:102B0000FC01E856FC4F4083618322830895F894CA
:102B100025B32D7F95B39260E8E9F3E0819138E029
:102B200095BB000000C087FF25BB880F000000C0D8
:102B300000C000C025BB00C03A9591F783E0E43D9A
:102B4000F80761F778940895EE0FFF1F0590F49150
:102B5000E02D0994A29FB001B39FC001A39F700D07
:102B6000811D1124911DB29F700D811D1124911D95
:102B70000895E199FECF9FBB8EBBE09A99278DB354
:102B80000895A8E1B0E042E050E00C94CE150E9418
:102B9000DC15272F0C94DD15DC01CB01FC01E1993C
:102BA000FECF06C0FFBBEEBBE09A31960DB20D9290
:102BB00041505040B8F70895262FE199FECF9FBBB2
:102BC0008EBB2DBB0FB6F894E29AE19A0FBE019628
:062BD0000895F894FFCF08
:102BD60018191E000102030405060717161514131B
:102BE600121F08090A0B0C0D0E0F01080400000045
:102BF600620063588000104900021D1B0619055922
:102C06005A5B00382000460039041607090A5C5D45
:102C16005E5733340028482B141A0815175F606175
:102C260000132F303100351E1F20212253545556D4
:102C3600272D2E352A29003A3B3C3D000000000096
:102C4600424344453E231C0B112C5051524F3F2406
:102C5600180D104126120F37404C004E4B40250CE4
:102C66000E362020200000001000101020662010D4
:102C7600002010101010101010100010200010006E
:102C8600101010101010101010101010001010104E
:102C9600101010101010101000101010100010104E
:102CA600101010101010101010101010101000102E
:102CB600101010000000000010101010101010105E
:102CC60010101010101010101010101010101010FE
:102CD6002010001010101010101019324B647D9641
:102CE600AFC8E1FAE1C8AF967D644B321900FF5ACE
:00000001FF
