:100000000C943D040C9475040C945A040C945A04FA
:100010000C945A040C945A040C945A040C945A04E8
:100020000C945A040C945A040C945A040C945A04D8
:100030000C945A040C945A040C945A040C945A04C8
:100040000C945A040C945A040C945A040C945A04B8
:100050000C945A04C10BD50BAD0BDD0BB70BCB0BBE
:10006000A30BE10BBC0BD00BA80BD90BB20BC60B2F
:100070009E0B990B850B8F0B7B0B940B800B8A0BC4
:10008000760B710B670B6C0B620B5D0B580B530BF4
:100090004E0B4A0BA50CB90C910CC10C9B0CAF0C70
:1000A000870CC50CA00CB40C8C0CBD0C960CAA0CC7
:1000B000820C7D0C690C730C5F0C780C640C6E0C5C
:1000C0005A0C550C4B0C500C460C410C3C0C370C8C
:1000D000320C2E0C6E0D6B0D680D650D620D5F0DF3
:1000E0005C0D590D560D530D500D4D0D4A0D470D1C
:1000F000440D410D3E0D3B0D380D350D320D2F0DCC
:100100002C0D290D260D230D200D1D0D1A0D170D7B
:10011000140D710D0902540003010080320904001E
:100120000001030101000921110100012240000723
:1001300005810308000A0904010001030102000906
:1001400021110100012284000705820308000A0929
:100150000402000103000000092111010001221521
:10016000000705030308000A12011001000000083F
:10017000A03296B00100010200011803760075005C
:10018000730062005F006B00650079005F0039005A
:1001900036000A037A00690061006E000403090456
:1001A0000631FF0974A1010975150026FF009508A5
:1001B00075089102C005010902A10185010901A18B
:1001C000000509190129051500250175019505810D
:1001D0000275039501810305010930093115812557
:1001E0007F75089502810609381581257F35004500
:1001F00000750895018106050C0A38021581257FD6
:10020000750895018106C0C005010980A10185021C
:10021000150126B700190129B7751095018100C095
:10022000050C0901A10185031501269C0219012A6B
:100230009C02751095018100C005010906A1017598
:10024000019508050719E029E715002501810295A8
:1002500001750881039505750105081901290591A6
:100260000295017503910395067508150026FF0098
:100270000507190029FF8100C000000001010102EB
:10028000030404050708090A0C0D0F1112141617B0
:10029000191B1D1F2122242628292B2D2E303133F6
:1002A0003435363738393A3A3B3B3C3C3C3C3C3CB5
:1002B0003D3D3E3E3F40414243444647494A4C4D06
:1002C0004F5152545658595B5D5F6062646567696F
:1002D0006A6B6D6E6F707172737474757576767605
:1002E00076767676767676767676767676767676AE
:1002F000767777777777777777777777777777778F
:10030000777778787878787878787878787878786F
:100310007878787878787879797A7A7B7B7C7D7E42
:100320007F7F80828384858687898A8B8C8E8F905D
:1003300091929495969798999A9B9C9D9D9E9F9F2C
:10034000A0A0A0A1A1A1A1A1A1A2A2A3A3A4A5A68E
:10035000A7A9AAACADAFB0B2B4B6B8BABCBEC0C261
:10036000C4C6C8CACCCED0D2D4D6D8D9DBDCDEDF66
:10037000E0E1E2E3E3E4E4E5E5E5E5E4E4E3E2E04B
:10038000DFDDDBD8D6D3D0CDCAC6C2BFBBB7B3AFD3
:10039000ABA6A29E9A95918D8985817D7A767370A0
:1003A0006D6A676563615F5E5C5B5B5A5A5A5A5956
:1003B0005958575655545351504E4C4A484644424A
:1003C0003F3D3A383633302E2B292724221F1D1B60
:1003D0001917151312100F0D0C0B0A09090808083C
:1003E00008080808080909090A0A0A0B0B0C0D0D70
:1003F0000E0E0F10101112131314151516171818CE
:10040000191A1A1B1B1C1D1D1E1E1E1F1F1F20201C
:10041000202020202020202020201F1F1F1F1F1EE3
:100420001E1E1E1D1D1D1C1C1C1B1B1A1A1A191911
:100430001918181817171716161616151515151555
:100440001414141414141414141414131313131272
:100450001212111110100F0F0E0E0D0D0C0B0B0AB6
:100460000A09080807070606050404030303020235
:1004700001010101000000000039393939393838EB
:10048000383737363635343433323231302F2E2D3B
:100490002C2B2B2A29282726252423232221202000
:1004A0001F1E1E1D1D1C1C1C1B1B1B1B1B1B1B1B8B
:1004B0001B1A1A1A191919181817161615141413C5
:1004C000121111100F0E0D0D0C0B0A09080807066A
:1004D00006050404030302020101010000000000FC
:1004E000000000000000000000000000000000000C
:1004F00000000000000000000000000000000000FC
:1005000000000000000000000000000000000000EB
:100510000000000000000101020304050607080AAC
:100520000B0D0F11131517191B1D1F212426282A27
:100530002C2E31333537383A3C3D3F404243444519
:10054000464647474848484849494A4B4C4E4F5110
:100550005356585B5D6063666A6D7074787B7F8309
:10056000868A8E9195989C9FA2A5A8ABAEB0B3B594
:10057000B7B9BBBCBDBEBFC0C0C0C0C0C0C0C0C09A
:10058000BFBFBFBFBEBEBEBEBDBDBDBCBCBBBBBB97
:10059000BABAB9B9B8B8B8B7B7B6B6B6B5B5B4B4EB
:1005A000B4B4B3B3B3B3B3B2B2B2B2B2B2B2B2B222
:1005B000B2B2B2B2B2B3B3B3B3B3B3B4B4B4B4B40B
:1005C000B5B5B5B5B6B6B6B6B7B7B7B7B7B8B8B8C4
:1005D000B8B9B9B9B9B9B9B9BABABABABABABABA84
:1005E000BABABABBBBBBBCBDBDBEBFC0C1C2C4C52D
:1005F000C6C7C9CACCCDCFD0D2D4D5D7D8DADBDDE7
:10060000DEE0E1E2E3E5E6E7E8E9EAEAEBECECEC80
:10061000EDEDEDEDEDEDECECEBEAE9E8E7E5E4E23C
:10062000E1DFDDDBD9D7D4D2D0CECBC9C6C4C2BFBF
:10063000BDBBB8B6B4B2B0AEACAAA9A7A6A5A3A2DA
:10064000A1A1A0A09F9F9F9F9F9E9D9C9B9A9997D1
:100650009593918F8D8A888582807D7A7773706D6E
:100660006A6764615E5B585552504D4B4846444240
:10067000413F3E3C3B3B3A3939F3F3F3F3F3F3F3B9
:10068000F3F3F2F2F2F2F2F2F2F1F1F1F1F1F0F051
:10069000F0F0F0EFEFEFEFEFEEEEEEEEEEEDEDED72
:1006A000EDEDEDEDECECECECECECECECECECECEC86
:1006B000ECEBEBEBEBEAEAE9E9E8E8E7E6E6E5E4B0
:1006C000E4E3E2E1E0E0DFDEDDDCDCDBDAD9D9D84F
:1006D000D7D7D6D6D5D5D4D4D3D3D3D2D2D2D2D2DB
:1006E000D2D2D1D1D0CFCECCCBC9C7C5C3C0BEBB6F
:1006F000B9B6B3B0ADA9A6A3A09C999693908C89E6
:100700008683807E7B79767472706E6D6B6A6968A1
:1007100068676767676766666565646362615F5E91
:100720005D5B5A58565553514F4D4B4947454342CF
:10073000403E3C3A3837353332302F2E2D2C2B2A81
:10074000292828272727272727272626262525243F
:1007500023232221201F1E1D1C1B1A1918171614D3
:10076000131211100F0E0D0B0A09080807060504D5
:10077000040303020202010101010101010101025E
:100780000202020303030404040505060607070822
:100790000809090A0A0B0B0C0C0D0D0E0E0F0F0F9A
:1007A0001010101111111112121212121212121233
:1007B00013131415151617181A1B1C1E1F2122249B
:1007C0002628292B2D2F31333536383A3C3E3F41F0
:1007D0004244454748494A4B4C4D4D4E4E4F4F4F72
:1007E0004F4F505152535557595B5D606366696D69
:1007F0007174787C8084898D91969A9EA2A7ABAF04
:10080000B3B7BABEC2C5C8CBCED0D2D4D6D8D9DA47
:10081000DBDCDCDCDCDCDCDCDDDDDDDEDEDFDFE008
:10082000E0E1E2E2E3E4E4E5E6E7E8E9E9EAEBEC6B
:10083000EDEDEEEFF0F0F1F2F2F3F4F4F5F5F5F69C
:10084000F6F6F7F7F7F7F7F7F7F7F7F7F7F7F7F73A
:10085000F7F7F6F6F6F6F6F6F6F6F6F6F5F5F5F53A
:10086000F5F5F5F5F4F4F4F4F4F4F4F4F4F4F3F346
:10087000F3F3F3F3F3F3F3F3F30011241FBECFE527
:10088000D8E0DEBFCDBF11E0A0E6B0E0EAEFFBE2CA
:1008900002C005900D92A439B107D9F724E0A4E96C
:1008A000B1E001C01D92AD32B207E1F70E94280FFE
:1008B0000C94FB150C940000A82FB92F80E090E059
:1008C00041E050EA609530E009C02D91822797956C
:1008D000879510F084279527305EC8F36F5FA8F3E3
:1008E0000895EADF8D939D930895CF93CFB7CF936B
:1008F000DF93C395839BE9F7839B0BC0839B09C060
:10090000839B07C0839B05C0839B03C0839B01C05F
:100910008EC06F93C0910404DD27C55FDB4F2F931A
:1009200065E5839B03C02F916F91E6CF0F931F93D3
:100930004F9320E040E15F9300B30C7003FB27F975
:100940003F9350E03BE039C01C7040642F77012F8B
:100950005F5F1EC0406810B31C702F7752501FC0DD
:10096000406400B32F770C70D1F15F5F00C023C0EB
:10097000406210B32F771C7091F15F5F00C025C0FB
:100980000C701027515012F45D5F00001150279534
:100990002C3F10B3C8F61C700127015027952C3F3F
:1009A000C8F64227499300B30C7010274F731150BB
:1009B00027952C3FA8F64695469510B31C7079F004
:1009C0000127015027952C3F98F66B5A60F3315060
:1009D00000B3B0F600C010E41ABF00271CC03B50A3
:1009E0003195C31BD04010E41ABF0881033C21F1AC
:1009F0000B3411F1209102041981110F1213EDCF64
:100A00004A81441F093669F10D3211F0013E29F780
:100A10004F7009F0042F009309043F915F914F91AB
:100A20001F910F912F916F91CAB7C6FD62CFDF91D1
:100A3000CF91CFBFCF91189520910904222369F35C
:100A4000109107041123E9F53430EAF130930704DB
:100A500020930304109104043BE0311B3093040401
:100A600032C000910704013064F50AE54F7049F483
:100A70003091930134FD28C000939301CBEED3E075
:100A800027C0423049F03091F60334FD1DC0009379
:100A9000F603C7EFD3E01CC03091210434FD14C02D
:100AA00000932104C2E2D4E013C0052710E000C087
:100AB000000002BB1AC0052710E0221F1DC010E075
:100AC00021C04AE502C032ED432FC4E1D0E032E05C
:100AD00011B31C60939A02B311BB5CE020E865E39C
:100AE00020FF052702BB279517951C3FF0F666955A
:100AF000B8F7B1F720FF052702BB279517951C3FD4
:100B0000D0F62795179517FF052700001C3F02BB5D
:100B1000B0F629913A9519F7037F10910804110F47
:100B2000C651D04002BB11F01093020410E41ABF6A
:100B3000086011B3137F402F437F54E05A95F1F7BB
:100B400002BB11BB42BB69CF80917F03811102C000
:100B500080E0089510927F03A0919701B0E0CD014D
:100B600001968F71992720919601281789F0AA0F75
:100B7000BB1FAA0FBB1FAA0FBB1FA856BE4F98E0F2
:100B8000E8E5F3E001900D929A95E1F780939701E3
:100B90000E94951380910A04882321F08091F60326
:100BA00084FD02C081E008958091960190919701A3
:100BB0009817C1F390E0880F991F880F991F880F2D
:100BC000991F68E088569E4F0E94491380919601B4
:100BD00090E001968F7199278093960181E00895A6
:100BE00080918C0390918103981729F18093810360
:100BF00081E02091910330919203409187035091BD
:100C0000880342175307C9F0309388032093870362
:100C1000209193033091940380918A0390918B03E8
:100C200082179307C9F030938B0320938A0383E0E4
:100C300080939603089580E0DCCF20919303309158
:100C4000940340918A0350918B034217530759F73D
:100C5000882381F381E0ECCF82E0EACF80917303B7
:100C600090915803981731F08093580381E0809356
:100C70007F0308958091740390915A03981731F07F
:100C800080935A0381E080937F03089580917503D8
:100C900090915B03981719F080935B03E7CF8091E5
:100CA000760390915C03981719F080935C03DECF74
:100CB0008091770390915D03981719F080935D03FD
:100CC000D5CF8091780390915E03981719F08093A7
:100CD0005E03CCCF8091790390915F03981719F050
:100CE00080935F03C3CF80E008958091A403909127
:100CF000A303981721F08093A30381E0089580E077
:100D00000895CF9380919603882381F081E08093AA
:100D100095010E9495138091210484FD0BC0809160
:100D200095018F5F80939501823398F3C0E08C2FFB
:100D3000CF910895C0919603C13089F0C230B9F0C7
:100D4000C33021F0C1E08C2FCF91089563E089E892
:100D500093E00E946F1310929603C1E0E8CF66E023
:100D600080E893E00E946F1310929603E0CF63E057
:100D700086E893E00E946F1310929603C1E0D7CFEC
:100D800080917F03882381F081E0809394010E9409
:100D900095138091F60384FD09C0809194018F5FC3
:100DA00080939401823398F380E0089580917F03CB
:100DB000811102C081E0089568E088E593E00E9417
:100DC000491310927F0381E008950E94951380914A
:100DD0000A04882319F08091F60384FF0895809116
:100DE0009601909197019817C9F390E0880F991F89
:100DF000880F991F880F991F68E088569E4F0E94A0
:100E000049138091960190E001968F719927809304
:100E10009601089580918C0381112FC080919103D8
:100E200090919203892B49F58091930390919403BB
:100E3000892B19F58091740381111FC0809175036E
:100E400081111BC080917603811117C080917703B7
:100E5000811113C08091780381110FC080917903B3
:100E600081110BC080917303811107C081E09091C3
:100E7000A403911103C080E0089581E00895CF9309
:100E8000DF938CE0E7E9F3E0DF01C82F1D92CA95FC
:100E9000E9F7E0E8F3E0DF011D928A95E9F78BE0DE
:100EA000ACE8B3E0ED0119928A95E9F781E080831F
:100EB00082E0868383E08187DF91CF91089588E087
:100EC000EBE6F3E0DF01982F1D929A95E9F7E8E54C
:100ED000F3E0DF011D928A95E9F7E3E7F3E08DE0A7
:100EE000DF011D928A95E9F781E08087089588E007
:100EF000E3E6F3E0DF01982F1D929A95E9F7E4E12C
:100F0000F3E0DF011D928A95E9F70895843031F00E
:100F10009091A403892B8093A40308959091580382
:100F2000992389F190917403953391F3209175037E
:100F3000253371F330917603353351F340917703C4
:100F4000453331F350917803553311F360917903B0
:100F50006533F1F2992309F447C0222309F44AC00A
:100F6000332309F450C0442309F453C0552309F432
:100F700053C06111CDCF25E030E0F901ED58FC4FB1
:100F800095E39183C5CF90917403993209F2209132
:100F90007503293209F4BCCF30917603393209F454
:100FA000B7CF40917703493209F4B2CF509178031B
:100FB000593209F4ADCF60917903693209F4A8CFB1
:100FC0009923A9F02223C9F03323D1F04423F1F06F
:100FD000552329F161119CCF25E030E0F901ED584E
:100FE000FC4F99E2918394CF20E030E0C6CF20E01F
:100FF00030E0F4CF21E030E0C0CF21E030E0EECFB0
:1010000022E030E0EBCF22E030E0B7CF23E030E069
:10101000E5CF23E030E0B1CF24E030E0AECF24E0F4
:1010200030E0DCCF90917403891711F120917503A2
:101030008217F1F0309176038317D1F04091770356
:101040008417B1F050917803851791F0609179037E
:10105000681771F0992371F02223A1F03323A9F0CE
:101060004423B1F05523B9F06623C1F080E0089520
:1010700081E0089520E030E0F901ED58FC4F8183D4
:1010800081E0089521E030E0F7CF22E030E0F4CFB6
:1010900023E030E0F1CF24E030E0EECF25E030E097
:1010A000EBCFE3E7F3E09081892B80830895ECE8B0
:1010B000F3E09081892B8083089590E090939203D0
:1010C000809391030895982F907F9039D9F038F04C
:1010D000903C91F0903E81F0903B71F008959032F9
:1010E00021F0903879F09111F9CF90E092609093CF
:1010F000940380939303089590E0909394038093D6
:101100009303089590E091609093940380939303E8
:101110000895ECE8F3E0108216821582108617829B
:10112000089586E0E4E7F3E0DF011D928A95E9F790
:10113000109273030895CF92DF92EF92FF920F9374
:101140001F93CF93DF9380E090E00E94D315EC01D2
:1011500082E090E00E94D3158C0184E090E00E9430
:10116000D3157C0186E090E00E94D3156C0188E0E5
:1011700090E00E94D3152A9749F0DF91CF911F91FB
:101180000F91FF90EF90DF90CF90089502311105FD
:10119000A1F721E2E216F10481F7E9E9CE16D104C4
:1011A00061F78131914049F78AE090E00E94CB15C8
:1011B000809372008BE090E00E94CB1580937300C7
:1011C0008CE090E00E94CB15809374008DE090E05D
:1011D0000E94CB15809375008EE090E00E94CB15A5
:1011E000809376008FE090E00E94CB15809377008B
:1011F00080E190E00E94CB158093780081E190E03F
:101200000E94CB158093790082E190E00E94CB157B
:101210008093630083E190E00E94CB15809364008B
:1012200084E190E00E94CB158093650085E190E019
:101230000E94CB158093660086E190E00E94CB155A
:101240008093670087E190E00E94CB15809368004F
:1012500088E190E00E94CB158093690089E190E0DD
:101260000E94CB1580936A008AE190E00E94CB1522
:1012700080936B008BE190E00E94CB1580936C0013
:101280008CE190E00E94CB1580936D008DE190E0A1
:101290000E94CB1580936E008EE190E00E94CB15EA
:1012A00080936F008FE190E00E94CB1580937000D7
:1012B00080E290E00E94CB15809371000AE710E075
:1012C000C0E0D0E0CE0181960E94CB15F80180836A
:1012D000CE0182960E94CB15F8018183CE018396C0
:1012E0000E94CB15F8018283CE0184960E94CB1513
:1012F000F8018383CE0185960E94CB15F801848383
:10130000CE0186960E94CB15F8018583CE01879683
:101310000E94CB15F8018683CE0188960E94CB15DA
:10132000F8018783CE0189960E94CB15F80180874A
:10133000CE018A960E94CB15F8018187CE018B964B
:101340000E94CB15F8018287CE018C960E94CB15A6
:10135000F8018387CE018D960E94CB15F801848712
:10136000CE018E960E94CB15F8018587CE018F960F
:101370000E94CB15F80186872F96015F1F4FC83753
:10138000D10509F09FCF0AE912E0C0E0D0E0CE011C
:1013900087569F4F0E94CB15F8018083CE01865659
:1013A0009F4F0E94CB15F8018183CE0185569F4F38
:1013B0000E94CB15F8018283CE0184569F4F0E9474
:1013C000CB15F8018383CE0183569F4F0E94CB1526
:1013D000F8018483CE0182569F4F0E94CB15F801FD
:1013E0008583CE0181569F4F0E94CB15F8018683DD
:1013F000CE0180569F4F0E94CB15F8018783CE0106
:101400008F559F4F0E94CB15F8018087CE018E55D6
:101410009F4F0E94CB15F8018187CE018D559F4FBC
:101420000E94CB15F8018287CE018C559F4F0E94F8
:10143000CB15F8018387CE018B559F4F0E94CB15AA
:10144000F8018487CE018A559F4F0E94CB15F80181
:101450008587CE0189559F4F0E94CB15F80186875D
:101460002F96015F1F4FC837D10509F090CF02EFCB
:1014700010E0C0E0D0E0CE018F5E9E4F0E94CB1501
:10148000F8018083CE018E5E9E4F0E94CB15F8013D
:101490008183CE018D5E9E4F0E94CB15F801828321
:1014A000CE018C5E9E4F0E94CB15F8018383CE0146
:1014B0008B5E9E4F0E94CB15F8018483CE018A5E1D
:1014C0009E4F0E94CB15F8018583CE01895E9E4F09
:1014D0000E94CB15F8018683CE01885E9E4F0E9444
:1014E000CB15F8018783CE01875E9E4F0E94CB15F6
:1014F000F8018087CE01865E9E4F0E94CB15F801D1
:101500008187CE01855E9E4F0E94CB15F8018287B0
:10151000CE01845E9E4F0E94CB15F8018387CE01D9
:10152000835E9E4F0E94CB15F8018487CE01825EB8
:101530009E4F0E94CB15F8018587CE01815E9E4F9C
:101540000E94CB15F80186872F96015F1F4FC83781
:10155000D10509F090CFCCE1D3E009E811E00C51BE
:101560001340C8018C0F9D1F0E94CB158993F3E097
:10157000C835DF07B1F785EC91E00E94CB15809369
:10158000A503FBCDCF93DF93683019F0DF91CF91A6
:101590000895EC0128812F3F09F45AC020917B0364
:1015A0002111F4CFFC0188E0A4E1B3E0ED01199230
:1015B0008A95E9F7808180931403818180931503D4
:1015C00082818093160383818093170384818093A3
:1015D0001803858180931903868180931A0387817C
:1015E00080931B03C0911403D09115030E94600FD8
:1015F000CF3FE3E0DE0780F0CE0102968F3FF3E0BD
:101600009F07E8F0CE0104968F3F23E0920770F029
:10161000DF91CF910C94720FE199FECF6091160388
:1016200070911703CE010E94D915E6CFE199FECF44
:1016300060911A0370911B030E94D915E9CFE199BB
:10164000FECF60911803709119030E94D915DACF6B
:101650002981213F71F0223F09F0A0CF80917B03C7
:10166000811194CF82E080937B03DF91CF910C9422
:10167000720F80917B03813009F088CF10927B0339
:1016800085CF90E08032910540F4FC01E65DFF4F8C
:101690000C94B6156111D7C08F980895662309F48C
:1016A00094C08E9A0895662309F491C08D9A089586
:1016B000662309F48EC08C9A0895662309F48BC0C2
:1016C0008B9A0895662309F48AC08A9A089566233E
:1016D00009F483C0889A0895662309F482C0899A20
:1016E0000895662309F47FC0A79A0895662309F434
:1016F00082C0A69A0895662309F479C0A29A089533
:10170000662309F47CC0A49A0895662309F46DC089
:10171000A09A0895662309F470C0A59A08956623D7
:1017200009F467C0A19A0895662309F46AC0A39AD0
:101730000895662309F467C0BF9A0895662309F4E3
:1017400072C0BE9A0895662309F465C0D69A0895BA
:10175000662309F470C0BA9A0895662309F457C045
:10176000D29A0895662309F462C0BC9A089566234C
:1017700009F455C0D49A0895662309F460C0B89A54
:101780000895662309F441C0D09A0895662309F4A8
:101790004CC0BD9A0895662309F43FC0D59A0895B8
:1017A000662309F44AC0B99A0895662391F1D19A43
:1017B00008956623F1F1BB9A0895662391F1D39AB7
:1017C00008956623F1F1D79A08958E9808958D981B
:1017D00008958C9808958B980895889808958A980C
:1017E000089589980895A7980895A0980895A298B3
:1017F0000895A1980895A6980895A5980895A49885
:101800000895A3980895BF980895D0980895D29800
:101810000895D1980895D6980895D5980895D498A4
:101820000895D3980895BE980895BD980895BC98DA
:101830000895BB980895BA980895B9980895B898EE
:101840000895D79808958F9A089590E08032910571
:1018500040F4FC01E65BFF4F0C94B6156111D7C054
:1018600097980895662309F494C0969A089566237C
:1018700009F491C0959A0895662309F48EC0949A4C
:101880000895662309F48BC0939A0895662309F49A
:101890008AC0929A0895662309F483C0909A0895A5
:1018A000662309F482C0919A0895662309F47FC0E3
:1018B000AF9A0895662309F482C0AE9A089566230C
:1018C00009F479C0AA9A0895662309F47CC0AC9AF9
:1018D0000895662309F46DC0A89A0895662309F453
:1018E00070C0AD9A0895662309F467C0A99A089557
:1018F000662309F46AC0AB9A0895662309F467C0A9
:10190000C79A0895662309F472C0C69A089566239B
:1019100009F465C0DE9A0895662309F470C0C29A7E
:101920000895662309F457C0DA9A0895662309F4E6
:1019300062C0C49A0895662309F455C0DC9A0895DC
:10194000662309F460C0C09A0895662309F441C073
:10195000D89A0895662309F44CC0C59A0895662361
:1019600009F43FC0DD9A0895662309F44AC0C19A7C
:101970000895662391F1D99A08956623F1F1C39AE7
:101980000895662391F1DB9A08956623F1F1DF9AB9
:101990000895969808959598089594980895939821
:1019A0000895909808959298089591980895AF9801
:1019B0000895A8980895AA980895A9980895AE98AA
:1019C0000895AD980895AC980895AB980895C79878
:1019D0000895D8980895DA980895D9980895DE98CA
:1019E0000895DD980895DC980895DB980895C698C9
:1019F0000895C5980895C4980895C3980895C29805
:101A00000895C1980895C0980895DF980895979A09
:101A1000089590E08032910510F080E00895FC0177
:101A2000E659FF4F0C94B61580B38074089580B3C7
:101A30008072089580B38071089580B3887008958E
:101A400080B38470089580B38270089580B38170EC
:101A5000089583B38078089583B38074089583B321
:101A60008072089583B38071089583B38870089558
:101A700083B38470089583B38270089583B38170B3
:101A8000089586B38078089586B38074089586B3E8
:101A90008072089586B38071089586B38870089522
:101AA00086B38470089586B38270089586B381707A
:101AB000089589B38078089589B38074089589B3AF
:101AC0008072089589B38071089589B388700895EC
:101AD00089B38470089589B38270089589B3817041
:101AE000089580B380780895FF920F931F93CF934A
:101AF000DF938C01EBE6F3E088E0DF011D928A952D
:101B0000E9F70E94951380910A048823D1F380910C
:101B1000F60384FFF6CF80E480936B0310926D038D
:101B200068E08BE693E00E9449130E949513E80158
:101B30000B5F1F4F82E6F82E0E94951380910A04D6
:101B40008823D1F38091F60384FFF6CFF0926D03E2
:101B50008991882319F0885A80936D0368E08BE699
:101B600093E00E9449130E9495130E94951380915F
:101B70000A048823D1F38091F60384FFF6CF1092F4
:101B80006D0368E08BE693E00E9449130E94951371
:101B90000C171D0789F60E94951380910A0488236B
:101BA000D1F38091F60384FFF6CF10926B0310926D
:101BB0006D0368E08BE693E00E944913DF91CF91BB
:101BC0001F910F91FF900C9495135F926F927F92EB
:101BD0008F929F92AF92BF92CF92DF92EF92FF923D
:101BE0000F931F93CF93DF9300D000D01F92CDB7F8
:101BF000DEB79091A30390FF06C02091600380E2BE
:101C000082278093600391FF06C02091600380E1EA
:101C1000822780936003892F887093FD15C00F90F1
:101C20000F900F900F900F90DF91CF911F910F9118
:101C3000FF90EF90DF90CF90BF90AF909F908F90EC
:101C40007F906F905F9008958BEC91E00E94D31588
:101C50006C01892B09F4C3C00DEC11E0E12CF12CCF
:101C6000ABE6AA2EA3E0BA2EB8E07B2E11C0582E08
:101C70008111B7C0FFEFEF1AFF0ACE14DF0409F499
:101C8000AEC00E5F1F4F013024E0120709F4A7C059
:101C9000C8010E94D3154C01692C992041F39C0185
:101CA000ADECBCEC0E94BC15AC0156954795569521
:101CB0004795569547959A01220F331FCA01880F01
:101CC000991F880F991F880F991F820F931FF40186
:101CD000E81BF90BED839A010E94BC159695879538
:101CE00096958795969587959C01220F331F880FAF
:101CF000991F880F991F880F991F820F931F481BE8
:101D0000590B4C8394013695279536952795ABE76B
:101D1000B4E10E94BC15AC01569547959A01ADEC13
:101D2000BCEC0E94BC1596958795969587959695DF
:101D300087959C01220F331F880F991F880F991FC9
:101D4000880F991F820F931F481B590B4B839401D7
:101D5000369527953695279536952795A5ECB0E2CB
:101D60000E94BC15AC01529542954F7045275F709B
:101D700045279A01ADECBCEC0E94BC159695879561
:101D800096958795969587959C01220F331F880F0E
:101D9000991F880F991F880F991F820F931F481B47
:101DA000590B4A839401329522952F7023273F7057
:101DB0002327A7E4B3E00E94BC15969587959695D6
:101DC0008795969587958983CE0101960E94740D1B
:101DD000FFEFEF1AFF0ACE14DF0409F052CF81E0C3
:101DE0001ECFF501272D11922A95E9F70E94951330
:101DF00080910A048823D1F38091F60384FFF6CF03
:101E000057FC23C060926B03282D2F7720936D031E
:101E100068E08BE693E00E9449130E9495130E94AC
:101E2000951380910A048823D1F38091F60384FFEF
:101E3000F6CF10926B0310926D0368E08BE693E08F
:101E40000E9449130E94951315CFF0E26F2EDACF4E
:101E50000C941A121092AA03E0E0F0E0ED59FF4F43
:101E600060E080810E94410BE091AA03F0E0ED590F
:101E7000FF4F61E080810E94250CE091AA03EF5F93
:101E8000E093AA03EF3048F308951092AA03E0E02C
:101E9000F0E0EE58FF4F60E080810E94410BE0913E
:101EA000AA03F0E0EE58FF4F61E080810E94250C0C
:101EB000E091AA03EF5FE093AA03E83048F30895A6
:101EC0001092AA03E0E0F0E0E05AFF4F61E0808169
:101ED0000E94250CE091AA03EF5FE093AA03E33090
:101EE00090F308951092AA03E0E0F0E0E05AFF4F6B
:101EF00060E080810E94250CE091AA03EF5FE093EF
:101F0000AA03E33090F308950E9483150E9485157B
:101F10000E9499151092AA03E0E0F0E0E05AFF4F0A
:101F200061E080810E94410BE091AA03F0E0E05A59
:101F3000FF4F60E080810E94250CE091AA03EF5FD3
:101F4000E093AA03E33048F361E08CE10E94410B87
:101F500060E08CE10E94250C80E090E19093A80362
:101F60008093A7030895EF92FF920F931F93CF934F
:101F7000DF931092AA0380E0C1E0D0E00BC060E0E4
:101F800080810E94250C8091AA038F5F8093AA0311
:101F90008330F0F4282F30E0AE0102C0440F551F0B
:101FA0008A95E2F780917A0390E084239523F901E2
:101FB000E05AFF4F4817590711F761E080810E94EE
:101FC000250C8091AA038F5F8093AA03833010F3BE
:101FD0008091600385FF4AC061E08CE10E94250C7E
:101FE0008091A7039091A803811520E1920708F43E
:101FF00042C08091600384FF5FC00AE611E09CE16B
:10200000E92E93E0F92EC0E0D0E00FC0882309F458
:1020100041C021960E5F1F4FF3E0EF0EF11CC4315B
:10202000D10509F44BC0809160038F70813071F746
:10203000F801208131812115F2E03F0798F5F9017F
:10204000E758F94FA90147585B4F27583D4F649116
:10205000FA014491F9012491CE010E948D15F801F5
:1020600080819181019691838083D3CF60E08CE160
:102070000E94250CB5CF009791F580E090E19093F8
:10208000A8038093A703DF91CF911F910F91FF9039
:10209000EF900895F701228141816081CE010E9475
:1020A0008D15B7CFF8011182108229E732E049E798
:1020B00054E0E9E7F6E0CBCF0E9485158091A703B5
:1020C0009091A80301979093A8038093A703DF91B1
:1020D000CF911F910F91FF90EF900C94991501975C
:1020E0009093A8038093A703DF91CF911F910F9145
:1020F000FF90EF9008951F93CF93DF931092A90361
:10210000E0E0CFE01FE0D6E0F0E0EE58FF4F61E006
:1021100080810E94410BE091A903F0E0EE58FF4F4F
:1021200060E080810E94250C1092AB03E0E008C0C3
:102130008C9187778C93EF5FE093AB03EF3008F5DA
:10214000F0E0ED59FF4F80810E94090DE091AB0353
:10215000A091A903CA9FD0011124AE50BF4FAE0F6A
:10216000B11D8111E5CF8C9188688C93D093990231
:102170008E3E09F71093E803EF5FE093AB03EF3077
:10218000F8F21092AA03E0E0F0E0EE58FF4F60E0B2
:1021900080810E94410BE091AA03F0E0EE58FF4FCE
:1021A00061E080810E94250CE091AA03EF5FE0933B
:1021B000AA03E83048F3E091A903EF5FE093A90395
:1021C000E83008F4A1CF0E9491080E94890810927B
:1021D000A4031092A90340E0CFE01092AB0390E07B
:1021E0001DC0803B09F4D2C008F48CC0803D09F4C6
:1021F000C1C0803F09F4B2C0803C59F426583F4F1B
:10220000E20FF31F80810E945D084091A903909125
:10221000AB039F5F9093AB039F3068F5E92FF0E02D
:10222000C49F90011124D901AE50BF4FAE0FBF1F04
:102230005C918091E80385238F3009F4C0C088F653
:102240008B3009F471C008F04AC0893009F479C0B4
:102250008A30F9F6A90146565D4FE40FF51F8081DB
:102260000E9451084091A9039091AB039F5F909306
:10227000AB039F3098F24F5F4093A903483008F4B6
:10228000ACCF0E940A07811103C080EF8093E8035E
:102290000E947506882319F083E0809398020E94BB
:1022A0002E06882319F083E0809398020E94F0059F
:1022B00081119EC080919902863009F4A1C08130BD
:1022C00009F4A6C09091980281119EC0992319F03B
:1022D000915090939802DF91CF911F9108958C3087
:1022E00009F460C08D3009F094CFA90146565D4FC6
:1022F000E40FF51F80810E9463084091A90390912B
:10230000AB0387CF803909F467C0803A09F081CFE9
:1023100026583F4FE20FF31F80810E9451084091E1
:10232000A9039091AB0375CFA90146565D4FE40F09
:10233000F51F80810E9457084091A9039091AB033B
:1023400068CFA90146565D4FE40FF51F80810E94BA
:1023500012084091A9039091AB035BCF26583F4FE1
:10236000E20FF31F80810E9486074091A90390919C
:10237000AB034FCF26583F4FE20FF31F80810E94DF
:1023800063084091A9039091AB0343CF26583F4F78
:10239000E20FF31F80810E9457084091A90390919A
:1023A000AB0337CFA90146565D4FE40FF51F80817F
:1023B0000E945D084091A9039091AB032ACFC90107
:1023C00086569D4FE80FF91F80810E948607409135
:1023D000A9039091AB031DCF26583F4FE20FF31F87
:1023E00080810E9412084091A9039091AB0311CF04
:1023F00083E08093980280919902863009F05FCF44
:1024000090919802913069F08150809399025ECF4B
:102410000E94E50D0E94C0060E94810680919902EB
:1024200051CF0E94E50D0E94C0060E948106809156
:10243000990245CF0E94840F2FEF89E698E1215041
:1024400080409040E1F700C000000E947A120E9494
:102450002A0F0E94450FC1E0D0EFC0937B03C093C9
:10246000A5030E9491080E9489080E949B0810926F
:10247000AA03E0E0F0E0E05AFF4F60E080810E94B4
:10248000250CE091AA03EF5FE093AA03E33090F3F9
:1024900060E08CE10E94250C8091A503809360038D
:1024A0000E9485150E949915D093E8032FEF83EDC4
:1024B00090E3215080409040E1F700C000000E946E
:1024C000A4050E94E50680917B03823031F28130C1
:1024D000C1F70E947B1080910A04882391F38091B8
:1024E000F60384FFEECF809198028111EACF0E941B
:1024F000B30FE7CF89B78E7F89BF89B78B7F89BF3D
:1025000089B78F7B89BF8D98959A0E9470158B9A99
:102510002FEF89E698E1215080409040E1F700C01C
:1025200000008B9878940E945F070E943F070E94EA
:1025300077071092A4031092A3032FEF89E698E186
:10254000215080409040E1F700C000000895FC0158
:102550009093EA038093E90390819076903211F092
:1025600080E008958181813069F0823099F08A306D
:1025700021F18930A9F7828193818115924091F0F0
:102580008FEF089588E593E0909306048093050407
:1025900088E0089582E193E0909306048093050417
:1025A00081E0089584819581892B51F780917A0388
:1025B000806880937A038FEF08958381809312035C
:1025C00080E00895FC0190917A0397FD02C08FEF9F
:1025D0000895808180937A0381E00895FC019381BE
:1025E000923079F120F1913291F09232F1F48481BC
:1025F000958181309105A9F1E0F10297B1F480EA6B
:1026000091E0909306048093050485E1089582810A
:102610008130F9F0B0F1823041F488E591E0909397
:1026200006048093050489E0089580E008959130C0
:10263000E1F788E691E0909306048093050482E137
:10264000089584E191E0909306048093050484E565
:1026500008958FE391E0909306048093050489E048
:10266000089585EB91E0909306048093050484E837
:10267000089589E392E0909306048093050480E432
:10268000089586E291E0909306048093050489E022
:102690000895CF932091F6032E31C1F02091F603D7
:1026A00024FD16C02AE52093F603FC01A8EFB3E051
:1026B000862F91919D938150E1F7C62F88EF93E08B
:1026C0000E94710464E06C0F6093F603CF9108954B
:1026D0003091F70328E823272093F703E6CFCF9321
:1026E0002091F6032E31C1F02091210424FD16C063
:1026F0002AE520932104FC01A3E2B4E0862F919106
:102700009D938150E1F7C62F83E294E00E9471040B
:1027100064E06C0F60932104CF91089530912204FE
:1027200028E8232720932204E6CFCF93DF936091FC
:102730000704635067FD17C0209104048CE090E00B
:10274000821B9109EC01C55FDB4F8091030480314E
:1027500008F494C08D3209F495C08091130387FD6D
:10276000EDC0109207048091930184FF61C06091D5
:1027700092016F3F09F45CC0693008F46BC0685087
:10278000609392019091EB0388E889278093EB0393
:10279000CCE068E0A0910504B09106048091130399
:1027A00086FF8FC0FD0184918093EC0331968FEFFB
:1027B000860F09F42DC0E491E093ED03FD013296FC
:1027C000623031F1E491E093EE03FD013396633022
:1027D000F9F0E491E093EF03FD0134966430C1F029
:1027E000E491E093F003FD013596653089F0E491C2
:1027F000E093F103FD013696663051F0E491E093E9
:10280000F203FD013796673019F0E491E093F3038A
:1028100090E00196A80FB91FB0930604A093050499
:102820008CEE93E00E947104CC3021F5C0939301AB
:1028300094E180B38C7059F49150D9F71092080448
:10284000109202048AE58093F60380932104DF91BD
:10285000CF910895109292019091EB0388E8892717
:102860008093EB03611196C060E08CEE93E00E94D0
:102870007104C4E08FEF80939201D8CFCE010E9403
:10288000C20A6FCF683009F06CCF83EC8093EB0302
:102890008AE580939301109213039881892F8076A3
:1028A00009F45BC0CE010E94A7128F3F09F069C0F6
:1028B000988197FD9CC090E89093130380939201B8
:1028C00050CF8C918093EC038FEF860F09F4A0CF4B
:1028D00011969C9111979093ED03623009F498CF73
:1028E00012969C9112979093EE03633009F490CF67
:1028F00013969C9113979093EF03643009F488CF5B
:1029000014969C9114979093F003653009F480CF4E
:1029100015969C9115979093F103663009F478CF42
:1029200016969C9116979093F203673009F470CF36
:1029300017969C9117979093F3036ACFCE010E944C
:10294000E2128F3F31F0882309F40BCF10929201ED
:1029500008CF8EE18093930104CF2A813C811092AD
:10296000F4038981811119C09F71923009F441C02B
:102970001092F50324EF33E082E0309306042093B5
:1029800005049F8191119ACF9E81981708F096CFE8
:10299000892F94CFC4E0C60FFDCE982F9D7F913034
:1029A00099F0853009F444C0863009F447C0883076
:1029B000D9F1893071F18A3041F18B3009F450C07E
:1029C00024EF33E080E0D9CF2111FACF3138C1F7BD
:1029D000813009F443C08EE18093F6038BE4809349
:1029E000F7038093220424EF33E080E0C6CF8E818A
:1029F00062CF313809F0BCCF9091F60381E09E316F
:102A000009F080E08093F403B3CF24EF33E081E05A
:102A1000B4CF20930A048AE58093F60380932104BF
:102A200024EF33E080E0A9CF2AE034E081E0A5CFB5
:102A30002093080424EF33E080E09FCF8B81813026
:102A400099F1823049F18330E9F0813299F0823294
:102A500069F080E090E49093130327CF8AE5BCCF20
:102A60008BE48093F70380932204D5CFCE010E949C
:102A7000EE12F0CF86E291E0909306048093050475
:102A800089E0E8CF211118C08CE991E09093060409
:102A90008093050484E0DECF84E191E09093060406
:102AA0008093050484E5D6CF88E691E090930604F0
:102AB0008093050482E1CECF213051F0223049F6D7
:102AC0008AE791E0909306048093050488E1C2CFE1
:102AD00082E991E090930604809305048AE0BACFDE
:102AE00085B7826085BF8BB780648BBFA6EFB3E0EC
:102AF0008BE411968C931197E1E2F4E081838AE5EF
:102B00008C9380830895A19A08958CE3ECEAF3E016
:102B1000DF011D928A95E9F70895FC01EE0FFF1F72
:102B20008E0F9F1FFC01E455FC4F4083618322837D
:102B30000895F89425B32D7F95B39260ECEAF3E005
:102B4000819138E095BB000000C087FF25BB880F4E
:102B5000000000C000C000C025BB00C03A9591F73E
:102B600083E0E83EF80761F778940895EE0FFF1FC1
:102B70000590F491E02D0994A29FB001B39FC0018C
:102B8000A39F700D811D1124911DB29F700D811D99
:102B90001124911D0895E199FECF9FBB8EBBE09A51
:102BA00099278DB30895A8E1B0E042E050E00C947D
:102BB000E0150E94EE15272F0C94EF15DC01CB01D8
:102BC000FC01E199FECF06C0FFBBEEBBE09A319657
:102BD0000DB20D9241505040B8F70895262FE1995B
:102BE000FECF9FBB8EBB2DBB0FB6F894E29AE19A45
:0A2BF0000FBE01960895F894FFCF80
:102BFA0018191E00010203040506071716151413F7
:102C0A00121F08090A0B0C0D0E0F01080400000020
:102C1A00620063588000104900021D1B06190559FD
:102C2A005A5B00382000460039041607090A5C5D21
:102C3A005E5733340028482B141A0815175F606151
:102C4A0000132F303100351E1F20212253545556B0
:102C5A00272D2E352A29003A3B3C3D000000000072
:102C6A00424344453E231C0B112C5051524F3F24E2
:102C7A00180D104126120F37404C004E4B40250CC0
:102C8A000E362020200000001000101020662010B0
:102C9A00002010101010101010100010200010004A
:102CAA00101010101010101010101010001010102A
:102CBA00101010101010101000101010100010102A
:102CCA00101010101010101010101010101000100A
:102CDA00101010000000000010101010101010103A
:102CEA0010101010101010101010101010101010DA
:102CFA0020100010101010101010190032004B0094
:102D0A0064007D009600AF00C800E100FA00E1000F
:102D1A00C800AF0096007D0064004B003200190025
:042D2A000000FF5A4C
:00000001FF
