:100000000C943D040C9475040C945A040C945A04FA
:100010000C945A040C945A040C945A040C945A04E8
:100020000C945A040C945A040C945A040C945A04D8
:100030000C945A040C945A040C945A040C945A04C8
:100040000C945A040C945A040C945A040C945A04B8
:100050000C945A04080B1C0BF40A240BFE0A120B16
:10006000EA0A280B030B170BEF0A200BF90A0D0BFA
:10007000E50AE00ACC0AD60AC20ADB0AC70AD10A94
:10008000BD0AB80AAE0AB30AA90AA40A9F0A9A0AC4
:10009000950A910AEC0B000CD80B080CE20BF60B3E
:1000A000CE0B0C0CE70BFB0BD30B040CDD0BF10B95
:1000B000C90BC40BB00BBA0BA60BBF0BAB0BB50B2C
:1000C000A10B9C0B920B970B8D0B880B830B7E0B5C
:1000D000790B750BB50CB20CAF0CAC0CA90CA60CC3
:1000E000A30CA00C9D0C9A0C970C940C910C8E0CEC
:1000F0008B0C880C850C820C7F0C7C0C790C760C9C
:10010000730C700C6D0C6A0C670C640C610C5E0C4B
:100110005B0CB80C09025400030100803209040092
:100120000001030101000921110100012240000723
:1001300005810308000A0904010001030102000906
:1001400021110100012284000705820308000A0929
:100150000402000103000000092111010001221521
:10016000000705030308000A12011001000000083F
:10017000A032600101000102000118037600750041
:10018000730062005F006B00650079005F0039005A
:1001900036000A037A00690061006E000403090456
:1001A0000631FF0974A1010975150026FF009508A5
:1001B00075089102C005010902A10185010901A18B
:1001C000000509190129051500250175019505810D
:1001D0000275039501810305010930093115812557
:1001E0007F75089502810609381581257F35004500
:1001F00000750895018106050C0A38021581257FD6
:10020000750895018106C0C005010980A10185021C
:10021000150126B700190129B7751095018100C095
:10022000050C0901A10185031501269C0219012A6B
:100230009C02751095018100C005010906A1017598
:10024000019508050719E029E715002501810295A8
:1002500001750881039505750105081901290591A6
:100260000295017503910395067508150026FF0098
:100270000507190029FF8100C000000001010102EB
:10028000030404050708090A0C0D0F1112141617B0
:10029000191B1D1F2122242628292B2D2E303133F6
:1002A0003435363738393A3A3B3B3C3C3C3C3C3CB5
:1002B0003D3D3E3E3F40414243444647494A4C4D06
:1002C0004F5152545658595B5D5F6062646567696F
:1002D0006A6B6D6E6F707172737474757576767605
:1002E00076767676767676767676767676767676AE
:1002F000767777777777777777777777777777778F
:10030000777778787878787878787878787878786F
:100310007878787878787879797A7A7B7B7C7D7E42
:100320007F7F80828384858687898A8B8C8E8F905D
:1003300091929495969798999A9B9C9D9D9E9F9F2C
:10034000A0A0A0A1A1A1A1A1A1A2A2A3A3A4A5A68E
:10035000A7A9AAACADAFB0B2B4B6B8BABCBEC0C261
:10036000C4C6C8CACCCED0D2D4D6D8D9DBDCDEDF66
:10037000E0E1E2E3E3E4E4E5E5E5E5E4E4E3E2E04B
:10038000DFDDDBD8D6D3D0CDCAC6C2BFBBB7B3AFD3
:10039000ABA6A29E9A95918D8985817D7A767370A0
:1003A0006D6A676563615F5E5C5B5B5A5A5A5A5956
:1003B0005958575655545351504E4C4A484644424A
:1003C0003F3D3A383633302E2B292724221F1D1B60
:1003D0001917151312100F0D0C0B0A09090808083C
:1003E00008080808080909090A0A0A0B0B0C0D0D70
:1003F0000E0E0F10101112131314151516171818CE
:10040000191A1A1B1B1C1D1D1E1E1E1F1F1F20201C
:10041000202020202020202020201F1F1F1F1F1EE3
:100420001E1E1E1D1D1D1C1C1C1B1B1A1A1A191911
:100430001918181817171716161616151515151555
:100440001414141414141414141414131313131272
:100450001212111110100F0F0E0E0D0D0C0B0B0AB6
:100460000A09080807070606050404030303020235
:1004700001010101000000000039393939393838EB
:10048000383737363635343433323231302F2E2D3B
:100490002C2B2B2A29282726252423232221202000
:1004A0001F1E1E1D1D1C1C1C1B1B1B1B1B1B1B1B8B
:1004B0001B1A1A1A191919181817161615141413C5
:1004C000121111100F0E0D0D0C0B0A09080807066A
:1004D00006050404030302020101010000000000FC
:1004E000000000000000000000000000000000000C
:1004F00000000000000000000000000000000000FC
:1005000000000000000000000000000000000000EB
:100510000000000000000101020304050607080AAC
:100520000B0D0F11131517191B1D1F212426282A27
:100530002C2E31333537383A3C3D3F404243444519
:10054000464647474848484849494A4B4C4E4F5110
:100550005356585B5D6063666A6D7074787B7F8309
:10056000868A8E9195989C9FA2A5A8ABAEB0B3B594
:10057000B7B9BBBCBDBEBFC0C0C0C0C0C0C0C0C09A
:10058000BFBFBFBFBEBEBEBEBDBDBDBCBCBBBBBB97
:10059000BABAB9B9B8B8B8B7B7B6B6B6B5B5B4B4EB
:1005A000B4B4B3B3B3B3B3B2B2B2B2B2B2B2B2B222
:1005B000B2B2B2B2B2B3B3B3B3B3B3B4B4B4B4B40B
:1005C000B5B5B5B5B6B6B6B6B7B7B7B7B7B8B8B8C4
:1005D000B8B9B9B9B9B9B9B9BABABABABABABABA84
:1005E000BABABABBBBBBBCBDBDBEBFC0C1C2C4C52D
:1005F000C6C7C9CACCCDCFD0D2D4D5D7D8DADBDDE7
:10060000DEE0E1E2E3E5E6E7E8E9EAEAEBECECEC80
:10061000EDEDEDEDEDEDECECEBEAE9E8E7E5E4E23C
:10062000E1DFDDDBD9D7D4D2D0CECBC9C6C4C2BFBF
:10063000BDBBB8B6B4B2B0AEACAAA9A7A6A5A3A2DA
:10064000A1A1A0A09F9F9F9F9F9E9D9C9B9A9997D1
:100650009593918F8D8A888582807D7A7773706D6E
:100660006A6764615E5B585552504D4B4846444240
:10067000413F3E3C3B3B3A3939F3F3F3F3F3F3F3B9
:10068000F3F3F2F2F2F2F2F2F2F1F1F1F1F1F0F051
:10069000F0F0F0EFEFEFEFEFEEEEEEEEEEEDEDED72
:1006A000EDEDEDEDECECECECECECECECECECECEC86
:1006B000ECEBEBEBEBEAEAE9E9E8E8E7E6E6E5E4B0
:1006C000E4E3E2E1E0E0DFDEDDDCDCDBDAD9D9D84F
:1006D000D7D7D6D6D5D5D4D4D3D3D3D2D2D2D2D2DB
:1006E000D2D2D1D1D0CFCECCCBC9C7C5C3C0BEBB6F
:1006F000B9B6B3B0ADA9A6A3A09C999693908C89E6
:100700008683807E7B79767472706E6D6B6A6968A1
:1007100068676767676766666565646362615F5E91
:100720005D5B5A58565553514F4D4B4947454342CF
:10073000403E3C3A3837353332302F2E2D2C2B2A81
:10074000292828272727272727272626262525243F
:1007500023232221201F1E1D1C1B1A1918171614D3
:10076000131211100F0E0D0B0A09080807060504D5
:10077000040303020202010101010101010101025E
:100780000202020303030404040505060607070822
:100790000809090A0A0B0B0C0C0D0D0E0E0F0F0F9A
:1007A0001010101111111112121212121212121233
:1007B00013131415151617181A1B1C1E1F2122249B
:1007C0002628292B2D2F31333536383A3C3E3F41F0
:1007D0004244454748494A4B4C4D4D4E4E4F4F4F72
:1007E0004F4F505152535557595B5D606366696D69
:1007F0007174787C8084898D91969A9EA2A7ABAF04
:10080000B3B7BABEC2C5C8CBCED0D2D4D6D8D9DA47
:10081000DBDCDCDCDCDCDCDCDDDDDDDEDEDFDFE008
:10082000E0E1E2E2E3E4E4E5E6E7E8E9E9EAEBEC6B
:10083000EDEDEEEFF0F0F1F2F2F3F4F4F5F5F5F69C
:10084000F6F6F7F7F7F7F7F7F7F7F7F7F7F7F7F73A
:10085000F7F7F6F6F6F6F6F6F6F6F6F6F5F5F5F53A
:10086000F5F5F5F5F4F4F4F4F4F4F4F4F4F4F3F346
:10087000F3F3F3F3F3F3F3F3F30011241FBECFE527
:10088000D8E0DEBFCDBF11E0A0E6B0E0E4EBFBE2D4
:1008900002C005900D92A439B107D9F724E0A4E96C
:1008A000B1E001C01D92AC32B207E1F70E94F30E35
:1008B0000C94D8150C940000A82FB92F80E090E07C
:1008C00041E050EA609530E009C02D91822797956C
:1008D000879510F084279527305EC8F36F5FA8F3E3
:1008E0000895EADF8D939D930895CF93CFB7CF936B
:1008F000DF93C395839BE9F7839B0BC0839B09C060
:10090000839B07C0839B05C0839B03C0839B01C05F
:100910008EC06F93C0910304DD27C65FDB4F2F931A
:1009200065E5839B03C02F916F91E6CF0F931F93D3
:100930004F9320E040E15F9300B30C7003FB27F975
:100940003F9350E03BE039C01C7040642F77012F8B
:100950005F5F1EC0406810B31C702F7752501FC0DD
:10096000406400B32F770C70D1F15F5F00C023C0EB
:10097000406210B32F771C7091F15F5F00C025C0FB
:100980000C701027515012F45D5F00001150279534
:100990002C3F10B3C8F61C700127015027952C3F3F
:1009A000C8F64227499300B30C7010274F731150BB
:1009B00027952C3FA8F64695469510B31C7079F004
:1009C0000127015027952C3F98F66B5A60F3315060
:1009D00000B3B0F600C010E41ABF00271CC03B50A3
:1009E0003195C31BD04010E41ABF0881033C21F1AC
:1009F0000B3411F1209101041981110F1213EDCF65
:100A00004A81441F093669F10D3211F0013E29F780
:100A10004F7009F0042F009308043F915F914F91AC
:100A20001F910F912F916F91CAB7C6FD62CFDF91D1
:100A3000CF91CFBFCF91189520910804222369F35D
:100A4000109106041123E9F53430EAF130930604DD
:100A500020930204109103043BE0311B3093030404
:100A600032C000910604013064F50AE54F7049F484
:100A70003091930134FD28C000939301CAEED3E076
:100A800027C0423049F03091F50334FD1DC000937A
:100A9000F503C6EFD3E01CC03091200434FD14C030
:100AA00000932004C1E2D4E013C0052710E000C089
:100AB000000002BB1AC0052710E0221F1DC010E075
:100AC00021C04AE502C032ED432FC4E1D0E032E05C
:100AD00011B31C60939A02B311BB5CE020E865E39C
:100AE00020FF052702BB279517951C3FF0F666955A
:100AF000B8F7B1F720FF052702BB279517951C3FD4
:100B0000D0F62795179517FF052700001C3F02BB5D
:100B1000B0F629913A9519F7037F10910704110F48
:100B2000C651D04002BB11F01093010410E41ABF6B
:100B3000086011B3137F402F437F54E05A95F1F7BB
:100B400002BB11BB42BB69CF80914003811102C03F
:100B500080E0089510924003A0919601B0E0CD018D
:100B600001968F71992720919501281789F0AA0F76
:100B7000BB1FAA0FBB1FAA0FBB1FA956BE4F98E0F1
:100B8000ECE1F3E001900D929A95E1F780939601E4
:100B90000E94721380910904882321F08091F5034B
:100BA00084FD02C081E008958091950190919601A5
:100BB0009817C1F390E0880F991F880F991F880F2D
:100BC000991F68E089569E4F0E94261380919501D7
:100BD00090E001968F7199278093950181E00895A7
:100BE0008091890390917E03981729F180937E0369
:100BF00081E020918E0330918F03409184035091C6
:100C0000850342175307C9F030938503209384036B
:100C100020919003309191038091870390918803F4
:100C200082179307C9F0309388032093870383E0EA
:100C300080939303089580E0DCCF2091900330915E
:100C4000910340918703509188034217530759F746
:100C5000882381F381E0ECCF82E0EACF80913403F6
:100C600090911C039817D1F180931C0381E090911F
:100C7000350320911E03291719F090931E0381E07C
:100C80009091360320911F03291719F090931F03A9
:100C900081E09091370320912003291719F0909358
:100CA000200381E09091380320912103291719F046
:100CB0009093210381E09091390320912203291719
:100CC00079F09093220390913A0380912303981333
:100CD0009093230381E080934003089580E0C7CF81
:100CE00090913A03209123032913F2CF8111F2CF7F
:100CF0000895CF9380919303882381F081E08093BE
:100D000094010E9472138091200484FD0BC0809195
:100D100094018F5F80939401823398F3C0E08C2F0D
:100D2000CF910895C0919303C13089F0C230B9F0DA
:100D3000C33021F0C1E08C2FCF91089563E086E8A5
:100D400093E00E944C1310929303C1E0E8CF66E059
:100D50008DE793E00E944C1310929303E0CF63E081
:100D600083E893E00E944C1310929303C1E0D7CF25
:100D70000E94721380910904882319F08091F50371
:100D800084FF089580919501909196019817C9F379
:100D900090E0880F991F880F991F880F991F68E0AE
:100DA00089569E4F0E9426138091950190E00196EE
:100DB0008F719927809395010895809189038111FE
:100DC0002FC080918E0390918F03892B49F58091DC
:100DD000900390919103892B19F58091350381112E
:100DE0001FC08091360381111BC080913703811190
:100DF00017C080913803811113C08091390381118C
:100E00000FC080913A0381110BC08091340381118E
:100E100007C081E09091A003911103C080E0089584
:100E200081E00895CF93DF938CE0E4E9F3E0DF0104
:100E3000C82F1D92CA95E9F7EDE7F3E0DF011D9297
:100E40008A95E9F78BE0A9E8B3E0ED0119928A955C
:100E5000E9F781E0808382E0868383E08187DF9108
:100E6000CF91089588E0ECE2F3E0DF01982F1D9226
:100E70009A95E9F7ECE1F3E0DF011D928A95E9F735
:100E8000E4E3F3E08DE0DF011D928A95E9F781E06C
:100E90008087089588E0E4E2F3E0DF01982F1D9257
:100EA0009A95E9F7E4E1F3E0DF011D928A95E9F70D
:100EB000089590913503891711F120913603821717
:100EC000F1F0309137038317D1F040913803841744
:100ED000B1F050913903851791F060913A0368178A
:100EE00071F0992371F02223A1F03323A9F0442358
:100EF000B1F05523B9F06623C1F080E0089581E098
:100F0000089520E030E0F901EC5CFC4F818381E042
:100F1000089521E030E0F7CF22E030E0F4CF23E085
:100F200030E0F1CF24E030E0EECF25E030E0EBCF51
:100F3000E4E3F3E09081892B80830895E9E8F3E00E
:100F40009081892B8083089590E090938F03809304
:100F50008E030895982F907F9039D9F038F0903C07
:100F600091F0903E81F0903B71F00895903221F025
:100F7000903879F09111F9CF90E0926090939103BD
:100F800080939003089590E0909391038093900351
:100F9000089590E091609093910380939003089559
:100FA000E9E8F3E010821682158210861782089510
:100FB00086E0E5E3F3E0DF011D928A95E9F7109200
:100FC00034030895CF92DF92EF92FF920F931F9315
:100FD000CF93DF9380E090E00E94B015EC0182E0B7
:100FE00090E00E94B0158C0184E090E00E94B01562
:100FF0007C0186E090E00E94B0156C0188E090E0F2
:101000000E94B0152A9749F0DF91CF911F910F915F
:10101000FF90EF90DF90CF90089502311105A1F776
:1010200021E2E216F10481F7E9E9CE16D10461F775
:101030008131914049F78AE090E00E94A8158093A1
:101040009A008BE090E00E94A81580939B008CE0B2
:1010500090E00E94A81580939C008DE090E00E9493
:10106000A81580939D008EE090E00E94A8158093C3
:101070009E008FE090E00E94A81580939F0080E181
:1010800090E00E94A8158093A00081E190E00E946A
:10109000A8158093A10082E190E00E94A81580939A
:1010A0008B0083E190E00E94A81580938C0084E17E
:1010B00090E00E94A81580938D0085E190E00E9449
:1010C000A81580938E0086E190E00E94A815809379
:1010D0008F0087E190E00E94A8158093900088E13E
:1010E00090E00E94A8158093910089E190E00E9411
:1010F000A815809392008AE190E00E94A815809341
:1011000093008BE190E00E94A815809394008CE1FD
:1011100090E00E94A815809395008DE190E00E94D8
:10112000A815809396008EE190E00E94A815809308
:1011300097008FE190E00E94A8158093980080E2CC
:1011400090E00E94A8158093990002EA10E0C0E0A8
:10115000D0E0CE0181960E94A815F8018083CE01CF
:1011600082960E94A815F8018183CE0183960E9481
:10117000A815F8018283CE0184960E94A815F80173
:101180008383CE0185960E94A815F8018483CE0141
:1011900086960E94A815F8018583CE0187960E9445
:1011A000A815F8018683CE0188960E94A815F8013B
:1011B0008783CE0189960E94A815F8018087CE0109
:1011C0008A960E94A815F8018187CE018B960E940D
:1011D000A815F8018287CE018C960E94A815F80107
:1011E0008387CE018D960E94A815F8018487CE01D1
:1011F0008E960E94A815F8018587CE018F960E94D1
:10120000A815F80186872F96015F1F4FC837D105B3
:1012100009F09FCF0AE912E0C0E0D0E0CE01875686
:101220009F4F0E94A815F8018083CE0186569F4FDC
:101230000E94A815F8018183CE0185569F4F0E9418
:10124000A815F8018283CE0184569F4F0E94A815ED
:10125000F8018383CE0183569F4F0E94A815F801A1
:101260008483CE0182569F4F0E94A815F801858382
:10127000CE0181569F4F0E94A815F8018683CE01AA
:1012800080569F4F0E94A815F8018783CE018F5585
:101290009F4F0E94A815F8018087CE018E559F4F61
:1012A0000E94A815F8018187CE018D559F4F0E949D
:1012B000A815F8018287CE018C559F4F0E94A81572
:1012C000F8018387CE018B559F4F0E94A815F80126
:1012D0008487CE018A559F4F0E94A815F801858703
:1012E000CE0189559F4F0E94A815F80186872F9639
:1012F000015F1F4FC837D10509F090CF0AE111E017
:10130000C0E0D0E0CE018F5E9E4F0E94A815F8018C
:101310008083CE018E5E9E4F0E94A815F8018183C6
:10132000CE018D5E9E4F0E94A815F8018283CE01EA
:101330008C5E9E4F0E94A815F8018383CE018B5EC0
:101340009E4F0E94A815F8018483CE018A5E9E4FAD
:101350000E94A815F8018583CE01895E9E4F0E94E8
:10136000A815F8018683CE01885E9E4F0E94A815BD
:10137000F8018783CE01875E9E4F0E94A815F80171
:101380008087CE01865E9E4F0E94A815F801818756
:10139000CE01855E9E4F0E94A815F8018287CE017E
:1013A000845E9E4F0E94A815F8018387CE01835E5C
:1013B0009E4F0E94A815F8018487CE01825E9E4F41
:1013C0000E94A815F8018587CE01815E9E4F0E947C
:1013D000A815F80186872F96015F1F4FC837D105E2
:1013E00009F090CFC1E4D3E009E811E001541340C3
:1013F000C8018C0F9D1F0E94A8158993F3E0CD377B
:10140000DF07B1F785EC91E00E94A8158093A30354
:10141000FBCDCF93DF93683019F0DF91CF91089522
:10142000EC0128812F3F09F45AC020913C0321117F
:10143000F4CFFC0188E0A4E1B3E0ED0119928A95B4
:10144000E9F7808180931403818180931503828161
:1014500080931603838180931703848180931803FC
:10146000858180931903868180931A0387818093F5
:101470001B03C0911403D09115030E942B0FCF3F83
:10148000E3E0DE0780F0CE0102968F3FF3E09F0796
:10149000E8F0CE0104968F3F23E0920770F0DF91D1
:1014A000CF910C943D0FE199FECF6091160370919E
:1014B0001703CE010E94B615E6CFE199FECF6091E9
:1014C0001A0370911B030E94B615E9CFE199FECF74
:1014D00060911803709119030E94B615DACF298123
:1014E000213F71F0223F09F0A0CF80913C03811190
:1014F00094CF82E080933C03DF91CF910C943D0F19
:1015000080913C03813009F088CF10923C0385CF55
:1015100090E08032910540F4FC01E65DFF4F0C94B1
:1015200093156111D7C08F980895662309F494C06C
:101530008E9A0895662309F491C08D9A08956623C2
:1015400009F48EC08C9A0895662309F48BC08B9A97
:101550000895662309F48AC08A9A0895662309F4D7
:1015600083C0889A0895662309F482C0899A0895F1
:10157000662309F47FC0A79A0895662309F482C000
:10158000A69A0895662309F479C0A29A089566235D
:1015900009F47CC0A49A0895662309F46DC0A09A4A
:1015A0000895662309F470C0A59A0895662309F486
:1015B00067C0A19A0895662309F46AC0A39A0895A2
:1015C000662309F467C0BF9A0895662309F472C0C0
:1015D000BE9A0895662309F465C0D69A08956623D5
:1015E00009F470C0BA9A0895662309F457C0D29AD4
:1015F0000895662309F462C0BC9A0895662309F42D
:1016000055C0D49A0895662309F460C0B89A089525
:10161000662309F441C0D09A0895662309F44CC0AA
:10162000BD9A0895662309F43FC0D59A08956623AC
:1016300009F44AC0B99A0895662391F1D19A0895A0
:101640006623F1F1BB9A0895662391F1D39A089528
:101650006623F1F1D79A08958E9808958D9808958C
:101660008C9808958B980895889808958A9808957D
:1016700089980895A7980895A0980895A298089524
:10168000A1980895A6980895A5980895A4980895F6
:10169000A3980895BF980895D0980895D298089572
:1016A000D1980895D6980895D5980895D498089516
:1016B000D3980895BE980895BD980895BC9808954C
:1016C000BB980895BA980895B9980895B898089560
:1016D000D79808958F9A089590E08032910540F44C
:1016E000FC01E65BFF4F0C9493156111D7C09798EE
:1016F0000895662309F494C0969A0895662309F420
:1017000091C0959A0895662309F48EC0949A08951D
:10171000662309F48BC0939A0895662309F48AC05E
:10172000929A0895662309F483C0909A08956623D7
:1017300009F482C0919A0895662309F47FC0AF9A94
:101740000895662309F482C0AE9A0895662309F4C9
:1017500079C0AA9A0895662309F47CC0AC9A0895CA
:10176000662309F46DC0A89A0895662309F470C031
:10177000AD9A0895662309F467C0A99A089566236F
:1017800009F46AC0AB9A0895662309F467C0C79A42
:101790000895662309F472C0C69A0895662309F471
:1017A00065C0DE9A0895662309F470C0C29A089550
:1017B000662309F457C0DA9A0895662309F462C0D3
:1017C000C49A0895662309F455C0DC9A08956623E7
:1017D00009F460C0C09A0895662309F441C0D89AFC
:1017E0000895662309F44CC0C59A0895662309F448
:1017F0003FC0DD9A0895662309F44AC0C19A08954E
:10180000662391F1D99A08956623F1F1C39A089558
:10181000662391F1DB9A08956623F1F1DF9A08952A
:101820009698089595980895949808959398089592
:10183000909808959298089591980895AF98089572
:10184000A8980895AA980895A9980895AE9808951B
:10185000AD980895AC980895AB980895C7980895E9
:10186000D8980895DA980895D9980895DE9808953B
:10187000DD980895DC980895DB980895C69808953A
:10188000C5980895C4980895C3980895C298089576
:10189000C1980895C0980895DF980895979A08957B
:1018A00090E08032910510F080E00895FC01E65947
:1018B000FF4F0C94931580B38074089580B38072A9
:1018C000089580B38071089580B38870089580B3BF
:1018D0008470089580B38270089580B381700895F4
:1018E00083B38078089583B38074089583B380723E
:1018F000089583B38071089583B38870089583B386
:101900008470089583B38270089583B381700895BD
:1019100086B38078089586B38074089586B3807204
:10192000089586B38071089586B38870089586B34C
:101930008470089586B38270089586B38170089587
:1019400089B38078089589B38074089589B38072CB
:10195000089589B38071089589B38870089589B313
:101960008470089589B38270089589B38170089551
:1019700080B380780895843031F09091A003892B52
:101980008093A003089590911C03992389F190916D
:101990003503953391F320913603253371F330915C
:1019A0003703353351F340913803453331F35091C8
:1019B0003903553311F360913A036533F1F29923FA
:1019C00009F447C0222309F44AC0332309F450C064
:1019D000442309F453C0552309F453C06111CDCFFA
:1019E00025E030E0F901EC5CFC4F95E39183C5CF35
:1019F00090913503993209F220913603293209F486
:101A0000BCCF30913703393209F4B7CF4091380356
:101A1000493209F4B2CF50913903593209F4ADCFAC
:101A200060913A03693209F4A8CF9923A9F02223DF
:101A3000C9F03323D1F04423F1F0552329F161118A
:101A40009CCF25E030E0F901EC5CFC4F99E29183FA
:101A500094CF20E030E0C6CF20E030E0F4CF21E0AA
:101A600030E0C0CF21E030E0EECF22E030E0EBCF3D
:101A700022E030E0B7CF23E030E0E5CF23E030E0F4
:101A8000B1CF24E030E0AECF24E030E0DCCF809175
:101A9000A0039091A403981721F08093A40381E000
:101AA000089580E00895FF920F931F93CF93DF93E3
:101AB0008C01ECE2F3E088E0DF011D928A95E9F702
:101AC0000E947213809109048823D1F38091F50359
:101AD00084FFF6CF80E480932C0310922E0368E0FD
:101AE0008CE293E00E9426130E947213E8010B5FC0
:101AF0001F4F82E6F82E0E947213809109048823FA
:101B0000D1F38091F50384FFF6CFF0922E038991F3
:101B1000882319F0885A80932E0368E08CE293E0C2
:101B20000E9426130E9472130E947213809109046E
:101B30008823D1F38091F50384FFF6CF10922E0312
:101B400068E08CE293E00E9426130E9472130C1747
:101B50001D0789F60E947213809109048823D1F32E
:101B60008091F50384FFF6CF10922C0310922E0380
:101B700068E08CE293E00E942613DF91CF911F91E1
:101B80000F91FF900C9472135F926F927F928F92DD
:101B90009F92AF92BF92CF92DF92EF92FF920F93FC
:101BA0001F93CF93DF9300D000D01F92CDB7DEB745
:101BB0008C010E94B0156C01892B09F4C8C00E5F1E
:101BC0001F4F013024E0120708F0C1C0E12CF12CB6
:101BD000ACE2AA2EA3E0BA2EB8E07B2E11C0582E9C
:101BE0008111CAC0FFEFEF1AFF0ACE14DF0409F417
:101BF000AEC00E5F1F4F013034E0130708F0A7C0DE
:101C0000C8010E94B0154C01692C992041F39C0138
:101C1000ADECBCEC0E949915AC01569547955695D4
:101C20004795569547959A01220F331FCA01880F91
:101C3000991F880F991F880F991F820F931FF40116
:101C4000E81BF90BED839A010E94991596958795EB
:101C500096958795969587959C01220F331F880F3F
:101C6000991F880F991F880F991F820F931F481B78
:101C7000590B4C8394013695279536952795ABE7FC
:101C8000B4E10E949915AC01569547959A01ADECC7
:101C9000BCEC0E9499159695879596958795969593
:101CA00087959C01220F331F880F991F880F991F5A
:101CB000880F991F820F931F481B590B4B83940168
:101CC000369527953695279536952795A5ECB0E25C
:101CD0000E949915AC01529542954F7045275F704F
:101CE00045279A01ADECBCEC0E9499159695879515
:101CF00096958795969587959C01220F331F880F9F
:101D0000991F880F991F880F991F820F931F481BD7
:101D1000590B4A839401329522952F7023273F70E7
:101D20002327A7E4B3E00E94991596958795969589
:101D30008795969587958983CE0101960E94530DCC
:101D4000FFEFEF1AFF0ACE14DF0409F052CF0F9015
:101D50000F900F900F900F90DF91CF911F910F91E7
:101D6000FF90EF90DF90CF90BF90AF909F908F90BB
:101D70007F906F905F900895F501272D11922A951D
:101D8000E9F70E947213909109049923D1F380918D
:101D9000F50384FFF6CF57FC23C060922C03282D57
:101DA0002F7720932E0368E08CE293E00E942613A5
:101DB0000E9472130E947213909109049923D1F327
:101DC0008091F50384FFF6CF10922C0310922E031E
:101DD00068E08CE293E00E9426130E94721302CF07
:101DE000F0E26F2EDACF0C94FB111092A703E0E023
:101DF000F0E0E557FF4F60E080810E94880AE091A3
:101E0000A703F0E0E557FF4F61E080810E946C0B73
:101E1000E091A703EF5FE093A703EF3048F3089545
:101E20001092A703E0E0F0E0E656FF4F60E080810B
:101E30000E94880AE091A703F0E0E656FF4F61E0B8
:101E400080810E946C0BE091A703EF5FE093A703F2
:101E5000E83048F308951092A703E0E0F0E0E85777
:101E6000FF4F61E080810E946C0BE091A703EF5F60
:101E7000E093A703E33090F308951092A703E0E006
:101E8000F0E0E857FF4F60E080810E946C0BE0912A
:101E9000A703EF5FE093A703E33090F308950E9458
:101EA00060150E9462150E9476151092A703E0E06B
:101EB000F0E0E857FF4F61E080810E94880AE091DE
:101EC000A703F0E0E857FF4F60E080810E946C0BB1
:101ED000E091A703EF5FE093A703E33048F361E0ED
:101EE0008CE10E94880A60E08CE10E946C0B80E02B
:101EF00090E19093E7038093E6030895EF92FF92B9
:101F00000F931F93CF93DF931092A70380E0C1E05C
:101F1000D0E00BC060E080810E946C0B8091A70331
:101F20008F5F8093A7038330F0F4282F30E0AE0159
:101F300002C0440F551F8A95E2F780913B0390E061
:101F400084239523F901E857FF4F4817590711F7E4
:101F500061E080810E946C0B8091A7038F5F80936A
:101F6000A703833010F38091970280FF4AC061E09D
:101F70008CE10E946C0B8091E6039091E703811540
:101F800020E1920708F442C08091970281FF5FC070
:101F900000E610E081E4E82E83E0F82EC0E0D0E017
:101FA0000DC0882309F441C021960E5F1F4FF3E056
:101FB000EF0EF11CC431D10509F44BC08091A3038D
:101FC0008F70813071F7F801208131812115F2E0A5
:101FD0003F0798F5F901E758F94FA90147585B4FBA
:101FE00027583D4F6491FA014491F9012491CE01A3
:101FF0000E946A15F8018081918101969183808306
:10200000D3CF60E08CE10E946C0BB5CF009791F5C7
:1020100080E090E19093E7038093E603DF91CF9116
:102020001F910F91FF90EF900895F7012281418158
:102030006081CE010E946A15B7CFF801118210822B
:1020400029E732E049E754E0E9E7F6E0CBCF0E9428
:1020500062158091E6039091E70301979093E7035F
:102060008093E603DF91CF911F910F91FF90EF9046
:102070000C94761501979093E7038093E603DF9124
:10208000CF911F910F91FF90EF9008951F93CF93E1
:10209000DF931092A603E0E0CFE01FE0D6E0F0E08F
:1020A000E656FF4F61E080810E94880AE091A60316
:1020B000F0E0E656FF4F60E080810E946C0B1092CA
:1020C000A803E0E008C08C9187778C93EF5FE093E2
:1020D000A803EF3008F5F0E0E557FF4F80810E943C
:1020E000500CE091A803A091A603CA9FD00111242F
:1020F000A65EBE4FAE0FB11D8111E5CF8C918868F1
:102100008C93D09399028E3E09F71093A903EF5F49
:10211000E093A803EF30F8F21092A703E0E0F0E0BC
:10212000E656FF4F60E080810E94880AE091A70395
:10213000F0E0E656FF4F61E080810E946C0BE09179
:10214000A703EF5FE093A703E83048F3E091A6030D
:10215000EF5FE093A603E83008F4A1CF0E94D80710
:102160000E94D0071092A0031092A60340E0CFE097
:102170001092A80390E01DC0803B09F4D2C008F47F
:102180008CC0803D09F4C1C0803F09F4B2C0803CDE
:1021900059F42E553F4FE20FF31F80810E94A40790
:1021A0004091A6039091A8039F5F9093A8039F304E
:1021B00068F5E92FF0E0C49F90011124D901A65ED3
:1021C000BE4FAE0FBF1F5C918091A90385238F3056
:1021D00009F4C0C088F68B3009F471C008F04AC019
:1021E000893009F479C08A30F9F6A90146565D4F65
:1021F000E40FF51F80810E9498074091A6039091FB
:10220000A8039F5F9093A8039F3098F24F5F40937D
:10221000A603483008F4ACCF0E94DD06811103C04C
:1022200080EF8093A9030E94470D882319F083E073
:10223000809398020E942E06882319F083E08093F1
:1022400098020E94F00581119EC08091990286300B
:1022500009F4A1C0813009F4A6C0909198028111BF
:102260009EC0992319F0915090939802DF91CF91DD
:102270001F9108958C3009F460C08D3009F094CF1F
:10228000A90146565D4FE40FF51F80810E94AA0701
:102290004091A6039091A80387CF803909F467C0C5
:1022A000803A09F081CF2E553F4FE20FF31F808116
:1022B0000E9498074091A6039091A80375CFA901A9
:1022C00046565D4FE40FF51F80810E949E074091A6
:1022D000A6039091A80368CFA90146565D4FE40F6D
:1022E000F51F80810E9459074091A6039091A80391
:1022F0005BCF2E553F4FE20FF31F80810E94BB0C36
:102300004091A6039091A8034FCF2E553F4FE20F67
:10231000F31F80810E94AA074091A6039091A80311
:1023200043CF2E553F4FE20FF31F80810E949E073F
:102330004091A6039091A80337CFA90146565D4F5F
:10234000E40FF51F80810E94A4074091A60390919D
:10235000A8032ACFC90186569D4FE80FF91F808137
:102360000E94BB0C4091A6039091A8031DCF2E554F
:102370003F4FE20FF31F80810E9459074091A6034F
:102380009091A80311CF83E08093980280919902E5
:10239000863009F05FCF909198029130C1F0815062
:1023A000809399025ECF9091A40380919702892730
:1023B0008093970293FF04C08BEC91E00E94C40DC0
:1023C0000E94A4050E9479068091990246CF9091BF
:1023D000A4038091970289278093970293FF04C0FA
:1023E0008BEC91E00E94C40D0E94A4050E94790626
:1023F000809199022FCF0E944F0F2FEF83ED90E332
:10240000215080409040E1F700C000000E945F1220
:102410000E94F50E0E94100FD1E012E0C0EFD093A1
:102420003C030E94D8070E94D0070E94E207109246
:10243000A703E0E0F0E0E857FF4F60E080810E94F2
:102440006C0BE091A703EF5FE093A703E33090F3F9
:1024500060E08CE10E946C0B109297028091A303C4
:10246000807F803111F4109397020E9462150E94C0
:102470007615C093A9032FEF89E698E1215080409B
:102480009040E1F700C000000E94A4050E94B80639
:1024900080913C03823019F28130C1F70E944610CE
:1024A00080910904882391F38091F50384FFEECF96
:1024B000809198028111EACF0E947E0FE7CF89B701
:1024C0008E7F89BF89B78B7F89BF89B78F7B89BF93
:1024D0008D98959A0E944D158B9A8FEFA895EFE9EC
:1024E000FFE03197F1F700C000008150B9F78B98F9
:1024F00078940E9432070E9412070E944A071092A5
:10250000A0031092A4030895FC019093E903809323
:10251000E80390819076903211F080E008958181F7
:10252000813069F0823099F08A3021F18930A9F741
:10253000828193818115924091F08FEF08958CE113
:1025400093E0909305048093040488E0089582E169
:1025500093E0909305048093040481E008958481BE
:102560009581892B51F780913B03806880933B03D1
:102570008FEF089583818093120380E00895FC011A
:1025800090913B0397FD02C08FEF08958081809367
:102590003B0381E00895FC019381923079F120F1B1
:1025A000913291F09232F1F48481958181309105DC
:1025B000A9F1E0F10297B1F480EA91E0909305046B
:1025C0008093040485E1089582818130F9F0B0F1AF
:1025D000823041F488E591E09093050480930404EF
:1025E00089E0089580E008959130E1F788E691E070
:1025F000909305048093040482E1089584E191E0BE
:10260000909305048093040484E508958FE391E09A
:10261000909305048093040489E0089585EB91E08C
:10262000909305048093040484E8089589E392E07C
:10263000909305048093040480E4089586E291E079
:10264000909305048093040489E00895CF9320912A
:10265000F5032E31C1F02091F50324FD16C02AE5C3
:102660002093F503FC01A7EFB3E0862F91919D9392
:102670008150E1F7C62F87EF93E00E94710464E078
:102680006C0F6093F503CF9108953091F60328E81D
:1026900023272093F603E6CFCF932091F5032E3125
:1026A000C1F02091200424FD16C02AE520932004C7
:1026B000FC01A2E2B4E0862F91919D938150E1F755
:1026C000C62F82E294E00E94710464E06C0F609374
:1026D0002004CF9108953091210428E823272093E6
:1026E0002104E6CFCF93DF9360910604635067FD2A
:1026F00017C0209103048CE090E0821B9109EC014B
:10270000C65FDB4F80910204803108F494C08D32A3
:1027100009F495C08091130387FDEDC01092060463
:102720008091930184FF61C0609192016F3F09F431
:102730005CC0693008F46BC068506093920190915E
:10274000EA0388E889278093EA03CCE068E0A09157
:102750000404B09105048091130386FF8FC0FD012E
:1027600084918093EB0331968FEF860F09F42DC08F
:10277000E491E093EC03FD013296623031F1E49193
:10278000E093ED03FD0133966330F9F0E491E093BB
:10279000EE03FD0134966430C1F0E491E093EF0361
:1027A000FD013596653089F0E491E093F003FD0179
:1027B0003696663051F0E491E093F103FD013796CF
:1027C000673019F0E491E093F20390E00196A80FCE
:1027D000B91FB0930504A09304048BEE93E00E940C
:1027E0007104CC3021F5C093930194E180B38C70D7
:1027F00059F49150D9F710920704109201048AE518
:102800008093F50380932004DF91CF910895109277
:1028100092019091EA0388E889278093EA03611185
:1028200096C060E08BEE93E00E947104C4E08FEFED
:1028300080939201D8CFCE010E94090A6FCF6830F1
:1028400009F06CCF83EC8093EA038AE580939301CF
:10285000109213039881892F807609F45BC0CE0112
:102860000E9484128F3F09F069C0988197FD9CC037
:1028700090E8909313038093920150CF8C918093B2
:10288000EB038FEF860F09F4A0CF11969C9111975F
:102890009093EC03623009F498CF12969C911297B2
:1028A0009093ED03633009F490CF13969C911397A6
:1028B0009093EE03643009F488CF14969C9114979A
:1028C0009093EF03653009F480CF15969C9115978E
:1028D0009093F003663009F478CF16969C91169782
:1028E0009093F103673009F470CF17969C91179776
:1028F0009093F2036ACFCE010E94BF128F3F31F056
:10290000882309F40BCF1092920108CF8EE18093B7
:10291000930104CF2A813C811092F30389818111B4
:1029200019C09F71923009F441C01092F40323EF53
:1029300033E082E030930504209304049F819111D9
:102940009ACF9E81981708F096CF892F94CFC4E034
:10295000C60FFDCE982F9D7F913099F0853009F4F8
:1029600044C0863009F447C08830D9F1893071F10C
:102970008A3041F18B3009F450C023EF33E080E01E
:10298000D9CF2111FACF3138C1F7813009F443C0D2
:102990008EE18093F5038BE48093F603809321040A
:1029A00023EF33E080E0C6CF8E8162CF313809F06B
:1029B000BCCF9091F50381E09E3109F080E08093D7
:1029C000F303B3CF23EF33E081E0B4CF20930904C6
:1029D0008AE58093F5038093200423EF33E080E0C1
:1029E000A9CF29E034E081E0A5CF2093070423EFAD
:1029F00033E080E09FCF8B81813099F1823049F1C3
:102A00008330E9F0813299F0823269F080E090E41D
:102A10009093130327CF8AE5BCCF8BE48093F60312
:102A200080932104D5CFCE010E94CB12F0CF86E255
:102A300091E0909305048093040489E0E8CF21118C
:102A400018C08CE991E0909305048093040484E01D
:102A5000DECF84E191E0909305048093040484E543
:102A6000D6CF88E691E0909305048093040482E138
:102A7000CECF213051F0223049F68AE791E0909391
:102A800005048093040488E1C2CF82E991E0909329
:102A90000504809304048AE0BACF85B7826085BFBD
:102AA0008BB780648BBFA5EFB3E08BE411968C935A
:102AB0001197E0E2F4E081838AE58C9380830895A6
:102AC000A19A08958CE3EAEAF3E0DF011D928A956A
:102AD000E9F70895FC01EE0FFF1F8E0F9F1FFC0109
:102AE000E655FC4F4083618322830895F89425B313
:102AF0002D7F95B39260EAEAF3E0819138E095BBCF
:102B0000000000C087FF25BB880F000000C000C088
:102B100000C025BB00C03A9591F783E0E63EF80778
:102B200061F778940895EE0FFF1F0590F491E02D62
:102B30000994A29FB001B39FC001A39F700D811D96
:102B40001124911DB29F700D811D1124911D0895B6
:102B5000E199FECF9FBB8EBBE09A99278DB3089574
:102B6000A8E1B0E042E050E00C94BD150E94CB1506
:102B7000272F0C94CC15DC01CB01FC01E199FECF91
:102B800006C0FFBBEEBBE09A31960DB20D924150EC
:102B90005040B8F70895262FE199FECF9FBB8EBB1A
:102BA0002DBB0FB6F894E29AE19A0FBE01960895F4
:042BB000F894FFCFC7
:102BB400190032004B0064007D009600AF00C8008D
:102BC400E100FA00E100C800AF0096007D00640057
:102BD4004B0032001900000018191E000102030402
:102BE4000506071716151413121F08090A0B0C0DF6
:102BF4000E0F0108040000006200635880001049B1
:102C040000021D1B061905595A5B003820004600B6
:102C140039041607090A5C5D5E5733340028482BD3
:102C2400141A0815175F606100132F303100351E28
:102C34001F20212253545556272D2E352A29003A78
:102C44003B3C3D0000000000424344453E231C0B36
:102C5400112C5051524F3F24180D104126120F379A
:102C6400404C004E4B40250C0E3620202000000026
:102C740010001010206620100020101010101010EA
:102C84001010001020001000101010101010101060
:102C94001010101000101010101010101010101040
:102CA4000010101010001010101010101010101040
:102CB4001010101010100010101010000000000070
:102CC4001010101010101010101010101010101000
:102CD40010101010101010102010001010101010F0
:042CE4001010FF5A73
:00000001FF
